S01200002E2E2F48382D526F626F742E733139A4
S32D0000C000000000205DC2000011C3000017C300001DC3000023C3000029C3000000000000000000000000000073
S32D0000C028000000002FC3000035C30000000000003BC3000041C30000DDDD0000E9DD0000F5DD000001DE0000CD
S32D0000C0500DDE000019DE000025DE000031DE00003DDE000049DE000055DE000061DE00006DDE000079DE000078
S32D0000C07885DE000091DE00009DDE0000A9DE0000B5DE0000C1DE0000CDDE0000D9DE0000E5DE0000F1DE0000A0
S32D0000C0A0FDDE000009DF000015DF000021DF00002DDF000039DF000045DF000051DF00005DDF000069DF0000BF
S32D0000C0C875DF000081DF00008DDF000099DF0000A5DF0000B1DF0000BDDF0000C9DF0000D5DF0000E1DF0000E6
S32D0000C0F0EDDF0000492C0100F9DF000005E0000011E000001DE0000029E0000035E0000041E000004DE00000C9
S32D0000C11859E0000065E0000071E000007DE0000089E0000095E00000A1E00000ADE00000B9E00000C5E00000A3
S32D0000C140D1E00000DDE00000E9E00000F5E00000010C010001E100000DE1000019E1000025E1000031E10000D5
S32D0000C1683DE1000049E1000055E1000061E100006DE1000079E1000085E1000091E100009DE10000A9E1000061
S32D0000C190B5E10000C1E10000CDE10000ED0701009D0601004D07010059DB000091080100D9E10000E5E100005F
S32D0000C1B8F1E100003010060000000020C8170000301006000000FF1F00000000C8170020A41B00000000FF1F02
S32D0000C1E00000000080B489B000AFF860B9607A60BB68FB61FB68BB6100237B617A697B689A420BD2BA69131DFB
S32D0000C208BB61FB69191DF96112681A607B6904337B61EFE700BF2437BD4680BC704780B485B000AF786039609E
S32D0000C2307B68FB600023BB60BA683B689A4208D2FB681A1DFA6000221A60BB680433BB60F2E700BF1437BD46FE
S32D0000C25880BC704780B586B000AF72B6234B4CF220521A80214B4DF628121A80204B4FF4E9721A801F4B7B615F
S32D0000C2807B691F4A934214D27B691A1D7A611B683B617B691A1D7A611B68FB607B691A1D7A611B68BB60BA68E9
S32D0000C2A8F9683869FFF79AFFE6E77B69134A93420ED27B691A1D7A611B68FB607B691A1D7A611B68BB60B9688B
S32D0000C2D0F868FFF7A8FFECE70B4B7B600B4A7B681A603BF0A3FE62B601F0FCFC01F05CFAFEE700BF0E20054062
S32D0000C2F800200540BCC10000D4C10000E4C1000008ED00E000C0000080B400AFFEE780B400AFFEE780B400AFF4
S32D0000C320FEE780B400AFFEE780B400AFFEE780B400AFFEE780B400AFFEE780B400AFFEE780B400AFFEE780B426
S32D0000C34800AFFEE7FFFFFFFFFFFFFFFFFFFFFFFFFFFFFFFFFFFFFFFFFFFFFFFFFFFFFFFFFFFFFFFFFFFFFFFF57
S32D0000C370FFFFFFFFFFFFFFFFFFFFFFFFFFFFFFFFFFFFFFFFFFFFFFFFFFFFFFFFFFFFFFFFFFFFFFFFFFFFFFFFC7
S32D0000C398FFFFFFFFFFFFFFFFFFFFFFFFFFFFFFFFFFFFFFFFFFFFFFFFFFFFFFFFFFFFFFFFFFFFFFFFFFFFFFFF9F
S32D0000C3C0FFFFFFFFFFFFFFFFFFFFFFFFFFFFFFFFFFFFFFFFFFFFFFFFFFFFFFFFFFFFFFFFFFFFFFFFFFFFFFFF77
S32D0000C3E8FFFFFFFFFFFFFFFFFFFFFFFFFFFFFFFFFFFFFFFFFFFFFFFFFFFFFFFFFFFFFFFFFFFFFFFFFEFFFFFF50
S32D0000C41010B5054C237833B9044B13B10448AFF300800123237010BDC81700200000000008FE050008B5034B47
S32D0000C4381BB103490348AFF3008008BD00000000CC17002008FE050080B483B000AF78607B6818460C37BD4609
S32D0000C46080BC704780B582B000AF7860114800F063FE114800F020FF0F4800F033FF0F4800F08AFC0E4801F02E
S32D0000C488A3F855210C4801F071F80C4801F0DEF80B4801F04DF95521094801F019F9094801F02AF800BF0837F6
S32D0000C4B0BD4680BD401800205C180020101800207818002088180020981800206018002080B582B000AF786004
S32D0000C4D8074800F04DFC074800F0AEFF044800F057FC044800F0B6FF00BF0837BD4680BD101800206018002024
S32D0000C50080B582B000AF7860174800F01FFE174800F014FF4FF00002154B164800F050FF124800F0C9FE1449A5
S32D0000C528104800F0E9FE134805F076FD124A1349104805F089FA034683F00103DBB2002B00D0F3E70C4A0D499D
S32D0000C5500A4805F07DFA0346002B00D0F6E700BF0837BD4680BD00BF401800205C1800200000144060180020E9
S32D0000C57838760500881B0020EC170020E817002080B584B000AFF8600B467A60FB72FB7A422B0BD10A4800F0D5
S32D0000C5A00BFE0346002B04D0F868FFF791FF002306E000BF7A687968044800F03CFA012318461037BD4680BD30
S32D0000C5C8441800201018002080B584B000AFF8600B467A60FB72104800F0EAFD0346002B04D0F868FFF770FF3D
S32D0000C5F0002311E0FB7A4C2B05D17A680021094800F019FA07E0FB7A522B04D100227968044800F010FA0123D5
S32D0000C61818461037BD4680BD441800201018002080B582B000AF786039607B68012B07D13B684FF6FF729342AF
S32D0000C64002D10348FFF704FF00BF0837BD4680BDE417002080B500AF4FF6FF710120FFF7E3FF80BD80B483B026
S32D0000C66800AF78607B6818460C37BD4680BC704780B582B000AF78603960386839F0B6F803461946034801F0C1
S32D0000C69037FE00BF0837BD4680BD00BFF417002080B582B000AF78603960386839F0A2F803461946034801F051
S32D0000C6B823FE00BF0837BD4680BD00BFFC17002080B582B000AF7860034801F0D3FD00BF0837BD4680BD00BF0C
S32D0000C6E0F417002080B582B000AF7860034801F0C5FD00BF0837BD4680BD00BFFC17002080B582B000AF7860F7
S32D0000C70839607B68012B11D13B684FF6FF7293420CD10848FFF7A2FF074A0021074801F06BFD054A01210648AE
S32D0000C73001F066FD00BF0837BD4680BDF017002000001041F4170020FC17002080B500AF4FF6FF710120FFF7C3
S32D0000C758D3FF80BD80B483B000AF78607B6818460C37BD4680BC704780B483B000AF786005A3D3E90023104671
S32D0000C78019460C37BD4680BC704700BFAFF300802706222256599E3F80B483B000AF786005A3D3E9002310464A
S32D0000C7A819460C37BD4680BC704700BFAFF30080814EE62E0BEB3940B0B584B000AFF8600B467A60FB72FB7AEB
S32D0000C7D04C2B37D1786838F0B7FB3BA3D3E9002338F01CFC02460B4614461D46786838F0ABFB02460B46204602
S32D0000C7F8294638F00FFC02460B4614461D46786838F09EFB30A3D3E9002338F003FC02460B462046294638F00B
S32D0000C82047FA02460B46104619462BA3D3E9002338F03EFA02460B461046194638F088FE03463AE0FB7A522BFD
S32D0000C84837D1786838F07CFB23A3D3E9002338F0E1FB02460B4614461D46786838F070FB02460B46204629465B
S32D0000C87038F0D4FB02460B4614461D46786838F063FB19A3D3E9002338F0C8FB02460B462046294638F00CFAC5
S32D0000C89802460B461046194613A3D3E9002338F003FA02460B461046194638F04DFE0346FFE718461037BD46D2
S32D0000C8C0B0BD00BFAFF30080865AD3BCE3147D3F4ED1915CFE43D23F736891ED7C3FF83FC7BAB88D06F0763FC0
S32D0000C8E858CA32C4B12EDE3FA779C7293A12114080B582B000AF786039607B68012B07D13B684FF6FF729342C5
S32D0000C91002D10348FFF722FF00BF0837BD4680BD0418002080B500AF4FF6FF710120FFF7E3FF80BD80B582B014
S32D0000C93800AF78607868FFF791FE7868FFF70AFF7B6818460837BD4680BD80B582B000AF786039603B685B427F
S32D0000C96019467868FFF788FE00BF0837BD4680BDB0B582B000AF78600C4803F0D7FF0346184638F0E1FA044681
S32D0000C9880D467868FFF7F0FE02460B462046294638F040FB02460B46104619460837BD46B0BD00BF0C18002099
S32D0000C9B080B582B000AF7860034803F0C9FF00BF0837BD4680BD00BF0C18002080B582B000AF786039607B68BA
S32D0000C9D8012B0BD13B684FF6FF72934206D10548FFF7A4FF0121044803F0DEFC00BF0837BD4680BD0818002085
S32D0000CA000C18002080B500AF4FF6FF710120FFF7DDFF80BD80B582B000AF78607868FFF789FF7B68013318463A
S32D0000CA2800F0E4F97B6818460837BD4680BD80B584B000AFF860B9607A60B968F868FFF784FFFB68013379687E
S32D0000CA50184600F0DEF900BF1037BD4680BDFFFF90B585B000AFF860C7E90023F868FFF77FFF02460B4601216C
S32D0000CA780C46D7E9000138F05DFD0346002B01D100231C46E3B2002B14D0396AF868FFF75CFFFB680133184643
S32D0000CAA000F0C4F902460B4601210C46D7E90A0138F044FD0346002B07D104E00C48FFF707FD002310E00023C6
S32D0000CAC81C46E3B2002B07D0FB680133396B184600F09BF9012303E00348FFF7F5FC002318461437BD4690BDD5
S32D0000CAF0E4170020B0B58AB006AFF860C7E900233A6A4C212548FFF75BFE0346184638F01BFA04460D462148C7
S32D0000CB18FFF72AFE02460B462046294638F07AFA02460B46D7E9000138F0BCF802460B46C7E900233A6B52210D
S32D0000CB401648FFF73DFE0346184638F0FDF904460D461248FFF70CFE02460B462046294638F05CFA02460B46F7
S32D0000CB68D7E90A0138F09EF802460B46C7E90A233B6B0493D7E90A23CDE902233B6A0093D7E90023F868FFF72A
S32D0000CB9067FF034618461037BD46B0BD0418002080B58AB006AFF860C7E90023BB690493D7E90023CDE90223AF
S32D0000CBB8BB690093D7E90023F868FFF797FF034618461037BD4680BD2DE9B04F8AB006AFF860C7E900234FF02D
S32D0000CBE000021F4BD7E9000138F042FB02460B4614461D461B48FFF7CFFD02460B462046294638F00BFA024637
S32D0000CC080B46904699463B6B5C424FF00002124BD7E9000138F028FB02460B4692469B460E48FFF7B5FD024672
S32D0000CC300B465046594638F0F1F902460B46396B0491CDE90223009442464B46F868FFF751FF03461846103750
S32D0000CC58BD46BDE8B08F00BF00807640041800202DE9B0438AB006AFF860C7E900234FF000021F4BD7E9000107
S32D0000CC8038F0F6FA02460B4614461D461B48FFF783FD02460B462046294638F0BFF902460B4614461D464FF05C
S32D0000CCA80002134BD7E9000138F0DEFA02460B46904699460F48FFF76BFD02460B464046494638F0A7F902467C
S32D0000CCD00B46B96A49420491CDE90223BB6A009322462B46F868FFF705FF034618461037BD46BDE8B08300BF54
S32D0000CCF80080764004180020B0B58AB006AFF860C7E90023D7E9000102460B4637F0CCFF02460B461046194683
S32D0000CD204FF00002114B38F0A3FA02460B4614461D460F48FFF730FD02460B462046294638F06CF902460B461F
S32D0000CD48396A0491CDE90223002300934FF00002064BF868FFF7CAFE034618461037BD46B0BD00BF00807640F1
S32D0000CD700418002000409F4080B582B000AF78607868FFF7A1FC7B6801331846FFF7AAFC00BF0837BD4680BD8A
S32D0000CD9880B582B000AF78607868FFF705FE7B680133184600F05EF800BF0837BD4680BD80B582B000AF7860BF
S32D0000CDC039607B68012B07D13B684FF6FF72934202D10348FFF71EFE00BF0837BD4680BD1018002080B500AFFD
S32D0000CDE84FF6FF710120FFF7E3FF80BD80B582B000AF78607868FFF731FC7868FFF7AAFC7B6818460837BD4642
S32D0000CE1080BD80B582B000AF7860396039687868FFF73EFC00BF0837BD4680BDB0B582B000AF78600C4803F0DC
S32D0000CE3879FD0346184638F083F804460D467868FFF792FC02460B462046294638F0E2F802460B46104619464D
S32D0000CE600837BD46B0BD00BF1818002080B582B000AF7860034803F06BFD00BF0837BD4680BD00BF1818002005
S32D0000CE8880B582B000AF786039607B68012B0BD13B684FF6FF72934206D10548FFF7A6FF0021044803F080FA43
S32D0000CEB000BF0837BD4680BD141800201818002080B500AF4FF6FF710120FFF7DDFF80BD80B483B000AF7860C3
S32D0000CED87B6818460C37BD4680BC7047FFFFFFFFB0B584B000AFF860C7E90023424B14221A604248FFF738FD51
S32D0000CF00D7E9002338F0B4F902460B463E49C1E900233B4B1B683A6AD31A184638F014F833A3D3E9002338F055
S32D0000CF28A3F902460B463749C1E90023344BD3E900012DA3D3E9002338F0DEFA0346002B18D0304BD3E90001DA
S32D0000CF502D4BD3E9002338F061F802460B46104619464FF000022A4B37F0A2FE02460B461046194638F0ECFAB4
S32D0000CF78034634E0224BD3E900011DA3D3E9002338F0D8FA0346002B28D01E4BD3E90023144683F000451A4B40
S32D0000CFA0D3E9000114A3D3E9002337F07FFE02460B462046294638F031F802460B4614461D46386A37F0C0FFCF
S32D0000CFC802460B462046294637F06EFE02460B461046194638F0B8FA034600E03B6A18461037BD46B0BD00BF70
S32D0000CFF09A9999999999B93FCDCCCCCCCCCCEC3F201800200818002028180020301800200000344080B582B055
S32D0000D01800AF786039607B68012B07D13B684FF6FF72934202D10348FFF74EFF00BF0837BD4680BD1C180020C2
S32D0000D04080B500AF4FF6FF710120FFF7E3FF80BD80B483B000AF78607B6818460C37BD4680BC7047FFFFFFFF8F
S32D0000D06880B582B000AF7860194803F091FC0346184637F077FF12A3D3E9002338F05AFA0346002B10D01248C9
S32D0000D09003F082FC0346184637F068FF0CA3D3E9002338F02DFA0346002B01D0012300E00023002B01D0012363
S32D0000D0B800E0002318460837BD4680BDAFF300805839B4C876BE9F3F5C8FC2F5285CDF3F3C18002080B582B00A
S32D0000D0E000AF786039607B68012B0BD13B684FF6FF72934206D10548FFF7AAFF1021044803F038FC00BF083784
S32D0000D108BD4680BD381800203C18002080B500AF4FF6FF710120FFF7DDFF80BD80B483B000AF78607B681846DD
S32D0000D1300C37BD4680BC704780B483B000AF786000BF0C37BD4680BC7047FFFF80B582B000AF7860034805F086
S32D0000D158FBFE00BF0837BD4680BD00BF101C002080B582B000AF786039607B68012B07D13B684FF6FF729342CB
S32D0000D18002D10348FFF7CEFF00BF0837BD4680BD4018002080B500AF4FF6FF710120FFF7E3FF80BD80B483B0B4
S32D0000D1A800AF78607B6818460C37BD4680BC704780B582B000AF7860084803F071F80346002B0CBF0123002338
S32D0000D1D0DBB2002B01D0012300E0002318460837BD4680BD4818002080B582B000AF786039607B68012B0BD1B2
S32D0000D1F83B684FF6FF72934206D10548FFF7CEFF1121044802F070FF00BF0837BD4680BD4418002048180020DB
S32D0000D22080B500AF4FF6FF710120FFF7DDFF80BD80B483B000AF78607B6818460C37BD4680BC704780B582B048
S32D0000D24800AF786039607B68012B13D13B684FF6FF7293420ED10A21084803F087FB0921074803F083FB082195
S32D0000D270064803F07FFB0648FFF7DAFF00BF0837BD4680BD4C18002050180020541800205818002080B500AF6E
S32D0000D2984FF6FF710120FFF7D1FF80BD80B483B000AF78607B6818460C37BD4680BC704780B582B000AF786039
S32D0000D2C00021074804F0EAFA0121054804F037FB0021034804F012FA00BF0837BD4680BD881B002080B582B08F
S32D0000D2E800AF7860034804F097FE00BF0837BD4680BD00BF881B002080B582B000AF786039607868FFF7D4FFCD
S32D0000D31038683DF015FC024613465B0013445B00C3F1A0031A4678233968034804F02EFB00BF0837BD4680BDCA
S32D0000D338881B002080B582B000AF78600749084804F091FC074800F0C7F802460B46044804F010FD00BF083713
S32D0000D360BD4680BD6C760500881B00206018002080B582B000AF786039607B68012B07D13B684FF6FF72934281
S32D0000D38802D10348FFF78AFF00BF0837BD4680BD5C18002080B500AF4FF6FF710120FFF7E3FF80BD80B483B0D2
S32D0000D3B000AF78607B6818460C37BD4680BC704780B584B000AFF860C7E90023D7E9000102F068FE074BD3E9E4
S32D0000D3D80001D7E9002337F067FC02460B460349C1E9002300BF1037BD4680BD6818002080B582B000AF786033
S32D0000D4003960386802F038FE3B680B4A82FB03129211DB17D31A184637F096FD074BD3E9002337F045FC024698
S32D0000D4280B460449C1E9002300BF0837BD4680BDD34D62106818002080B582B000AF78604FF4FA717868FFF789
S32D0000D450D3FF00BF0837BD4680BDFFFF80B483B000AF786005494FF000024FF00003C1E9002300BF0C37BD460F
S32D0000D47880BC70477018002080B582B000AF786011A1D1E9000102F009FE114BD3E900010DA3D3E9002337F0C8
S32D0000D4A007FC02460B460C49C1E900230B4BD3E9000107A3D3E9002337F0FAFB02460B460649C1E9002300BF74
S32D0000D4C80837BD4680BD00BFFCA9F1D24D62503F681800207018002080B483B000AF7860044BD3E90023104698
S32D0000D4F019460C37BD4680BC704700BF6818002080B483B000AF786005494FF000024FF00003C1E9002300BFCC
S32D0000D5180C37BD4680BC70476818002080B582B000AF786039607B68012B07D13B684FF6FF72934202D1034852
S32D0000D540FFF734FF00BF0837BD4680BD6018002080B500AF4FF6FF710120FFF7E3FF80BD80B483B000AF786001
S32D0000D5687B6818460C37BD4680BC704780B582B000AF78600B46FB70FB784C2B05D14FF000010E4803F03CFDEF
S32D0000D59014E0FB78552B04D10B490A4803F034FD0CE0FB78522B04D10849064803F02CFD04E04FF0000103480C
S32D0000D5B803F026FD00BF0837BD4680BD7C1800200000BA420000344380B582B000AF786040F26221054803F0E7
S32D0000D5E0D9FC40F6D401034803F0F1FC00BF0837BD4680BD7C18002080B582B000AF786039607B68012B0BD1AE
S32D0000D6083B684FF6FF72934206D10548FFF7A4FF0021044803F09EFC00BF0837BD4680BD781800207C1800206D
S32D0000D63080B500AF4FF6FF710120FFF7DDFF80BD80B483B000AF78607B6818460C37BD4680BC704780B582B034
S32D0000D65800AF78604FF43E71054803F097FC4FF41B61034803F0AFFC00BF0837BD4680BD8C18002080B582B047
S32D0000D68000AF786039607B68012B0BD13B684FF6FF72934206D10548FFF7D2FF0121044803F05CFC00BF0837A1
S32D0000D6A8BD4680BD881800208C18002080B500AF4FF6FF710120FFF7DDFF80BD80B483B000AF78607B68184698
S32D0000D6D00C37BD4680BC704780B582B000AF78600B46FB70FB78552B04D10F490F4803F08BFC14E0FB784D2B79
S32D0000D6F804D10D490B4803F083FC0CE0FB78442B04D10A49074803F07BFC04E04FF00001044803F075FC00BFD2
S32D0000D7200837BD4680BD00BF000020419C18002000000C420000824280B582B000AF78604FF4FA71054803F07A
S32D0000D74825FC4FF41661034803F03DFC00BF0837BD4680BD9C18002080B582B000AF786039607B68012B0BD1DD
S32D0000D7703B684FF6FF72934206D10548FFF7A2FF0221044803F0EAFB00BF0837BD4680BD981800209C18002079
S32D0000D79880B500AF4FF6FF710120FFF7DDFF80BD80B586B002AF0123FB73FB7B002B26D0B148FFF77DFDB149F2
S32D0000D7C0AF48FFF79DFDB04804F02AFC3A1D07F108031946AC4804F03BF9034683F00103DBB2002B00D0F1E7AD
S32D0000D7E83A1D07F108031946A54804F02DF90346002B00D0F4E7A348FEF730FE11E0A2499D48FFF779FDA14810
S32D0000D810FFF72AFC034683F00103DBB2002B00D0F5E79A48FEF71EFE1AE0502300934FF00002994B9948FFF7BB
S32D0000D83857FB034600934FF00002954B9648FFF7ABF90346002B03D09448FFF715FEE8E78C48FEF751FEABE756
S32D0000D860282300934FF000028F4B8D48FFF7FCF90346002B03D08B48FFF702FEF0E7282300934FF00002844B0C
S32D0000D8888548FFF789F90346002B03D08348FFF7F3FDF0E72823009375A3D3E900237E48FFF792F90346002BCE
S32D0000D8B003D07C48FFF7E4FDF0E76FF0270300934FF00002794B7648FFF76AF90346002B03D07448FFF7D4FD03
S32D0000D8D8EFE76FF027024C216A48FEF775FE0346002B03D06D48FFF7C7FDF2E7282300934FF000026C4B684828
S32D0000D900FFF74EF90346002B03D06648FFF7B8FDF0E76FF0270300934FF00002644B6048FFF73EF90346002BF0
S32D0000D92803D05E48FFF7A8FDEFE7282300934FF000025E4B5848FFF7DFF90346002B03D05648FFF799FDF0E769
S32D0000D950282300934FF00002574B5148FFF720F90346002B03D04F48FFF78AFDF0E7282300934FF000024F4B55
S32D0000D9784948FFF775F90346002B03D04748FFF77BFDF0E7282300934FF00002494B4248FFF702F90346002BCF
S32D0000D9A003D04048FFF76CFDF0E7282300934FF00002434B3A48FFF757F90346002B03D03848FFF75DFDF0E765
S32D0000D9C8282300934FF000023C4B3348FFF7E4F80346002B03D03148FFF74EFDF0E7282300934FF00002344BC8
S32D0000D9F02B48FFF739F90346002B03D02948FFF73FFDF0E76FF0270242212048FEF7BCFD0346002B03D02348FA
S32D0000DA18FFF732FDF2E7282300934FF00002204B1D48FFF769F90346002B03D01B48FFF723FDF0E72823009326
S32D0000DA404FF00002204B1648FFF7AAF80346002B03D01448FFF714FDF0E7282300934FF000021A4B0E48FFF7C5
S32D0000DA68B3F80346002B2FD00C48FFF705FDF0E700000000006068405C18002074760500881B0020E4170020E6
S32D0000DA908476050038180020000028401C180020101800206018002000004E4000000C4000001040008046402D
S32D0000DAB800001C400000224000805640000034400000394000003E40282300934FF00002074B0848FFF760F8F2
S32D0000DAE00346002B03D00648FFF7CAFCF0E70548FEF706FD87E600BF000010401018002060180020E417002034
S32D0000DB0880B582B000AF786039607B68012B0CD13B684FF6FF72934207D1064805F08AFC054A0649034805F0CF
S32D0000DB3083FA00BF0837BD4680BD00BFA8180020000000205D34010080B500AF4FF6FF710120FFF7D9FF80BDF6
S32D0000DB5880B500AF0F4BD3F8A03003F48053002B14BF01230023DBB2002B10D0094BD3F8A030084A23F48053F4
S32D0000DB80C2F8A030064805F0E3F9064B1B68054A23F40053136000BF80BD00BF00C00440101C0020C0F00F40C4
S32D0000DBA880B400AF124B4FF480725A63114B5B69104A43F4005353610E4B1B680D4A43F4005313600A4B0C4A8A
S32D0000DBD01A630C4BD3F888310A4A43F08063C2F88831084B9B68074A43F08063936000BFBD4680BC704700BFCE
S32D0000DBF800C00440C0F00F4003010A0000E100E080B400AF324B00225A70314B98221A702F4B9B79DBB203F013
S32D0000DC201003002B14BF01230023DBB2002B00D0F2E7294B9B79DBB29B0803F00303022B14BF01230023DBB298
S32D0000DC48002B00D0F1E7224B18221A71204B00225A71204B03F5825304331F4A1A601C4B54225A711A4B9B79DE
S32D0000DC70DBB203F02003002B0CBF01230023DBB2002B00D0F2E7144B9B79DBB203F04003002B0CBF01230023D2
S32D0000DC98DBB2002B00D0F2E70D4B1B78DBB20C4A03F03F03DBB21370094B9B79DBB29B0803F00303032B14BF58
S32D0000DCC001230023DBB2002B00D0F1E700231846BD4680BC704700BF00400640007004400000130180B500AF27
S32D0000DCE8344B03F5815318331B68324943F4785201F5815318331A60FFF752FFFFF780FF2D4B58221A602C4B4B
S32D0000DD101B684FF47A7202FB03F32A4A1360294B1B681A46254B03F5825304331B681B0E03F00F030133B2FBFC
S32D0000DD38F3F31A46224B1A601E4B03F581531C331B681C4943F0225201F581531C331A60184B03F58153103378
S32D0000DD601B68164943F0006201F5815310331A60164B4FF480721A61642002F067F8134B5B69124A23F010030D
S32D0000DD885361104B00221A600E4B10225A610E4803F0E0FB02F0E4FE02F042FF0B4802F0B5F80B4805F024F9FA
S32D0000DDB04FF4FA6002F060F900BF80BD00700440D41A0020D01A0020D81A002000D00340881B0020CC1A0020A7
S32D0000DDD8801C002080B500AFFEF7B1FA00BF80BD80B500AFFEF7ABFA00BF80BD80B500AFFEF7A5FA00BF80BDF3
S32D0000DE0080B500AFFEF79FFA00BF80BD80B500AFFEF799FA00BF80BD80B500AFFEF793FA00BF80BD80B500AFD8
S32D0000DE28FEF78DFA00BF80BD80B500AFFEF787FA00BF80BD80B500AFFEF781FA00BF80BD80B500AFFEF77BFA60
S32D0000DE5000BF80BD80B500AFFEF775FA00BF80BD80B500AFFEF76FFA00BF80BD80B500AFFEF769FA00BF80BDEE
S32D0000DE7880B500AFFEF763FA00BF80BD80B500AFFEF75DFA00BF80BD80B500AFFEF757FA00BF80BD80B500AF14
S32D0000DEA0FEF751FA00BF80BD80B500AFFEF74BFA00BF80BD80B500AFFEF745FA00BF80BD80B500AFFEF73FFAD8
S32D0000DEC800BF80BD80B500AFFEF739FA00BF80BD80B500AFFEF733FA00BF80BD80B500AFFEF72DFA00BF80BD2A
S32D0000DEF080B500AFFEF727FA00BF80BD80B500AFFEF721FA00BF80BD80B500AFFEF71BFA00BF80BD80B500AF50
S32D0000DF18FEF715FA00BF80BD80B500AFFEF70FFA00BF80BD80B500AFFEF709FA00BF80BD80B500AFFEF703FA4F
S32D0000DF4000BF80BD80B500AFFEF7FDF900BF80BD80B500AFFEF7F7F900BF80BD80B500AFFEF7F1F900BF80BD68
S32D0000DF6880B500AFFEF7EBF900BF80BD80B500AFFEF7E5F900BF80BD80B500AFFEF7DFF900BF80BD80B500AF8E
S32D0000DF90FEF7D9F900BF80BD80B500AFFEF7D3F900BF80BD80B500AFFEF7CDF900BF80BD80B500AFFEF7C7F9CB
S32D0000DFB800BF80BD80B500AFFEF7C1F900BF80BD80B500AFFEF7BBF900BF80BD80B500AFFEF7B5F900BF80BDA4
S32D0000DFE080B500AFFEF7AFF900BF80BD80B500AFFEF7A9F900BF80BD80B500AFFEF7A3F900BF80BD80B500AFCA
S32D0000E008FEF79DF900BF80BD80B500AFFEF797F900BF80BD80B500AFFEF791F900BF80BD80B500AFFEF78BF942
S32D0000E03000BF80BD80B500AFFEF785F900BF80BD80B500AFFEF77FF900BF80BD80B500AFFEF779F900BF80BDDF
S32D0000E05880B500AFFEF773F900BF80BD80B500AFFEF76DF900BF80BD80B500AFFEF767F900BF80BD80B500AF05
S32D0000E080FEF761F900BF80BD80B500AFFEF75BF900BF80BD80B500AFFEF755F900BF80BD80B500AFFEF74FF9BA
S32D0000E0A800BF80BD80B500AFFEF749F900BF80BD80B500AFFEF743F900BF80BD80B500AFFEF73DF900BF80BD1B
S32D0000E0D080B500AFFEF737F900BF80BD80B500AFFEF731F900BF80BD80B500AFFEF72BF900BF80BD80B500AF41
S32D0000E0F8FEF725F900BF80BD80B500AFFEF71FF900BF80BD80B500AFFEF719F900BF80BD80B500AFFEF713F932
S32D0000E12000BF80BD80B500AFFEF70DF900BF80BD80B500AFFEF707F900BF80BD80B500AFFEF701F900BF80BD56
S32D0000E14880B500AFFEF7FBF800BF80BD80B500AFFEF7F5F800BF80BD80B500AFFEF7EFF800BF80BD80B500AF7F
S32D0000E170FEF7E9F800BF80BD80B500AFFEF7E3F800BF80BD80B500AFFEF7DDF800BF80BD80B500AFFEF7D7F8AD
S32D0000E19800BF80BD80B500AFFEF7D1F800BF80BD80B500AFFEF7CBF800BF80BD80B500AFFEF7C5F800BF80BD95
S32D0000E1C080B500AFFEF7BFF800BF80BD80B500AFFEF7B9F800BF80BD80B500AFFEF7B3F800BF80BD80B500AFBB
S32D0000E1E8FEF7ADF800BF80BD80B500AFFEF7A7F800BF80BDFFFFFFFF80B584B000AFF8600B467A60FB72FB6898
S32D0000E210FA7A1A71FB6800225A711749786837F0F9FC0346002B02D0134B7B600AE04FF07E51786837F0DAFCE1
S32D0000E2380346002B02D04FF07E537B60786836F091FE09A3D3E9002336F0E4FE02460B461046194637F0C0F931
S32D0000E2600246FB681A60FB6818461037BD4680BDABAAAAAAAAAA20400000404180B582B000AF78607B685B79A0
S32D0000E288002B09D07B6800225A717B6819791E230022034801F074FE00BF0837BD4680BDCC1A002080B584B061
S32D0000E2B000AF786039603B687F2B02DD7F23FB7308E03B6813F1800F02DA8023FB7301E03B68FB737B685B7930
S32D0000E2D8FA7B9A4209D07B68FA7B5A717B681979FA7B1E23034801F04BFE00BF1037BD4680BD00BFCC1A002010
S32D0000E300B0B584B000AF786039603749386837F063FC0346002B02D0334B3B6008E03349386837F077FC03464A
S32D0000E328002B01D02F4B3B60386836F01BFE04460D467B681B68184636F014FE4FF00002294B36F091FF02468B
S32D0000E3500B462046294636F061FE02460B461046194637F03DF903463B604FF00001386837F046FC0346002BA8
S32D0000E37810D0386836F0F6FD17A3D3E9002336F049FE02460B461046194637F0DDF80346FB6018E0386836F02C
S32D0000E3A0E5FD4FF00002134B36F038FE02460B46104619464FF000020D4B36F059FF02460B461046194637F098
S32D0000E3C8C3F80346FB60F9687868FFF76BFF00BF1037BD46B0BD00BF52B81E85EB51F43F0000C8C20000C84242
S32D0000E3F0000059400000604080B483B000AF03460A46FB711346BB71BB79002B03D1134B00221A7002E0114BAB
S32D0000E41801221A703823FB710E4B1A78FB791343FB710D4B9B78DBB20B4A43F01003DBB29370094B9B78DBB22A
S32D0000E440074A43F02003DBB29370054AFB79137100BF0C37BD4680BC704700BFA91800200060064080B483B08B
S32D0000E46800AF01237B607B68312B04DC00BF7B6801337B60F7E700BF0C37BD4680BC704780B582B000AF0346D3
S32D0000E4900A46FB711346BB71134B1B7800211846FFF7AAFF00F024F8104AFB79137100F01FF80E4ABB79137199
S32D0000E4B800F01AF80B4B9B78DBB20A4A23F02003DBB29370074B9B78DBB2064A23F01003DBB29370FFF7C2FF75
S32D0000E4E000BF0837BD4680BDAA1800200060064080B483B000AF174B1B78002B24D100237B60154BDB78DBB2DF
S32D0000E50803F00203002B0CBF01230023DBB2002B0DD07B6842F21072934203DD0B4B01221A7004E07B680133CF
S32D0000E5307B6000BFE5E7084BDB78DBB2064A43F00203DBB2D37000E000BF0C37BD4680BC704700BFAB18002052
S32D0000E5580060064080B582B000AF0346FB71FB79184600F05FF800BF0837BD4680BD80B582B000AF03460A461E
S32D0000E580FB711346BB7100F035F8FB795B00DBB21846FFF7E3FFBB791846FFF7DFFF00F037F800BF0837BD4647
S32D0000E5A880BD80B500AFFF2000F03CF80346184680BD80B584B000AF0346FB7100F016F8FB795B005BB243F023
S32D0000E5D001035BB2DBB21846FFF7C0FFFFF7E5FF0346FB7300F014F8FB7B18461037BD4680BDFFFF80B400AFA3
S32D0000E5F8044B9B68034A43F48013936000BFBD4680BC704740F00F4080B400AF044B5B68034A43F480135360A6
S32D0000E62000BFBD4680BC704740F00F4080B485B000AF0346FB710023BB73164BDB6A03F00043012B0CBF012383
S32D0000E6480023DBB2002B03D0FB7B0133FB73F0E70E4BDB6A0D4A43F00043D3620B4AFB7953630A4BDB6A03F457
S32D0000E6700033002B0CBF01230023DBB2002B00D0F3E7044B9B6BBB73BB7B18461437BD4680BC704700C00A4048
S32D0000E69880B582B000AF224B03F5815310331B681F4943F4805201F5815310331A601D4B4FF480721A651C4BC4
S32D0000E6C05B691B4A43F480135361FFF7A1FF174B4FF400725A65154B4FF400729A65134B4FF40072DA65134B55
S32D0000E6E8134A1A60114B134ADA6000237B607B68092B06DCFF20FFF72DFF7B6801337B60F5E705A1D1E90001D3
S32D0000E71001F0C8FC00BF0837BD4680BDAFF300809A9999999999B93F0070044000A0044040F00F4000C00A4016
S32D0000E738000C00800500003E90B486B000AFF860B9607A60FB68594A93420CD1584B03F5815314331B685649E0
S32D0000E76043F4806201F5815314331A604FE0FB68524A93420CD1504B03F5815314331B684D4943F4006201F5B1
S32D0000E788815314331A603EE0FB684B4A93420CD1474B03F5815314331B68454943F4805201F5815314331A60BC
S32D0000E7B02DE0FB68434A93420CD13F4B03F5815314331B683C4943F4005201F5815314331A601CE0FB683C4AEE
S32D0000E7D893420CD1364B03F5815308331B68344943F4806201F5815308331A600BE0304B03F5815308331B6851
S32D0000E8002D4943F4006201F5815308331A60FB68DB78DBB223F00C03DAB2FB68DA70FB6800229A70BB684FF4C9
S32D0000E8287A7202FB03F27B681B0192FBF3F39CB2FB681B78DBB223F01F03FB7523461B12DBB203F01F03DAB238
S32D0000E850FB7D1343DAB2FB681A70E2B2FB685A70BB684FF4FA4202FB03F27B681B0192FBF3F39AB263019BB28F
S32D0000E878D31A9CB2FB689B7ADBB223F01F03FB75E3B203F01F03DAB2FB7D1343DAB2FB689A72FB68DB78DBB24B
S32D0000E8A043F00C03DAB2FB68DA7000BF1837BD4690BC704700A006400070044000B0064000C0064000D006400F
S32D0000E8C800A00E4080B483B000AF78607B681B79DBB203F02003002B0CBF01230023DBB2002B00D0F2E77B68AB
S32D0000E8F0DB79DBB218460C37BD4680BC704780B483B000AF78600B46FB707B681B79DBB25BB2DB43DBB2DB0938
S32D0000E918DBB2002B00D0F4E77B68FA78DA7100BF0C37BD4680BC704780B487B000AFF860B9607A60FB687B6132
S32D0000E9407B685A1E7A60002B14BF01230023DBB2002B06D07B695A1C7A61BA68D2B21A70EEE700BF1C37BD4652
S32D0000E96880BC704780B584B000AF786039607B681B6BFB60FA683B689A4252D07B681B79002B35D07B685878E4
S32D0000E9907B6803F134010123FA6801F0F5F80346002B14BF01230023DBB2002B01D001233CE07B6800221A7102
S32D0000E9B87B685A6A7B681B6A1344FA689A4217D27B68DB78FB72FB7A012B11D97B681B6AFA681344FB607B6817
S32D0000E9E058787B6803F134010123FA6801F0CCF8FB7A013BFB72EAE73B68002B15D07B6858787B6803F1340191
S32D0000EA0801233A6800F0D8FF0346002B14BF01230023DBB2002B01D0012303E07B683A681A630023184610376B
S32D0000EA30BD4680BD80B584B000AF786000217868FFF794FF0346FB73FB7B002B40F091807B681B78032B7BD175
S32D0000EA587B685B79002B77D07B6800221A637B6834334FF4007200211846FFF75DFF7B68552283F832227B6809
S32D0000EA80AA2283F833227B68522283F834207B68522283F835207B68612283F836207B68412283F837207B684D
S32D0000EAA8722283F818227B68722283F819227B68412283F81A227B68612283F81B227B681B69DAB27B6883F85E
S32D0000EAD01C227B681B699BB21B12DAB27B6883F81D227B681B691B0CDAB27B6883F81E227B681B691B0EDAB2FC
S32D0000EAF87B6883F81F227B68DB68DAB27B6883F820227B68DB689BB21B12DAB27B6883F821227B68DB681B0CE5
S32D0000EB20DAB27B6883F822227B68DB681B0EDAB27B6883F823227B6858787B6803F134017B685A69012301F0A1
S32D0000EB481FF87B6800225A717B685B7800220021184601F0E1F80346002B14BF01230023DBB2002B01D001235C
S32D0000EB70FB73FB7B18461037BD4680BD80B582B000AF78600B467B807B68002B08D07B681B78002B04D07B6836
S32D0000EB98DB887A889A4201D0092311E07B685B78184601F03BF9034603F00103002B14BF01230023DBB2002BAA
S32D0000EBC001D0032300E0002318460837BD4680BD80B586B000AF78607B681A687B689B8819461046FFF7CAFF7F
S32D0000EBE80346FB75FB7D002B40F0A8807B689B7903F02003002B00F0A1807B689B7903F04003002B1BD07B68DC
S32D0000EC101B6858787B6803F128017B689A69012300F0B2FF0346002B14BF01230023DBB2002B01D0012386E037
S32D0000EC387B689B7923F04003DAB27B689A717B681A687B68DB6919461046FFF78BFE0346FB75FB7D002B71D189
S32D0000EC607B681B6A3B613B690B331A783B690B3342F02002D2B21A707B68DA683B691C33D2B21A707B68DB687E
S32D0000EC889BB21A123B691D33D2B21A707B68DB681A0C3B691E33D2B21A707B68DB681A0E3B691F33D2B21A7042
S32D0000ECB07B681A693B691A33D2B21A707B681B699BB21A123B691B33D2B21A707B681B691A0C3B691433D2B2F5
S32D0000ECD81A707B681B691B0C9BB21A123B691533D2B21A700023FB603B691633FA68D2B21A70FB689BB21A12CC
S32D0000ED003B691733D2B21A70FB681A0C3B691833D2B21A70FB681A0E3B691933D2B21A707B689B7923F02003AD
S32D0000ED28DAB27B689A717B681B6801221A717B681B681846FFF77AFE0346FB75FB7D18461837BD4680BD80B5AA
S32D0000ED5084B000AF78607868FFF73AFF0346FB73FB7B002B02D17B6800221A60FB7B18461037BD4680BDFFFFC8
S32D0000ED7880B588B000AF7860396080233B610F23FB604FF0FF337B610223FB61FB69B3F5807F23D80123BB6100
S32D0000EDA0BB69102B1AD8FB69BA6902FB03F33A6802FB03F27B68D31ABB60BB68002B09DBBB687A699A4205D909
S32D0000EDC8BB687B61FB693B61BB69FB60BB690133BB61E1E7FB695B00FB61D7E71D4BDB6A1C4A23F00803D36224
S32D0000EDF01A4BDB6A23F47F2323F47F63BB613B695B081B029AB2FB68013B1B01DBB21A43BB691343114A43F45C
S32D0000EE186023D3620F4B5B6A03F00803002B0CBF01230023DBB2002B03D00A2001F020F9F0E7084BDB6A074A3B
S32D0000EE4043F00803D362054B1B6B044A43F48013136300BF2037BD4680BD00BF00100B4080B582B000AF78606F
S32D0000EE6839607B6800221A60424B434ADA62414BDB6A03F08073002B14BF01230023DBB2002B00D0F3E73B4B2A
S32D0000EE900022C3F8C020394B4FF481325A60374B28229A62354B4FF001125A643B689B6834491846FFF760FF35
S32D0000EEB8304B5B6A03F00303002B14BF01230023DBB2002B00D0F3E72D4B40F243421A602B4B40F243425A60BC
S32D0000EEE0294B4FF488629A60274B40F24342DA60254B40F243421A61234B40F243425A61224B03F58153103308
S32D0000EF081B68204943F4003201F5815310331A60184B4FF6FF721A63164B1B4A5A63154BDB6A144A43F000634D
S32D0000EF30D362124BDB6A03F00063002B14BF01230023DBB2002B00D0F3E70C4B5B6A03F48033002B14BF0123F7
S32D0000EF580023DBB2002B02D07B6801221A60054B1B6B044A43F080031363002318460837BD4680BD00100B40B3
S32D0000EF800080000160CC050000D0044000700440B3007F0080B400AF064B5A6A40F207331340002B14BF0123DE
S32D0000EFA80023DBB21846BD4680BC704700100B4080B485B000AF7860074B1B6B7A681340FB60FB68002B00D125
S32D0000EFD0F6E7FB6818461437BD4680BC704700BF00100B4080B584B000AF78607B681B7803F03F03764A52F875
S32D0000EFF82330FB60FB68002B05D17B681B78002B01D00123DCE0714B1B6B704A43F0800313636E4B5B6A03F0EE
S32D0000F0200103002B14BF01230023DBB2002B00D0F3E7684A7B685B689360FB6823F44003FB607B685B789B055E
S32D0000F04803F44003FA681343FB607B685B78022B03D1FB6843F40013FB607B685B78042B16D1FB6803F44033F5
S32D0000F070B3F5003F08D1FB6823F44033FB60FB6843F44033FB6007E0FB6823F44033FB60FB6843F40033FB60AB
S32D0000F0984E4B5B684D4A9BB253607B68DB68002B2AD0FB6803F44033B3F5403F03D0FB6843F40013FB607B685A
S32D0000F0C01B7A002B03D0FB6843F01003FB607B68DB68012B03D9FB6843F02003FB607B68DB68B3F1FF3F0BD066
S32D0000F0E83A4B5A687B68DB681B04384913434B60FB6843F00203FB60344B00221A60334AFB68D3603248FFF758
S32D0000F11053FF0346012B14BF01230023DBB2002B09D02C4B1B6B2B4A43F4702343F001031363012348E0274BB8
S32D0000F1381B6B03F08003002B14BF01230023DBB2002B07D0214B1B6B204A43F001131363012335E01D4B1B6B99
S32D0000F16003F48033002B14BF01230023DBB2002B08D0184B1B6B174A43F0011313634FF0FF3321E0FB6803F42F
S32D0000F1884033002B15D0114B1A697B681A61FB6803F44033B3F5803F0BD10C4B5A697B685A610A4B9A697B6896
S32D0000F1B09A61084BDA697B68DA61064B1B6B054A43F001031363002318461037BD4680BD9C76050000100B4035
S32D0000F1D801000E0080B592B000AF7860396000237B643B68BB63994B7B637B6B002B02D140F6012362E3964B7A
S32D0000F2003B633B6B002B02D140F60B235AE33B6B1B68FB62FB6A002B02D140F60B2351E37B6841F20932934256
S32D0000F22800F242837B68B3F5985F08D87B68032B00F01D837B68092B00F00C8334E37B68A3F59853013B082B7C
S32D0000F25000F22E8301A252F823F000BF81F2000071F50000CFF7000087F50000C5F50000EFF6000037F7000046
S32D0000F27879F6000093F600007649786BFFF7ECFD78647B6C002B40F01383002387F84330002387F82B30002306
S32D0000F2A087F82A30002387F82930002387F84230002387F8283000233B7200237B720023FB6000233B7400230B
S32D0000F2C87B6107F108031846FFF788FE0346002B14BF01230023DBB2002B02D001237B64EBE240F24C4000F0C9
S32D0000F2F0C3FE08233B7200237B724FF4D573FB6000233B7400237B6107F108031846FFF769FEF863FB6B002BE6
S32D0000F31809D1BA69FB689A4202D001237B64CCE2012387F84230012387F8283097F82830002B00F0A580372377
S32D0000F3403B7200237B720023FB6000233B7400237B6107F108031846FFF744FEF863FB6B002B02D001237B6439
S32D0000F368ABE269233B7200237B720023FB6000233B7400237B6107F108031846FFF72EFE0346002B14BF012364
S32D0000F3900023DBB2002B02D001237B6491E2BB6903F44013002B6FD00023FB630A2000F063FEFB6B0133FB6360
S32D0000F3B837233B7200237B720023FB6000233B7400237B6107F108031846FFF707FE0346002B14BF01230023D7
S32D0000F3E0DBB2002B02D001237B6428E069233B7200237B7297F84230002B02D0184BFB6002E04FF44013FB6092
S32D0000F40800233B7400237B6107F108031846FFF7E5FD0346002B14BF01230023DBB2002B02D001237B6406E0CB
S32D0000F430BB69002B03DBFB6B632B00D8B6E77B6C002B40F03B82FB6B632B0BD9002387F8423019E0C01800203C
S32D0000F458C41A00209076050000003040012387F8433097F84230002B0AD0002387F84230BB6903F08043002BD8
S32D0000F48002D0012387F8423097F82A30002B02D07B6B07221A6097F82930002B02D07B6B08221A6097F82B30AF
S32D0000F4A8002B02D07B6B04221A6097F84330002B09D07B6B02221A6097F84230002B02D07B6B03221A6097F817
S32D0000F4D02B30002B0DD097F84330002B09D07B6B05221A6097F84230002B02D07B6B06221A60A04B00221A6011
S32D0000F4F89E4B00225A609D4B00229A609B4B0022DA609A4B00221A61984B00225A61FB6A9A68FB6A5B681946AB
S32D0000F5201046FFF729FC934B40F243421A60914B40F243425A608F4B4FF488629A608D4B40F24342DA608B4B50
S32D0000F54840F243421A61894B40F243425A61884B03F5815310331B68854943F4003201F5815310331A60A8E171
S32D0000F570B86BFFF737FDF863FB6B002B00F0A08102237B649CE1BB6B002B02D10C237B6497E17A4BDB6A1B0AC9
S32D0000F5985B0003F4FF73FB63764BDB6A1B0903F00F035A1CFB6B02FB03F3FB63FB6A9A68FB6BB2FBF3F2BB6B42
S32D0000F5C01A607EE1BB6B002B02D10C237B6478E1BB6B1B68002B02D10C237B6471E1FFF7D9FC0346002B0CBFA8
S32D0000F5E801230023DBB2002B3ED0604B00221A605E4B00225A605D4B00229A605B4B0022DA605A4B00221A6114
S32D0000F610584B00225A61FB6A9A68BB6B1B6819461046FFF7A9FB534B40F243421A60514B40F243425A604F4B77
S32D0000F6384FF488629A604D4B40F24342DA604B4B40F243421A61494B40F243425A61484B03F5815310331B6801
S32D0000F660454943F4003201F5815310331A6028E140F60A237B6424E1BB6B002B02D10C237B641EE13D4B5B6832
S32D0000F688C3F30C02BB6B1A6017E1BB6B002B02D10C237B6411E1FFF779FC0346002B0CBF01230023DBB2002B2B
S32D0000F6B019D0BB6B1B68B3F5805F02D30C237B64FFE02E4B5B682D4A23F4FF5323F01F0353602A4B5A68BB6BF0
S32D0000F6D81B68C3F30C03274913434B60EDE040F60A237B64E9E0BB6B002B02D10C237B64E3E0204B9B6A5B08AB
S32D0000F70003F00303FB63FB6B002B03D1BB6B00221A60D6E0FB6B012B03D1BB6B01221A60CFE0FB6B102B03D15A
S32D0000F728BB6B02221A60C8E005237B64C5E0BB6B002B02D10C237B64BFE0FFF727FC0346002B0CBF012300232B
S32D0000F750DBB2002B37D0BB6B1B68002B10D1074B9B6A064A23F006039362044B034A9B6A9362A6E000D004402F
S32D0000F7780070044000100B40BB6B1B68012B0CD1504B9B6A4F4A23F0060393624D4B9B6A4C4A43F002039362F8
S32D0000F7A08FE0BB6B1B68022B0AD1484B9B6A474A23F006039362454B444A9B6A936280E005237B647DE040F6CF
S32D0000F7C80A237B6479E0BB6B002B02D10C237B6473E03C4BDB6A3B4A43F00063D362394BDB6A03F00063002BC3
S32D0000F7F014BF01230023DBB2002B00D0F3E7334B1B6B03F08003002B14BF01230023DBB2002B08D02D4B1B6B22
S32D0000F8182C4A43F0800313637B6B00221A60294B5B6A03F48033002B14BF01230023DBB2002B07D07B6B1B687E
S32D0000F840002B06D17B6B01221A6002E07B6B00221A607B6B1A68BB6B1A6032E0BB6B1C221A60BB6B0433042236
S32D0000F8681A60BB6B08334FF41E721A6025E00220FFF79EFB134B1B6B03F4E003002B14BF01230023DBB2002BD9
S32D0000F89007D00E4B1B6B0D4A43F4E003136304237B640A4B1B6B094A43F03203136308E040F609237B6404E08E
S32D0000F8B800BF02E000BF00E000BF7B6C18464837BD4680BD00100B4080B489B000AF786039607B687B61364BF7
S32D0000F8E03B613B69002B01D100235FE03B691B68022B0BD03B691B68032B07D03B691B68072B03D03B691B68AD
S32D0000F908082B0BD12B4B5B6A03F00403002B14BF01230023DBB2002B00D0F3E73B68FB61FB69002B3DD0FB69E7
S32D0000F930B3F5007F28BF4FF40073FB60FB6803339B08BB61BB69002B2AD01C4B1B6B03F4E003002B14BF012300
S32D0000F9580023DBB2002B09D0164B1B6B154A43F4E00343F02003136300231BE0114B5B6A03F40063002B0CBF12
S32D0000F98001230023DBB2002B00D0F3E70B497B691A1D7A610A6A1A60BB69013BBB61D1E7FA69FB68D31AFB6135
S32D0000F9A8BEE7012318462437BD4680BC704700BFC018002000100B4080B58EB000AFB9607A601A460346FB737B
S32D0000F9D01346BB73414B7B63FB7B002B02D1BB7B002B01D1042375E03D4B1B78DBB203F00103002B14BF012334
S32D0000F9F80023DBB2002B01D0032367E0BB68002B01D1002362E07B6B1B7B002B02D17B685B027B60BB7B012B4C
S32D0000FA2028D111233B7500237B757B68BB6101233B77BB7B3B6207F11403194641F20230FFF7CCFB0346002B1C
S32D0000FA480CBF01230023DBB2002B38D04FF40071B868FFF739FF0346002B14BF01230023DBB2002B2BD0002358
S32D0000FA70BB7328E012233B7500237B757B68BB6101233B77BB7B3B6207F11403194641F20230FFF7A3FB0346E2
S32D0000FA98002B0CBF01230023DBB2002B0FD0BB7B5B021946B868FFF70FFF0346002B14BF01230023DBB2002B10
S32D0000FAC001D00023BB73BB7B002B01D0012300E0002300BF18463837BD4680BDAC1800200400002080B487B05E
S32D0000FAE800AF786039607B68FB603B687B617B69002B3DD07B69B3F5007F28BF4FF400733B617A693B69D31A3F
S32D0000FB107B613B6903339B083B613B69002BEAD0184B1B6B03F4E003002B14BF01230023DBB2002B0AD0134B51
S32D0000FB381B6B124A43F4E00343F0100313634FF0FF3316E00D4B5B6A03F48063002B0CBF01230023DBB2002B94
S32D0000FB6000D0F3E7FB681A1DFA60064A1B6813623B69013B3B61D0E7012318461C37BD4680BC704700100B4038
S32D0000FB8880B58EB000AFB9607A601A460346FB731346BB735D4B7B63FB7B002B02D1BB7B002B01D10423ADE0BB
S32D0000FBB0594B1B78DBB203F00103002B14BF01230023DBB2002B01D003239FE0524B1B78DBB203F00403002B17
S32D0000FBD814BF01230023DBB2002B01D0022391E0BB68002B01D100238CE07B6B1B7B002B02D17B685B027B6082
S32D0000FC00BB7B012B28D118233B7500237B757B68BB6100233B77BB7B3B6207F11403194641F20230FFF7DAFA39
S32D0000FC280346002B0CBF01230023DBB2002B38D04FF40071B868FFF751FF0346002B14BF01230023DBB2002B08
S32D0000FC502BD00023BB7328E019233B7500237B757B68BB6100233B77BB7B3B6207F11403194641F20230FFF7C3
S32D0000FC78B1FA0346002B0CBF01230023DBB2002B0FD0BB7B5B021946B868FFF727FF0346002B14BF01230023DA
S32D0000FCA0DBB2002B01D00023BB730D233B7500237B757B6B1B69BB6100233B7700233B6207F11403194641F2AD
S32D0000FCC80230FFF787FA0346002B14BF01230023DBB2002B01D0012314E07A6A0D4B1340002B01D001230DE09A
S32D0000FCF07B6A03F4F853B3F5106F00D0D5E7BB7B002B01D0012300E0002300BF18463837BD4680BDAC18002003
S32D0000FD18040000200880D9FF80B58CB000AF03463A60FB710B46BB713A4BBB62FB79002B01D0042369E00123A7
S32D0000FD4087F82F30364B1B78DBB203F00103002B14BF01230023DBB2002B01D0032358E0BB79032B50D801A2C6
S32D0000FD6852F823F07DFD000085FD000095FD0000A5FD0000002387F82F3044E0BB6A9A683B681A60002387F8D5
S32D0000FD902F303CE03B684FF400721A80002387F82F3034E009233B7200237B72BB6A1B69FB6000233B740023E1
S32D0000FDB87B6107F10803194641F20230FFF70AFA0346002B14BF01230023DBB2002B01D001231AE07B6A03F46F
S32D0000FDE04003002B0CD13B6A9B0C03F07F035A1C7B6A1B0A03F00303013B9A403B681A60002387F82F3002E05A
S32D0000FE08042387F82F3097F82F3018463037BD4680BD00BFAC1800200400002080B483B000AF0346FB71FB79CE
S32D0000FE30002B01D0012302E0034B1B78DBB218460C37BD4680BC70470400002080B483B000AF7860174B03F531
S32D0000FE58815318331B68154943F0010201F5815318331A60124A7B689360114B05225A600F4B1B680E4A43F0E0
S32D0000FE80010313600C4B1B6803F08003002B0CBF01230023DBB2002B00D0F3E7064B1B68054A23F00103136041
S32D0000FEA800BF0C37BD4680BC704700BF007004400000044080B582B000AF786039607B68012B07D13B684FF627
S32D0000FED0FF72934202D1034800F00EF800BF0837BD4680BDCC1A002080B500AF4FF6FF710120FFF7E3FF80BD97
S32D0000FEF880B483B000AF78607B6800221A707B6818460C37BD4680BC7047FFFF80B582B000AF78607B681B7883
S32D0000FF2083F00103DBB2002B21D0134B03F5815308334FF400621A60104B4FF440721A620E4B4FF440725A6239
S32D0000FF480D4B1B68DA0F13445B104FF4614219460A48FEF7F1FB642000F08AF87B6801221A70012300E00023E0
S32D0000FF7018460837BD4680BD0070044000D00440D01A002000B00E4080B582B000AF7860084611461A4603467A
S32D0000FF98FB700B46BB7013467B707F210E48FEF7AAFC08210C48FEF7A6FCFB7819460A48FEF7A1FCBB78194623
S32D0000FFC00748FEF79CFC7B7819460548FEF797FCFF210348FEF793FC00BF0837BD4680BD00B00E4080B487B07A
S32D0000FFE800AFF860B9607A60FB681F4AA2FB03239B09BA6813447B61FB681B4AA2FB031292094FF47A7101FB2A
S32D0001001002F29B1AFB60FB68DB03154AA2FB03239B097A6813443B613B69DB0B7A6913447B613B69C3F30E03D6
S32D000100383B610E4B1B687A699A4209D80B4B1B687A699A4206D1094B5B683A699A4201D9012300E00023002B50
S32D0001006000D0EAE700BF1C37BD4680BC704700BFD34D621000D0034080B584B000AF7860074B1B68FB60064BF3
S32D000100885B68BB607B68BA68F9681846FFF7A6FF00BF1037BD4680BD00D0034080B584B000AFC7E900010E4B91
S32D000100B01B68FB600C4B5B68BB604FF000020B4BD7E9000134F0AAFF02460B461046194635F066FA0346BA68AB
S32D000100D8F9681846FFF782FF00BF1037BD4680BD00D0034000408F4080B582B000AF78600B46FB70FB781946DF
S32D00010100786800F005F87B6818460837BD4680BD80B483B000AF78600B46FB707B68FA781A707B681B781A46E4
S32D00010128534B9B5C042B00F29E8001A252F823F04D01010087010100C1010100FB010100350201004B4A7B688C
S32D000101501B7819464A4B53F8213040F2031142F82310484B5A697B681B781946444B53F8213003F01F0301211D
S32D0001017801FA03F3DB43414913404B6173E0404A7B681B7819463C4B53F8213040F2031142F823103B4B5A69EF
S32D000101A07B681B781946364B53F8213003F01F03012101FA03F3DB43344913404B6156E0334A7B681B781946F4
S32D000101C82D4B53F8213040F2031142F823102F4B5A697B681B781946274B53F8213003F01F03012101FA03F3F9
S32D000101F0DB43284913404B6139E0274A7B681B7819461F4B53F8213040F2031142F82310224B5A697B681B7894
S32D000102181946194B53F8213003F01F03012101FA03F3DB431B4913404B611CE01A4A7B681B781946104B53F8D4
S32D00010240213040F2031142F82310164B5A697B681B7819460A4B53F8213003F01F03012101FA03F3DB430F4903
S32D0001026813404B6100BF00BF0C37BD4680BC70479C77050000900440E077050000F00F4000A0044040F00F40C7
S32D0001029000B0044080F00F4000C00440C0F00F4000D0044000F10F4080B485B000AF78600023FB607B681B7851
S32D000102B81A46364B9B5C042B5CD801A252F823F0DD020100FD0201001D0301003D0301005D0301002E4B1B693C
S32D000102E07A68127811462D4A52F8212002F01F02012101FA02F21340FB603FE0284B1B697A6812781146254A10
S32D0001030852F8212002F01F02012101FA02F21340FB602FE0214B1B697A68127811461D4A52F8212002F01F02A2
S32D00010330012101FA02F21340FB601FE01A4B1B697A6812781146154A52F8212002F01F02012101FA02F21340D3
S32D00010358FB600FE0134B1B697A68127811460D4A52F8212002F01F02012101FA02F21340FB6000BFFB68002B86
S32D0001038014BF01230023DBB218461437BD4680BC704700BF9C77050000F00F40E077050040F00F4080F00F4058
S32D000103A8C0F00F4000F10F4080B584B000AF78600B46FB700B23FB73FA7BFB781946786800F094F87B681846BB
S32D000103D01037BD4680BDFFFF80B485B000AF78607B68103B002B00DA1F335B11FB60FB68022B53D0FB68022BFA
S32D000103F875DCFB68002B03D0FB68012B25D06EE0394BD3F880217B68103B594203F01F0301F01F0158BF4B42CF
S32D00010420012101FA03F332491343C1F88031304B1A687B68103B594203F01F0301F01F0158BF4B42012101FAB2
S32D0001044803F3294913430B6049E0274BD3F884217B68103B594203F01F0301F01F0158BF4B42012101FA03F3AB
S32D000104701F491343C1F884311D4B5A687B68103B594203F01F0301F01F0158BF4B42012101FA03F316491343AC
S32D000104984B6024E0144BD3F888217B68103B594203F01F0301F01F0158BF4B42012101FA03F30D491343C1F8A8
S32D000104C088310B4B9A687B68103B594203F01F0301F01F0158BF4B42012101FA03F3044913438B6000BF00BF4A
S32D000104E81437BD4680BC704700E100E080B584B000AF78600B46FB701346BB707B68FA781A70BB78FB737B6850
S32D000105101B781A46574B9B5C042B00F2A68001A252F823F03905010085050100D1050100690601001D060100B4
S32D00010538FB7B1B0403F470234D497A68127810464C4A52F8202043F4897343F0010341F82230494B5A697B68CE
S32D000105601B781946454B53F8213003F01F03012101FA03F3DB43424913404B616720FFF72BFF72E0FB7B1B04F0
S32D0001058803F470233D497A6812781046394A52F8202043F4897343F0010341F82230384B5A697B681B78194655
S32D000105B0324B53F8213003F01F03012101FA03F3DB43314913404B616820FFF705FF4CE0FB7B1B0403F4702377
S32D000105D82C497A6812781046264A52F8202043F4897343F0010341F82230274B5A697B681B7819461F4B53F80F
S32D00010600213003F01F03012101FA03F3DB43204913404B616920FFF7DFFE26E0FB7B1B0403F470231B497A6805
S32D0001062812781046134A52F8202043F4897343F0010341F82230164B5A697B681B7819460C4B53F8213003F008
S32D000106501F03012101FA03F3DB430F4913404B616B20FFF7B9FE00E000BF00BF1037BD4680BD00BF9C770500DD
S32D0001067800900440E077050000F00F4000A0044040F00F4000B0044080F00F4000D0044000F10F4080B58AB00B
S32D000106A000AF3B1D20220021184638F0EFFA0B237B600A23BB600723FB6006233B6105237B610423BB6101234C
S32D000106C8FB6100237B627B6A072B32DC1B4BD3F8A0207B6A9B0007F128010B4453F8243C012101FA03F3134090
S32D000106F0002B14BF01230023DBB2002B19D0124A7B6A52F823305A1C0F497B6A41F823200C4BD3F8A0207B6A21
S32D000107189B0007F128010B4453F8243C012101FA03F306491340C1F8A0307B6A01337B62C9E700BF2837BD46F7
S32D0001074080BD00BF00A00440FC1A0020B0B489B000AF234B3C1D1D460FCD0FC495E8030084E803000023FB61E1
S32D00010768FB69052B32DC1D4BD3F8A020FB699B0007F120010B4453F81C3C012101FA03F31340002B14BF01233B
S32D000107900023DBB2002B19D0FB690833124A52F823200132104941F823200E4BD3F8A020FB699B0007F12001EA
S32D000107B80B4453F81C3C012101FA03F307491340C1F8A030FB690133FB61C9E700BF2437BD46B0BC704700BF3E
S32D000107E0E478050000B00440FC1A0020B0B48DB000AF244B3C461D460FCD0FC40FCD0FC495E8070084E8070066
S32D000108080023FB62FB6A0A2B32DC1D4BD3F8A020FB6A9B0007F130010B4453F8303C012101FA03F31340002BE6
S32D0001083014BF01230023DBB2002B19D0FB6A0E33124A52F823200132104941F823200E4BD3F8A020FB6A9B0063
S32D0001085807F130010B4453F8303C012101FA03F307491340C1F8A030FB6A0133FB62C9E700BF3437BD46B0BCC4
S32D00010880704700BFFC78050000900440FC1A0020B0B487B000AF224B3C461D460FCD0FC42B68236000237B61F0
S32D000108A87B69042B32DC1D4BD3F8A0207B699B0007F118010B4453F8183C012101FA03F31340002B14BF012307
S32D000108D00023DBB2002B19D07B691933124A52F823200132104941F823200E4BD3F8A0207B699B0007F11801A0
S32D000108F80B4453F8183C012101FA03F307491340C1F8A0307B6901337B61C9E700BF1C37BD46B0BC704700BF09
S32D000109202879050000D00440FC1A002080B483B000AF78607B681B781A46044B53F8223018460C37BD4680BC28
S32D00010948704700BFFC1A002080B483B000AF78607B681B781946044B002243F8212000BF0C37BD4680BC70472C
S32D00010970FC1A002080B483B000AF78600B46FB707B68FA781A707B6818460C37BD4680BC7047FFFFFFFFFFFF25
S32D0001099880B586B000AF78607B681B781A463E4B53F822303B617B681B781A463B4B9B5CFB733B69DBB203F0C1
S32D000109C01F03DAB2384B1A723B69DBB203F01F03DAB2354B5A72354B1022C3F88820FB7B002B13D130493248A0
S32D000109E800F05AFA304B1B6803F08003802B14BF01230023DBB2002B00D0F3E72A4B1B697B6112E0264929485A
S32D00010A1000F046FA274B1B6803F08003802B14BF01230023DBB2002B00D0F3E7214B1B697B611E4BD3F888313C
S32D00010A381C4A43F01003C2F888311A4B9B68194A43F0100393607B699BB2184634F068FA0DA3D3E9002334F0A4
S32D00010A60DDFA02460B46104619460BA3D3E9002334F0FEFB02460B461046194634F0B0FD0346BB60BB68184694
S32D00010A881837BD4680BD00BFA4703D0AD7A30A4000000000E0FFEF4060780500BC770500DC1A002000E100E0D8
S32D00010AB000B0034000B00B4080B586B000AF78607B681B781A46234B53F822303B617B681B781A46204B9B5C82
S32D00010AD8FB733B69DBB203F01F03DAB21D4B1A723B69DBB203F01F03DAB21A4B5A72FB7B002B13D11749184873
S32D00010B0000F0CEF9164B1B6803F08003802B14BF01230023DBB2002B00D0F3E7104B1B697B6112E00D490F4834
S32D00010B2800F0BAF90D4B1B6803F08003802B14BF01230023DBB2002B00D0F3E7074B1B697B617B691846183740
S32D00010B50BD4680BD60780500BC770500EC1A002000B0034000B00B4098B500AF204B5C221A701F4B10225A7038
S32D00010B781D4B41F234225A801B4B45F278629A80194B10229A71184B0722DA71164B4FF4C022DA60144B1F221A
S32D00010BA01A72134B1F225A721149124800F078F90F49114800F074F90F4800F0D2F80D4800F0CFF80A490C4848
S32D00010BC800F06AF90849094800F066F9094A064B14460FCB84E80F00064B5C221A70054B0422DA7100BF98BD39
S32D00010BF0DC1A002000B0034000B00B40EC1A002080B500AF064B1B680133054A136000F03DF8044B0122C3F8AC
S32D00010C180C2100BF80BD00BF801B00200070034080B500AF0C4B01221A600C4800F01AF8094B0322C3F80821CC
S32D00010C40094BD3F88831084A43F01003C2F88831054B9B68044A43F01003936000BF80BD00700340A0860100F2
S32D00010C6800E100E080B483B000AF7860044A7B68C2F8003100BF0C37BD4680BC704700BF0070034080B584B0BF
S32D00010C9000AF174B1B68FB60FB68002B24D0FB685B78FB71FB689B68184600F023F80346BB71BB79002B13D09C
S32D00010CB8FB685B68012B0FDDFB689B681B69BB60BB68002B08D0BB685B685A1CBB685A60BB681B69BB60F3E7CF
S32D00010CE0FB68DB68FB60D7E700BF1037BD4680BD7C1B002080B584B000AF78607868FFF7DBFEF8607B689B694B
S32D00010D085B78FB72FB7A002B0FD17B68DB68FA689A420ADD7B689B6901225A707B685B685A1C7B685A60012300
S32D00010D3013E0FB7A012B0FD17B689B68FA689A420ADA7B689B6900225A707B685B685A1C7B685A60012300E088
S32D00010D58002318461037BD4680BD80B485B000AF78607B681B6A23F040027B681A627B685B6A23F00B027B68AD
S32D00010D805A627B685B6A43F007027B685A627B685B6A43F080027B685A627B681B6803F08003002B0CBF012313
S32D00010DA80023DBB2002B00D0F3E77B685B6A03F04003402B0CBF01230023DBB2002B01D0012364E00023FB81AC
S32D00010DD07B68DB6CFB817B689B6C9AB2FB891344FB817B685B6C9AB2FB891344FB817B681B6C9AB2FB891344E3
S32D00010DF8FB817B68DB6B9AB2FB891344FB817B689B6B9AB2FB891344FB81FB895B08FB81FB896FEA43436FEAD9
S32D00010E205343FB81FA897B68DA620023FB817B68DB6EFB817B689B6E9AB2FB891344FB817B685B6E9AB2FB899D
S32D00010E481344FB817B681B6E9AB2FB891344FB817B68DB6D9AB2FB891344FB817B689B6D9AB2FB891344FB813D
S32D00010E70FB895B08FB81FB896FEA43436FEA5343FB81FA897B681A637B685B6A23F080027B685A6200231846E2
S32D00010E981437BD4680BC704780B483B000AF786039603B681B781A467B689A603B685B781A467B68DA603B685A
S32D00010EC05B881A467B689A613B689B881A467B68DA613B689B791A467B681A623B68DB791A467B685A623B688F
S32D00010EE8DA687B681A653B681B7A1A467B681A603B685B7A1A467B685A6000BF0C37BD4680BC704780B483B06E
S32D00010F1000AF78607B6818460C37BD4680BC704780B582B000AF786039607B68012B07D13B684FF6FF72934215
S32D00010F3802D10348FFF7E6FF00BF0837BD4680BD841B002080B500AF4FF6FF710120FFF7E3FF80BD80B483B05E
S32D00010F6000AF78600B46FB707B68FA781A707B684FF4FA725A807B6840F6C4129A807B68034A9A607B68184660
S32D00010F880C37BD4680BC7047000080BF80B483B000AF786039603B68B3F5FA7F04DB3B6840F6C412934204DD33
S32D00010FB07B684FF4FA725A8004E03B689AB27B685A8000BF00BF0C37BD4680BC704780B483B000AF78603960D8
S32D00010FD83B68B3F5FA7F04DB3B6840F6C412934204DD7B6840F6C4129A8004E03B689AB27B689A8000BF00BF8B
S32D000110000C37BD4680BC70472DE9904385B000AF786039604FF00001386834F0DDFD0346002B02D04FF00003E4
S32D000110283B603149386834F0F1FD0346002B01D02D4B3B607B689B681946386834F0BEFD0346002B00D04AE048
S32D000110507B683A689A607B685C887B689B881A467B685B88D31A184633F06EFF4FF00002204B34F0FDF8024617
S32D000110780B4690469946386833F074FF02460B464046494633F0C6FF02460B461046194634F082FA03469BB2F3
S32D000110A02344FB81FB897B73FB891B123B737F211148FDF724FC05210F48FDF720FC7B681B7819460C48FDF7B6
S32D000110C81AFC3B7B19460A48FDF715FC7B7B19460748FDF710FCFF210548FDF70CFC00BF1437BD46BDE89083A5
S32D000110F0000034430080664000B00E4080B582B000AF7860B84B4FF48072DA60B74B4FF480729A64B54B4FF45E
S32D0001111880721A64B34B4FF480725A64B14B4FF48072DA60B04B5B69AF4A43F008035361AE4B5B69AD4A43F447
S32D0001114080235361AB4B5B69AA4A43F480335361A84B5B69A74A43F400335361A54B1B68A44A43F00803136005
S32D00011168A24B5B69A14A43F0080353619E4B1B689D4A43F0080313609A4B4FF480725A62984B4FF480721A625C
S32D00011190954B4FF480721A61934B4FF480725A61914B4FF480729A618F4B4FF48072DA618D4B4FF480721A63F2
S32D000111B88B4B4FF480725A63894B4FF480729A63874B4FF48072DA63854B4FF480721A64834B4FF480725A64B2
S32D000111E0814B4FF480729A647F4B4FF48072DA64814B4FF480721A607F4B4FF480729A607D4B4FF48072DA60F9
S32D000112087B4B4FF480721A61784B5B69774A43F440735361744B5B69734A43F47F2343F0F0035361734B5B69E6
S32D00011230724A43F01D035361E221786800F0B2FD1D21786800F054FE0221786800F050FE0421786800F04CFE6A
S32D00011258E021786800F0A2FD0121786800F044FE6420FEF705FFE021786800F097FD0321786800F039FE012194
S32D00011280786800F08FFD0120FEF7F6FEE621786800F088FD0121786800F02AFEA021786800F026FEFF217868AE
S32D000112A800F022FEB021786800F078FD1C21786800F01AFE0F21786800F016FE0121786800F012FE3F21786876
S32D000112D000F00EFE0021786800F00AFEEF21786800F006FE0021786800F002FEB421786800F058FD0121786829
S32D000112F800F0FAFD9921786800F0F6FD0021786800F0F2FD4521786800F0EEFD0221786800F0EAFD0021786887
S32D0001132000F0E6FD0021786800F0E2FD0021786800F0DEFDB621786800F034FD0121786800F0D6FD0921786888
S32D0001134800F0D2FD0021786800F0CEFD0E21786800F0CAFD0221786800F0C6FD0021786800F0C2FD00217868CE
S32D0001137000F0BEFDBA21786800F014FD0F21786800F0B6FD6420FEF777FE3A21786800F009FD6021786800F0C4
S32D00011398ABFD2A21786800F001FD0021786800F0A3FD0021786800F09FFD0121786800F09BFD3F21786800F08D
S32D000113C097FD2B21786800F0EDFC0021786800F08FFD0021786800F08BFD0021786800F087FDEF2178680BE01F
S32D000113E800B0044000A0044080F00F4040F00F4000C00440C0F00F4000F076FD3621786800F0CCFC002178686A
S32D0001141000F06EFDF021786800F0C4FC0421786800F066FDB821786800F0BCFC0F21786800F05EFD012178689B
S32D0001143800F05AFD314B1B68304A43F0080313606420FEF715FE3621786800F0A7FC0021786800F049FDF02176
S32D00011460786800F09FFC0421786800F041FD0121786800F013FA1E226F21786800F082F8AF225621786800F08E
S32D00011488DBF80021786800F056FA012301221C49786800F077FA2921786800F07FFC6420FEF7E6FDBE21786884
S32D000114B000F078FC0E21786800F01AFDF021786800F016FD0121786800F012FD0021786800F00EFD00217868A1
S32D000114D800F00AFD0F21786800F006FD786800F074FA0121786800F026FA0021786800F0FBF900BF0837BD46B5
S32D0001150080BD00BF40F00F403C79050080B582B000AF78607B680022DA617B6801221A627B680E225A607B6827
S32D000115281A229A607B6800225A617B6800229A617B684FF4A072DA607B68F0221A617B6800221A70786801F05C
S32D0001155019F97B6818460837BD4680BD80B582B000AF7860064B1B78002B05D1044B01221A707868FFF7C2FD36
S32D0001157800BF0837BD4680BDCC1B002080B58AB002AFF860B9607A607E23009362237A68B968F86800F052FE38
S32D000115A040F24E733B610023FB61FA693B699A4240DA0023BB61214AFB6913441B781A46BB69934232DAFB6950
S32D000115C801331C4AD35C002B06D1FF23FB75FF23BB75FF237B7512E0FB690133154AD35C012B06D1D423FB75B1
S32D000115F00023BB7526237B7505E0B523FB75BA23BB75B0237B757B7DBA7DF97DF86800F023F90246FB68DA614C
S32D00011618F86801F0B3F8F86800F0ECFFBB690133BB61C4E7FB690233FB61BAE700BF2037BD4680BD0800002039
S32D0001164080B58AB002AFF860B9607A602723009395237A68B968F86800F0F4FD40F2E6333B610023FB61FA696E
S32D000116683B699A4240DA0023BB61214AFB6913441B781A46BB69934232DAFB6901331C4AD35C002B06D1FF230B
S32D00011690FB75FF23BB75FF237B7512E0FB690133154AD35C012B06D10023FB750023BB7500237B7505E0D42367
S32D000116B8FB750023BB7526237B757B7DBA7DF97DF86800F0C5F80246FB68DA61F86801F055F8F86800F08EFFF4
S32D000116E0BB690133BB61C4E7FB690233FB61BAE700BF2037BD4680BD5807002080B582B000AF78600B46FB70A7
S32D000117087B68FA781A703621786800F047FB7B681B78032B1ED801A252F823F0351701003F17010049170100CB
S32D00011730531701000021786800F0DAFB0EE00321786800F0D5FB09E0A321786800F0D0FB04E0A021786800F0EA
S32D00011758CBFB00BF7B681B78002B03D07B681B78012B0DD17B680E225A607B681A229A607B684FF4A072DA6091
S32D000117807B68F0221A610CE07B6812225A607B6813229A607B68F022DA607B684FF4A0721A61786800F05EFCEF
S32D000117A800BF0837BD4680BD80B485B000AF78600B46FB70FB78062B29D801A252F823F0ED170100E517010081
S32D000117D0F3170100FB1701000318010009180100111801006FF07F43FB6014E00023FB6011E04FF47F03FB6065
S32D000117F80DE04FF47F43FB6009E0FF23FB6006E04FF41903FB6002E0044BFB6000BFFB6818461437BD4680BCD9
S32D00011820704700BF9999990080B584B000AF786039603B681B0CFB733B681B0ABB733B687B737B7BBA7BF97B71
S32D00011848786800F005F8034618461037BD4680BD80B487B000AF7860084611461A460346FB700B46BB701346F6
S32D000118707B70FB789B107B61BB789B103B617B789B10FB607B691A033B699B011A43FB68134318461C37BD46E6
S32D0001189880BC704780B582B000AF78600B46FB70FB7819467868FFF77FFF03461946786800F004F800BF0837EC
S32D000118C0BD4680BD80B582B000AF7860396039687868FFF7A9FF02467B681A62786800F051FF786800F0BEFBC3
S32D000118E800BF0837BD4680BD80B582B000AF78600B46FB70FB7819467868FFF755FF03461946786800F004F879
S32D0001191000BF0837BD4680BD80B582B000AF7860396039687868FFF77FFF02467B681A62786800F027FF00BF92
S32D000119380837BD4680BD80B582B000AF78600B46FB70FB7819467868FFF72EFF03461946786800F004F800BF4F
S32D000119600837BD4680BD80B582B000AF7860396039687868FFF758FF02467B68DA61786800F000FF00BF083751
S32D00011988BD4680BD80B586B000AFF860B9607A603B6000237B617B69BA6813441B78002B0FD07B69BA6813449A
S32D000119B01B783A687968F86800F0DEFC7B680C337B607B6901337B61E9E700BF1837BD4680BD80B582B000AFA3
S32D000119D87860FCF75DFE67210120FCF7C8FD00210220FCF7C4FDA0210320FCF7C0FD50210420FCF7BCFD20214C
S32D00011A000520FCF7B8FD20210620FCF7B4FD77210720FCF7B0FD00210820FCF7ACFD00210920FCF7A8FD002198
S32D00011A280A20FCF7A4FD04210B20FCF7A0FD7B684FF0FF32DA637B684FF0FF321A6400BF0837BD4680BDFFFF54
S32D00011A5080B586B000AFF860B9607A600020FCF7ACFD0346FB75FB7D03F00203002B00F0CE80FCF7BFFDE02005
S32D00011A78FCF770FD0220FEF7FBFAFCF7C5FD0120FEF7F6FAFCF7B2FDA520FCF763FD0120FEF7EEFAFCF785FDEB
S32D00011AA003469BB21B02BB82FCF77FFD03469AB2BB8A1343BB82FCF778FD03469BB21B027B82FCF772FD034688
S32D00011AC89AB27B8A13437B82BB8A1B11BB827B8A1B117B82FCF798FDFB68DB6BB3F1FF3F34D1FB681B6CB3F1C9
S32D00011AF0FF3F2FD1BA8AFB68DA637A8AFB681A647B8AC3F57F630F337B82BB8A184633F01BFA49A3D3E900233C
S32D00011B1833F080FA02460B461046194633F05CFD0246BB681A607B8A184633F009FA42A3D3E9002333F06EFA7A
S32D00011B4002460B461046194633F04AFD02467B681A605AE0FB68DA6BBB8AD31A1946F86800F074F80346632B13
S32D00011B680CDCFB681A6C7B8AD31A1946F86800F069F80346632B01DC012300E00023002B2FD0BA8AFB68DA6392
S32D00011B907A8AFB681A647B8AC3F57F630F337B82BB8A184633F0D0F923A3D3E9002333F035FA02460B461046EE
S32D00011BB8194633F011FD0246BB681A607B8A184633F0BEF91CA3D3E9002333F023FA02460B461046194633F0FD
S32D00011BE0FFFC02467B681A600FE0BB68164A1A607B68154A1A60FB684FF0FF32DA63FB684FF0FF321A6400230A
S32D00011C0810E001230EE0BB680D4A1A607B680C4A1A60FB684FF0FF32DA63FB684FF0FF321A64002318461837D3
S32D00011C30BD4680BDAFF30080144001144001B43F1EE0011EE001AE3F000080BF80B483B000AF786039603B6832
S32D00011C58002B02DA3B685B423B603B6818460C37BD4680BC704780B584B000AF786039600023FB60786800F06A
S32D00011C80B4FAFB683A6813441B78002B12D07B6859697B689869FB683A6813441B780246786800F04EFB7868D2
S32D00011CA800F0B3FAFB680133FB60E6E700BF1037BD4680BD80B592B000AF786039604FF00001386833F098FF3A
S32D00011CD00346002B1FD0386833F0A6FF03467B64786C33F087FD03461946386833F0CCFC03461F49184633F002
S32D00011CF8D1FD0346184633F093FF03463B6407F10C003B6C7A6C194937F096FB22E03B6883F000433B6038686A
S32D00011D2033F082FF03467B64786C33F063FD03461946386833F0A8FC03460D49184633F0ADFD0346184633F0BE
S32D00011D486FFF03463B6407F10C003B6C7A6C084937F072FB07F10C0319467868FFF783FF00BF4837BD4680BD64
S32D00011D7000007A44587905004C79050080B584B000AFF860C7E90023D7E9000133F028FC03461946F868FFF79D
S32D00011D9891FF00BF1037BD4680BDFFFF80B483B000AF78600B46FB704D4B1B684C4A23F0080313604B4B1B6843
S32D00011DC04A4A23F480231360484B1B68474A43F480331360454B1B68444A23F440731360414B1B68404A23F4A1
S32D00011DE8435323F0300313603E4B1A68FB785B0203F400733B4913430B603A4B1A68FB785B101B0203F4807307
S32D00011E10364913430B60344B1A68FB789B101B0103F01003304913430B602F4B1A68FB78DB105B0103F020031C
S32D00011E382B4913430B602A4B1A68FB781B119B0103F04003264913430B60254B1A68FB785B11DB01DBB2224909
S32D00011E6013430B60204B1A68FB789B111B0303F480531D4913430B601B4B1A6897F90330DB115BB25B0303F47E
S32D00011E880053174913430B60164B1B68154A23F400331360134B1B68124A43F4003313600F4B1B680E4A43F035
S32D00011EB0080313600D4B1B680C4A43F440731360094B1B68084A43F4435343F030031360064B1B68054A43F4CE
S32D00011ED88023136000BF0C37BD4680BC704700BF80F00F4040F00F4080B483B000AF78600B46FB70464B1B6812
S32D00011F00454A23F008031360444B1B68434A43F480331360414B1B68404A43F4802313603E4B1B683D4A23F406
S32D00011F28407313603A4B1B68394A23F4435323F030031360374B1A68FB785B0203F40073344913430B60334B79
S32D00011F501A68FB785B101B0203F480732F4913430B602D4B1A68FB789B101B0103F01003294913430B60284BE2
S32D00011F781A68FB78DB105B0103F02003244913430B60234B1A68FB781B119B0103F040031F4913430B601E4BC7
S32D00011FA01A68FB785B11DB01DBB21B4913430B60194B1A68FB789B111B0303F48053164913430B60144B1A6835
S32D00011FC897F90330DB115BB25B0303F40053104913430B600F4B1B680E4A23F4003313600C4B1B680B4A43F414
S32D00011FF000331360084B1B68074A43F008031360064B1B68054A23F48023136000BF0C37BD4680BC704700BF3D
S32D0001201880F00F4040F00F4080B586B000AF786000237B6107F10C0207F1100319467868FFF70AFD0346002BA9
S32D0001204005D07B69B3F57A7F01DA012300E00023002B03D07B6901337B61E7E700BF1837BD4680BD80B586B09C
S32D0001206800AF78607B6800225A617B6800229A617B681B6AFB60FB68FB72FB681B0ABB72FB681B0CDBB203F0B0
S32D0001209003037B722A217868FFF784FE00217868FFF726FF00217868FFF722FF01217868FFF71EFF3F21786802
S32D000120B8FFF71AFF2B217868FFF770FE00217868FFF712FF00217868FFF70EFF00217868FFF70AFFEF2178685E
S32D000120E0FFF706FF2C217868FFF75CFE314B1B68304A23F4407313602F4B1B682E4A23F47F2323F0F0031360FC
S32D000121082C4B1B682B4A23F01D031360274B1A687B681B6B254913430B60254B1A687B685B6B234913430B603F
S32D00012130224B1A687B689B6B204913430B601E4B1B681D4A23F0080313601A4B1B68194A43F4802313600023DF
S32D000121587B617B69EF2B19D800233B613B69B3F5A07F0FD2114B1B68104A23F4003313600E4B1B680D4A43F422
S32D00012180003313603B6901333B61EBE77B6901337B61E2E7084B1B68074A43F008031360044B1B68034A23F479
S32D000121A88023136000BF1837BD4680BD40F00F4080F00F40C0F00F4080B483B000AF78607B689B69002B07DD83
S32D000121D07B685B695A1C7B685A617B6800229A6100BF0C37BD4680BC704780B582B000AF78607B685A697B68B6
S32D000121F85B689A4205DB7B6800225A617868FFF72DFF00BF0837BD4680BD80B582B000AF78607B689B695A1CEE
S32D000122207B689A617B689A697B689B689A4205D17868FFF7C5FF7868FFF7D7FF00BF0837BD4680BD80B588B042
S32D0001224800AFF860B9607A603B60FB681B78022B03D0FB681B78032B11D17B68FB61BA6AFB691344013BBB6160
S32D00012270FB68DA68BB68D31A3B613B683A69D31A01337B610DE0BB68FB613A68FB691344013BBB617B687B61CB
S32D00012298BA6A7B691344013B3B612A21F868FFF77DFDFB691B0ADBB203F00F03DBB21946F868FFF719FEFB69ED
S32D000122C0DBB21946F868FFF713FEBB691B0ADBB203F00F03DBB21946F868FFF709FEBB69DBB21946F868FFF712
S32D000122E803FE2B21F868FFF759FD7B691B0ADBB203F00F03DBB21946F868FFF7F5FD7B69DBB21946F868FFF7D9
S32D00012310EFFD3B691B0ADBB203F00F03DBB21946F868FFF7E5FD3B69DBB21946F868FFF7DFFD2C21F868FFF7CE
S32D0001233835FD00BF2037BD4680BD80B584B000AFF860B9607A60FB707A6813465B0013449B00991CBA68134668
S32D000123601B011344DA1CFB78F86800F005F800BF1037BD4680BDFFFF80B58EB002AFF860B9607A60FB70FB7894
S32D000123880A2B06D1F868FFF72CFFF868FFF714FFF2E0FB787D2B02D8FB781F2B01D82023FB70FB78203BFB70EC
S32D000123B0112300930C237A68B968F868FFF742FFFA7813469B0013446F4AD35C3B75FA7813469B001344013328
S32D000123D86B4AD35C7B75FA7813469B0013440233674AD35CBB75FA7813469B0013440333634AD35CFB75FA784F
S32D0001240013469B00134404335F4AD35C3B760023BB62BB6A062B00F3A180F86800F050F9F86800F0B3F8002341
S32D0001242887F82F3000237B627B6A042B35DC07F114027B6A13441B7803F00103002B14BF01230023FB76FB7E7F
S32D00012450002B11D097F82F3083F00103DBB2002B03D0F86800F0CAF802E0F86800F08EF8F86800F08BF80DE0D7
S32D0001247897F82F30002B03D0F86800F01DF902E0F86800F07FF8F86800F07CF8FB7E87F82F307B6A01337B6229
S32D000124A0C6E797F82F30002B03D0F86800F008F902E0F86800F06AF8F86800F067F8002387F82F3000233B621F
S32D000124C83B6A042B42DC07F114023B6A13441B7803F00103002B14BF01230023BB76BB7E002B11D097F82F30B6
S32D000124F083F00103DBB2002B03D0F86800F07EF802E0F86800F042F8F86800F03FF80DE097F82F30002B03D029
S32D00012518F86800F0D1F802E0F86800F033F8F86800F030F8BB7E87F82F3007F114023B6A13441B785B10D9B2FC
S32D0001254007F114023B6A13440A461A703B6A01333B62B9E7BB6A0133BB625AE7F86800F0AFF8002387F82F30C3
S32D000125680123FB61FB69232B06DCF86800F00AF8FB690133FB61F5E73037BD4680BD00BF400B002080B483B0D6
S32D0001259000AF7860174B1B68164A43F480331360154B1B68144A23F008031360114B1B68104A43F4802313609B
S32D000125B80E4B1B680D4A23F4003313600B4B1B680A4A43F400331360094B1B68084A43F008031360054B1B684D
S32D000125E0044A23F48023136000BF0C37BD4680BC704700BF40F00F4080F00F4080B483B000AF78602B4B1B6875
S32D000126082A4A43F480331360294B1B68284A23F008031360254B1B68244A43F480231360224B1B68214A23F4B8
S32D0001263040731360204B1B681F4A23F47F2323F0F00313601D4B1B681C4A23F01D031360184B1A687B685B6A48
S32D00012658164913430B60164B1A687B689B6A144913430B60134B1A687B68DB6A114913430B600E4B1B680D4AF4
S32D0001268023F4003313600B4B1B680A4A43F400331360094B1B68084A43F008031360054B1B68044A23F48023AF
S32D000126A8136000BF0C37BD4680BC704740F00F4080F00F40C0F00F4080B483B000AF78602B4B1B682A4A43F4C9
S32D000126D080331360294B1B68284A23F008031360254B1B68244A43F480231360224B1B68214A23F44073136075
S32D000126F8204B1B681F4A23F47F2323F0F00313601D4B1B681C4A23F01D031360184B1A687B681B6B1649134330
S32D000127200B60164B1A687B685B6B144913430B60134B1A687B689B6B114913430B600E4B1B680D4A23F4003314
S32D0001274813600B4B1B680A4A43F400331360094B1B68084A43F008031360054B1B68044A23F48023136000BFFE
S32D000127700C37BD4680BC704740F00F4080F00F40C0F00F4080B485B000AF78607B681B6AFB60FB68FB72FB68DE
S32D000127981B0ABB72FB681B0CDBB203F003037B727B6800225A627B6800229A627B680022DA627B6800221A633E
S32D000127C07B6800225A637B6800229A637B681A6BFB7A5B0203F400731A437B681A637B681A6BFB7A5B101B0260
S32D000127E803F480731A437B681A637B685A6BFB7A9B101B0103F010031A437B685A637B685A6BFB7ADB105B01D0
S32D0001281003F020031A437B685A637B685A6BFB7A1B119B0103F040031A437B685A637B685A6BFB7A5B11DB0109
S32D00012838DBB21A437B685A637B685A6BFB7A9B111B0303F480531A437B685A637B685A6B97F90B30DB115BB2CD
S32D000128605B0303F400531A437B685A637B685A6BBB7A9B0303F480431A437B685A637B685A6BBB7A5B10DB034C
S32D000128889BB21A437B685A637B685A6BBB7A9B101B0403F480331A437B685A637B685A6BBB7ADB105B0403F46B
S32D000128B000331A437B685A637B685A6BBB7A1B119B0403F480231A437B685A637B685A6BBB7A5B11DB0403F46B
S32D000128D800231A437B685A637B689A6BBB7A9B1103F001031A437B689A637B689A6B97F90A30DB115BB29B006E
S32D0001290003F004031A437B689A637B689A6B7B7ADB0003F008031A437B689A637B689A6B7B7A5B101B0103F027
