S01200002E2E2F48382D526F626F742E733139A4
S32D0000C000000000205DC2000011C3000017C300001DC3000023C3000029C3000000000000000000000000000073
S32D0000C028000000002FC3000035C30000000000003BC3000041C3000055CB000061CB00006DCB000079CB000036
S32D0000C05085CB000091CB00009DCB0000A9CB0000B5CB0000C1CB0000CDCB0000D9CB0000E5CB0000F1CB000086
S32D0000C078FDCB000009CC000015CC000021CC00002DCC000039CC000045CC000051CC00005DCC000069CC0000A5
S32D0000C0A075CC000081CC00008DCC000099CC0000A5CC0000B1CC0000BDCC0000C9CC0000D5CC0000E1CC0000CC
S32D0000C0C8EDCC0000F9CC000005CD000011CD00001DCD000029CD000035CD000041CD00004DCD000059CD0000EC
S32D0000C0F065CD00003912010071CD00007DCD000089CD000095CD0000A1CD0000ADCD0000B9CD0000C5CD000064
S32D0000C118D1CD0000DDCD0000E9CD0000F5CD000001CE00000DCE000019CE000025CE000031CE00003DCE0000AB
S32D0000C14049CE000055CE000061CE00006DCE000071F5000079CE000085CE000091CE00009DCE0000A9CE0000EC
S32D0000C168B5CE0000C1CE0000CDCE0000D9CE0000E5CE0000F1CE0000FDCE000009CF000015CF000021CF00006C
S32D0000C1902DCF000039CF000045CF0000A5F2000055F1000005F20000D1C8000049F3000051CF00005DCF000074
S32D0000C1B869CF000034F5050000000020C817000034F505000000FF1F00000000C8170020F81A00000000FF1F79
S32D0000C1E00000000080B489B000AFF860B9607A60BB68FB61FB68BB6100237B617A697B689A420BD2BA69131DFB
S32D0000C208BB61FB69191DF96112681A607B6904337B61EFE700BF2437BD4680BC704780B485B000AF786039609E
S32D0000C2307B68FB600023BB60BA683B689A4208D2FB681A1DFA6000221A60BB680433BB60F2E700BF1437BD46FE
S32D0000C25880BC704780B586B000AF72B6234B4CF220521A80214B4DF628121A80204B4FF4E9721A801F4B7B615F
S32D0000C2807B691F4A934214D27B691A1D7A611B683B617B691A1D7A611B68FB607B691A1D7A611B68BB60BA68E9
S32D0000C2A8F9683869FFF79AFFE6E77B69134A93420ED27B691A1D7A611B68FB607B691A1D7A611B68BB60B9688B
S32D0000C2D0F868FFF7A8FFECE70B4B7B600B4A7B681A603AF067F962B600F0B8FB00F078FAFEE700BF0E200540CF
S32D0000C2F800200540BCC10000D4C10000E4C1000008ED00E000C0000080B400AFFEE780B400AFFEE780B400AFF4
S32D0000C320FEE780B400AFFEE780B400AFFEE780B400AFFEE780B400AFFEE780B400AFFEE780B400AFFEE780B426
S32D0000C34800AFFEE7FFFFFFFFFFFFFFFFFFFFFFFFFFFFFFFFFFFFFFFFFFFFFFFFFFFFFFFFFFFFFFFFFFFFFFFF57
S32D0000C370FFFFFFFFFFFFFFFFFFFFFFFFFFFFFFFFFFFFFFFFFFFFFFFFFFFFFFFFFFFFFFFFFFFFFFFFFFFFFFFFC7
S32D0000C398FFFFFFFFFFFFFFFFFFFFFFFFFFFFFFFFFFFFFFFFFFFFFFFFFFFFFFFFFFFFFFFFFFFFFFFFFFFFFFFF9F
S32D0000C3C0FFFFFFFFFFFFFFFFFFFFFFFFFFFFFFFFFFFFFFFFFFFFFFFFFFFFFFFFFFFFFFFFFFFFFFFFFFFFFFFF77
S32D0000C3E8FFFFFFFFFFFFFFFFFFFFFFFFFFFFFFFFFFFFFFFFFFFFFFFFFFFFFFFFFFFFFFFFFFFFFFFFFEFFFFFF50
S32D0000C41010B5054C237833B9044B13B10448AFF300800123237010BDC8170020000000000CE3050008B5034B5E
S32D0000C4381BB103490348AFF3008008BD00000000CC1700200CE3050080B483B000AF78607B6818460C37BD4620
S32D0000C46080BC704780B582B000AF78603960386837F0AAFC03461946034800F0FDFD00BF0837BD4680BD00BFED
S32D0000C488E417002080B582B000AF78603960386837F096FC03461946034800F0E9FD00BF0837BD4680BD00BFC5
S32D0000C4B0EC17002080B582B000AF7860034800F099FD00BF0837BD4680BD00BFE417002080B582B000AF786076
S32D0000C4D8034800F08BFD00BF0837BD4680BD00BFEC17002080B582B000AF786039607B68012B0ED13B684FF6F6
S32D0000C500FF72934209D1074A0021074800F034FD044A0121054800F02FFD00BF0837BD4680BD00BF00001041E4
S32D0000C528E4170020EC17002080B500AF4FF6FF710120FFF7D7FF80BD80B582B000AF78607868FFF781FF7B68BD
S32D0000C55018460837BD4680BD80B582B000AF7860396039687868FFF77DFF00BF0837BD4680BDFFFFFFFFFFFF2E
S32D0000C57880B582B000AF78600B4802F02FFF0346184636F0C7FF06A3D3E9002337F02CF802460B461046194680
S32D0000C5A00837BD4680BD00BF2005C771724A993FF417002080B582B000AF786039607B68012B08D13B684FF6BC
S32D0000C5C8FF72934203D10121034802F049FC00BF0837BD4680BD00BFF417002080B500AF4FF6FF710120FFF7AF
S32D0000C5F0E1FF80BD80B582B000AF78607868FFF79FFF7B680133184600F04BF87B6818460837BD4680BD90B5F1
S32D0000C61885B000AFF860C7E90023F868FFF7A8FF02460B4601210C46D7E9000137F06CFA0346002B01D1002324
S32D0000C6401C46E3B2002B04D0396AF868FFF784FF02E0F868FFF72EFFFB680133184600F03BF802460B46012122
S32D0000C6680C46D7E9000137F04FFA0346002B01D100231C46E3B2002B06D0FB680133396A184600F016F804E046
S32D0000C690FB6801331846FFF71BFF00BF1437BD4690BD80B582B000AF78607868FFF7D0FE7B6818460837BD4608
S32D0000C6B880BD80B582B000AF7860396039687868FFF7E0FE00BF0837BD4680BDFFFFFFFF80B582B000AF786013
S32D0000C6E00B4802F07FFE0346184636F017FF06A3D3E9002336F07CFF02460B46104619460837BD4680BD00BFD2
S32D0000C7082005C771724A993FF817002080B582B000AF786039607B68012B08D13B684FF6FF72934203D1002151
S32D0000C730034802F099FB00BF0837BD4680BD00BFF817002080B500AF4FF6FF710120FFF7E1FF80BD80B483B0AA
S32D0000C75800AF78607B6818460C37BD4680BC704780B483B000AF78607B6818460C37BD4680BC704780B582B0E3
S32D0000C78000AF78600021074803F06EFC0121054803F0BBFC0021034803F096FB00BF0837BD4680BDDC1A0020DA
S32D0000C7A880B582B000AF7860396038683CF084FC024613465B0013445B00C3F1A0031A4678233968034803F0B1
S32D0000C7D0C3FC00BF0837BD4680BD00BFDC1A002090B589B002AF00237B61012004F016FF03461C462046FFF70A
S32D0000C7F8B7FF3C61022004F00DFF03461C462046FFF7F4FEFC60012004F004FF03461C462046FFF79BFFBC6074
S32D0000C8203869FFF7ABFF13493869FFF7BDFF3A463B1D1946104803F0F3FC034683F00103DBB2002B00D0F2E768
S32D0000C8483A463B1D19460A4803F0E6FC0346002B00D0F5E73869FFF78DFF282300934FF00002044BF868FFF75D
S32D0000C870D2FEF6E7B85B0500DC1A00200000104080B582B000AF786039607B68012B0CD13B684FF6FF729342CE
S32D0000C89807D1064805F0B8F8054A0649034804F0B1FE00BF0837BD4680BD00BFFC17002000000020311A01007F
S32D0000C8C080B500AF4FF6FF710120FFF7D9FF80BD80B500AF0F4BD3F8A03003F48053002B14BF01230023DBB210
S32D0000C8E8002B10D0094BD3F8A030084A23F48053C2F8A030064804F011FE064B1B68054A23F40053136000BF52
S32D0000C91080BD00BF00C00440641B0020C0F00F4080B400AF124B4FF480725A63114B5B69104A43F40053536171
S32D0000C9380E4B1B680D4A43F4005313600A4B0C4A1A630C4BD3F888310A4A43F08063C2F88831084B9B68074A1A
S32D0000C96043F08063936000BFBD4680BC704700BF00C00440C0F00F4003010A0000E100E080B400AF324B0022D8
S32D0000C9885A70314B98221A702F4B9B79DBB203F01003002B14BF01230023DBB2002B00D0F2E7294B9B79DBB21B
S32D0000C9B09B0803F00303022B14BF01230023DBB2002B00D0F1E7224B18221A71204B00225A71204B03F5825354
S32D0000C9D804331F4A1A601C4B54225A711A4B9B79DBB203F02003002B0CBF01230023DBB2002B00D0F2E7144B56
S32D0000CA009B79DBB203F04003002B0CBF01230023DBB2002B00D0F2E70D4B1B78DBB20C4A03F03F03DBB2137080
S32D0000CA28094B9B79DBB29B0803F00303032B14BF01230023DBB2002B00D0F1E700231846BD4680BC704700BF71
S32D0000CA5000400640007004400000130180B500AF344B03F5815318331B68324943F4785201F5815318331A6062
S32D0000CA78FFF752FFFFF780FF2D4B58221A602C4B1B684FF47A7202FB03F32A4A1360294B1B681A46254B03F5A6
S32D0000CAA0825304331B681B0E03F00F030133B2FBF3F31A46224B1A601E4B03F581531C331B681C4943F022528A
S32D0000CAC801F581531C331A60184B03F5815310331B68164943F0006201F5815310331A60164B4FF480721A612C
S32D0000CAF0642002F067F8134B5B69124A23F010035361104B00221A600E4B10225A610E4803F00AF902F0E0FC94
S32D0000CB1802F03EFD0B4802F0B5F80B4804F052FD4FF4FA6002F060F900BF80BD00700440281A0020241A0020E2
S32D0000CB402C1A002000D00340DC1A0020201A0020D41B002080B500AFFFF7F5FB00BF80BD80B500AFFFF7EFFB45
S32D0000CB6800BF80BD80B500AFFFF7E9FB00BF80BD80B500AFFFF7E3FB00BF80BD80B500AFFFF7DDFB00BF80BD87
S32D0000CB9080B500AFFFF7D7FB00BF80BD80B500AFFFF7D1FB00BF80BD80B500AFFFF7CBFB00BF80BD80B500AFAD
S32D0000CBB8FFF7C5FB00BF80BD80B500AFFFF7BFFB00BF80BD80B500AFFFF7B9FB00BF80BD80B500AFFFF7B3FBFB
S32D0000CBE000BF80BD80B500AFFFF7ADFB00BF80BD80B500AFFFF7A7FB00BF80BD80B500AFFFF7A1FB00BF80BDC3
S32D0000CC0880B500AFFFF79BFB00BF80BD80B500AFFFF795FB00BF80BD80B500AFFFF78FFB00BF80BD80B500AFE8
S32D0000CC30FFF789FB00BF80BD80B500AFFFF783FB00BF80BD80B500AFFFF77DFB00BF80BD80B500AFFFF777FB72
S32D0000CC5800BF80BD80B500AFFFF771FB00BF80BD80B500AFFFF76BFB00BF80BD80B500AFFFF765FB00BF80BDFE
S32D0000CC8080B500AFFFF75FFB00BF80BD80B500AFFFF759FB00BF80BD80B500AFFFF753FB00BF80BD80B500AF24
S32D0000CCA8FFF74DFB00BF80BD80B500AFFFF747FB00BF80BD80B500AFFFF741FB00BF80BD80B500AFFFF73BFBEA
S32D0000CCD000BF80BD80B500AFFFF735FB00BF80BD80B500AFFFF72FFB00BF80BD80B500AFFFF729FB00BF80BD3A
S32D0000CCF880B500AFFFF723FB00BF80BD80B500AFFFF71DFB00BF80BD80B500AFFFF717FB00BF80BD80B500AF60
S32D0000CD20FFF711FB00BF80BD80B500AFFFF70BFB00BF80BD80B500AFFFF705FB00BF80BD80B500AFFFF7FFFA62
S32D0000CD4800BF80BD80B500AFFFF7F9FA00BF80BD80B500AFFFF7F3FA00BF80BD80B500AFFFF7EDFA00BF80BD78
S32D0000CD7080B500AFFFF7E7FA00BF80BD80B500AFFFF7E1FA00BF80BD80B500AFFFF7DBFA00BF80BD80B500AF9E
S32D0000CD98FFF7D5FA00BF80BD80B500AFFFF7CFFA00BF80BD80B500AFFFF7C9FA00BF80BD80B500AFFFF7C3FADD
S32D0000CDC000BF80BD80B500AFFFF7BDFA00BF80BD80B500AFFFF7B7FA00BF80BD80B500AFFFF7B1FA00BF80BDB4
S32D0000CDE880B500AFFFF7ABFA00BF80BD80B500AFFFF7A5FA00BF80BD80B500AFFFF79FFA00BF80BD80B500AFDA
S32D0000CE10FFF799FA00BF80BD80B500AFFFF793FA00BF80BD80B500AFFFF78DFA00BF80BD80B500AFFFF787FA54
S32D0000CE3800BF80BD80B500AFFFF781FA00BF80BD80B500AFFFF77BFA00BF80BD80B500AFFFF775FA00BF80BDEF
S32D0000CE6080B500AFFFF76FFA00BF80BD80B500AFFFF769FA00BF80BD80B500AFFFF763FA00BF80BD80B500AF15
S32D0000CE88FFF75DFA00BF80BD80B500AFFFF757FA00BF80BD80B500AFFFF751FA00BF80BD80B500AFFFF74BFACC
S32D0000CEB000BF80BD80B500AFFFF745FA00BF80BD80B500AFFFF73FFA00BF80BD80B500AFFFF739FA00BF80BD2B
S32D0000CED880B500AFFFF733FA00BF80BD80B500AFFFF72DFA00BF80BD80B500AFFFF727FA00BF80BD80B500AF51
S32D0000CF00FFF721FA00BF80BD80B500AFFFF71BFA00BF80BD80B500AFFFF715FA00BF80BD80B500AFFFF70FFA43
S32D0000CF2800BF80BD80B500AFFFF709FA00BF80BD80B500AFFFF703FA00BF80BD80B500AFFFF7FDF900BF80BD67
S32D0000CF5080B500AFFFF7F7F900BF80BD80B500AFFFF7F1F900BF80BD80B500AFFFF7EBF900BF80BDFFFFFFFF77
S32D0000CF7880B584B000AFF8600B467A60FB72FB68FA7A1A71FB6800225A711749786837F027F90346002B02D004
S32D0000CFA0134B7B600AE04FF07E51786837F008F90346002B02D04FF07E537B60786836F0BFFA09A3D3E90023AF
S32D0000CFC836F012FB02460B461046194636F0EEFD0246FB681A60FB6818461037BD4680BDABAAAAAAAAAA2040DF
S32D0000CFF00000404180B582B000AF78607B685B79002B09D07B6800225A717B6819791E230022034801F074FE93
S32D0000D01800BF0837BD4680BD201A002080B584B000AF786039603B687F2B02DD7F23FB7308E03B6813F1800F6F
S32D0000D04002DA8023FB7301E03B68FB737B685B79FA7B9A4209D07B68FA7B5A717B681979FA7B1E23034801F078
S32D0000D0684BFE00BF1037BD4680BD00BF201A0020B0B584B000AF786039603749386837F091F80346002B02D023
S32D0000D090334B3B6008E03349386837F0A5F80346002B01D02F4B3B60386836F049FA04460D467B681B681846CD
S32D0000D0B836F042FA4FF00002294B36F0BFFB02460B462046294636F08FFA02460B461046194636F06BFD034611
S32D0000D0E03B604FF00001386837F074F80346002B10D0386836F024FA17A3D3E9002336F077FA02460B461046BD
S32D0000D108194636F00BFD0346FB6018E0386836F013FA4FF00002134B36F066FA02460B46104619464FF0000249
S32D0000D1300D4B36F087FB02460B461046194636F0F1FC0346FB60F9687868FFF76BFF00BF1037BD46B0BD00BFF6
S32D0000D15852B81E85EB51F43F0000C8C20000C842000059400000604080B483B000AF03460A46FB711346BB7120
S32D0000D180BB79002B03D1134B00221A7002E0114B01221A703823FB710E4B1A78FB791343FB710D4B9B78DBB279
S32D0000D1A80B4A43F01003DBB29370094B9B78DBB2074A43F02003DBB29370054AFB79137100BF0C37BD4680BC7B
S32D0000D1D0704700BFFD1700200060064080B483B000AF01237B607B68312B04DC00BF7B6801337B60F7E700BF5F
S32D0000D1F80C37BD4680BC704780B582B000AF03460A46FB711346BB71134B1B7800211846FFF7AAFF00F024F815
S32D0000D220104AFB79137100F01FF80E4ABB79137100F01AF80B4B9B78DBB20A4A23F02003DBB29370074B9B7800
S32D0000D248DBB2064A23F01003DBB29370FFF7C2FF00BF0837BD4680BDFE1700200060064080B483B000AF174BDD
S32D0000D2701B78002B24D100237B60154BDB78DBB203F00203002B0CBF01230023DBB2002B0DD07B6842F210723C
S32D0000D298934203DD0B4B01221A7004E07B6801337B6000BFE5E7084BDB78DBB2064A43F00203DBB2D37000E0E4
S32D0000D2C000BF0C37BD4680BC704700BFFF1700200060064080B582B000AF0346FB71FB79184600F05FF800BF0A
S32D0000D2E80837BD4680BD80B582B000AF03460A46FB711346BB7100F035F8FB795B00DBB21846FFF7E3FFBB7916
S32D0000D3101846FFF7DFFF00F037F800BF0837BD4680BD80B500AFFF2000F03CF80346184680BD80B584B000AF3D
S32D0000D3380346FB7100F016F8FB795B005BB243F001035BB2DBB21846FFF7C0FFFFF7E5FF0346FB7300F014F8C7
S32D0000D360FB7B18461037BD4680BDFFFF80B400AF044B9B68034A43F48013936000BFBD4680BC704740F00F40D3
S32D0000D38880B400AF044B5B68034A43F48013536000BFBD4680BC704740F00F4080B485B000AF0346FB71002394
S32D0000D3B0BB73164BDB6A03F00043012B0CBF01230023DBB2002B03D0FB7B0133FB73F0E70E4BDB6A0D4A43F065
S32D0000D3D80043D3620B4AFB7953630A4BDB6A03F40033002B0CBF01230023DBB2002B00D0F3E7044B9B6BBB734A
S32D0000D400BB7B18461437BD4680BC704700C00A4080B582B000AF224B03F5815310331B681F4943F4805201F5A3
S32D0000D428815310331A601D4B4FF480721A651C4B5B691B4A43F480135361FFF7A1FF174B4FF400725A65154B4F
S32D0000D4504FF400729A65134B4FF40072DA65134B134A1A60114B134ADA6000237B607B68092B06DCFF20FFF774
S32D0000D4782DFF7B6801337B60F5E705A1D1E9000101F0C8FC00BF0837BD4680BDAFF300809A9999999999B93F87
S32D0000D4A00070044000A0044040F00F4000C00A40000C00800500003E90B486B000AFF860B9607A60FB68594AF4
S32D0000D4C893420CD1584B03F5815314331B68564943F4806201F5815314331A604FE0FB68524A93420CD1504B8D
S32D0000D4F003F5815314331B684D4943F4006201F5815314331A603EE0FB684B4A93420CD1474B03F58153143351
S32D0000D5181B68454943F4805201F5815314331A602DE0FB68434A93420CD13F4B03F5815314331B683C4943F4B5
S32D0000D540005201F5815314331A601CE0FB683C4A93420CD1364B03F5815308331B68344943F4806201F58153DE
S32D0000D56808331A600BE0304B03F5815308331B682D4943F4006201F5815308331A60FB68DB78DBB223F00C03FD
S32D0000D590DAB2FB68DA70FB6800229A70BB684FF47A7202FB03F27B681B0192FBF3F39CB2FB681B78DBB223F00B
S32D0000D5B81F03FB7523461B12DBB203F01F03DAB2FB7D1343DAB2FB681A70E2B2FB685A70BB684FF4FA4202FB48
S32D0000D5E003F27B681B0192FBF3F39AB263019BB2D31A9CB2FB689B7ADBB223F01F03FB75E3B203F01F03DAB29E
S32D0000D608FB7D1343DAB2FB689A72FB68DB78DBB243F00C03DAB2FB68DA7000BF1837BD4690BC704700A0064073
S32D0000D6300070044000B0064000C0064000D0064000A00E4080B483B000AF78607B681B79DBB203F02003002BE5
S32D0000D6580CBF01230023DBB2002B00D0F2E77B68DB79DBB218460C37BD4680BC704780B483B000AF78600B4697
S32D0000D680FB707B681B79DBB25BB2DB43DBB2DB09DBB2002B00D0F4E77B68FA78DA7100BF0C37BD4680BC704776
S32D0000D6A880B487B000AFF860B9607A60FB687B617B685A1E7A60002B14BF01230023DBB2002B06D07B695A1C4E
S32D0000D6D07A61BA68D2B21A70EEE700BF1C37BD4680BC704780B584B000AF786039607B681B6BFB60FA683B68F2
S32D0000D6F89A4252D07B681B79002B35D07B6858787B6803F134010123FA6801F0F5F80346002B14BF01230023AE
S32D0000D720DBB2002B01D001233CE07B6800221A717B685A6A7B681B6A1344FA689A4217D27B68DB78FB72FB7ADD
S32D0000D748012B11D97B681B6AFA681344FB607B6858787B6803F134010123FA6801F0CCF8FB7A013BFB72EAE738
S32D0000D7703B68002B15D07B6858787B6803F1340101233A6800F0D8FF0346002B14BF01230023DBB2002B01D075
S32D0000D798012303E07B683A681A63002318461037BD4680BD80B584B000AF786000217868FFF794FF0346FB7321
S32D0000D7C0FB7B002B40F091807B681B78032B7BD17B685B79002B77D07B6800221A637B6834334FF4007200219E
S32D0000D7E81846FFF75DFF7B68552283F832227B68AA2283F833227B68522283F834207B68522283F835207B688B
S32D0000D810612283F836207B68412283F837207B68722283F818227B68722283F819227B68412283F81A227B6845
S32D0000D838612283F81B227B681B69DAB27B6883F81C227B681B699BB21B12DAB27B6883F81D227B681B691B0C60
S32D0000D860DAB27B6883F81E227B681B691B0EDAB27B6883F81F227B68DB68DAB27B6883F820227B68DB689BB2F0
S32D0000D8881B12DAB27B6883F821227B68DB681B0CDAB27B6883F822227B68DB681B0EDAB27B6883F823227B683C
S32D0000D8B058787B6803F134017B685A69012301F01FF87B6800225A717B685B7800220021184601F0E1F8034662
S32D0000D8D8002B14BF01230023DBB2002B01D00123FB73FB7B18461037BD4680BD80B582B000AF78600B467B802D
S32D0000D9007B68002B08D07B681B78002B04D07B68DB887A889A4201D0092311E07B685B78184601F03BF903460A
S32D0000D92803F00103002B14BF01230023DBB2002B01D0032300E0002318460837BD4680BD80B586B000AF786014
S32D0000D9507B681A687B689B8819461046FFF7CAFF0346FB75FB7D002B40F0A8807B689B7903F02003002B00F0EE
S32D0000D978A1807B689B7903F04003002B1BD07B681B6858787B6803F128017B689A69012300F0B2FF0346002BC8
S32D0000D9A014BF01230023DBB2002B01D0012386E07B689B7923F04003DAB27B689A717B681A687B68DB6919467A
S32D0000D9C81046FFF78BFE0346FB75FB7D002B71D17B681B6A3B613B690B331A783B690B3342F02002D2B21A7002
S32D0000D9F07B68DA683B691C33D2B21A707B68DB689BB21A123B691D33D2B21A707B68DB681A0C3B691E33D2B27D
S32D0000DA181A707B68DB681A0E3B691F33D2B21A707B681A693B691A33D2B21A707B681B699BB21A123B691B33CD
S32D0000DA40D2B21A707B681B691A0C3B691433D2B21A707B681B691B0C9BB21A123B691533D2B21A700023FB60A5
S32D0000DA683B691633FA68D2B21A70FB689BB21A123B691733D2B21A70FB681A0C3B691833D2B21A70FB681A0E4A
S32D0000DA903B691933D2B21A707B689B7923F02003DAB27B689A717B681B6801221A717B681B681846FFF77AFE7D
S32D0000DAB80346FB75FB7D18461837BD4680BD80B584B000AF78607868FFF73AFF0346FB73FB7B002B02D17B6815
S32D0000DAE000221A60FB7B18461037BD4680BDFFFF80B588B000AF7860396080233B610F23FB604FF0FF337B617D
S32D0000DB080223FB61FB69B3F5807F23D80123BB61BB69102B1AD8FB69BA6902FB03F33A6802FB03F27B68D31AF9
S32D0000DB30BB60BB68002B09DBBB687A699A4205D9BB687B61FB693B61BB69FB60BB690133BB61E1E7FB695B0041
S32D0000DB58FB61D7E71D4BDB6A1C4A23F00803D3621A4BDB6A23F47F2323F47F63BB613B695B081B029AB2FB68D4
S32D0000DB80013B1B01DBB21A43BB691343114A43F46023D3620F4B5B6A03F00803002B0CBF01230023DBB2002B5F
S32D0000DBA803D00A2001F020F9F0E7084BDB6A074A43F00803D362054B1B6B044A43F48013136300BF2037BD4698
S32D0000DBD080BD00BF00100B4080B582B000AF786039607B6800221A60424B434ADA62414BDB6A03F08073002B92
S32D0000DBF814BF01230023DBB2002B00D0F3E73B4B0022C3F8C020394B4FF481325A60374B28229A62354B4FF085
S32D0000DC2001125A643B689B6834491846FFF760FF304B5B6A03F00303002B14BF01230023DBB2002B00D0F3E74F
S32D0000DC482D4B40F243421A602B4B40F243425A60294B4FF488629A60274B40F24342DA60254B40F243421A617E
S32D0000DC70234B40F243425A61224B03F5815310331B68204943F4003201F5815310331A60184B4FF6FF721A63B8
S32D0000DC98164B1B4A5A63154BDB6A144A43F00063D362124BDB6A03F00063002B14BF01230023DBB2002B00D048
S32D0000DCC0F3E70C4B5B6A03F48033002B14BF01230023DBB2002B02D07B6801221A60054B1B6B044A43F080036D
S32D0000DCE81363002318460837BD4680BD00100B400080000160CC050000D0044000700440B3007F0080B400AFAE
S32D0000DD10064B5A6A40F207331340002B14BF01230023DBB21846BD4680BC704700100B4080B485B000AF7860A0
S32D0000DD38074B1B6B7A681340FB60FB68002B00D1F6E7FB6818461437BD4680BC704700BF00100B4080B584B094
S32D0000DD6000AF78607B681B7803F03F03764A52F82330FB60FB68002B05D17B681B78002B01D00123DCE0714B39
S32D0000DD881B6B704A43F0800313636E4B5B6A03F00103002B14BF01230023DBB2002B00D0F3E7684A7B685B688D
S32D0000DDB09360FB6823F44003FB607B685B789B0503F44003FA681343FB607B685B78022B03D1FB6843F4001333
S32D0000DDD8FB607B685B78042B16D1FB6803F44033B3F5003F08D1FB6823F44033FB60FB6843F44033FB6007E0D2
S32D0000DE00FB6823F44033FB60FB6843F40033FB604E4B5B684D4A9BB253607B68DB68002B2AD0FB6803F4403379
S32D0000DE28B3F5403F03D0FB6843F40013FB607B681B7A002B03D0FB6843F01003FB607B68DB68012B03D9FB68BF
S32D0000DE5043F02003FB607B68DB68B3F1FF3F0BD03A4B5A687B68DB681B04384913434B60FB6843F00203FB600C
S32D0000DE78344B00221A60334AFB68D3603248FFF753FF0346012B14BF01230023DBB2002B09D02C4B1B6B2B4AFA
S32D0000DEA043F4702343F001031363012348E0274B1B6B03F08003002B14BF01230023DBB2002B07D0214B1B6B5D
S32D0000DEC8204A43F001131363012335E01D4B1B6B03F48033002B14BF01230023DBB2002B08D0184B1B6B174A15
S32D0000DEF043F0011313634FF0FF3321E0FB6803F44033002B15D0114B1A697B681A61FB6803F44033B3F5803F87
S32D0000DF180BD10C4B5A697B685A610A4B9A697B689A61084BDA697B68DA61064B1B6B054A43F001031363002367
S32D0000DF4018461037BD4680BDD45B050000100B4001000E0080B592B000AF7860396000237B643B68BB63994BF2
S32D0000DF687B637B6B002B02D140F6012362E3964B3B633B6B002B02D140F60B235AE33B6B1B68FB62FB6A002B50
S32D0000DF9002D140F60B2351E37B6841F20932934200F242837B68B3F5985F08D87B68032B00F01D837B68092B01
S32D0000DFB800F00C8334E37B68A3F59853013B082B00F22E8301A252F823F000BFF9DF0000E9E2000047E500009F
S32D0000DFE0FFE200003DE3000067E40000AFE40000F1E300000BE400007649786BFFF7ECFD78647B6C002B40F0D2
S32D0000E0081383002387F84330002387F82B30002387F82A30002387F82930002387F84230002387F8283000231A
S32D0000E0303B7200237B720023FB6000233B7400237B6107F108031846FFF788FE0346002B14BF01230023DBB2BE
S32D0000E058002B02D001237B64EBE240F24C4000F0C3FE08233B7200237B724FF4D573FB6000233B7400237B61BF
S32D0000E08007F108031846FFF769FEF863FB6B002B09D1BA69FB689A4202D001237B64CCE2012387F842300123D0
S32D0000E0A887F8283097F82830002B00F0A58037233B7200237B720023FB6000233B7400237B6107F10803184685
S32D0000E0D0FFF744FEF863FB6B002B02D001237B64ABE269233B7200237B720023FB6000233B7400237B6107F10C
S32D0000E0F808031846FFF72EFE0346002B14BF01230023DBB2002B02D001237B6491E2BB6903F44013002B6FD009
S32D0000E1200023FB630A2000F063FEFB6B0133FB6337233B7200237B720023FB6000233B7400237B6107F1080374
S32D0000E1481846FFF707FE0346002B14BF01230023DBB2002B02D001237B6428E069233B7200237B7297F84230E3
S32D0000E170002B02D0184BFB6002E04FF44013FB6000233B7400237B6107F108031846FFF7E5FD0346002B14BFA2
S32D0000E19801230023DBB2002B02D001237B6406E0BB69002B03DBFB6B632B00D8B6E77B6C002B40F03B82FB6BA4
S32D0000E1C0632B0BD9002387F8423019E014180020181A0020C85B050000003040012387F8433097F84230002B3A
S32D0000E1E80AD0002387F84230BB6903F08043002B02D0012387F8423097F82A30002B02D07B6B07221A6097F831
S32D0000E2102930002B02D07B6B08221A6097F82B30002B02D07B6B04221A6097F84330002B09D07B6B02221A6009
S32D0000E23897F84230002B02D07B6B03221A6097F82B30002B0DD097F84330002B09D07B6B05221A6097F84230B5
S32D0000E260002B02D07B6B06221A60A04B00221A609E4B00225A609D4B00229A609B4B0022DA609A4B00221A61F7
S32D0000E288984B00225A61FB6A9A68FB6A5B6819461046FFF729FC934B40F243421A60914B40F243425A608F4B13
S32D0000E2B04FF488629A608D4B40F24342DA608B4B40F243421A61894B40F243425A61884B03F5815310331B689D
S32D0000E2D8854943F4003201F5815310331A60A8E1B86BFFF737FDF863FB6B002B00F0A08102237B649CE1BB6BE0
S32D0000E300002B02D10C237B6497E17A4BDB6A1B0A5B0003F4FF73FB63764BDB6A1B0903F00F035A1CFB6B02FB12
S32D0000E32803F3FB63FB6A9A68FB6BB2FBF3F2BB6B1A607EE1BB6B002B02D10C237B6478E1BB6B1B68002B02D1E3
S32D0000E3500C237B6471E1FFF7D9FC0346002B0CBF01230023DBB2002B3ED0604B00221A605E4B00225A605D4BB4
S32D0000E37800229A605B4B0022DA605A4B00221A61584B00225A61FB6A9A68BB6B1B6819461046FFF7A9FB534B9A
S32D0000E3A040F243421A60514B40F243425A604F4B4FF488629A604D4B40F24342DA604B4B40F243421A61494B6B
S32D0000E3C840F243425A61484B03F5815310331B68454943F4003201F5815310331A6028E140F60A237B6424E1C2
S32D0000E3F0BB6B002B02D10C237B641EE13D4B5B68C3F30C02BB6B1A6017E1BB6B002B02D10C237B6411E1FFF70D
S32D0000E41879FC0346002B0CBF01230023DBB2002B19D0BB6B1B68B3F5805F02D30C237B64FFE02E4B5B682D4A95
S32D0000E44023F4FF5323F01F0353602A4B5A68BB6B1B68C3F30C03274913434B60EDE040F60A237B64E9E0BB6B49
S32D0000E468002B02D10C237B64E3E0204B9B6A5B0803F00303FB63FB6B002B03D1BB6B00221A60D6E0FB6B012B1E
S32D0000E49003D1BB6B01221A60CFE0FB6B102B03D1BB6B02221A60C8E005237B64C5E0BB6B002B02D10C237B6459
S32D0000E4B8BFE0FFF727FC0346002B0CBF01230023DBB2002B37D0BB6B1B68002B10D1074B9B6A064A23F00603C1
S32D0000E4E09362044B034A9B6A9362A6E000D004400070044000100B40BB6B1B68012B0CD1504B9B6A4F4A23F0DC
S32D0000E508060393624D4B9B6A4C4A43F0020393628FE0BB6B1B68022B0AD1484B9B6A474A23F006039362454B9D
S32D0000E530444A9B6A936280E005237B647DE040F60A237B6479E0BB6B002B02D10C237B6473E03C4BDB6A3B4A00
S32D0000E55843F00063D362394BDB6A03F00063002B14BF01230023DBB2002B00D0F3E7334B1B6B03F08003002B5F
S32D0000E58014BF01230023DBB2002B08D02D4B1B6B2C4A43F0800313637B6B00221A60294B5B6A03F48033002B93
S32D0000E5A814BF01230023DBB2002B07D07B6B1B68002B06D17B6B01221A6002E07B6B00221A607B6B1A68BB6BBC
S32D0000E5D01A6032E0BB6B1C221A60BB6B043304221A60BB6B08334FF41E721A6025E00220FFF79EFB134B1B6B6E
S32D0000E5F803F4E003002B14BF01230023DBB2002B07D00E4B1B6B0D4A43F4E003136304237B640A4B1B6B094A4D
S32D0000E62043F03203136308E040F609237B6404E000BF02E000BF00E000BF7B6C18464837BD4680BD00100B4083
S32D0000E64880B489B000AF786039607B687B61364B3B613B69002B01D100235FE03B691B68022B0BD03B691B68E2
S32D0000E670032B07D03B691B68072B03D03B691B68082B0BD12B4B5B6A03F00403002B14BF01230023DBB2002BE3
S32D0000E69800D0F3E73B68FB61FB69002B3DD0FB69B3F5007F28BF4FF40073FB60FB6803339B08BB61BB69002BE5
S32D0000E6C02AD01C4B1B6B03F4E003002B14BF01230023DBB2002B09D0164B1B6B154A43F4E00343F02003136369
S32D0000E6E800231BE0114B5B6A03F40063002B0CBF01230023DBB2002B00D0F3E70B497B691A1D7A610A6A1A6094
S32D0000E710BB69013BBB61D1E7FA69FB68D31AFB61BEE7012318462437BD4680BC704700BF1418002000100B40BA
S32D0000E73880B58EB000AFB9607A601A460346FB731346BB73414B7B63FB7B002B02D1BB7B002B01D1042375E073
S32D0000E7603D4B1B78DBB203F00103002B14BF01230023DBB2002B01D0032367E0BB68002B01D1002362E07B6B46
S32D0000E7881B7B002B02D17B685B027B60BB7B012B28D111233B7500237B757B68BB6101233B77BB7B3B6207F1C2
S32D0000E7B01403194641F20230FFF7CCFB0346002B0CBF01230023DBB2002B38D04FF40071B868FFF739FF034612
S32D0000E7D8002B14BF01230023DBB2002B2BD00023BB7328E012233B7500237B757B68BB6101233B77BB7B3B6222
S32D0000E80007F11403194641F20230FFF7A3FB0346002B0CBF01230023DBB2002B0FD0BB7B5B021946B868FFF75E
S32D0000E8280FFF0346002B14BF01230023DBB2002B01D00023BB73BB7B002B01D0012300E0002300BF1846383767
S32D0000E850BD4680BD001800200400002080B487B000AF786039607B68FB603B687B617B69002B3DD07B69B3F50E
S32D0000E878007F28BF4FF400733B617A693B69D31A7B613B6903339B083B613B69002BEAD0184B1B6B03F4E00305
S32D0000E8A0002B14BF01230023DBB2002B0AD0134B1B6B124A43F4E00343F0100313634FF0FF3316E00D4B5B6AD9
S32D0000E8C803F48063002B0CBF01230023DBB2002B00D0F3E7FB681A1DFA60064A1B6813623B69013B3B61D0E73A
S32D0000E8F0012318461C37BD4680BC704700100B4080B58EB000AFB9607A601A460346FB731346BB735D4B7B639B
S32D0000E918FB7B002B02D1BB7B002B01D10423ADE0594B1B78DBB203F00103002B14BF01230023DBB2002B01D0ED
S32D0000E94003239FE0524B1B78DBB203F00403002B14BF01230023DBB2002B01D0022391E0BB68002B01D10023A6
S32D0000E9688CE07B6B1B7B002B02D17B685B027B60BB7B012B28D118233B7500237B757B68BB6100233B77BB7B1D
S32D0000E9903B6207F11403194641F20230FFF7DAFA0346002B0CBF01230023DBB2002B38D04FF40071B868FFF70F
S32D0000E9B851FF0346002B14BF01230023DBB2002B2BD00023BB7328E019233B7500237B757B68BB6100233B7774
S32D0000E9E0BB7B3B6207F11403194641F20230FFF7B1FA0346002B0CBF01230023DBB2002B0FD0BB7B5B021946B3
S32D0000EA08B868FFF727FF0346002B14BF01230023DBB2002B01D00023BB730D233B7500237B757B6B1B69BB61C3
S32D0000EA3000233B7700233B6207F11403194641F20230FFF787FA0346002B14BF01230023DBB2002B01D001239E
S32D0000EA5814E07A6A0D4B1340002B01D001230DE07B6A03F4F853B3F5106F00D0D5E7BB7B002B01D0012300E0F0
S32D0000EA80002300BF18463837BD4680BD00180020040000200880D9FF80B58CB000AF03463A60FB710B46BB71D1
S32D0000EAA83A4BBB62FB79002B01D0042369E0012387F82F30364B1B78DBB203F00103002B14BF01230023DBB252
S32D0000EAD0002B01D0032358E0BB79032B50D801A252F823F0F5EA0000FDEA00000DEB00001DEB0000002387F8CC
S32D0000EAF82F3044E0BB6A9A683B681A60002387F82F303CE03B684FF400721A80002387F82F3034E009233B722C
S32D0000EB2000237B72BB6A1B69FB6000233B7400237B6107F10803194641F20230FFF70AFA0346002B14BF0123B6
S32D0000EB480023DBB2002B01D001231AE07B6A03F44003002B0CD13B6A9B0C03F07F035A1C7B6A1B0A03F0030374
S32D0000EB70013B9A403B681A60002387F82F3002E0042387F82F3097F82F3018463037BD4680BD00BF0018002072
S32D0000EB980400002080B483B000AF0346FB71FB79002B01D0012302E0034B1B78DBB218460C37BD4680BC7047E5
S32D0000EBC00400002080B483B000AF7860174B03F5815318331B68154943F0010201F5815318331A60124A7B68B7
S32D0000EBE89360114B05225A600F4B1B680E4A43F0010313600C4B1B6803F08003002B0CBF01230023DBB2002BAB
S32D0000EC1000D0F3E7064B1B68054A23F00103136000BF0C37BD4680BC704700BF007004400000044080B582B069
S32D0000EC3800AF786039607B68012B07D13B684FF6FF72934202D1034800F00EF800BF0837BD4680BD201A0020CD
S32D0000EC6080B500AF4FF6FF710120FFF7E3FF80BD80B483B000AF78607B6800221A707B6818460C37BD4680BC77
S32D0000EC887047FFFF80B582B000AF78607B681B7883F00103DBB2002B21D0134B03F5815308334FF400621A60A1
S32D0000ECB0104B4FF440721A620E4B4FF440725A620D4B1B68DA0F13445B104FF4614219460A48FEF7F1FB6420DE
S32D0000ECD800F08AF87B6801221A70012300E0002318460837BD4680BD0070044000D00440241A002000B00E40E4
S32D0000ED0080B582B000AF7860084611461A460346FB700B46BB7013467B707F210E48FEF7AAFC08210C48FEF77B
S32D0000ED28A6FCFB7819460A48FEF7A1FCBB7819460748FEF79CFC7B7819460548FEF797FCFF210348FEF793FCE1
S32D0000ED5000BF0837BD4680BD00B00E4080B487B000AFF860B9607A60FB681F4AA2FB03239B09BA6813447B616C
S32D0000ED78FB681B4AA2FB031292094FF47A7101FB02F29B1AFB60FB68DB03154AA2FB03239B097A6813443B614E
S32D0000EDA03B69DB0B7A6913447B613B69C3F30E033B610E4B1B687A699A4209D80B4B1B687A699A4206D1094B5F
S32D0000EDC85B683A699A4201D9012300E00023002B00D0EAE700BF1C37BD4680BC704700BFD34D621000D00340A2
S32D0000EDF080B584B000AF7860074B1B68FB60064B5B68BB607B68BA68F9681846FFF7A6FF00BF1037BD4680BD01
S32D0000EE1800D0034080B584B000AFC7E900010E4B1B68FB600C4B5B68BB604FF000020B4BD7E9000134F0D8FB35
S32D0000EE4002460B461046194634F094FE0346BA68F9681846FFF782FF00BF1037BD4680BD00D0034000408F4097
S32D0000EE6880B584B000AF78600B46FB700B23FB73FA7BFB781946786800F094F87B6818461037BD4680BDFFFFCB
S32D0000EE9080B485B000AF78607B68103B002B00DA1F335B11FB60FB68022B53D0FB68022B75DCFB68002B03D023
S32D0000EEB8FB68012B25D06EE0394BD3F880217B68103B594203F01F0301F01F0158BF4B42012101FA03F3324949
S32D0000EEE01343C1F88031304B1A687B68103B594203F01F0301F01F0158BF4B42012101FA03F3294913430B606E
S32D0000EF0849E0274BD3F884217B68103B594203F01F0301F01F0158BF4B42012101FA03F31F491343C1F88431FE
S32D0000EF301D4B5A687B68103B594203F01F0301F01F0158BF4B42012101FA03F3164913434B6024E0144BD3F855
S32D0000EF5888217B68103B594203F01F0301F01F0158BF4B42012101FA03F30D491343C1F888310B4B9A687B68E3
S32D0000EF80103B594203F01F0301F01F0158BF4B42012101FA03F3044913438B6000BF00BF1437BD4680BC704753
S32D0000EFA800E100E080B584B000AF78600B46FB701346BB707B68FA781A70BB78FB737B681B781A46574B9B5C5B
S32D0000EFD0042B00F2A68001A252F823F0F1EF00003DF0000089F0000021F10000D5F00000FB7B1B0403F4702350
S32D0000EFF84D497A68127810464C4A52F8202043F4897343F0010341F82230494B5A697B681B781946454B53F877
S32D0000F020213003F01F03012101FA03F3DB43424913404B616720FFF72BFF72E0FB7B1B0403F470233D497A6821
S32D0000F04812781046394A52F8202043F4897343F0010341F82230384B5A697B681B781946324B53F8213003F091
S32D0000F0701F03012101FA03F3DB43314913404B616820FFF705FF4CE0FB7B1B0403F470232C497A6812781046A2
S32D0000F098264A52F8202043F4897343F0010341F82230274B5A697B681B7819461F4B53F8213003F01F03012114
S32D0000F0C001FA03F3DB43204913404B616920FFF7DFFE26E0FB7B1B0403F470231B497A6812781046134A52F85D
S32D0000F0E8202043F4897343F0010341F82230164B5A697B681B7819460C4B53F8213003F01F03012101FA03F3B1
S32D0000F110DB430F4913404B616B20FFF7B9FE00E000BF00BF1037BD4680BD00BFD45C050000900440185D0500FD
S32D0000F13800F00F4000A0044040F00F4000B0044080F00F4000D0044000F10F4080B58AB000AF3B1D2022002127
S32D0000F160184638F053F80B237B600A23BB600723FB6006233B6105237B610423BB610123FB6100237B627B6A69
S32D0000F188072B32DC1B4BD3F8A0207B6A9B0007F128010B4453F8243C012101FA03F31340002B14BF01230023E2
S32D0000F1B0DBB2002B19D0124A7B6A52F823305A1C0F497B6A41F823200C4BD3F8A0207B6A9B0007F128010B44B1
S32D0000F1D853F8243C012101FA03F306491340C1F8A0307B6A01337B62C9E700BF2837BD4680BD00BF00A0044079
S32D0000F200501A0020B0B489B000AF234B3C1D1D460FCD0FC495E8030084E803000023FB61FB69052B32DC1D4BB9
S32D0000F228D3F8A020FB699B0007F120010B4453F81C3C012101FA03F31340002B14BF01230023DBB2002B19D0D7
S32D0000F250FB690833124A52F823200132104941F823200E4BD3F8A020FB699B0007F120010B4453F81C3C0121F0
S32D0000F27801FA03F307491340C1F8A030FB690133FB61C9E700BF2437BD46B0BC704700BF1C5E050000B0044035
S32D0000F2A0501A0020B0B48DB000AF244B3C461D460FCD0FC40FCD0FC495E8070084E807000023FB62FB6A0A2BA3
S32D0000F2C832DC1D4BD3F8A020FB6A9B0007F130010B4453F8303C012101FA03F31340002B14BF01230023DBB2B0
S32D0000F2F0002B19D0FB6A0E33124A52F823200132104941F823200E4BD3F8A020FB6A9B0007F130010B4453F89E
S32D0000F318303C012101FA03F307491340C1F8A030FB6A0133FB62C9E700BF3437BD46B0BC704700BF345E0500D0
S32D0000F34000900440501A0020B0B487B000AF224B3C461D460FCD0FC42B68236000237B617B69042B32DC1D4B58
S32D0000F368D3F8A0207B699B0007F118010B4453F8183C012101FA03F31340002B14BF01230023DBB2002B19D022
S32D0000F3907B691933124A52F823200132104941F823200E4BD3F8A0207B699B0007F118010B4453F8183C0121AA
S32D0000F3B801FA03F307491340C1F8A0307B6901337B61C9E700BF1C37BD46B0BC704700BF605E050000D0044098
S32D0000F3E0501A002080B483B000AF78607B681B781A46044B53F8223018460C37BD4680BC704700BF501A0020E5
S32D0000F40880B483B000AF78600B46FB707B68FA781A707B6818460C37BD4680BC7047FFFF80B586B000AF7860E3
S32D0000F4307B681B781A46234B53F822303B617B681B781A46204B9B5CFB733B69DBB203F01F03DAB21D4B1A72C5
S32D0000F4583B69DBB203F01F03DAB21A4B5A72FB7B002B13D11749184800F0CCF9164B1B6803F08003802B14BFB1
S32D0000F48001230023DBB2002B00D0F3E7104B1B697B6112E00D490F4800F0B8F90D4B1B6803F08003802B14BFEB
S32D0000F4A801230023DBB2002B00D0F3E7074B1B697B617B6918461837BD4680BD985D0500F45C0500401A002041
S32D0000F4D000B0034000B00B4098B500AF204B5C221A701F4B10225A701D4B41F234225A801B4B45F278629A80EF
S32D0000F4F8194B10229A71184B0722DA71164B4FF4C022DA60144B1F221A72134B1F225A721149124800F076F904
S32D0000F5200F49114800F072F90F4800F0D0F80D4800F0CDF80A490C4800F068F90849094800F064F9094A064B0D
S32D0000F54814460FCB84E80F00064B5C221A70054B0422DA7100BF98BD301A002000B0034000B00B40401A0020E6
S32D0000F57080B500AF064B1B680133054A136000F03BF8044B0122C3F80C2100BF80BD00BFD41A002000700340C6
S32D0000F59880B500AF0B4800F01BF80B4B0322C3F808210A4BD3F88831084A43F01003C2F88831064B9B68054A25
S32D0000F5C043F01003936000BF80BD00BFA08601000070034000E100E080B483B000AF7860044A7B68C2F8003184
S32D0000F5E800BF0C37BD4680BC704700BF0070034080B584B000AF174B1B68FB60FB68002B24D0FB685B78FB710F
S32D0000F610FB689B68184600F023F80346BB71BB79002B13D0FB685B68012B0FDDFB689B681B69BB60BB68002BB5
S32D0000F63808D0BB685B685A1CBB685A60BB681B69BB60F3E7FB68DB68FB60D7E700BF1037BD4680BDD01A0020E8
S32D0000F66080B584B000AF78607868FFF7DDFEF8607B689B695B78FB72FB7A002B0FD17B68DB68FA689A420ADD91
S32D0000F6887B689B6901225A707B685B685A1C7B685A60012313E0FB7A012B0FD17B689B68FA689A420ADA7B6844
S32D0000F6B09B6900225A707B685B685A1C7B685A60012300E0002318461037BD4680BD80B485B000AF78607B68A4
S32D0000F6D81B6A23F040027B681A627B685B6A23F00B027B685A627B685B6A43F007027B685A627B685B6A43F006
S32D0000F70080027B685A627B681B6803F08003002B0CBF01230023DBB2002B00D0F3E77B685B6A03F04003402BF6
S32D0000F7280CBF01230023DBB2002B01D0012364E00023FB817B68DB6CFB817B689B6C9AB2FB891344FB817B68FB
S32D0000F7505B6C9AB2FB891344FB817B681B6C9AB2FB891344FB817B68DB6B9AB2FB891344FB817B689B6B9AB213
S32D0000F778FB891344FB81FB895B08FB81FB896FEA43436FEA5343FB81FA897B68DA620023FB817B68DB6EFB81F2
S32D0000F7A07B689B6E9AB2FB891344FB817B685B6E9AB2FB891344FB817B681B6E9AB2FB891344FB817B68DB6D23
S32D0000F7C89AB2FB891344FB817B689B6D9AB2FB891344FB81FB895B08FB81FB896FEA43436FEA5343FB81FA892E
S32D0000F7F07B681A637B685B6A23F080027B685A62002318461437BD4680BC704780B483B000AF786039603B68C3
S32D0000F8181B781A467B689A603B685B781A467B68DA603B685B881A467B689A613B689B881A467B68DA613B6854
S32D0000F8409B791A467B681A623B68DB791A467B685A623B68DA687B681A653B681B7A1A467B681A603B685B7A1D
S32D0000F8681A467B685A6000BF0C37BD4680BC704780B483B000AF78607B6818460C37BD4680BC704780B582B0AE
S32D0000F89000AF786039607B68012B07D13B684FF6FF72934202D10348FFF7E6FF00BF0837BD4680BDD81A0020CC
S32D0000F8B880B500AF4FF6FF710120FFF7E3FF80BD80B582B000AF7860B84B4FF48072DA60B74B4FF480729A64BE
S32D0000F8E0B54B4FF480721A64B34B4FF480725A64B14B4FF48072DA60B04B5B69AF4A43F008035361AE4B5B6984
S32D0000F908AD4A43F480235361AB4B5B69AA4A43F480335361A84B5B69A74A43F400335361A54B1B68A44A43F0A6
S32D0000F93008031360A24B5B69A14A43F0080353619E4B1B689D4A43F0080313609A4B4FF480725A62984B4FF49D
S32D0000F95880721A62954B4FF480721A61934B4FF480725A61914B4FF480729A618F4B4FF48072DA618D4B4FF444
S32D0000F98080721A638B4B4FF480725A63894B4FF480729A63874B4FF48072DA63854B4FF480721A64834B4FF444
S32D0000F9A880725A64814B4FF480729A647F4B4FF48072DA64814B4FF480721A607F4B4FF480729A607D4B4FF4C6
S32D0000F9D08072DA607B4B4FF480721A61784B5B69774A43F440735361744B5B69734A43F47F2343F0F00353618E
S32D0000F9F8734B5B69724A43F01D035361E221786800F01AFD1D21786800F0BCFD0221786800F0B8FD042178683E
S32D0000FA2000F0B4FDE021786800F00AFD0121786800F0ACFD6420FFF7DBF9E021786800F0FFFC0321786800F096
S32D0000FA48A1FD0121786800F0F7FC0120FFF7CCF9E621786800F0F0FC0121786800F092FDA021786800F08EFDD1
S32D0000FA70FF21786800F08AFDB021786800F0E0FC1C21786800F082FD0F21786800F07EFD0121786800F07AFD04
S32D0000FA983F21786800F076FD0021786800F072FDEF21786800F06EFD0021786800F06AFDB421786800F0C0FC39
S32D0000FAC00121786800F062FD9921786800F05EFD0021786800F05AFD4521786800F056FD0221786800F052FDCF
S32D0000FAE80021786800F04EFD0021786800F04AFD0021786800F046FDB621786800F09CFC0121786800F03EFDDC
S32D0000FB100921786800F03AFD0021786800F036FD0E21786800F032FD0221786800F02EFD0021786800F02AFD0E
S32D0000FB380021786800F026FDBA21786800F07CFC0F21786800F01EFD6420FFF74DF93A21786800F071FC602174
S32D0000FB60786800F013FD2A21786800F069FC0021786800F00BFD0021786800F007FD0121786800F003FD3F21D7
S32D0000FB88786800F0FFFC2B21786800F055FC0021786800F0F7FC0021786800F0F3FC0021786800F0EFFCEF2167
S32D0000FBB078680BE000B0044000A0044080F00F4040F00F4000C00440C0F00F4000F0DEFC3621786800F034FC22
S32D0000FBD80021786800F0D6FCF021786800F02CFC0421786800F0CEFCB821786800F024FC0F21786800F0C6FCE9
S32D0000FC000121786800F0C2FC314B1B68304A43F0080313606420FFF7EBF83621786800F00FFC0021786800F07C
S32D0000FC28B1FCF021786800F007FC0421786800F0A9FC0121786800F013FA1E226F21786800F082F8AF22562122
S32D0000FC50786800F0DBF80021786800F056FA012301221C49786800F077FA2921786800F0E7FB6420FFF7BCF88B
S32D0000FC78BE21786800F0E0FB0E21786800F082FCF021786800F07EFC0121786800F07AFC0021786800F076FC31
S32D0000FCA00021786800F072FC0F21786800F06EFC786800F074FA0121786800F026FA0021786800F0FBF900BF79
S32D0000FCC80837BD4680BD00BF40F00F40745E050080B582B000AF78607B680022DA617B6801221A627B680E22B7
S32D0000FCF05A607B681A229A607B6800225A617B6800229A617B684FF4A072DA607B68F0221A617B6800221A70E2
S32D0000FD18786801F02BF87B6818460837BD4680BD80B582B000AF7860064B1B78002B05D1044B01221A7078685A
S32D0000FD40FFF7C2FD00BF0837BD4680BD201B002080B58AB002AFF860B9607A607E23009362237A68B968F868C0
S32D0000FD6800F07FFD40F24E733B610023FB61FA693B699A4240DA0023BB61214AFB6913441B781A46BB699342A5
S32D0000FD9032DAFB6901331C4AD35C002B06D1FF23FB75FF23BB75FF237B7512E0FB690133154AD35C012B06D1F9
S32D0000FDB8D423FB750023BB7526237B7505E0B523FB75BA23BB75B0237B757B7DBA7DF97DF86800F023F90246D4
S32D0000FDE0FB68DA61F86800F0C5FFF86800F0FEFEBB690133BB61C4E7FB690233FB61BAE700BF2037BD4680BDEC
S32D0000FE080800002080B58AB002AFF860B9607A602723009395237A68B968F86800F021FD40F2E6333B61002329
S32D0000FE30FB61FA693B699A4240DA0023BB61214AFB6913441B781A46BB69934232DAFB6901331C4AD35C002B96
S32D0000FE5806D1FF23FB75FF23BB75FF237B7512E0FB690133154AD35C012B06D10023FB750023BB7500237B759B
S32D0000FE8005E0D423FB750023BB7526237B757B7DBA7DF97DF86800F0C5F80246FB68DA61F86800F067FFF868CE
S32D0000FEA800F0A0FEBB690133BB61C4E7FB690233FB61BAE700BF2037BD4680BD5807002080B582B000AF786026
S32D0000FED00B46FB707B68FA781A703621786800F0AFFA7B681B78032B1ED801A252F823F001FF00000BFF0000F5
S32D0000FEF815FF00001FFF00000021786800F042FB0EE00321786800F03DFB09E0A321786800F038FB04E0A0210D
S32D0000FF20786800F033FB00BF7B681B78002B03D07B681B78012B0DD17B680E225A607B681A229A607B684FF4F6
S32D0000FF48A072DA607B68F0221A610CE07B6812225A607B6813229A607B68F022DA607B684FF4A0721A6178683E
S32D0000FF7000F0A4FB00BF0837BD4680BD80B485B000AF78600B46FB70FB78062B29D801A252F823F0B9FF00008D
S32D0000FF98B1FF0000BFFF0000C7FF0000CFFF0000D5FF0000DDFF00006FF07F43FB6014E00023FB6011E04FF467
S32D0000FFC07F03FB600DE04FF47F43FB6009E0FF23FB6006E04FF41903FB6002E0044BFB6000BFFB68184614378C
S32D0000FFE8BD4680BC704700BF9999990080B584B000AF786039603B681B0CFB733B681B0ABB733B687B737B7B2D
S32D00010010BA7BF97B786800F005F8034618461037BD4680BD80B487B000AF7860084611461A460346FB700B4621
S32D00010038BB7013467B70FB789B107B61BB789B103B617B789B10FB607B691A033B699B011A43FB681343184608
S32D000100601C37BD4680BC704780B582B000AF78600B46FB70FB7819467868FFF77FFF03461946786800F004F8E4
S32D0001008800BF0837BD4680BD80B582B000AF7860396039687868FFF7A9FF02467B681A62786800F063FE7868AD
S32D000100B000F004FB00BF0837BD4680BD80B582B000AF78600B46FB70FB7819467868FFF755FF034619467868C6
S32D000100D800F004F800BF0837BD4680BD80B582B000AF7860396039687868FFF77FFF02467B681A62786800F0DC
S32D0001010039FE00BF0837BD4680BD80B582B000AF78600B46FB70FB7819467868FFF72EFF03461946786800F064
S32D0001012804F800BF0837BD4680BD80B582B000AF7860396039687868FFF758FF02467B68DA61786800F012FED3
S32D0001015000BF0837BD4680BD80B586B000AFF860B9607A603B6000237B617B69BA6813441B78002B0FD07B6965
S32D00010178BA6813441B783A687968F86800F0F0FB7B680C337B607B6901337B61E9E700BF1837BD4680BD80B54A
S32D000101A082B000AF7860FDF733F967210120FDF79EF800210220FDF79AF8A0210320FDF796F850210420FDF76C
S32D000101C892F820210520FDF78EF820210620FDF78AF877210720FDF786F800210820FDF782F800210920FDF79B
S32D000101F07EF800210A20FDF77AF804210B20FDF776F87B684FF0FF32DA637B684FF0FF321A6400BF0837BD46A5
S32D0001021880BDFFFFFFFFFFFF80B586B000AFF860B9607A600020FDF780F80346FB75FB7D03F00203002B00F04B
S32D00010240CE80FDF793F8E020FDF744F80220FEF7CFFDFDF799F80120FEF7CAFDFDF786F8A520FDF737F80120D2
S32D00010268FEF7C2FDFDF759F803469BB21B02BB82FDF753F803469AB2BB8A1343BB82FDF74CF803469BB21B02E7
S32D000102907B82FDF746F803469AB27B8A13437B82BB8A1B11BB827B8A1B117B82FDF76CF8FB68DB6BB3F1FF3F64
S32D000102B834D1FB681B6CB3F1FF3F2FD1BA8AFB68DA637A8AFB681A647B8AC3F57F630F337B82BB8A184633F0D9
S32D000102E01DF949A3D3E9002333F082F902460B461046194633F05EFC0246BB681A607B8A184633F00BF942A351
S32D00010308D3E9002333F070F902460B461046194633F04CFC02467B681A605AE0FB68DA6BBB8AD31A1946F8682A
S32D0001033000F074F80346632B0CDCFB681A6C7B8AD31A1946F86800F069F80346632B01DC012300E00023002B92
S32D000103582FD0BA8AFB68DA637A8AFB681A647B8AC3F57F630F337B82BB8A184633F0D2F823A3D3E9002333F078
S32D0001038037F902460B461046194633F013FC0246BB681A607B8A184633F0C0F81CA3D3E9002333F025F9024654
S32D000103A80B461046194633F001FC02467B681A600FE0BB68164A1A607B68154A1A60FB684FF0FF32DA63FB6840
S32D000103D04FF0FF321A64002310E001230EE0BB680D4A1A607B680C4A1A60FB684FF0FF32DA63FB684FF0FF3261
S32D000103F81A64002318461837BD4680BDAFF30080144001144001B43F1EE0011EE001AE3F000080BF80B483B0F8
S32D0001042000AF786039603B68002B02DA3B685B423B603B6818460C37BD4680BC7047FFFF80B483B000AF7860E2
S32D000104480B46FB704D4B1B684C4A23F0080313604B4B1B684A4A23F480231360484B1B68474A43F480331360A9
S32D00010470454B1B68444A23F440731360414B1B68404A23F4435323F0300313603E4B1A68FB785B0203F400733B
S32D000104983B4913430B603A4B1A68FB785B101B0203F48073364913430B60344B1A68FB789B101B0103F0100383
S32D000104C0304913430B602F4B1A68FB78DB105B0103F020032B4913430B602A4B1A68FB781B119B0103F040036A
S32D000104E8264913430B60254B1A68FB785B11DB01DBB2224913430B60204B1A68FB789B111B0303F480531D49F5
S32D0001051013430B601B4B1A6897F90330DB115BB25B0303F40053174913430B60164B1B68154A23F4003313608E
S32D00010538134B1B68124A43F4003313600F4B1B680E4A43F0080313600D4B1B680C4A43F440731360094B1B682F
S32D00010560084A43F4435343F030031360064B1B68054A43F48023136000BF0C37BD4680BC704700BF80F00F408E
S32D0001058840F00F4080B483B000AF78600B46FB70464B1B68454A23F008031360444B1B68434A43F480331360EB
S32D000105B0414B1B68404A43F4802313603E4B1B683D4A23F4407313603A4B1B68394A23F4435323F03003136075
S32D000105D8374B1A68FB785B0203F40073344913430B60334B1A68FB785B101B0203F480732F4913430B602D4BE2
S32D000106001A68FB789B101B0103F01003294913430B60284B1A68FB78DB105B0103F02003244913430B60234B75
S32D000106281A68FB781B119B0103F040031F4913430B601E4B1A68FB785B11DB01DBB21B4913430B60194B1A6849
S32D00010650FB789B111B0303F48053164913430B60144B1A6897F90330DB115BB25B0303F40053104913430B60F5
S32D000106780F4B1B680E4A23F4003313600C4B1B680B4A43F400331360084B1B68074A43F008031360064B1B68A9
S32D000106A0054A23F48023136000BF0C37BD4680BC704700BF80F00F4040F00F4080B586B000AF78607B680022C3
S32D000106C85A617B6800229A617B681B6AFB60FB68FB72FB681B0ABB72FB681B0CDBB203F003037B722A217868D8
S32D000106F0FFF7A6FE00217868FFF748FF00217868FFF744FF01217868FFF740FF3F217868FFF73CFF2B217868F5
S32D00010718FFF792FE00217868FFF734FF00217868FFF730FF00217868FFF72CFFEF217868FFF728FF2C21786880
S32D00010740FFF77EFE314B1B68304A23F4407313602F4B1B682E4A23F47F2323F0F00313602C4B1B682B4A23F039
S32D000107681D031360274B1A687B681B6B254913430B60254B1A687B685B6B234913430B60224B1A687B689B6BA3
S32D00010790204913430B601E4B1B681D4A23F0080313601A4B1B68194A43F48023136000237B617B69EF2B19D8A6
S32D000107B800233B613B69B3F5A07F0FD2114B1B68104A23F4003313600E4B1B680D4A43F4003313603B69013329
S32D000107E03B61EBE77B6901337B61E2E7084B1B68074A43F008031360044B1B68034A23F48023136000BF18378D
S32D00010808BD4680BD40F00F4080F00F40C0F00F4080B483B000AF78607B689B69002B07DD7B685B695A1C7B6860
S32D000108305A617B6800229A6100BF0C37BD4680BC704780B582B000AF78607B685A697B685B689A4205DB7B680D
S32D0001085800225A617868FFF72DFF00BF0837BD4680BD80B588B000AFF860B9607A603B60FB681B78022B03D05C
S32D00010880FB681B78032B11D17B68FB61BA6AFB691344013BBB61FB68DA68BB68D31A3B613B683A69D31A013315
S32D000108A87B610DE0BB68FB613A68FB691344013BBB617B687B61BA6A7B691344013B3B612A21F868FFF7B8FDD8
S32D000108D0FB691B0ADBB203F00F03DBB21946F868FFF754FEFB69DBB21946F868FFF74EFEBB691B0ADBB203F08F
S32D000108F80F03DBB21946F868FFF744FEBB69DBB21946F868FFF73EFE2B21F868FFF794FD7B691B0ADBB203F0DD
S32D000109200F03DBB21946F868FFF730FE7B69DBB21946F868FFF72AFE3B691B0ADBB203F00F03DBB21946F86831
S32D00010948FFF720FE3B69DBB21946F868FFF71AFE2C21F868FFF770FD00BF2037BD4680BD80B58EB002AFF8608C
S32D00010970B9607A60FB70FB780A2B06D1F868FFF760FFF868FFF748FFF2E0FB787D2B02D8FB781F2B01D8202389
S32D00010998FB70FB78203BFB70112300930C237A68B968F868FFF75DFFFA7813469B0013446F4AD35C3B75FA781A
S32D000109C013469B00134401336B4AD35C7B75FA7813469B0013440233674AD35CBB75FA7813469B0013440333C0
S32D000109E8634AD35CFB75FA7813469B00134404335F4AD35C3B760023BB62BB6A062B00F3A180F86800F050F9D4
S32D00010A10F86800F0B3F8002387F82F3000237B627B6A042B35DC07F114027B6A13441B7803F00103002B14BFC4
S32D00010A3801230023FB76FB7E002B11D097F82F3083F00103DBB2002B03D0F86800F0CAF802E0F86800F08EF898
S32D00010A60F86800F08BF80DE097F82F30002B03D0F86800F01DF902E0F86800F07FF8F86800F07CF8FB7E87F8F0
S32D00010A882F307B6A01337B62C6E797F82F30002B03D0F86800F008F902E0F86800F06AF8F86800F067F800239A
S32D00010AB087F82F3000233B623B6A042B42DC07F114023B6A13441B7803F00103002B14BF01230023BB76BB7E44
S32D00010AD8002B11D097F82F3083F00103DBB2002B03D0F86800F07EF802E0F86800F042F8F86800F03FF80DE04D
S32D00010B0097F82F30002B03D0F86800F0D1F802E0F86800F033F8F86800F030F8BB7E87F82F3007F114023B6A22
S32D00010B2813441B785B10D9B207F114023B6A13440A461A703B6A01333B62B9E7BB6A0133BB625AE7F86800F0BD
S32D00010B50AFF8002387F82F300123FB61FB69232B06DCF86800F00AF8FB690133FB61F5E73037BD4680BD00BF32
S32D00010B78400B002080B483B000AF7860174B1B68164A43F480331360154B1B68144A23F008031360114B1B68A2
S32D00010BA0104A43F4802313600E4B1B680D4A23F4003313600B4B1B680A4A43F400331360094B1B68084A43F029
S32D00010BC808031360054B1B68044A23F48023136000BF0C37BD4680BC704700BF40F00F4080F00F4080B483B0D6
S32D00010BF000AF78602B4B1B682A4A43F480331360294B1B68284A23F008031360254B1B68244A43F480231360DD
S32D00010C18224B1B68214A23F440731360204B1B681F4A23F47F2323F0F00313601D4B1B681C4A23F01D03136095
S32D00010C40184B1A687B685B6A164913430B60164B1A687B689B6A144913430B60134B1A687B68DB6A1149134337
S32D00010C680B600E4B1B680D4A23F4003313600B4B1B680A4A43F400331360094B1B68084A43F008031360054BCE
S32D00010C901B68044A23F48023136000BF0C37BD4680BC704740F00F4080F00F40C0F00F4080B483B000AF786014
S32D00010CB82B4B1B682A4A43F480331360294B1B68284A23F008031360254B1B68244A43F480231360224B1B68AB
S32D00010CE0214A23F440731360204B1B681F4A23F47F2323F0F00313601D4B1B681C4A23F01D031360184B1A68D8
S32D00010D087B681B6B164913430B60164B1A687B685B6B144913430B60134B1A687B689B6B114913430B600E4B4C
S32D00010D301B680D4A23F4003313600B4B1B680A4A43F400331360094B1B68084A43F008031360054B1B68044AF8
S32D00010D5823F48023136000BF0C37BD4680BC704740F00F4080F00F40C0F00F4080B485B000AF78607B681B6AB2
S32D00010D80FB60FB68FB72FB681B0ABB72FB681B0CDBB203F003037B727B6800225A627B6800229A627B680022A0
S32D00010DA8DA627B6800221A637B6800225A637B6800229A637B681A6BFB7A5B0203F400731A437B681A637B6856
S32D00010DD01A6BFB7A5B101B0203F480731A437B681A637B685A6BFB7A9B101B0103F010031A437B685A637B6801
S32D00010DF85A6BFB7ADB105B0103F020031A437B685A637B685A6BFB7A1B119B0103F040031A437B685A637B683D
S32D00010E205A6BFB7A5B11DB01DBB21A437B685A637B685A6BFB7A9B111B0303F480531A437B685A637B685A6B41
S32D00010E4897F90B30DB115BB25B0303F400531A437B685A637B685A6BBB7A9B0303F480431A437B685A637B68FD
S32D00010E705A6BBB7A5B10DB039BB21A437B685A637B685A6BBB7A9B101B0403F480331A437B685A637B685A6BD0
S32D00010E98BB7ADB105B0403F400331A437B685A637B685A6BBB7A1B119B0403F480231A437B685A637B685A6B9E
S32D00010EC0BB7A5B11DB0403F400231A437B685A637B689A6BBB7A9B1103F001031A437B689A637B689A6B97F9F7
S32D00010EE80A30DB115BB29B0003F004031A437B689A637B689A6B7B7ADB0003F008031A437B689A637B689A6BFB
S32D00010F107B7A5B101B0103F010031A437B689A637B68DB69FB60FB68FB72FB681B0ABB72FB681B0CDBB203F0E2
S32D00010F3803037B727B685A6AFB7A5B0203F400731A437B685A627B685A6AFB7A5B101B0203F480731A437B68EA
S32D00010F605A627B689A6AFB7A9B101B0103F010031A437B689A627B689A6AFB7ADB105B0103F020031A437B6848
S32D00010F889A627B689A6AFB7A1B119B0103F040031A437B689A627B689A6AFB7A5B11DB01DBB21A437B689A623B
S32D00010FB07B689A6AFB7A9B111B0303F480531A437B689A627B689A6A97F90B30DB115BB25B0303F400531A4336
S32D00010FD87B689A627B689A6ABB7A9B0303F480431A437B689A627B689A6ABB7A5B10DB039BB21A437B689A626D
S32D000110007B689A6ABB7A9B101B0403F480331A437B689A627B689A6ABB7ADB105B0403F400331A437B689A6229
S32D000110287B689A6ABB7A1B119B0403F480231A437B689A627B689A6ABB7A5B11DB0403F400231A437B689A621F
S32D000110507B68DA6ABB7A9B1103F001031A437B68DA627B68DA6A97F90A30DB115BB29B0003F004031A437B6837
S32D00011078DA627B68DA6A7B7ADB0003F008031A437B68DA627B68DA6A7B7A5B101B0103F010031A437B68DA6277
S32D000110A000BF1437BD4680BC7047FFFF80B582B000AF786039607B68012B07D13B684FF6FF72934202D1034869
S32D000110C8FEF706FE00BF0837BD4680BDDC1A002080B500AF4FF6FF710120FFF7E3FF80BD80B582B000AF7860EF
S32D000110F0174B03F5815314331B68154943F0400201F5815314331A60124B4FF400725A62104B4FF400721A6221
S32D000111180F4B14225A700E4B1B7ADBB20C4A43F00103DBB213720A4B80229A7002212B20FCF762F83D212A20D0
S32D00011140FCF75EF87B6818460837BD4680BD00BF0070044000C004400060064080B582B000AF786039607B68F0
S32D00011168012B07D13B684FF6FF72934202D10348FFF7B6FF00BF0837BD4680BD241B002080B500AF4FF6FF7127
S32D000111900120FFF7E3FF80BD80B582B000AF78600B46FB707B68FA7811461846FEF72CF97B6818460837BD46A9
S32D000111B880BDFFFF80B582B000AF786039607B68012B08D13B684FF6FF72934203D120210348FFF7DDFF00BF3F
S32D000111E00837BD4680BD00BF281B002080B500AF4FF6FF710120FFF7E1FF80BD80B483B000AF78607B6800227F
S32D000112081A707B6818460C37BD4680BC7047FFFF80B483B000AF78603960044A3B68136000BF0C37BD4680BC89
S32D00011230704700BF2C1B002080B582B000AF3248FCF700FA0346FB71304AFB791370304B01221A702F4B1B78DA
S32D00011258022B33D0022B4FDC002B02D0012B14D04AE0FB79FF2B44D1284B01221A70284B00221A70264B1B78B2
S32D000112805A1CD1B2244A11701946244AFB79535433E0214B1B785A1CD1B21F4A117019461E4AFB7953541C4B31
S32D000112A81B780D2B27D11C4B1B68194A1278114618489847154B02221A701CE0FB79FF2B10D1124B01221A7054
S32D000112D0114B00221A70104B1B785A1CD1B20E4A117019460D4AFB79535409E00A4B00221A70084B00221A706D
S32D000112F802E000BF00E000BF00BF0837BD4680BD00A00640431B0020421B0020411B0020401B0020301B002006
S32D000113202C1B002080B582B000AF78607B681846FFF764FF7B6811491846FFF76DFF7B684FF0FF325A600E4B4C
S32D000113484FF000021A600D4B4FF000021A600C4B4FF000021A600B4B00221A600A4B00221A700A4B00221A70A2
S32D000113707B6818460837BD4680BD00BF99130100501B0020541B0020581B00205C1B0020601B0020611B0020A7
S32D0001139880B582B000AF78600B46FB703B4B1B78002B6ED07B6801331B781B027A68023212781344184632F0BC
S32D000113C003FD03463449184632F006FE03463349184632F043FC03461A46314B1A607B6803331B781B027A68E6
S32D000113E8043212781344184632F0EAFC03462849184632F0EDFD03462649184632F02AFC03461A46254B1A6044
S32D000114107B6805331B781B027A68063212781344184632F0D1FC03461B49184632F0D4FD03461A49184632F070
S32D0001143811FC03461A461A4B1A607B680A331B781A46184B1A607B68DA7A174B1A707B680C331B78AA2B0CBF88
S32D0001146001230023DAB2134B1A70134B01221A70104B1B78002B08D0104800F053F8104B1B680F4A23F4005372
S32D00011488136000BF0837BD4680BD00BF4C1B0020000020410000C844501B0020541B0020581B00205C1B00208D
S32D000114B0601B0020611B0020621B0020641B0020C0F00F4080B582B000AF786039607B68012B07D13B684FF645
S32D000114D8FF72934202D10348FFF720FF00BF0837BD4680BD441B002080B500AF4FF6FF710120FFF7E3FF80BDE0
S32D0001150080B483B000AF7860054B00221A60044B00225A607B6818460C37BD4680BC7047641B002080B584B035
S32D0001152800AF7860154B1B68002B21D00023FB60124B5B68FA689A4214DA114AFB6852F82330002B0AD00E4A8C
S32D00011550FB6852F823301846FCF7B5FA03461A460A4B1A70FB680133FB60E5E7054B00225A60044B00221A600F
S32D00011578044B1B7818461037BD4680BD641B0020701B00206C1B002080B582B000AF786039607B68012B07D11E
S32D000115A03B684FF6FF72934202D10348FFF7A8FF00BF0837BD4680BD641B002080B500AF4FF6FF710120FFF7A6
S32D000115C8E3FF80BD80B483B000AF78600B4B03F5815310331B68094943F0010201F5815310331A60064B5B68DC
S32D000115F0054A43F03203536000BF0C37BD4680BC704700BF0070044000000A4003460846194633F0F5BE00BF22
S32D0001161828F07EB9012838BF012010B50446204635F03CF900B110BD29F0E2F808B18047F5E7042028F036FA0B
S32D00011640024B034A0349036029F044F8388D0500B1970300148D05002DE9F04FDFF88883CA4DD8F80020DFF80D
S32D000116688493C94B9668C5F80090002483B00122C5E90144C5E90344C5E9054405F11C00C24F1A7001F0D8F816
S32D00011690D8F80030C04A2E624FF0FF3A5B682A60C7E90094C7E90244C7E9044407F11C00C5F824A0BC61019354
S32D000116B801F0C2F8019BB74E3B62D8F80030B44ADFF808B3DB68C6F800903A60C7F824A0C6E90144C6E90344F2
S32D000116E0C6E9054406F11C00AD4F019301F0A8F8019BA94A3260ABF10409C6E9083A584607F1140A11F050FFF0
S32D00011708C9E91F44C9E9214429465846C9F87440A9F878404BF8047CC9F804A011F0D4FE9E4D284611F03CFF1B
S32D000117309D4A45F8082CA5F1080400231432C4E92033C4E922339349A2602846A367A4F87C30636011F0BCFE09
S32D00011758944D2E1F284611F023FF0023C6E91F33C6E921338B4945F8047C2846C6F804A07367A6F8783011F0FA
S32D00011780A7FEDFF860B2ABF10405584611F00CFF0023C5E91F33C5E9213380494BF8047C5846C5F804A06B67DB
S32D000117A8A5F8783011F090FE32697F4DD8F80030DFF834A2C4F8789042F400520024C6F874903261C5E900A413
S32D000117D09E68AC61C5E90244C5E9044405F11C0001F02EF8734FD8F80020734B2E624FF0FF3951682B60C7E959
S32D000117F800A4C7E90244C7E9044407F11C00BC61C5F824906B4E019101F016F80199D8F800203962DFF8C0B1D7
S32D00011820654BD2683B60C7F82490DFF8C881B461C6E900A4C6E90244C6E9044406F11C00ABF10407019200F0F0
S32D00011848FBFF019A5A4BC6F8249058463262336008F1140911F0A4FEC7E91D44C7E92044C7E9224429465846FF
S32D0001187087F87C404BF8048CC7F8049011F07EFE4F4C204611F090FE4E4A44F8082CA4F1080500231432C5E91A
S32D000118981E33C5E92133C5E923334449AA60204685F880306B6011F065FE454E341F304611F076FE0023C4E9D0
S32D000118C01D33C4E92033C4E922333C4946F8048C3046C4F8049084F87C3011F04FFEDFF8FCA0AAF1040650466A
S32D000118E811F05EFE0023C6E91D33C6E92033C6E9223330494AF8048C5046C6F8049086F87C3011F037FE2F4941
S32D0001191023690A68AF67013243F4005367670A60236103B0BDE8F08F294BC9F80430294811F088FE28F0F6F8DD
S32D00011938274B7360274811F081FE28F0EFF8244B63601F4811F07AFE28F0E8F8204BAB60194811F073FE28F0E2
S32D00011960E1F81D4B7B601E4811F06CFE28F0DAF8174B6B601B4811F065FE28F0D3F8144B73600A4811F05EFEC9
S32D0001198828F0CCF81C2D0020200D0020CC2C00206C7C0500F42C002088840500C42D0020387E0500502E0020DE
S32D000119B0942D0020442D0020AC7C05006C2D0020F82F0020687E050088300020DC2B0020887D0500682F0020BE
S32D000119D8987D050018310020A8310020DC2E0020B40D0020B0850500F0850500B8840500034BA360034811F0C7
S32D00011A0021FE28F08FF800BF887D0500C42D0020064A1368591C10B5044611600BB1204610BDFFF719FE2046FD
S32D00011A2810BD00BFDC2B0020114A1368591E022B10B50446116001D0204610BD0D481CF0D9FB0D481CF0D6FB77
S32D00011A500C481CF0D3FB0C481CF018FC0B481CF015FC0B481CF012FC204610BD28F0E8F928F024FAE4E700BFFC
S32D00011A78DC2B0020642F00204C2E0020D82E0020A43100208430002014310020704700BF10B5044627F03CFFA0
S32D00011AA0204610BD044A0B6812680360934202D01A6801321A607047DC1B002010B5054C206800B110BD02463E
S32D00011AC80349204629F0D4FB206810BDE41B0020A85E050000487047A85E0500426870B50546EAB18368C3B1B8
S32D00011AF0304E002403E0AB680134A34210D952F824000028F8D04368591E012B4160F2D103685B68B34238D1F0
S32D00011B1827F0FEFE6A68EAE712B1104627F0FAFEEA68EAB1AB68C3B1204E002403E0AB680134A34210D952F877
S32D00011B4024000028F8D04368591E012B4160F2D103685B68B3421AD127F0DEFEEA68EAE712B1104627F0DAFE84
S32D00011B682B6963B10024185910B127F0D3FE2B690434182CF7D113B1184627F0CBFE284670BD9847C6E7984788
S32D00011B90E4E728F055F928F091F9BFE728F050F928F08CF9DAE7013102D128F0D9F8FAE727F0B8FF991A01009D
S32D00011BB80F4A0B681268934270B50D46044602D01968013119602668B24204D03268511E012A316002D02360B3
S32D00011BE0204670BD3046FFF77DFF304627F094FE2B682360204670BDDC1B002038B50A4B05681B689D42044621
S32D00011C0804D02B685A1E012B2A6001D0204638BD2846FFF763FF284627F07AFE204638BDDC1B0020002A00F09D
S32D00011C30EE802DE9F84F0C68054616462CB9AF4A1368013313601C460B60AB68671E013BBB425FD26FF06043CE
S32D00011C5804F10309994534BF4FEA890A4FF0FF3A5046D5F804B028F0CBFDAB68804663B16A6802EB830CACF178
S32D00011C80040C043A011F52F8040F41F8040F6245F9D199450CD903F18043013B08EB840208EB830308320021AA
S32D00011CA843F8041F9A42FBD15046D5F80CA028F0A7FDAB6863B1EA6802EB830CACF1040C043A011F52F804EFFF
S32D00011CD041F804EF9445F9D199450CD903F18043013B00EB840200EB83030832002143F8041F9A42FBD1C5E96F
S32D00011CF80189E860BBF1000F02D0584627F00AFEBAF1000F02D0504627F004FED5F80480736858F827E00133AF
S32D00011D207360BEF1000F4AD0754A116800293FD0DFF8C8C110E05068036843B9DCF8003003F10109CCF80090B4
S32D00011D484B46C0F800909C426CD052F8081F59B30B6833B9DCF80030581CCCF80000034608609C42E3D1516865
S32D00011D700C682CB9614802680132026014460A60013C58F824309BB130460CF06DFD814658F82400D9F8043036
S32D00011D980133C9F8043043685A1E012B426068D048F8249058F827E0DEF804305A1E012BCEF804202CD0AA68D9
S32D00011DC048F827600AB30024EB68DFF83881274604E0AA680F600134A24216D953F82400A60003EB84010028DF
S32D00011DE8F5D0426802F1FF3C012AC0F804C0ECD103685B68434507D127F08AFDEB689919E3E7BDE8F88F7047ED
S32D00011E109847EB689919DCE7DEF80030394A5B689342704627D127F077FDC8E70C682CB9324802680132026021
S32D00011E3814460A60013C58F82430002BB4D0304604F06CFC814658F82400D9F804300133C9F8043043685A1EC9
S32D00011E60012B4260A0D10368264A5B6893420BD127F052FD98E79847A1E70368214A5B689342F5D098478FE7F1
S32D00011E8898478DE727F0D8FF28F014F8BDE727F0D3FF28F00FF88EE727F0CEFF404627F039FD28F02FFC27F094
S32D00011EB0C7FF28F003F877E727F0C2FF27F0FEFF72E7013115D127F04BFF013105D127F047FF013103D127F08C
S32D00011ED843FF27F023FE27F021FE27F0EBFF27F01DFE013103D127F037FF27F017FE27F015FE00BFE01B002075
S32D00011F00C85E0500991A01002DE9F041384C2378BFF35B8FDD0780460F4616464AD5354D2C68002C39D0344890
S32D00011F280BE023B90168013101600B461160013B9E4244D055F8084F5CB3236823B902680132026013462260E1
S32D00011F50013B6A689E421368E7D1002B3ED0013BD8F80C2052F8261051B1A7B13B68234A5B689342384638D1C7
S32D00011F78BDE8F04127F0CCBC7968481C7860581C42F8267003D00231796042F82370BDE8F081D8F80C3053F84B
S32D00011FA02620002AE1D17A6801327A6043F82670BDE8F081204628F0E1FB0028AFD0204628F0F8FBABE722688C
S32D00011FC82AB90B490B6801330B601A4623603346561EC1E706480168013101600B461160B9E7BDE8F041184748
S32D00011FF0D81B0020C85E0500E01B0020991A010003682BB903490A6801320A6013460260581E7047E01B002008
S32D0001201810B5094C2378BFF35B8FDB0701D5074810BD204628F0A6FB0028F8D0204628F0BDFB024810BD00BF59
S32D00012040EC1B0020702A00202DE9F04F0646C24831603023B36089B0034600F1C001002243F8042B8B42FBD195
S32D00012068BC4C7060234604F1C001002243F8042B8B42FBD1B848F460034600F11801002243F8042B8B42FBD161
S32D00012090B44C30610460FFF721FD002203882380B1481146012305F0EBFDAF4AAF493046FFF7BCFDAE48012149
S32D000120B829F05AF9AC4AAD493046FFF7B3FDAC48AC4CAD4BAD4A036000210123C4E90211C4E90511C4E90711BA
S32D000120E043606360846022602174A18484F8641000F0ECFFA04AA4493046FFF797FDA34AA34B13600123A3494B
S32D0001210853603046FFF78EFDA14AA24B13600123A14953603046FFF785FDA04CA04B236001236360FFF7C6FC0B
S32D00012130A0609E4922463046FFF778FD9C48DFF818A39C4B9C49036000220123CAF80010CAE90222CAE90522E2
S32D00012158CAE90722CAE90922CAE90B224360CAF80430C0F808A01146AAF810208AF81220CAF834208AF84320ED
S32D0001218000F0C8FB8A4A8D493046FFF74FFD8C48DFF8C8928B4B8C49036000220123C9F80010C9E90222C9E969
S32D000121A80522C9E90722C9E90922C9E90B224360C9F80430C0F808901146A9F8102089F81220C9F8342089F8F1
S32D000121D0432000F053FB7A4A7C493046FFF726FD7B4A7C4B136001237B4953603046FFF71DFD7A4A7A4B13600B
S32D000121F801237A4953603046FFF714FD784D794B2B6001220023C5E90233C5E90433C5E90633C5E90833C5E901
S32D000122200A33C5E90C33C5E90E33C5E91033C5E91233C5E91433C5E91633C5E91833C5E91A33C5E91C33C5E907
S32D000122481E336A606848C5E920332946C5E92233C5E92433C5E92633C5E92833C5E92A33C5E92C33C5E92E33ED
S32D00012270C5F8C03085F8C43011F042FE5C4A5D493046FFF7D3FC5C4A5C4B136001235C4953603046FFF7CAFCEB
S32D000122985A4A5B4B136001235A4953603046FFF7C1FC594801210AF045FA574A57493046FFF7B8FC564801219A
S32D000122C005F0AEFC544A55493046FFF7AFFC5448012129F065F8524A52493046FFF7A6FC5148524BDFF878B14E
S32D000122E8036001230021504A4360C0F808B0CBE90211CBE90511CBE90711CBE90911CBF80430CBF800208BF8EA
S32D0001231010108BF8241100F059FF434A45493046FFF784FC444A454B13600123444953603046FFF77BFC434A12
S32D00012338434B13600123434953603046FFF772FC414C424B236001236360FFF7B3FB85E090290020A0280020EA
S32D00012360882800207C21002088210020542B002060290020C42C0020101C0020F41C0020506E0500D45F050029
S32D00012388882B0020502A0020287F0500282C0020602A0020647F0500242C002078290020346E05007C2B002068
S32D000123B0B41C0020A86E0500685F0500982B0020C01C0020746E0500585F0500942B0020581C0020F86E0500C7
S32D000123D8902B0020681C0020106F05008C2B0020841E0020947F0500781C0020202C0020281C0020286F050002
S32D00012400842B0020381C0020948005001C2C0020F01B0020802B0020A8230020582B00206C290020C82C00209C
S32D000124281C1C002050790500E45F0500C82B0020582A002078870500882C0020682A0020B4870500842C0020C8
S32D00012450842900203479050014200020582000205C1D0020A060B84922463046FFF7DEFBB648DFF8A483B64BAE
S32D00012478B649036000220123C8F800104360C0F808801146C8E90222C8E90522C8E90722C8E90922C8E90B2242
S32D000124A0C8E90D22C8F8043088F81020C8F83C2088F86C2000F00CFBA44AA7493046FFF7B5FBA648A64FA74B9B
S32D000124C8A7490360002201233960436087601146C7E90222C7E90522C7E90722C7E90922C7E90B22C7E90D22B7
S32D000124F07B603A74FA6387F86C2000F09FFA974A9A493046FFF792FB994A9A4B13600123994953603046FFF726
S32D0001251889FB984A984B13600123984953603046FFF780FB964C974B236001220023C4E90233C4E90433C4E939
S32D000125400633C4E90833C4E90A33C4E90C33C4E90E33C4E91033C4E91233C4E91433C4E91633C4E91833C4E916
S32D000125681A33C4E91C33C4E91E3362608648C4E920332146C4E92233C4E92433C4E92633C4E92833C4E92A33E8
S32D00012590C4E92C33C4E92E33C4F8C03084F8C4301DF032F87A4A7B493046FFF73FFB7A4A7A4B136001237A499E
S32D000125B853603046FFF736FB784A794B13600123784953603046FFF72DFB7748012110F05DFC754A7549304652
S32D000125E0FFF724FB744A754B13600123744953603046FFF71BFB734A734B13600123734953603046FFF712FBB6
S32D00012608714A724B13600123714953603046FFF709FB704A704B13600123704953603046FFF700FB6E4B02A974
S32D000126303046CDE9023ACDE9049BCDE9068701F0B7FCF36869480193FFF7DAFC019B66490246674843F82210BC
S32D00012658F3680193FFF7D0FC019B0246634843F822A0D6F80CA0FFF7C7FC034660484AF82390D6F80C90FFF79D
S32D00012680BFFC03465D4849F82350F568FFF7B8FC0346314845F823B0F568FFF7B1FC0346324845F82380F568F5
S32D000126A8FFF7AAFC0346394845F82370F568FFF7A3FC45F82040304609B0BDE8F08F04460B4601333AD12046AB
S32D000126D027F046FB0D4604462048FFF7DBF92B46F3E70D4604464648FFF7D4F92B46ECE70D4604464348FFF719
S32D000126F8CDF92B46E5E70D4604464148FFF7C6F92B46DEE70D4604463E48FFF7BFF92B46D7E70D4604463C487E
S32D00012720FFF7B8F92B46D0E70D4604463948FFF7B1F92B46C9E70D4604460448FFF7AAF92B46C2E727F0EEF942
S32D00012748BC2B0020CC1C0020A8790500885F0500D82B0020D81C00200C21002074790500785F0500D42B0020D0
S32D00012770601C0020F8790500D02B0020701C0020107A0500CC2B00204C1F0020E48705008C1C0020802C00202C
S32D00012798301C0020287A0500C42B0020401C0020E48805007C2C0020001C0020C02B0020481C002030630500D8
S32D000127C0802A0020501C0020D8620500782A0020E41C0020046305007C2A0020EC1C0020AC620500742A002048
S32D000127E8F41C0020882B0020982B0020942B0020202C0020C82B0020C01C0020B41C002078290020101C002085
S32D00012810842900201C1C00209C20002010B5054C02212046FFF710FC034A044B14601C6010BD00BFA01C002003
S32D00012838DC1B0020E81B002038B50C4D2B680022044602606BB10A4D2A6822609A4206D0FFF7DEFB2B681A6873
S32D0001286001321A602360204638BDFFF7D7FF2B68EDE700BFDC1B0020E81B002038B50446806830B32E23437488
S32D00012888A3681E4A1E4910681E4A2C259D74A36812681863A56899605961D96159620021C3E90A11D960996135
S32D000128B019626863531E02F10A05C2F10100A268C1180A4413F8011F82F83810AB42F6D138BD4420FEF7A2FECC
S32D000128D80D4AA0600023C0E90023C0E90233C0E90533C0E90733C0E90933C0E90B3303828374436380F8433010
S32D00012900C0E700BFA892050098850500300D0020585F050038B50446806830B32E234374A3681E4A1E4910686C
