S01200002E2E2F48382D526F626F742E733139A4
S32D0000C000000000205DC2000011C3000017C300001DC3000023C3000029C3000000000000000000000000000073
S32D0000C028000000002FC3000035C30000000000003BC3000041C3000019EE000025EE000031EE00003DEE00009A
S32D0000C05049EE000055EE000061EE00006DEE000079EE000085EE000091EE00009DEE0000A9EE0000B5EE000080
S32D0000C078C1EE0000CDEE0000D9EE0000E5EE0000F1EE0000FDEE000009EF000015EF000021EF00002DEF0000A4
S32D0000C0A039EF000045EF000051EF00005DEF000069EF000075EF000081EF00008DEF000099EF0000A5EF0000C6
S32D0000C0C8B1EF0000BDEF0000C9EF0000D5EF0000E1EF0000EDEF0000F9EF000005F0000011F000001DF00000EB
S32D0000C0F029F000009946010035F0000041F000004DF0000059F0000065F0000071F000007DF0000089F00000B1
S32D0000C11895F00000A1F00000ADF00000B9F00000C5F00000D1F00000DDF00000E9F00000F5F0000001F10000AA
S32D0000C1400DF1000019F1000025F1000031F10000711C01003DF1000049F1000055F1000061F100006DF10000A5
S32D0000C16879F1000085F1000091F100009DF10000A9F10000B5F10000C1F10000CDF10000D9F10000E5F1000069
S32D0000C190F1F10000FDF1000009F200005D1801000D170100BD17010095EB00000119010015F2000021F2000091
S32D0000C1B82DF200008C38060000000020C81700008C3806000000FF1F00000000C8170020A01B00000000FF1FB1
S32D0000C1E00000000080B489B000AFF860B9607A60BB68FB61FB68BB6100237B617A697B689A420BD2BA69131DFB
S32D0000C208BB61FB69191DF96112681A607B6904337B61EFE700BF2437BD4680BC704780B485B000AF786039609E
S32D0000C2307B68FB600023BB60BA683B689A4208D2FB681A1DFA6000221A60BB680433BB60F2E700BF1437BD46FE
S32D0000C25880BC704780B586B000AF72B6234B4CF220521A80214B4DF628121A80204B4FF4E9721A801F4B7B615F
S32D0000C2807B691F4A934214D27B691A1D7A611B683B617B691A1D7A611B68FB607B691A1D7A611B68BB60BA68E9
S32D0000C2A8F9683869FFF79AFFE6E77B69134A93420ED27B691A1D7A611B68FB607B691A1D7A611B68BB60B9688B
S32D0000C2D0F868FFF7A8FFECE70B4B7B600B4A7B681A603EF07FF962B602F01AFD02F0CEFBFEE700BF0E200540F4
S32D0000C2F800200540BCC10000D4C10000E4C1000008ED00E000C0000080B400AFFEE780B400AFFEE780B400AFF4
S32D0000C320FEE780B400AFFEE780B400AFFEE780B400AFFEE780B400AFFEE780B400AFFEE780B400AFFEE780B426
S32D0000C34800AFFEE7FFFFFFFFFFFFFFFFFFFFFFFFFFFFFFFFFFFFFFFFFFFFFFFFFFFFFFFFFFFFFFFFFFFFFFFF57
S32D0000C370FFFFFFFFFFFFFFFFFFFFFFFFFFFFFFFFFFFFFFFFFFFFFFFFFFFFFFFFFFFFFFFFFFFFFFFFFFFFFFFFC7
S32D0000C398FFFFFFFFFFFFFFFFFFFFFFFFFFFFFFFFFFFFFFFFFFFFFFFFFFFFFFFFFFFFFFFFFFFFFFFFFFFFFFFF9F
S32D0000C3C0FFFFFFFFFFFFFFFFFFFFFFFFFFFFFFFFFFFFFFFFFFFFFFFFFFFFFFFFFFFFFFFFFFFFFFFFFFFFFFFF77
S32D0000C3E8FFFFFFFFFFFFFFFFFFFFFFFFFFFFFFFFFFFFFFFFFFFFFFFFFFFFFFFFFFFFFFFFFFFFFFFFFEFFFFFF50
S32D0000C41010B5054C237833B9044B13B10448AFF300800123237010BDC8170020000000006426060008B5034BC2
S32D0000C4381BB103490348AFF3008008BD00000000CC1700206426060080B483B000AF78607B6818460C37BD4684
S32D0000C46080BC704780B582B000AF7860124801F02BF8114801F03EF8104800F071FD104801F056FA55210E48C4
S32D0000C48801F01AFA0D4801F0CBFA55210B4801F08DFA0B4801F036FB5521094801F002FB084801F0C5F900BF4D
S32D0000C4B00837BD4680BD00BF54180020081800207018002080180020901800205818002080B582B000AF7860AE
S32D0000C4D8074800F031FD074801F038F9044800F03BFD044801F050F900BF0837BD4680BD081800205818002050
S32D0000C50080B582B000AF7860154800F01BFF154800F016FD5521144801F0D2F95521134801F048FA55211248F6
S32D0000C52801F0C0FA114801F08FF84FF00002104B104801F0CBF80D4800F0C2FF0E490B4801F038F80D4806F0A5
S32D0000C550EBFD084800F0DCFF00BF0837BD4680BD28180020081800207018002080180020901800205418002028
S32D0000C57800002440581800208C9B0500841B002080B584B000AFF8600B467A60FB72FB7A422B0BD10A4800F0AE
S32D0000C5A007FF0346002B04D0F868FFF791FF002306E000BF7A687968044800F0A0FA012318461037BD4680BDCF
S32D0000C5C82C1800200818002080B584B000AFF8600B467A60FB72104800F0E6FE0346002B04D0F868FFF770FF60
S32D0000C5F0002311E0FB7A4C2B05D17A680021094800F07DFA07E0FB7A522B04D100227968044800F074FA01230D
S32D0000C61818461037BD4680BD2C1800200818002080B584B000AFF860C7E900231F4800F0FFF902460B46D7E980
S32D0000C64000013BF023FA0346002B0BD11A4800F0D1FC02460B46D7E900013BF017FA0346002B01D0012300E035
S32D0000C6680023002B04D0F868FFF72EFF002318E0104800F00BFE0346002B05D10D4800F0CBFD0346002B01D0F7
S32D0000C690012300E00023002B01D0002305E0BA69B969074800F02BFA012318461037BD4680BD00BF00180020A8
S32D0000C6B80C180020201800200818002080B582B000AF786039607B68012B07D13B684FF6FF72934202D10348BE
S32D0000C6E0FFF7B6FE00BF0837BD4680BDE417002080B500AF4FF6FF710120FFF7E3FF80BD80B483B000AF78606C
S32D0000C7087B6818460C37BD4680BC704780B582B000AF7860396038683BF044FB03461946034802F005FE00BF51
S32D0000C7300837BD4680BD00BFEC17002080B582B000AF7860396038683BF030FB03461946034802F0F1FD00BF6B
S32D0000C7580837BD4680BD00BFF417002080B582B000AF7860034802F0A1FD00BF0837BD4680BD00BFEC17002061
S32D0000C78080B582B000AF7860034802F093FD00BF0837BD4680BD00BFF417002080B582B000AF786039607B683E
S32D0000C7A8012B11D13B684FF6FF7293420CD10848FFF7A2FF074A0021074802F039FD054A0121064802F034FD98
S32D0000C7D000BF0837BD4680BDE817002000001041EC170020F417002080B500AF4FF6FF710120FFF7D3FF80BD80
S32D0000C7F880B483B000AF78607B6818460C37BD4680BC704780B483B000AF7860282318460C37BD4680BC7047DB
S32D0000C82080B483B000AF7860282318460C37BD4680BC7047FFFFFFFF80B483B000AF786005A3D3E90023104653
S32D0000C84819460C37BD4680BC704700BFAFF300802706222256599E3F80B483B000AF786005A3D3E90023104681
S32D0000C87019460C37BD4680BC704700BFAFF3008046EAFF9EDB8F3740B0B584B000AFF8600B467A60FB72FB7AC6
S32D0000C8984C2B37D178683AF019FE3BA3D3E900233AF07EFE02460B4614461D4678683AF00DFE02460B46204605
S32D0000C8C029463AF071FE02460B4614461D4678683AF000FE30A3D3E900233AF065FE02460B46204629463AF00D
S32D0000C8E8A9FC02460B46104619462BA3D3E900233AF09EFC02460B46104619463BF000F903463AE0FB7A522BF7
S32D0000C91037D178683AF0DEFD23A3D3E900233AF043FE02460B4614461D4678683AF0D2FD02460B46204629465F
S32D0000C9383AF036FE02460B4614461D4678683AF0C5FD19A3D3E900233AF02AFE02460B46204629463AF06EFC62
S32D0000C96002460B461046194613A3D3E900233AF063FC02460B46104619463BF0C5F80346FFE718461037BD4630
S32D0000C988B0BD00BFAFF300802D431CEBE2367A3FF4FDD478E926E53FE3A59BC420F0244076711B0DE02D803F45
S32D0000C9B0E71DA7E8482EE53FA01A2FDD2486324080B582B000AF786039607B68012B07D13B684FF6FF729342AE
S32D0000C9D802D10348FFF70CFF00BF0837BD4680BDFC17002080B500AF4FF6FF710120FFF7E3FF80BD80B582B06B
S32D0000CA0000AF78607868FFF77BFE7868FFF7F4FE7B6818460837BD4680BD80B582B000AF786039603B685B42E3
S32D0000CA2819467868FFF772FE00BF0837BD4680BDB0B582B000AF78600C4804F0ABFF034618463AF043FD044692
S32D0000CA500D467868FFF7F0FE02460B46204629463AF0A2FD02460B46104619460837BD46B0BD00BF0418002072
S32D0000CA7880B582B000AF7860034804F09DFF00BF0837BD4680BD00BF0418002080B582B000AF786039607B6824
S32D0000CAA0012B0BD13B684FF6FF72934206D10548FFF7A4FF0121044804F0B2FC00BF0837BD4680BD00180020EF
S32D0000CAC80418002080B500AF4FF6FF710120FFF7DDFF80BD80B582B000AF78607868FFF789FF7B68013318467A
S32D0000CAF000F064FA7B6818460837BD4680BD80B584B000AFF860B9607A60B968F868FFF784FFFB680133796835
S32D0000CB18184600F05EFA00BF1037BD4680BD80B586B002AFF860C7E90023BB690193BB690093D7E90023F8680A
S32D0000CB4000F006F8034618461037BD4680BDFFFF90B585B000AFF860C7E90023104800F007FE02460B46012151
S32D0000CB680C46D7E900013AF0ABFF0346002B01D100231C46E3B2002B06D07A6A396AF868FFF7B9FF012303E0BB
S32D0000CB900448FFF79DFC002318461437BD4690BD58180020E417002090B585B000AFF860C7E90023F868FFF72B
S32D0000CBB83FFF02460B4601210C46D7E900013AF07FFF0346002B01D100231C46E3B2002B14D0396AF868FFF733
S32D0000CBE01CFFFB680133184600F004FA02460B4601210C46D7E90A013AF066FF0346002B07D104E00C48FFF748
S32D0000CC0863FC002310E000231C46E3B2002B07D0FB680133396B184600F0DBF9012303E00348FFF751FC00235B
S32D0000CC3018461437BD4690BDE4170020B0B58AB006AFF860C7E900233A6A4C212548FFF71BFE034618463AF0E5
S32D0000CC583DFC04460D462148FFF7EAFD02460B46204629463AF09CFC02460B46D7E900013AF0DEFA02460B466D
S32D0000CC80C7E900233A6B52211648FFF7FDFD034618463AF01FFC04460D461248FFF7CCFD02460B46204629463D
S32D0000CCA83AF07EFC02460B46D7E90A013AF0C0FA02460B46C7E90A233B6B0493D7E90A23CDE902233B6A0093BF
S32D0000CCD0D7E90023F868FFF767FF034618461037BD46B0BDFC17002080B58AB006AFF860C7E90023BB690493FC
S32D0000CCF8D7E90023CDE90223BB690093D7E90023F868FFF797FF034618461037BD4680BD2DE9B04F8AB006AF98
S32D0000CD20F860C7E900234FF000021F4BD7E900013AF064FD02460B4614461D461B48FFF78FFD02460B46204689
S32D0000CD4829463AF02DFC02460B46904699463B6B5C424FF00002124BD7E900013AF04AFD02460B4692469B4647
S32D0000CD700E48FFF775FD02460B46504659463AF013FC02460B46396B0491CDE90223009442464B46F868FFF720
S32D0000CD9851FF034618461037BD46BDE8B08F00BF00807640FC1700202DE9B0438AB006AFF860C7E900234FF0BE
S32D0000CDC000021F4BD7E900013AF018FD02460B4614461D461B48FFF743FD02460B46204629463AF0E1FB02462E
S32D0000CDE80B4614461D464FF00002134BD7E900013AF000FD02460B46904699460F48FFF72BFD02460B464046A6
S32D0000CE1049463AF0C9FB02460B46B96A49420491CDE90223BB6A009322462B46F868FFF705FF034618461037E7
S32D0000CE38BD46BDE8B08300BF00807640FC170020B0B58AB006AFF860C7E90023D7E9000102460B463AF0EEF9DF
S32D0000CE6002460B46104619464FF00002114B3AF0C5FC02460B4614461D460F48FFF7F0FC02460B4620462946D1
S32D0000CE883AF08EFB02460B46396A0491CDE90223002300934FF00002064BF868FFF7CAFE034618461037BD46C6
S32D0000CEB0B0BD00BF00807640FC17002000409F40B0B58AB006AFF860C7E90023D7E9000102460B463AF0B2F9F2
S32D0000CED802460B46104619464FF00002134B3AF089FC02460B4614461D461148FFF7B4FC02460B4620462946CD
S32D0000CF003AF052FB02460B4610461946002304934FF00002094BCDE902233B6A009302460B46F868FFF78AFE65
S32D0000CF28034618461037BD46B0BD00BF00807640FC17002000409F4080B582B000AF78607868FFF70BFC7B6888
S32D0000CF5001331846FFF714FC00BF0837BD4680BD80B582B000AF78607868FFF785FD7B680133184600F05EF8DC
S32D0000CF7800BF0837BD4680BD80B582B000AF786039607B68012B07D13B684FF6FF72934202D10348FFF79EFD02
S32D0000CFA000BF0837BD4680BD0818002080B500AF4FF6FF710120FFF7E3FF80BD80B582B000AF78607868FFF752
S32D0000CFC89BFB7868FFF714FC7B6818460837BD4680BD80B582B000AF7860396039687868FFF7A8FB00BF083760
S32D0000CFF0BD4680BDB0B582B000AF78600C4804F0CDFC034618463AF065FA04460D467868FFF712FC02460B465A
S32D0000D018204629463AF0C4FA02460B46104619460837BD46B0BD00BF1018002080B582B000AF7860034804F0FC
S32D0000D040BFFC00BF0837BD4680BD00BF1018002080B582B000AF786039607B68012B0BD13B684FF6FF72934222
S32D0000D06806D10548FFF7A6FF0021044804F0D4F900BF0837BD4680BD0C1800201018002080B500AF4FF6FF714A
S32D0000D0900120FFF7DDFF80BD80B483B000AF78607B6818460C37BD4680BC704780B582B000AF7860034807F0AA
S32D0000D0B8F7FE00BF0837BD4680BD00BFEC1B002080B582B000AF7860154808F0F5F80346002B0CBF012300237B
S32D0000D0E0DBB2002B01D04C2319E00F4808F0E8F80346012B0CBF01230023DBB2002B01D04D230CE0084808F04E
S32D0000D108DBF80346022B0CBF01230023DBB2002B01D05223FFE718460837BD4680BD00BFEC1B002080B582B090
S32D0000D13000AF786039607B68012B07D13B684FF6FF72934202D10348FFF7A6FF00BF0837BD4680BD1418002059
S32D0000D15880B500AF4FF6FF710120FFF7E3FF80BD80B483B000AF78607B6818460C37BD4680BC704780B582B00B
S32D0000D18000AF786039607B68012B07D13B684FF6FF72934202D10348FFF7E6FF00BF0837BD4680BD18180020C5
S32D0000D1A880B500AF4FF6FF710120FFF7E3FF80BD80B483B000AF78607B6818460C37BD4680BC704780B582B0BB
S32D0000D1D000AF786039607B68012B07D13B684FF6FF72934202D10348FFF7E6FF00BF0837BD4680BD1C18002071
S32D0000D1F880B500AF4FF6FF710120FFF7E3FF80BD80B483B000AF78607B6818460C37BD4680BC7047FFFFFFFFD6
S32D0000D22080B582B000AF7860194804F0EDFB034618463AF061F912A3D3E900233AF044FC0346002B10D01248DE
S32D0000D24804F0DEFB034618463AF052F90CA3D3E900233AF017FC0346002B01D0012300E00023002B01D0012378
S32D0000D27000E0002318460837BD4680BDAFF300805839B4C876BE9F3F5C8FC2F5285CDF3F2418002080B582B068
S32D0000D29800AF7860114804F0B3FB03464FF07C5118463AF08FFF0346002B0DD00B4804F0A7FB03464FF07E51EA
S32D0000D2C018463AF065FF0346002B01D0012300E00023002B01D0012300E0002318460837BD4680BD241800208C
S32D0000D2E880B582B000AF786039607B68012B0BD13B684FF6FF72934206D10548FFF780FF1021044804F06AFB09
S32D0000D31000BF0837BD4680BD201800202418002080B500AF4FF6FF710120FFF7DDFF80BD80B483B000AF786046
S32D0000D3387B6818460C37BD4680BC704780B582B000AF7860034808F0C5F800BF0837BD4680BD00BF0C1C00201A
S32D0000D36080B582B000AF786039607B68012B07D13B684FF6FF72934202D10348FFF7D8FF00BF0837BD4680BDDA
S32D0000D3882818002080B500AF4FF6FF710120FFF7E3FF80BD80B483B000AF78607B6818460C37BD4680BC7047E0
S32D0000D3B080B582B000AF7860084803F0ADFF0346002B0CBF01230023DBB2002B01D0012300E00023184608379F
S32D0000D3D8BD4680BD3018002080B582B000AF786039607B68012B13D13B684FF6FF7293420ED10948FFF7CEFFE4
S32D0000D4001121084803F0ACFE1221074803F0A8FE1321064803F0A4FE00BF0837BD4680BD2C18002030180020A3
S32D0000D428341800203818002080B500AF4FF6FF710120FFF7D1FF80BD80B483B000AF78607B6818460C37BD46C8
S32D0000D45080BC704780B582B000AF786039607B68012B13D13B684FF6FF7293420ED10A21084804F0B7FA0921EA
S32D0000D478074804F0B3FA0821064804F0AFFA0648FFF7DAFF00BF0837BD4680BD3C1800204018002044180020BF
S32D0000D4A04818002080B500AF4FF6FF710120FFF7D1FF80BD80B483B000AF78607B6818460C37BD4680BC7047B9
S32D0000D4C880B582B000AF78600021074805F01AFA0121054805F072FA0221034805F042F900BF0837BD4680BD23
S32D0000D4F0841B002080B582B000AF7860034805F013FE00BF0837BD4680BD00BF841B002080B582B000AF786066
S32D0000D518074A0849084805F0DBFA034683F00103DBB2002B00D0F3E700BF0837BD4680BD501800204C180020BD
S32D0000D540841B002080B584B002AF78607868FFF7BBFF7868FFF7CEFF502360221249134805F057FAF0234E2265
S32D0000D5681149104805F051FA06230093F023A32200210C4805F0CCFF7868FFF7C5FF0B4B1B680B4918463AF08B
S32D0000D5901DFE0346002B01D0012300E0002318460837BD4680BD00BFA49B0500841B0020AC9B05004C18002077
S32D0000D5B80000204380B582B000AF786039607868FFF77EFF38683FF077FD024613465B0013445B00C3F17803E8
S32D0000D5E01A46A0233968034805F013FA00BF0837BD4680BD841B002080B582B000AF78600E48FFF70DFE034681
S32D0000D608002B04D00C490D4805F023FC0EE00948FFF73CFE0346002B04D00949074805F018FC03E00749054856
S32D0000D63005F013FC00BF0837BD4680BD20180020B49B0500841B0020B89B0500C09B050080B582B000AF786079
S32D0000D6580749084805F04BFB074800F0D9F802460B46044805F0CAFB00BF0837BD4680BDD09B0500841B0020AD
S32D0000D6805818002080B582B000AF786039607B68012B07D13B684FF6FF72934202D10348FFF708FF00BF083737
S32D0000D6A8BD4680BD5418002080B500AF4FF6FF710120FFF7E3FF80BD80B483B000AF78607B6818460C37BD4644
S32D0000D6D080BC704780B584B000AFF860C7E90023D7E9000103F0FAFC074BD3E90001D7E9002339F0A3FD024649
S32D0000D6F80B460349C1E9002300BF1037BD4680BD6018002080B582B000AF78603960386803F0CAFC3B680B4AE4
S32D0000D72082FB03129211DB17D31A184639F0D2FE074BD3E9002339F081FD02460B460449C1E9002300BF0837E7
S32D0000D748BD4680BDD34D62106018002080B582B000AF78604FF496717868FFF7D3FF00BF0837BD4680BDFFFF2D
S32D0000D77080B483B000AF7860044BD3E90023104619460C37BD4680BC704700BF6818002080B483B000AF786034
S32D0000D79805494FF000024FF00003C1E9002300BF0C37BD4680BC704768180020FFFFFFFF80B582B000AF786043
S32D0000D7C011A1D1E9000103F089FC114BD3E900010DA3D3E9002339F031FD02460B460C49C1E900230B4BD3E98A
S32D0000D7E8000107A3D3E9002339F024FD02460B460649C1E9002300BF0837BD4680BD00BFFCA9F1D24D62503FE7
S32D0000D810601800206818002080B483B000AF7860044BD3E90023104619460C37BD4680BC704700BF6018002051
S32D0000D83880B483B000AF786009494FF000024FF00003C1E9002307494FF000024FF00003C1E9002300BF0C3790
S32D0000D860BD4680BC704700BF601800206818002080B582B000AF786039607B68012B07D13B684FF6FF72934211
S32D0000D88802D10348FFF718FF00BF0837BD4680BD5818002080B500AF4FF6FF710120FFF7E3FF80BD80B483B043
S32D0000D8B000AF78607B6818460C37BD4680BC704780B582B000AF78600B46FB70FB784C2B05D14FF00001124845
S32D0000D8D804F0CEFB1CE0FB78552B04D10F490E4804F0C6FB14E0FB78462B04D10C490A4804F0BEFB0CE0FB78DE
S32D0000D900522B04D10949064804F0B6FB04E04FF00001034804F0B0FB00BF0837BD4680BD741800200000BA426E
S32D0000D9280000CC420000344380B582B000AF786040F26221054804F061FB40F6D401034804F079FB00BF083750
S32D0000D950BD4680BD7418002080B582B000AF786039607B68012B0BD13B684FF6FF72934206D10548FFF79AFF6A
S32D0000D9780021044804F026FB00BF0837BD4680BD701800207418002080B500AF4FF6FF710120FFF7DDFF80BDA4
S32D0000D9A080B483B000AF78607B6818460C37BD4680BC704780B582B000AF78600B46FB70FB784C2B04D113492C
S32D0000D9C8134804F055FB1CE0FB784D2B04D111490F4804F04DFB14E0FB78482B04D10E490B4804F045FB0CE070
S32D0000D9F0FB78552B05D14FF00001074804F03CFB03E00849044804F037FB00BF0837BD4680BD00BF0000BE42E3
S32D0000DA18841800200000824200005C420000344380B582B000AF78604FF43E71054804F0E5FA4FF41B61034841
S32D0000DA4004F0FDFA00BF0837BD4680BD8418002080B582B000AF786039607B68012B0BD13B684FF6FF72934233
S32D0000DA6806D10548FFF798FF0121044804F0AAFA00BF0837BD4680BD801800208418002080B500AF4FF6FF718E
S32D0000DA900120FFF7DDFF80BD80B483B000AF78607B6818460C37BD4680BC704780B582B000AF78600B46FB7026
S32D0000DAB8FB78552B04D10F490F4804F0D9FA14E0FB784D2B04D10D490B4804F0D1FA0CE0FB78442B04D10A49F0
S32D0000DAE0074804F0C9FA04E04FF00001044804F0C3FA00BF0837BD4680BD00BF0000A0409418002000002042E6
S32D0000DB080000824280B582B000AF78604FF4FA71054804F073FA4FF41661034804F08BFA00BF0837BD4680BD25
S32D0000DB309418002080B582B000AF786039607B68012B0BD13B684FF6FF72934206D10548FFF7A2FF0221044831
S32D0000DB5804F038FA00BF0837BD4680BD901800209418002080B500AF4FF6FF710120FFF7DDFF80BD80B483B077
S32D0000DB8000AF78607B6818460C37BD4680BC704780B582B000AF78600348FFF7F9FD00BF0837BD4680BD00BF54
S32D0000DBA85818002080B584B002AF78607868FFF7EBFF3048FEF726FE034600934FF000022D4B2E48FFF78CF8F7
S32D0000DBD00346002B03D02C48FFF7EEFDEDE72748FEF71EFE034600934FF00002274B2548FFF7DEF80346002BFB
S32D0000DBF803D02348FFF7DCFDEDE71E48FEF702FE034600934FF000021F4B1C48FFF768F80346002B03D01A48D9
S32D0000DC20FFF7CAFDEDE71548FEF7FAFD03465B4200934FF00002174B1248FFF705F90346002B03D01048FFF7FD
S32D0000DC48B7FDECE70B48FEF7DDFD03465B421A4652210F48FEF7B8FC0346002B03D00848FFF7A6FDEEE7786867
S32D0000DC7000F046FC00BF0837BD4680BDFC17002000002B4008180020581800200080464000003C400080564010
S32D0000DC98E417002080B584B002AF78603048FEF7BBFD034600934FF000022E4B2E48FFF72FF80346002B03D0BC
S32D0000DCC02C48FFF779FDEDE72748FEF79FFD03465B4200934FF00002274B2548FFF704F80346002B03D0234845
S32D0000DCE8FFF766FDECE74C212248FFF75FFE4FF00002214B1D48FFF7E9FC48211D48FFF755FE4FF000021D4B0B
S32D0000DD101848FFF7DFFC1448FEF778FD034600934FF00002144B1248FEF7DEFF0346002B03D01048FFF740FD74
S32D0000DD38EDE70B48FEF770FD034600934FF00002084B0948FFF730F80346002B03D00748FFF72EFDEDE700BF0B
S32D0000DD600837BD4680BD00BFFC170020008056400818002058180020008023408018002000001D400000E03F27
S32D0000DD8880B584B002AF78603548FFF745FA0346002B15D052213348FFF78EFD3248FEF73BFD034600934FF03F
S32D0000DDB00002304B3048FEF7AFFF0346002B35D02E48FFF7F9FCEDE72748FFF763FA0346002B15D04C2125480A
S32D0000DDD8FFF772FD2448FEF71FFD034600934FF00002254B2248FEF7DFFF0346002B19D02048FFF7DDFCEDE709
S32D0000DE004C211A48FFF75CFD1948FEF709FD034600934FF000021A4B1748FEF7C9FF0346002B03D01548FFF742
S32D0000DE28C7FCEDE71548FFF7E3FB0F48FEF7EAFC034600934FF00002114B0D48FEF750FF0346002B03D00B4826
S32D0000DE50FFF7B2FCEDE74FF4FA710848FFF756FC00BF0837BD4680BD2018002070180020FC17002000001E4017
S32D0000DE780818002058180020000021405418002000001640FFFFFFFF90B589B006AF78607868FFF779FEB2481B
S32D0000DEA0FEF7B4FC034600934FF00002AF4BB048FEF71AFF0346002B03D0AE48FFF77CFCEDE7A948FEF7ACFC85
S32D0000DEC8034600934FF00002A94BA748FEF7F4FF0346002B03D0A548FFF76AFCEDE7A048FEF790FC034600939B
S32D0000DEF04FF00002A14B9E48FEF7F6FE0346002B03D09C48FFF758FCEDE79748FEF788FC034600934FF000024A
S32D0000DF18994B9548FEF7FCFE0346002B03D09348FFF746FCEDE78E48FEF76CFC03465B421A4642219148FEF753
S32D0000DF4023FB0346002B03D08A48FFF735FCEEE78548FEF75BFC034600934FF000028A4B8348FEF7C1FE0346AD
S32D0000DF68002B03D08148FFF723FCEDE77C48FEF753FC034600934FF000027F4B7A48FEF7C7FE0346002B03D029
S32D0000DF907848FFF711FCEDE77348FEF737FC03465B421A4642217748FEF7EEFA0346002B03D07048FFF700FCB3
S32D0000DFB8EEE76B48FEF726FC034600934FF00002704B6948FEF78CFE0346002B03D06748FFF7EEFBEDE74D217D
S32D0000DFE06B48FFF763FD6048FEF71AFC03465B4200934FF00002624B5D48FEF725FF0346002B03D05B48FFF752
S32D0000E008D7FBECE75648FEF7FDFB03465B421A4642215A48FEF7B4FA0346002B03D05348FFF7C6FBEEE74421F9
S32D0000E0305748FFF73BFD4C48FEF7E8FB04464A48FEF7E4FB03460F3304934FF00002514BCDE90223009442A386
S32D0000E058D3E900234448FEF7EDFD0346002B03D04248FFF7A5FBE2E73D48FEF7CBFB03465B4200934FF0000226
S32D0000E080454B3B48FEF730FE0346002B03D03948FFF792FBECE74D213D48FFF707FD3248FEF7BEFB034600932D
S32D0000E0A84FF00002344B3048FEF7CAFE0346002B03D02E48FFF77CFBEDE755213248FFF7F1FC2748FEF79EFB87
S32D0000E0D0034600934FF00002304B2548FEF704FE0346002B03D02348FFF766FBEDE71E48FEF796FB03465B4277
S32D0000E0F800934FF00002204B1B48FEF7A1FE0346002B03D01948FFF753FBECE71448FEF779FB03465B421A46FA
S32D0000E12042211848FEF730FA0346002B03D01148FFF742FBEEE70C48FEF768FB034600934FF00002164B0A48CB
S32D0000E148FEF7CEFD0346002B28D00848FFF730FBEDE700BFAFF30080CDCCCCCCCCCC1540FC1700200000F03FD7
S32D0000E1700818002058180020008046400000224000805640E417002000000C4000801C409018002000001440D4
S32D0000E1980000124000001C4000803940B648FEF73BFB03465B4200934FF00002B34BB448FEF782FE0346002BEC
S32D0000E1C003D0B248FFF7F8FAECE7AD48FEF71EFB034600934FF00002AD4BAB48FEF784FD0346002B03D0A948F0
S32D0000E1E8FFF7E6FAEDE7A448FEF716FB034600934FF00002A54BA248FEF78AFD0346002B03D0A048FFF7D4FA07
S32D0000E210EDE79B48FEF7FAFA03465B421A4642219D48FEF7B1F90346002B03D09748FFF7C3FAEEE74D21994816
S32D0000E238FFF7BCFB4FF00002974B9248FFF746FA8D48FEF7DFFA034600934FF00002934B8B48FEF745FD0346E7
S32D0000E260002B03D08948FFF7A7FAEDE755218B48FFF7A0FB8248FEF7D3FA034600934FF00002894B8048FEF742
S32D0000E28847FD0346002B03D07E48FFF791FAEDE77948FEF7B7FA03465B421A4642217C48FEF76EF90346002B1E
S32D0000E2B003D07648FFF780FAEEE77148FEF7A6FA034600934FF00002784B6F48FEF70CFD0346002B03D06D488B
S32D0000E2D8FFF76EFAEDE76848FEF79EFA034600934FF00002704B6648FEF75EFD0346002B03D06448FFF75CFA94
S32D0000E300EDE75F48FEF782FA034600934FF00002684B6148FEF788F90346002B03D05B48FFF74AFAEDE778683C
S32D0000E328FFF72EFD5448FEF76DFA03465B4200934FF00002544B5248FEF7D2FC0346002B03D05048FFF734FAF5
S32D0000E350ECE74B48FEF764FA034600934FF00002514B4948FEF724FD0346002B03D04748FFF722FAEDE7424840
S32D0000E378FEF748FA03465B4200934FF000024C4B3F48FEF7ADFC0346002B03D03D48FFF70FFAECE73848FEF7B7
S32D0000E3A03FFA034600934FF00002444B3648FEF7FFFC0346002B03D03448FFF7FDF9EDE72F48FEF723FA0346A7
S32D0000E3C85B421A4642213248FEF7DAF80346002B03D02C48FFF7ECF9EEE72748FEF71CFA034600934FF0000284
S32D0000E3F0334B2548FEF728FD0346002B03D02348FFF7DAF9EDE71E48FEF70AFA034600934FF000022A4B1C4856
S32D0000E418FEF752FD0346002B03D01A48FFF7C8F9EDE71548FEF7EEF90346009310A3D3E900231348FEF754FC17
S32D0000E4400346002B03D01148FFF7B6F9EDE70C48FEF7E6F903465B4200934FF00002124B0948FEF7F1FC0346DA
S32D0000E468002B2BD00748FFF7A3F9ECE7AFF300800000000000C04440FC17002000003E400818002058180020C5
S32D0000E4900000164000004E40E4170020801800200000E03F000023400080564000001C40000059400000F03FEB
S32D0000E4B80000244000805B4000002E400A48FEF7A1F903465B421A4642210848FEF758F80346002B03D0064895
S32D0000E4E0FFF76AF9EEE700BF0C37BD4690BD00BFFC170020E417002058180020FFFFFFFF80B584B002AF786003
S32D0000E508AF48FEF789F9034600934FF00002AD4BAD48FEF795FC0346002B03D0AB48FFF747F9EDE7A648FEF7C0
S32D0000E5306DF9034600934FF00002A74BA448FEF7D3FB0346002B03D0A248FFF735F9EDE74C21A248FFF7B4F976
S32D0000E5589B48FEF761F9034600934FF00002994B9948FEF76DFC0346002B03D09748FFF71FF9EDE79248FEF74C
S32D0000E5804FF9034600934FF00002954B9048FEF7C3FB0346002B03D08E48FFF70DF9EDE78948FEF733F9034675
S32D0000E5A85B421A4642218D48FDF7EAFF0346002B03D08648FFF7FCF8EEE78148FEF722F9034600937CA3D3E9CF
S32D0000E5D000237F48FEF788FB0346002B03D07D48FFF7EAF8EDE77848FEF71AF9034600934FF000027A4B76489B
S32D0000E5F8FEF762FC0346002B03D07448FFF7D8F8EDE76F48FEF7FEF8034600934FF00002734B6D48FEF783FA61
S32D0000E6200346002B03D06B48FFF7C6F8EDE7122300934FF000026C4B6548FEF774FA0346002B03D06348FFF792
S32D0000E648B7F8F0E75E48FEF7E7F8034600934FF00002644B5C48FEF7A7FB0346002B03D05A48FFF7A5F8EDE74D
S32D0000E670502300934FF000025D4B5548FEF753FA0346002B03D05348FFF796F8F0E74E48FEF7C6F8034600934C
S32D0000E6984FF00002554B4C48FEF73AFB0346002B03D04A48FFF784F8EDE74548FEF7B4F8034600934FF000024B
S32D0000E6C04B4B4348FEF72FFA0346002B03D04148FFF772F8EDE746214048FFF7F1F84FF00002454B3B48FEF7D2
S32D0000E6E8F5FF4C213B48FFF7E7F84FF00002404B3648FEF7EBFF3248FEF784F803465B4200934FF000023A4BF8
S32D0000E7102F48FEF7E9FA0346002B03D02D48FFF74BF8ECE72848FEF77BF803465B4200934FF000022A4B26484F
S32D0000E738FEF73AFB0346002B03D02448FFF738F8ECE71F48FEF768F803465B421A4642212248FDF715FF0346BD
S32D0000E760002B03D01B48FFF727F8EEE71648FEF74DF8034600934FF00002204B1448FEF7B3FA0346002B03D0DB
S32D0000E7881248FFF715F8EDE748211B48FFF70EF90B48FEF741F8034600934FF00002094B0948FEF74DFB0346A0
S32D0000E7B0002B27D00748FEF7FFFFEDE7AFF300806666666666660140FC17002000804640081800205818002033
S32D0000E7D800802E407018002000805640E41700200000E83F00002E400000D03F000034400000F03F000028409D
S32D0000E800801800208548FEF75FFC03464C2B0CBF01230023DBB2002B27D08148FDF7F6FF034600934FF00002C5
S32D0000E8287E4B7F48FEF75CFA0346002B03D07D48FEF7BEFFEDE77868FFF72CFA7648FDF7E1FF03465B4200934E
S32D0000E8504FF00002734B7448FEF746FA0346002B69D07248FEF7A8FFECE76C48FEF72CFC03464D2B0CBF012353
S32D0000E8780023DBB2002B27D06748FDF7C3FF034600934FF00002684B6548FEF729FA0346002B03D06348FEF7BF
S32D0000E8A08BFFEDE77868FFF7F9F95D48FDF7AEFF03465B4200934FF000025D4B5A48FEF713FA0346002B36D05E
S32D0000E8C85848FEF775FFECE75248FEF7F9FB0346522B0CBF01230023DBB2002B27D04E48FDF790FF03465B423D
S32D0000E8F000934FF000024F4B4B48FEF7F5F90346002B03D04948FEF757FFECE77868FFF7C5F94348FDF77AFF94
S32D0000E918034600934FF00002444B4148FEF7E0F90346002B03D03F48FEF742FFEDE755213F48FFF73BF8384850
S32D0000E940FDF764FF034600934FF000023B4B3648FEF7CAF90346002B03D03448FEF72CFFEDE72F48FDF75CFFFC
S32D0000E968034600934FF00002334B2D48FEF7D0F90346002B03D02B48FEF71AFFEDE72648FDF740FF03465B4290
S32D0000E9901A4642212B48FDF7F7FD0346002B03D02248FEF709FFEEE71D48FDF72FFF034600934FF00002244BA5
S32D0000E9B81B48FEF795F90346002B03D01948FEF7F7FEEDE71448FDF727FF034600934FF00002194B1248FEF79F
S32D0000E9E033FA0346002B03D01048FEF7E5FEEDE70B48FDF70BFF034600934FF00002134B0948FEF771F90346CC
S32D0000EA08002B03D00748FEF7D3FEEDE700BF0837BD4680BD14180020FC17002000001A40081800205818002012
S32D0000EA30000008400000E03F801800200000F03F00804640E41700200040484000002B4080B582B000AF786028
S32D0000EA5839607B68012B07D13B684FF6FF72934202D10348FFF786F800BF0837BD4680BDA018002080B500AF56
S32D0000EA804FF6FF710120FFF7E3FF80BD80B582B000AF0123FB712348FEF708FB2248FDF7E1FC2248FEF74EFD8F
S32D0000EAA80346002B1AD00123FB7100BF1E491D48FEF780FD1D4804F033FB1A48FEF724FD1748FDF7CBFC00BF7D
S32D0000EAD01948FFF76BF81548FEF7F6FC1248FDF70FFDDBE70023FB7100BF14490F48FEF765FD1348FEF794FBC6
S32D0000EAF8034683F00103DBB2002B00D0F5E70848FDF7ACFC00BF0A48FFF7BEF90848FFF7F3FC0348FDF7F0FCC2
S32D0000EB20BCE700BF14180020E417002054180020D89B0500841B0020A0180020E89B05002018002080B582B01C
S32D0000EB4800AF786039607B68012B0CD13B684FF6FF72934207D1064806F032FF054A0649034806F02BFD00BF52
S32D0000EB700837BD4680BD00BFA418002000000020E959010080B500AF4FF6FF710120FFF7D9FF80BD80B500AF51
S32D0000EB980F4BD3F8A03003F48053002B14BF01230023DBB2002B10D0094BD3F8A030084A23F48053C2F8A030FE
S32D0000EBC0064806F08BFC064B1B68054A23F40053136000BF80BD00BF00C004400C1C0020C0F00F4080B400AF73
S32D0000EBE8124B4FF480725A63114B5B69104A43F4005353610E4B1B680D4A43F4005313600A4B0C4A1A630C4B49
S32D0000EC10D3F888310A4A43F08063C2F88831084B9B68074A43F08063936000BFBD4680BC704700BF00C004404D
S32D0000EC38C0F00F4003010A0000E100E080B400AF324B00225A70314B98221A702F4B9B79DBB203F01003002B88
S32D0000EC6014BF01230023DBB2002B00D0F2E7294B9B79DBB29B0803F00303022B14BF01230023DBB2002B00D08B
S32D0000EC88F1E7224B18221A71204B00225A71204B03F5825304331F4A1A601C4B54225A711A4B9B79DBB203F009
S32D0000ECB02003002B0CBF01230023DBB2002B00D0F2E7144B9B79DBB203F04003002B0CBF01230023DBB2002B4A
S32D0000ECD800D0F2E70D4B1B78DBB20C4A03F03F03DBB21370094B9B79DBB29B0803F00303032B14BF0123002379
S32D0000ED00DBB2002B00D0F1E700231846BD4680BC704700BF00400640007004400000130180B500AF344B03F5A6
S32D0000ED28815318331B68324943F4785201F5815318331A60FFF752FFFFF780FF2D4B58221A602C4B1B684FF4AB
S32D0000ED507A7202FB03F32A4A1360294B1B681A46254B03F5825304331B681B0E03F00F030133B2FBF3F31A462C
S32D0000ED78224B1A601E4B03F581531C331B681C4943F0225201F581531C331A60184B03F5815310331B6816498C
S32D0000EDA043F0006201F5815310331A60164B4FF480721A61642002F065F8134B5B69124A23F010035361104B92
S32D0000EDC800221A600E4B10225A610E4803F0FAFB02F0FEFE02F05CFF0B4802F0B3F80B4806F0CCFB4FF4FA6025
S32D0000EDF002F05EF900BF80BD00700440D01A0020CC1A0020D41A002000D00340841B0020C81A00207C1C002052
S32D0000EE1880B500AFFDF793FA00BF80BD80B500AFFDF78DFA00BF80BD80B500AFFDF787FA00BF80BD80B500AFD7
S32D0000EE40FDF781FA00BF80BD80B500AFFDF77BFA00BF80BD80B500AFFDF775FA00BF80BD80B500AFFDF76FFA6C
S32D0000EE6800BF80BD80B500AFFDF769FA00BF80BD80B500AFFDF763FA00BF80BD80B500AFFDF75DFA00BF80BDED
S32D0000EE9080B500AFFDF757FA00BF80BD80B500AFFDF751FA00BF80BD80B500AFFDF74BFA00BF80BD80B500AF13
S32D0000EEB8FDF745FA00BF80BD80B500AFFDF73FFA00BF80BD80B500AFFDF739FA00BF80BD80B500AFFDF733FAE4
S32D0000EEE000BF80BD80B500AFFDF72DFA00BF80BD80B500AFFDF727FA00BF80BD80B500AFFDF721FA00BF80BD29
S32D0000EF0880B500AFFDF71BFA00BF80BD80B500AFFDF715FA00BF80BD80B500AFFDF70FFA00BF80BD80B500AF4E
S32D0000EF30FDF709FA00BF80BD80B500AFFDF703FA00BF80BD80B500AFFDF7FDF900BF80BD80B500AFFDF7F7F95D
S32D0000EF5800BF80BD80B500AFFDF7F1F900BF80BD80B500AFFDF7EBF900BF80BD80B500AFFDF7E5F900BF80BD67
S32D0000EF8080B500AFFDF7DFF900BF80BD80B500AFFDF7D9F900BF80BD80B500AFFDF7D3F900BF80BD80B500AF8D
S32D0000EFA8FDF7CDF900BF80BD80B500AFFDF7C7F900BF80BD80B500AFFDF7C1F900BF80BD80B500AFFDF7BBF9D7
S32D0000EFD000BF80BD80B500AFFDF7B5F900BF80BD80B500AFFDF7AFF900BF80BD80B500AFFDF7A9F900BF80BDA3
S32D0000EFF880B500AFFDF7A3F900BF80BD80B500AFFDF79DF900BF80BD80B500AFFDF797F900BF80BD80B500AFC9
S32D0000F020FDF791F900BF80BD80B500AFFDF78BF900BF80BD80B500AFFDF785F900BF80BD80B500AFFDF77FF94E
S32D0000F04800BF80BD80B500AFFDF779F900BF80BD80B500AFFDF773F900BF80BD80B500AFFDF76DF900BF80BDDE
S32D0000F07080B500AFFDF767F900BF80BD80B500AFFDF761F900BF80BD80B500AFFDF75BF900BF80BD80B500AF04
S32D0000F098FDF755F900BF80BD80B500AFFDF74FF900BF80BD80B500AFFDF749F900BF80BD80B500AFFDF743F9C6
S32D0000F0C000BF80BD80B500AFFDF73DF900BF80BD80B500AFFDF737F900BF80BD80B500AFFDF731F900BF80BD1A
S32D0000F0E880B500AFFDF72BF900BF80BD80B500AFFDF725F900BF80BD80B500AFFDF71FF900BF80BD80B500AF40
S32D0000F110FDF719F900BF80BD80B500AFFDF713F900BF80BD80B500AFFDF70DF900BF80BD80B500AFFDF707F93D
S32D0000F13800BF80BD80B500AFFDF701F900BF80BD80B500AFFDF7FBF800BF80BD80B500AFFDF7F5F800BF80BD57
S32D0000F16080B500AFFDF7EFF800BF80BD80B500AFFDF7E9F800BF80BD80B500AFFDF7E3F800BF80BD80B500AF7E
S32D0000F188FDF7DDF800BF80BD80B500AFFDF7D7F800BF80BD80B500AFFDF7D1F800BF80BD80B500AFFDF7CBF8B9
S32D0000F1B000BF80BD80B500AFFDF7C5F800BF80BD80B500AFFDF7BFF800BF80BD80B500AFFDF7B9F800BF80BD94
S32D0000F1D880B500AFFDF7B3F800BF80BD80B500AFFDF7ADF800BF80BD80B500AFFDF7A7F800BF80BD80B500AFBA
S32D0000F200FDF7A1F800BF80BD80B500AFFDF79BF800BF80BD80B500AFFDF795F800BF80BD80B500AFFDF78FF830
S32D0000F22800BF80BD80B500AFFDF789F800BF80BD80B584B000AFF8600B467A60FB72FB68FA7A1A71FB68002278
S32D0000F2505A711749786838F0B9FF0346002B02D0134B7B600AE04FF07E51786838F09AFF0346002B02D04FF008
S32D0000F2787E537B60786838F03BF909A3D3E9002338F08EF902460B461046194638F080FC0246FB681A60FB68CC
S32D0000F2A018461037BD4680BDABAAAAAAAAAA20400000404180B582B000AF78607B685B79002B09D07B680022CF
S32D0000F2C85A717B6819791E230022034801F074FE00BF0837BD4680BDC81A002080B584B000AF786039603B685B
S32D0000F2F07F2B02DD7F23FB7308E03B6813F1800F02DA8023FB7301E03B68FB737B685B79FA7B9A4209D07B6896
S32D0000F318FA7B5A717B681979FA7B1E23034801F04BFE00BF1037BD4680BD00BFC81A0020B0B584B000AF7860B0
S32D0000F34039603749386838F023FF0346002B02D0334B3B6008E03349386838F037FF0346002B01D02F4B3B6081
S32D0000F368386838F0C5F804460D467B681B68184638F0BEF84FF00002294B38F03BFA02460B462046294638F00B
S32D0000F3900BF902460B461046194638F0FDFB03463B604FF00001386838F006FF0346002B10D0386838F0A0F838
S32D0000F3B817A3D3E9002338F0F3F802460B461046194638F09DFB0346FB6018E0386838F08FF84FF00002134BE3
S32D0000F3E038F0E2F802460B46104619464FF000020D4B38F003FA02460B461046194638F083FB0346FB60F968F8
S32D0000F4087868FFF76BFF00BF1037BD46B0BD00BF52B81E85EB51F43F0000C8C20000C842000059400000604078
S32D0000F43080B483B000AF03460A46FB711346BB71BB79002B03D1134B00221A7002E0114B01221A703823FB711F
S32D0000F4580E4B1A78FB791343FB710D4B9B78DBB20B4A43F01003DBB29370094B9B78DBB2074A43F02003DBB21A
S32D0000F4809370054AFB79137100BF0C37BD4680BC704700BFA51800200060064080B483B000AF01237B607B68E2
S32D0000F4A8312B04DC00BF7B6801337B60F7E700BF0C37BD4680BC704780B582B000AF03460A46FB711346BB71D3
S32D0000F4D0134B1B7800211846FFF7AAFF00F024F8104AFB79137100F01FF80E4ABB79137100F01AF80B4B9B781F
S32D0000F4F8DBB20A4A23F02003DBB29370074B9B78DBB2064A23F01003DBB29370FFF7C2FF00BF0837BD4680BD52
S32D0000F520A61800200060064080B483B000AF174B1B78002B24D100237B60154BDB78DBB203F00203002B0CBFE2
S32D0000F54801230023DBB2002B0DD07B6842F21072934203DD0B4B01221A7004E07B6801337B6000BFE5E7084BB4
S32D0000F570DB78DBB2064A43F00203DBB2D37000E000BF0C37BD4680BC704700BFA71800200060064080B582B0B2
S32D0000F59800AF0346FB71FB79184600F05FF800BF0837BD4680BD80B582B000AF03460A46FB711346BB7100F0FA
S32D0000F5C035F8FB795B00DBB21846FFF7E3FFBB791846FFF7DFFF00F037F800BF0837BD4680BD80B500AFFF2098
S32D0000F5E800F03CF80346184680BD80B584B000AF0346FB7100F016F8FB795B005BB243F001035BB2DBB2184617
S32D0000F610FFF7C0FFFFF7E5FF0346FB7300F014F8FB7B18461037BD4680BDFFFF80B400AF044B9B68034A43F478
S32D0000F6388013936000BFBD4680BC704740F00F4080B400AF044B5B68034A43F48013536000BFBD4680BC704776
S32D0000F66040F00F4080B485B000AF0346FB710023BB73164BDB6A03F00043012B0CBF01230023DBB2002B03D03A
S32D0000F688FB7B0133FB73F0E70E4BDB6A0D4A43F00043D3620B4AFB7953630A4BDB6A03F40033002B0CBF012368
S32D0000F6B00023DBB2002B00D0F3E7044B9B6BBB73BB7B18461437BD4680BC704700C00A4080B582B000AF224BC2
S32D0000F6D803F5815310331B681F4943F4805201F5815310331A601D4B4FF480721A651C4B5B691B4A43F4801304
S32D0000F7005361FFF7A1FF174B4FF400725A65154B4FF400729A65134B4FF40072DA65134B134A1A60114B134A67
S32D0000F728DA6000237B607B68092B06DCFF20FFF72DFF7B6801337B60F5E705A1D1E9000101F0C8FC00BF08375F
S32D0000F750BD4680BDAFF300809A9999999999B93F0070044000A0044040F00F4000C00A40000C00800500003EAA
S32D0000F77890B486B000AFF860B9607A60FB68594A93420CD1584B03F5815314331B68564943F4806201F581537C
S32D0000F7A014331A604FE0FB68524A93420CD1504B03F5815314331B684D4943F4006201F5815314331A603EE091
S32D0000F7C8FB684B4A93420CD1474B03F5815314331B68454943F4805201F5815314331A602DE0FB68434A93424D
S32D0000F7F00CD13F4B03F5815314331B683C4943F4005201F5815314331A601CE0FB683C4A93420CD1364B03F545
S32D0000F818815308331B68344943F4806201F5815308331A600BE0304B03F5815308331B682D4943F4006201F526
S32D0000F840815308331A60FB68DB78DBB223F00C03DAB2FB68DA70FB6800229A70BB684FF47A7202FB03F27B68BD
S32D0000F8681B0192FBF3F39CB2FB681B78DBB223F01F03FB7523461B12DBB203F01F03DAB2FB7D1343DAB2FB68EC
S32D0000F8901A70E2B2FB685A70BB684FF4FA4202FB03F27B681B0192FBF3F39AB263019BB2D31A9CB2FB689B7A49
S32D0000F8B8DBB223F01F03FB75E3B203F01F03DAB2FB7D1343DAB2FB689A72FB68DB78DBB243F00C03DAB2FB687D
S32D0000F8E0DA7000BF1837BD4690BC704700A006400070044000B0064000C0064000D0064000A00E4080B483B09B
S32D0000F90800AF78607B681B79DBB203F02003002B0CBF01230023DBB2002B00D0F2E77B68DB79DBB218460C372D
S32D0000F930BD4680BC704780B483B000AF78600B46FB707B681B79DBB25BB2DB43DBB2DB09DBB2002B00D0F4E706
S32D0000F9587B68FA78DA7100BF0C37BD4680BC704780B487B000AFF860B9607A60FB687B617B685A1E7A60002BE5
S32D0000F98014BF01230023DBB2002B06D07B695A1C7A61BA68D2B21A70EEE700BF1C37BD4680BC704780B584B006
S32D0000F9A800AF786039607B681B6BFB60FA683B689A4252D07B681B79002B35D07B6858787B6803F134010123C0
S32D0000F9D0FA6801F0F5F80346002B14BF01230023DBB2002B01D001233CE07B6800221A717B685A6A7B681B6AD3
S32D0000F9F81344FA689A4217D27B68DB78FB72FB7A012B11D97B681B6AFA681344FB607B6858787B6803F13401FA
S32D0000FA200123FA6801F0CCF8FB7A013BFB72EAE73B68002B15D07B6858787B6803F1340101233A6800F0D8FF8F
S32D0000FA480346002B14BF01230023DBB2002B01D0012303E07B683A681A63002318461037BD4680BD80B584B0FF
S32D0000FA7000AF786000217868FFF794FF0346FB73FB7B002B40F091807B681B78032B7BD17B685B79002B77D0A5
S32D0000FA987B6800221A637B6834334FF4007200211846FFF75DFF7B68552283F832227B68AA2283F833227B6863
S32D0000FAC0522283F834207B68522283F835207B68612283F836207B68412283F837207B68722283F818227B6850
S32D0000FAE8722283F819227B68412283F81A227B68612283F81B227B681B69DAB27B6883F81C227B681B699BB248
S32D0000FB101B12DAB27B6883F81D227B681B691B0CDAB27B6883F81E227B681B691B0EDAB27B6883F81F227B681B
S32D0000FB38DB68DAB27B6883F820227B68DB689BB21B12DAB27B6883F821227B68DB681B0CDAB27B6883F82222E8
S32D0000FB607B68DB681B0EDAB27B6883F823227B6858787B6803F134017B685A69012301F01FF87B6800225A7198
S32D0000FB887B685B7800220021184601F0E1F80346002B14BF01230023DBB2002B01D00123FB73FB7B184610376A
S32D0000FBB0BD4680BD80B582B000AF78600B467B807B68002B08D07B681B78002B04D07B68DB887A889A4201D05D
S32D0000FBD8092311E07B685B78184601F03BF9034603F00103002B14BF01230023DBB2002B01D0032300E0002372
S32D0000FC0018460837BD4680BD80B586B000AF78607B681A687B689B8819461046FFF7CAFF0346FB75FB7D002BCC
S32D0000FC2840F0A8807B689B7903F02003002B00F0A1807B689B7903F04003002B1BD07B681B6858787B6803F1BD
S32D0000FC5028017B689A69012300F0B2FF0346002B14BF01230023DBB2002B01D0012386E07B689B7923F04003C4
S32D0000FC78DAB27B689A717B681A687B68DB6919461046FFF78BFE0346FB75FB7D002B71D17B681B6A3B613B69DE
S32D0000FCA00B331A783B690B3342F02002D2B21A707B68DA683B691C33D2B21A707B68DB689BB21A123B691D3369
S32D0000FCC8D2B21A707B68DB681A0C3B691E33D2B21A707B68DB681A0E3B691F33D2B21A707B681A693B691A3308
S32D0000FCF0D2B21A707B681B699BB21A123B691B33D2B21A707B681B691A0C3B691433D2B21A707B681B691B0CE4
S32D0000FD189BB21A123B691533D2B21A700023FB603B691633FA68D2B21A70FB689BB21A123B691733D2B21A7097
S32D0000FD40FB681A0C3B691833D2B21A70FB681A0E3B691933D2B21A707B689B7923F02003DAB27B689A717B68FC
S32D0000FD681B6801221A717B681B681846FFF77AFE0346FB75FB7D18461837BD4680BD80B584B000AF786078681C
S32D0000FD90FFF73AFF0346FB73FB7B002B02D17B6800221A60FB7B18461037BD4680BDFFFF80B588B000AF78601F
S32D0000FDB8396080233B610F23FB604FF0FF337B610223FB61FB69B3F5807F23D80123BB61BB69102B1AD8FB69EF
S32D0000FDE0BA6902FB03F33A6802FB03F27B68D31ABB60BB68002B09DBBB687A699A4205D9BB687B61FB693B616F
S32D0000FE08BB69FB60BB690133BB61E1E7FB695B00FB61D7E71D4BDB6A1C4A23F00803D3621A4BDB6A23F47F236F
S32D0000FE3023F47F63BB613B695B081B029AB2FB68013B1B01DBB21A43BB691343114A43F46023D3620F4B5B6A97
S32D0000FE5803F00803002B0CBF01230023DBB2002B03D00A2001F020F9F0E7084BDB6A074A43F00803D362054BFF
S32D0000FE801B6B044A43F48013136300BF2037BD4680BD00BF00100B4080B582B000AF786039607B6800221A60CA
S32D0000FEA8424B434ADA62414BDB6A03F08073002B14BF01230023DBB2002B00D0F3E73B4B0022C3F8C020394BB1
S32D0000FED04FF481325A60374B28229A62354B4FF001125A643B689B6834491846FFF760FF304B5B6A03F00303ED
S32D0000FEF8002B14BF01230023DBB2002B00D0F3E72D4B40F243421A602B4B40F243425A60294B4FF488629A600A
S32D0000FF20274B40F24342DA60254B40F243421A61234B40F243425A61224B03F5815310331B68204943F40032FD
S32D0000FF4801F5815310331A60184B4FF6FF721A63164B1B4A5A63154BDB6A144A43F00063D362124BDB6A03F088
S32D0000FF700063002B14BF01230023DBB2002B00D0F3E70C4B5B6A03F48033002B14BF01230023DBB2002B02D0C4
S32D0000FF987B6801221A60054B1B6B044A43F080031363002318460837BD4680BD00100B400080000160CC05005E
S32D0000FFC000D0044000700440B3007F0080B400AF064B5A6A40F207331340002B14BF01230023DBB21846BD462F
S32D0000FFE880BC704700100B4080B485B000AF7860074B1B6B7A681340FB60FB68002B00D1F6E7FB6818461437FD
S32D00010010BD4680BC704700BF00100B4080B584B000AF78607B681B7803F03F03764A52F82330FB60FB68002BD0
S32D0001003805D17B681B78002B01D00123DCE0714B1B6B704A43F0800313636E4B5B6A03F00103002B14BF0123B2
S32D000100600023DBB2002B00D0F3E7684A7B685B689360FB6823F44003FB607B685B789B0503F44003FA68134341
S32D00010088FB607B685B78022B03D1FB6843F40013FB607B685B78042B16D1FB6803F44033B3F5003F08D1FB6873
S32D000100B023F44033FB60FB6843F44033FB6007E0FB6823F44033FB60FB6843F40033FB604E4B5B684D4A9BB23D
S32D000100D853607B68DB68002B2AD0FB6803F44033B3F5403F03D0FB6843F40013FB607B681B7A002B03D0FB6853
S32D0001010043F01003FB607B68DB68012B03D9FB6843F02003FB607B68DB68B3F1FF3F0BD03A4B5A687B68DB689D
S32D000101281B04384913434B60FB6843F00203FB60344B00221A60334AFB68D3603248FFF753FF0346012B14BFD9
S32D0001015001230023DBB2002B09D02C4B1B6B2B4A43F4702343F001031363012348E0274B1B6B03F08003002BDA
S32D0001017814BF01230023DBB2002B07D0214B1B6B204A43F001131363012335E01D4B1B6B03F48033002B14BFC7
S32D000101A001230023DBB2002B08D0184B1B6B174A43F0011313634FF0FF3321E0FB6803F44033002B15D0114BA7
S32D000101C81A697B681A61FB6803F44033B3F5803F0BD10C4B5A697B685A610A4B9A697B689A61084BDA697B68B0
S32D000101F0DA61064B1B6B054A43F001031363002318461037BD4680BD009C050000100B4001000E0080B592B048
S32D0001021800AF7860396000237B643B68BB63994B7B637B6B002B02D140F6012362E3964B3B633B6B002B02D16C
S32D0001024040F60B235AE33B6B1B68FB62FB6A002B02D140F60B2351E37B6841F20932934200F242837B68B3F505
S32D00010268985F08D87B68032B00F01D837B68092B00F00C8334E37B68A3F59853013B082B00F22E8301A252F8DD
S32D0001029023F000BFB9020100A905010007080100BF050100FD050100270701006F070100B1060100CB060100FA
S32D000102B87649786BFFF7ECFD78647B6C002B40F01383002387F84330002387F82B30002387F82A30002387F832
S32D000102E02930002387F84230002387F8283000233B7200237B720023FB6000233B7400237B6107F108031846F8
S32D00010308FFF788FE0346002B14BF01230023DBB2002B02D001237B64EBE240F24C4000F0C3FE08233B720023F8
S32D000103307B724FF4D573FB6000233B7400237B6107F108031846FFF769FEF863FB6B002B09D1BA69FB689A4214
S32D0001035802D001237B64CCE2012387F84230012387F8283097F82830002B00F0A58037233B7200237B72002382
S32D00010380FB6000233B7400237B6107F108031846FFF744FEF863FB6B002B02D001237B64ABE269233B720023DF
S32D000103A87B720023FB6000233B7400237B6107F108031846FFF72EFE0346002B14BF01230023DBB2002B02D04F
S32D000103D001237B6491E2BB6903F44013002B6FD00023FB630A2000F063FEFB6B0133FB6337233B7200237B72A5
S32D000103F80023FB6000233B7400237B6107F108031846FFF707FE0346002B14BF01230023DBB2002B02D00123EF
S32D000104207B6428E069233B7200237B7297F84230002B02D0184BFB6002E04FF44013FB6000233B7400237B611D
S32D0001044807F108031846FFF7E5FD0346002B14BF01230023DBB2002B02D001237B6406E0BB69002B03DBFB6BB8
S32D00010470632B00D8B6E77B6C002B40F03B82FB6B632B0BD9002387F8423019E0BC180020C01A0020F49B0500F4
S32D0001049800003040012387F8433097F84230002B0AD0002387F84230BB6903F08043002B02D0012387F84230A9
S32D000104C097F82A30002B02D07B6B07221A6097F82930002B02D07B6B08221A6097F82B30002B02D07B6B04223C
S32D000104E81A6097F84330002B09D07B6B02221A6097F84230002B02D07B6B03221A6097F82B30002B0DD097F8DD
S32D000105104330002B09D07B6B05221A6097F84230002B02D07B6B06221A60A04B00221A609E4B00225A609D4B04
S32D0001053800229A609B4B0022DA609A4B00221A61984B00225A61FB6A9A68FB6A5B6819461046FFF729FC934BB7
S32D0001056040F243421A60914B40F243425A608F4B4FF488629A608D4B40F24342DA608B4B40F243421A61894B48
S32D0001058840F243425A61884B03F5815310331B68854943F4003201F5815310331A60A8E1B86BFFF737FDF8637E
S32D000105B0FB6B002B00F0A08102237B649CE1BB6B002B02D10C237B6497E17A4BDB6A1B0A5B0003F4FF73FB63FE
S32D000105D8764BDB6A1B0903F00F035A1CFB6B02FB03F3FB63FB6A9A68FB6BB2FBF3F2BB6B1A607EE1BB6B002BE9
S32D0001060002D10C237B6478E1BB6B1B68002B02D10C237B6471E1FFF7D9FC0346002B0CBF01230023DBB2002B81
S32D000106283ED0604B00221A605E4B00225A605D4B00229A605B4B0022DA605A4B00221A61584B00225A61FB6ADC
S32D000106509A68BB6B1B6819461046FFF7A9FB534B40F243421A60514B40F243425A604F4B4FF488629A604D4B4C
S32D0001067840F24342DA604B4B40F243421A61494B40F243425A61484B03F5815310331B68454943F4003201F582
S32D000106A0815310331A6028E140F60A237B6424E1BB6B002B02D10C237B641EE13D4B5B68C3F30C02BB6B1A606A
S32D000106C817E1BB6B002B02D10C237B6411E1FFF779FC0346002B0CBF01230023DBB2002B19D0BB6B1B68B3F504
S32D000106F0805F02D30C237B64FFE02E4B5B682D4A23F4FF5323F01F0353602A4B5A68BB6B1B68C3F30C03274921
S32D0001071813434B60EDE040F60A237B64E9E0BB6B002B02D10C237B64E3E0204B9B6A5B0803F00303FB63FB6B54
S32D00010740002B03D1BB6B00221A60D6E0FB6B012B03D1BB6B01221A60CFE0FB6B102B03D1BB6B02221A60C8E05A
S32D0001076805237B64C5E0BB6B002B02D10C237B64BFE0FFF727FC0346002B0CBF01230023DBB2002B37D0BB6B61
S32D000107901B68002B10D1074B9B6A064A23F006039362044B034A9B6A9362A6E000D004400070044000100B40B4
S32D000107B8BB6B1B68012B0CD1504B9B6A4F4A23F0060393624D4B9B6A4C4A43F0020393628FE0BB6B1B68022B71
S32D000107E00AD1484B9B6A474A23F006039362454B444A9B6A936280E005237B647DE040F60A237B6479E0BB6B38
S32D00010808002B02D10C237B6473E03C4BDB6A3B4A43F00063D362394BDB6A03F00063002B14BF01230023DBB255
S32D00010830002B00D0F3E7334B1B6B03F08003002B14BF01230023DBB2002B08D02D4B1B6B2C4A43F080031363D5
S32D000108587B6B00221A60294B5B6A03F48033002B14BF01230023DBB2002B07D07B6B1B68002B06D17B6B0122C4
S32D000108801A6002E07B6B00221A607B6B1A68BB6B1A6032E0BB6B1C221A60BB6B043304221A60BB6B08334FF4D2
S32D000108A81E721A6025E00220FFF79EFB134B1B6B03F4E003002B14BF01230023DBB2002B07D00E4B1B6B0D4A99
S32D000108D043F4E003136304237B640A4B1B6B094A43F03203136308E040F609237B6404E000BF02E000BF00E00A
S32D000108F800BF7B6C18464837BD4680BD00100B4080B489B000AF786039607B687B61364B3B613B69002B01D1A9
S32D0001092000235FE03B691B68022B0BD03B691B68032B07D03B691B68072B03D03B691B68082B0BD12B4B5B6A4E
S32D0001094803F00403002B14BF01230023DBB2002B00D0F3E73B68FB61FB69002B3DD0FB69B3F5007F28BF4FF48F
S32D000109700073FB60FB6803339B08BB61BB69002B2AD01C4B1B6B03F4E003002B14BF01230023DBB2002B09D04C
S32D00010998164B1B6B154A43F4E00343F02003136300231BE0114B5B6A03F40063002B0CBF01230023DBB2002B76
S32D000109C000D0F3E70B497B691A1D7A610A6A1A60BB69013BBB61D1E7FA69FB68D31AFB61BEE701231846243761
S32D000109E8BD4680BC704700BFBC18002000100B4080B58EB000AFB9607A601A460346FB731346BB73414B7B63BF
S32D00010A10FB7B002B02D1BB7B002B01D1042375E03D4B1B78DBB203F00103002B14BF01230023DBB2002B01D027
S32D00010A38032367E0BB68002B01D1002362E07B6B1B7B002B02D17B685B027B60BB7B012B28D111233B750023A6
S32D00010A607B757B68BB6101233B77BB7B3B6207F11403194641F20230FFF7CCFB0346002B0CBF01230023DBB22C
S32D00010A88002B38D04FF40071B868FFF739FF0346002B14BF01230023DBB2002B2BD00023BB7328E012233B758B
S32D00010AB000237B757B68BB6101233B77BB7B3B6207F11403194641F20230FFF7A3FB0346002B0CBF012300236F
S32D00010AD8DBB2002B0FD0BB7B5B021946B868FFF70FFF0346002B14BF01230023DBB2002B01D00023BB73BB7BA4
S32D00010B00002B01D0012300E0002300BF18463837BD4680BDA81800200400002080B487B000AF786039607B6865
S32D00010B28FB603B687B617B69002B3DD07B69B3F5007F28BF4FF400733B617A693B69D31A7B613B6903339B0897
S32D00010B503B613B69002BEAD0184B1B6B03F4E003002B14BF01230023DBB2002B0AD0134B1B6B124A43F4E0035D
S32D00010B7843F0100313634FF0FF3316E00D4B5B6A03F48063002B0CBF01230023DBB2002B00D0F3E7FB681A1DFB
S32D00010BA0FA60064A1B6813623B69013B3B61D0E7012318461C37BD4680BC704700100B4080B58EB000AFB960F0
S32D00010BC87A601A460346FB731346BB735D4B7B63FB7B002B02D1BB7B002B01D10423ADE0594B1B78DBB203F0EE
S32D00010BF00103002B14BF01230023DBB2002B01D003239FE0524B1B78DBB203F00403002B14BF01230023DBB2D6
S32D00010C18002B01D0022391E0BB68002B01D100238CE07B6B1B7B002B02D17B685B027B60BB7B012B28D1182341
S32D00010C403B7500237B757B68BB6100233B77BB7B3B6207F11403194641F20230FFF7DAFA0346002B0CBF01231B
S32D00010C680023DBB2002B38D04FF40071B868FFF751FF0346002B14BF01230023DBB2002B2BD00023BB7328E0C6
S32D00010C9019233B7500237B757B68BB6100233B77BB7B3B6207F11403194641F20230FFF7B1FA0346002B0CBFDC
S32D00010CB801230023DBB2002B0FD0BB7B5B021946B868FFF727FF0346002B14BF01230023DBB2002B01D00023C7
S32D00010CE0BB730D233B7500237B757B6B1B69BB6100233B7700233B6207F11403194641F20230FFF787FA034616
S32D00010D08002B14BF01230023DBB2002B01D0012314E07A6A0D4B1340002B01D001230DE07B6A03F4F853B3F56B
S32D00010D30106F00D0D5E7BB7B002B01D0012300E0002300BF18463837BD4680BDA8180020040000200880D9FF00
S32D00010D5880B58CB000AF03463A60FB710B46BB713A4BBB62FB79002B01D0042369E0012387F82F30364B1B78E8
S32D00010D80DBB203F00103002B14BF01230023DBB2002B01D0032358E0BB79032B50D801A252F823F0B50D010047
S32D00010DA8BD0D0100CD0D0100DD0D0100002387F82F3044E0BB6A9A683B681A60002387F82F303CE03B684FF41F
S32D00010DD000721A80002387F82F3034E009233B7200237B72BB6A1B69FB6000233B7400237B6107F108031946B3
S32D00010DF841F20230FFF70AFA0346002B14BF01230023DBB2002B01D001231AE07B6A03F44003002B0CD13B6A6C
S32D00010E209B0C03F07F035A1C7B6A1B0A03F00303013B9A403B681A60002387F82F3002E0042387F82F3097F864
S32D00010E482F3018463037BD4680BD00BFA81800200400002080B483B000AF0346FB71FB79002B01D0012302E013
S32D00010E70034B1B78DBB218460C37BD4680BC70470400002080B483B000AF7860174B03F5815318331B681549E2
S32D00010E9843F0010201F5815318331A60124A7B689360114B05225A600F4B1B680E4A43F0010313600C4B1B683E
S32D00010EC003F08003002B0CBF01230023DBB2002B00D0F3E7064B1B68054A23F00103136000BF0C37BD4680BC00
S32D00010EE8704700BF007004400000044080B582B000AF786039607B68012B07D13B684FF6FF72934202D10348B3
S32D00010F1000F00EF800BF0837BD4680BDC81A002080B500AF4FF6FF710120FFF7E3FF80BD80B483B000AF7860BF
S32D00010F387B6800221A707B6818460C37BD4680BC7047FFFF80B582B000AF78607B681B7883F00103DBB2002BF0
S32D00010F6021D0134B03F5815308334FF400621A60104B4FF440721A620E4B4FF440725A620D4B1B68DA0F1344FC
S32D00010F885B104FF4614219460A48FEF7F1FB642000F08AF87B6801221A70012300E0002318460837BD4680BDCD
S32D00010FB00070044000D00440CC1A002000B00E4080B582B000AF7860084611461A460346FB700B46BB701346CA
S32D00010FD87B707F210E48FEF7AAFC08210C48FEF7A6FCFB7819460A48FEF7A1FCBB7819460748FEF79CFC7B7843
S32D0001100019460548FEF797FCFF210348FEF793FC00BF0837BD4680BD00B00E4080B487B000AFF860B9607A60FD
S32D00011028FB681F4AA2FB03239B09BA6813447B61FB681B4AA2FB031292094FF47A7101FB02F29B1AFB60FB686B
S32D00011050DB03154AA2FB03239B097A6813443B613B69DB0B7A6913447B613B69C3F30E033B610E4B1B687A6992
S32D000110789A4209D80B4B1B687A699A4206D1094B5B683A699A4201D9012300E00023002B00D0EAE700BF1C37A8
S32D000110A0BD4680BC704700BFD34D621000D0034080B584B000AF7860074B1B68FB60064B5B68BB607B68BA6873
S32D000110C8F9681846FFF7A6FF00BF1037BD4680BD00D0034080B584B000AFC7E900010E4B1B68FB600C4B5B682C
S32D000110F0BB604FF000020B4BD7E9000136F054FA02460B461046194636F026FD0346BA68F9681846FFF782FFB2
S32D0001111800BF1037BD4680BD00D0034000408F4080B483B000AF0B4B1B684FF47A7202FB03F37B60074B5B683F
S32D000111404FF47A7202FB03F3DB0B7A6813447B607B6818460C37BD4680BC704700D0034080B582B000AF7860E9
S32D000111680B46FB70FB781946786800F005F87B6818460837BD4680BD80B483B000AF78600B46FB707B68FA783E
S32D000111901A707B681B781A46534B9B5C042B00F29E8001A252F823F0BD110100F7110100311201006B12010062
S32D000111B8A51201004B4A7B681B7819464A4B53F8213040F2031142F82310484B5A697B681B781946444B53F8FD
S32D000111E0213003F01F03012101FA03F3DB43414913404B6173E0404A7B681B7819463C4B53F8213040F20311A5
S32D0001120842F823103B4B5A697B681B781946364B53F8213003F01F03012101FA03F3DB43344913404B6156E017
S32D00011230334A7B681B7819462D4B53F8213040F2031142F823102F4B5A697B681B781946274B53F8213003F063
S32D000112581F03012101FA03F3DB43284913404B6139E0274A7B681B7819461F4B53F8213040F2031142F823108C
S32D00011280224B5A697B681B781946194B53F8213003F01F03012101FA03F3DB431B4913404B611CE01A4A7B684E
S32D000112A81B781946104B53F8213040F2031142F82310164B5A697B681B7819460A4B53F8213003F01F0301215A
S32D000112D001FA03F3DB430F4913404B6100BF00BF0C37BD4680BC7047009D050000900440449D050000F00F4037
S32D000112F800A0044040F00F4000B0044080F00F4000C00440C0F00F4000D0044000F10F4080B485B000AF78606A
S32D000113200023FB607B681B781A46364B9B5C042B5CD801A252F823F04D1301006D1301008D130100AD1301002B
S32D00011348CD1301002E4B1B697A68127811462D4A52F8212002F01F02012101FA02F21340FB603FE0284B1B69EB
S32D000113707A6812781146254A52F8212002F01F02012101FA02F21340FB602FE0214B1B697A68127811461D4A96
S32D0001139852F8212002F01F02012101FA02F21340FB601FE01A4B1B697A6812781146154A52F8212002F01F0221
S32D000113C0012101FA02F21340FB600FE0134B1B697A68127811460D4A52F8212002F01F02012101FA02F2134052
S32D000113E8FB6000BFFB68002B14BF01230023DBB218461437BD4680BC704700BF009D050000F00F40449D050062
S32D0001141040F00F4080F00F40C0F00F4000F10F4080B584B000AF78600B46FB700B23FB73FA7BFB7819467868C1
S32D0001143800F094F87B6818461037BD4680BDFFFF80B485B000AF78607B68103B002B00DA1F335B11FB60FB68A4
S32D00011460022B53D0FB68022B75DCFB68002B03D0FB68012B25D06EE0394BD3F880217B68103B594203F01F032B
S32D0001148801F01F0158BF4B42012101FA03F332491343C1F88031304B1A687B68103B594203F01F0301F01F0146
S32D000114B058BF4B42012101FA03F3294913430B6049E0274BD3F884217B68103B594203F01F0301F01F0158BF12
S32D000114D84B42012101FA03F31F491343C1F884311D4B5A687B68103B594203F01F0301F01F0158BF4B4201213A
S32D0001150001FA03F3164913434B6024E0144BD3F888217B68103B594203F01F0301F01F0158BF4B42012101FAE4
S32D0001152803F30D491343C1F888310B4B9A687B68103B594203F01F0301F01F0158BF4B42012101FA03F3044935
S32D0001155013438B6000BF00BF1437BD4680BC704700E100E080B584B000AF78600B46FB701346BB707B68FA7826
S32D000115781A70BB78FB737B681B781A46574B9B5C042B00F2A68001A252F823F0A9150100F51501004116010041
S32D000115A0D91601008D160100FB7B1B0403F470234D497A68127810464C4A52F8202043F4897343F0010341F84E
S32D000115C82230494B5A697B681B781946454B53F8213003F01F03012101FA03F3DB43424913404B616720FFF7FD
S32D000115F02BFF72E0FB7B1B0403F470233D497A6812781046394A52F8202043F4897343F0010341F82230384B64
S32D000116185A697B681B781946324B53F8213003F01F03012101FA03F3DB43314913404B616820FFF705FF4CE085
S32D00011640FB7B1B0403F470232C497A6812781046264A52F8202043F4897343F0010341F82230274B5A697B681E
S32D000116681B7819461F4B53F8213003F01F03012101FA03F3DB43204913404B616920FFF7DFFE26E0FB7B1B04B6
S32D0001169003F470231B497A6812781046134A52F8202043F4897343F0010341F82230164B5A697B681B781946A6
S32D000116B80C4B53F8213003F01F03012101FA03F3DB430F4913404B616B20FFF7B9FE00E000BF00BF1037BD4693
S32D000116E080BD00BF009D050000900440449D050000F00F4000A0044040F00F4000B0044080F00F4000D004401A
S32D0001170800F10F4080B58AB000AF3B1D20220021184639F08FFD0B237B600A23BB600723FB6006233B610523C3
S32D000117307B610423BB610123FB6100237B627B6A072B32DC1B4BD3F8A0207B6A9B0007F128010B4453F8243C3A
S32D00011758012101FA03F31340002B14BF01230023DBB2002B19D0124A7B6A52F823305A1C0F497B6A41F8232009
S32D000117800C4BD3F8A0207B6A9B0007F128010B4453F8243C012101FA03F306491340C1F8A0307B6A01337B6289
S32D000117A8C9E700BF2837BD4680BD00BF00A00440F81A0020B0B489B000AF234B3C1D1D460FCD0FC495E803008A
S32D000117D084E803000023FB61FB69052B32DC1D4BD3F8A020FB699B0007F120010B4453F81C3C012101FA03F34A
S32D000117F81340002B14BF01230023DBB2002B19D0FB690833124A52F823200132104941F823200E4BD3F8A02015
S32D00011820FB699B0007F120010B4453F81C3C012101FA03F307491340C1F8A030FB690133FB61C9E700BF243792
S32D00011848BD46B0BC704700BF489E050000B00440F81A0020B0B48DB000AF244B3C461D460FCD0FC40FCD0FC479
S32D0001187095E8070084E807000023FB62FB6A0A2B32DC1D4BD3F8A020FB6A9B0007F130010B4453F8303C0121E6
S32D0001189801FA03F31340002B14BF01230023DBB2002B19D0FB6A0E33124A52F823200132104941F823200E4B07
S32D000118C0D3F8A020FB6A9B0007F130010B4453F8303C012101FA03F307491340C1F8A030FB6A0133FB62C9E75A
S32D000118E800BF3437BD46B0BC704700BF609E050000900440F81A0020B0B487B000AF224B3C461D460FCD0FC46E
S32D000119102B68236000237B617B69042B32DC1D4BD3F8A0207B699B0007F118010B4453F8183C012101FA03F3EE
S32D000119381340002B14BF01230023DBB2002B19D07B691933124A52F823200132104941F823200E4BD3F8A02042
S32D000119607B699B0007F118010B4453F8183C012101FA03F307491340C1F8A0307B6901337B61C9E700BF1C37E5
S32D00011988BD46B0BC704700BF8C9E050000D00440F81A002080B483B000AF78607B681B781A46044B53F8223026
S32D000119B018460C37BD4680BC704700BFF81A002080B483B000AF78607B681B781946044B002243F8212000BF11
S32D000119D80C37BD4680BC7047F81A002080B483B000AF78600B46FB707B68FA781A707B6818460C37BD4680BC29
S32D00011A007047FFFFFFFFFFFF80B586B000AF78607B681B781A463E4B53F822303B617B681B781A463B4B9B5C29
S32D00011A28FB733B69DBB203F01F03DAB2384B1A723B69DBB203F01F03DAB2354B5A72354B1022C3F88820FB7B97
S32D00011A50002B13D13049324800F05AFA304B1B6803F08003802B14BF01230023DBB2002B00D0F3E72A4B1B698D
S32D00011A787B6112E02649294800F046FA274B1B6803F08003802B14BF01230023DBB2002B00D0F3E7214B1B69DF
S32D00011AA07B611E4BD3F888311C4A43F01003C2F888311A4B9B68194A43F0100393607B699BB2184635F0F6FC85
S32D00011AC80DA3D3E9002335F06BFD02460B46104619460BA3D3E9002335F08CFE02460B461046194636F054F889
S32D00011AF00346BB60BB6818461837BD4680BD00BFA4703D0AD7A30A4000000000E0FFEF40C49D0500209D05003F
S32D00011B18D81A002000E100E000B0034000B00B4080B586B000AF78607B681B781A46234B53F822303B617B688B
S32D00011B401B781A46204B9B5CFB733B69DBB203F01F03DAB21D4B1A723B69DBB203F01F03DAB21A4B5A72FB7B74
S32D00011B68002B13D11749184800F0CEF9164B1B6803F08003802B14BF01230023DBB2002B00D0F3E7104B1B6968
S32D00011B907B6112E00D490F4800F0BAF90D4B1B6803F08003802B14BF01230023DBB2002B00D0F3E7074B1B69BA
S32D00011BB87B617B6918461837BD4680BDC49D0500209D0500E81A002000B0034000B00B4098B500AF204B5C2234
S32D00011BE01A701F4B10225A701D4B41F234225A801B4B45F278629A80194B10229A71184B0722DA71164B4FF46E
S32D00011C08C022DA60144B1F221A72134B1F225A721149124800F078F90F49114800F074F90F4800F0D2F80D4871
S32D00011C3000F0CFF80A490C4800F06AF90849094800F066F9094A064B14460FCB84E80F00064B5C221A70054BE7
S32D00011C580422DA7100BF98BDD81A002000B0034000B00B40E81A002080B500AF064B1B680133054A136000F018
S32D00011C803DF8044B0122C3F80C2100BF80BD00BF7C1B00200070034080B500AF0C4B01221A600C4800F01AF853
S32D00011CA8094B0322C3F80821094BD3F88831084A43F01003C2F88831054B9B68044A43F01003936000BF80BDF7
S32D00011CD000700340A086010000E100E080B483B000AF7860044A7B68C2F8003100BF0C37BD4680BC704700BF89
S32D00011CF80070034080B584B000AF174B1B68FB60FB68002B24D0FB685B78FB71FB689B68184600F023F8034676
S32D00011D20BB71BB79002B13D0FB685B68012B0FDDFB689B681B69BB60BB68002B08D0BB685B685A1CBB685A6084
S32D00011D48BB681B69BB60F3E7FB68DB68FB60D7E700BF1037BD4680BD781B002080B584B000AF78607868FFF752
S32D00011D70DBFEF8607B689B695B78FB72FB7A002B0FD17B68DB68FA689A420ADD7B689B6901225A707B685B68A7
S32D00011D985A1C7B685A60012313E0FB7A012B0FD17B689B68FA689A420ADA7B689B6900225A707B685B685A1C7A
S32D00011DC07B685A60012300E0002318461037BD4680BD80B485B000AF78607B681B6A23F040027B681A627B685C
S32D00011DE85B6A23F00B027B685A627B685B6A43F007027B685A627B685B6A43F080027B685A627B681B6803F070
S32D00011E108003002B0CBF01230023DBB2002B00D0F3E77B685B6A03F04003402B0CBF01230023DBB2002B01D09D
S32D00011E38012364E00023FB817B68DB6CFB817B689B6C9AB2FB891344FB817B685B6C9AB2FB891344FB817B6811
S32D00011E601B6C9AB2FB891344FB817B68DB6B9AB2FB891344FB817B689B6B9AB2FB891344FB81FB895B08FB816E
S32D00011E88FB896FEA43436FEA5343FB81FA897B68DA620023FB817B68DB6EFB817B689B6E9AB2FB891344FB81E5
S32D00011EB07B685B6E9AB2FB891344FB817B681B6E9AB2FB891344FB817B68DB6D9AB2FB891344FB817B689B6DEC
S32D00011ED89AB2FB891344FB81FB895B08FB81FB896FEA43436FEA5343FB81FA897B681A637B685B6A23F08002E7
S32D00011F007B685A62002318461437BD4680BC704780B483B000AF786039603B681B781A467B689A603B685B78E1
S32D00011F281A467B68DA603B685B881A467B689A613B689B881A467B68DA613B689B791A467B681A623B68DB7998
S32D00011F501A467B685A623B68DA687B681A653B681B7A1A467B681A603B685B7A1A467B685A6000BF0C37BD46AD
S32D00011F7880BC704780B483B000AF78607B6818460C37BD4680BC704780B582B000AF786039607B68012B07D171
S32D00011FA03B684FF6FF72934202D10348FFF7E6FF00BF0837BD4680BD801B002080B500AF4FF6FF710120FFF742
S32D00011FC8E3FF80BD80B483B000AF78600B46FB707B68FA781A707B684FF4FA725A807B6840F6C4129A807B68EA
S32D00011FF0034A9A607B6818460C37BD4680BC7047000080BF80B483B000AF786039603B68B3F5FA7F04DB3B68F5
S32D0001201840F6C412934204DD7B684FF4FA725A8004E03B689AB27B685A8000BF00BF0C37BD4680BC704780B4F0
S32D0001204083B000AF786039603B68B3F5FA7F04DB3B6840F6C412934204DD7B6840F6C4129A8004E03B689AB23A
S32D000120687B689A8000BF00BF0C37BD4680BC70472DE9904385B000AF786039604FF00001386836F081F803468F
S32D00012090002B02D04FF000033B603149386836F095F80346002B01D02D4B3B607B689B681946386836F062F8BD
S32D000120B80346002B00D04AE07B683A689A607B685C887B689B881A467B685B88D31A184635F0FCF94FF0000273
S32D000120E0204B35F08BFB02460B4690469946386835F002FA02460B464046494635F054FA02460B46104619463D
S32D0001210835F026FD03469BB22344FB81FB897B73FB891B123B737F211148FDF708FC05210F48FDF704FC7B68D1
S32D000121301B7819460C48FDF7FEFB3B7B19460A48FDF7F9FB7B7B19460748FDF7F4FBFF210548FDF7F0FB00BF6C
S32D000121581437BD46BDE89083000034430080664000B00E4080B582B000AF7860B84B4FF48072DA60B74B4FF412
S32D0001218080729A64B54B4FF480721A64B34B4FF480725A64B14B4FF48072DA60B04B5B69AF4A43F00803536187
S32D000121A8AE4B5B69AD4A43F480235361AB4B5B69AA4A43F480335361A84B5B69A74A43F400335361A54B1B6841
S32D000121D0A44A43F008031360A24B5B69A14A43F0080353619E4B1B689D4A43F0080313609A4B4FF480725A62D9
S32D000121F8984B4FF480721A62954B4FF480721A61934B4FF480725A61914B4FF480729A618F4B4FF48072DA6170
S32D000122208D4B4FF480721A638B4B4FF480725A63894B4FF480729A63874B4FF48072DA63854B4FF480721A6470
S32D00012248834B4FF480725A64814B4FF480729A647F4B4FF48072DA64814B4FF480721A607F4B4FF480729A60F6
S32D000122707D4B4FF48072DA607B4B4FF480721A61784B5B69774A43F440735361744B5B69734A43F47F2343F060
S32D00012298F0035361734B5B69724A43F01D035361E221786800F0FEFD1D21786800F0A0FE0221786800F09CFE24
S32D000122C00421786800F098FEE021786800F0EEFD0121786800F090FE6420FEF7E9FEE021786800F0E3FD0321F3
S32D000122E8786800F085FE0121786800F0DBFD0120FEF7DAFEE621786800F0D4FD0121786800F076FEA02178680D
S32D0001231000F072FEFF21786800F06EFEB021786800F0C4FD1C21786800F066FE0F21786800F062FE01217868AD
S32D0001233800F05EFE3F21786800F05AFE0021786800F056FEEF21786800F052FE0021786800F04EFEB42178683B
S32D0001236000F0A4FD0121786800F046FE9921786800F042FE0021786800F03EFE4521786800F03AFE022178681F
S32D0001238800F036FE0021786800F032FE0021786800F02EFE0021786800F02AFEB621786800F080FD0121786885
S32D000123B000F022FE0921786800F01EFE0021786800F01AFE0E21786800F016FE0221786800F012FE00217868B8
S32D000123D800F00EFE0021786800F00AFEBA21786800F060FD0F21786800F002FE6420FEF75BFE3A21786800F0DC
S32D0001240055FD6021786800F0F7FD2A21786800F04DFD0021786800F0EFFD0021786800F0EBFD0121786800F009
S32D00012428E7FD3F21786800F0E3FD2B21786800F039FD0021786800F0DBFD0021786800F0D7FD0021786800F0C0
S32D00012450D3FDEF2178680BE000B0044000A0044080F00F4040F00F4000C00440C0F00F4000F0C2FD36217868B3
S32D0001247800F018FD0021786800F0BAFDF021786800F010FD0421786800F0B2FDB821786800F008FD0F21786838
S32D000124A000F0AAFD0121786800F0A6FD314B1B68304A43F0080313606420FEF7F9FD3621786800F0F3FC002111
S32D000124C8786800F095FDF021786800F0EBFC0421786800F08DFD0121786800F013FA1E226F21786800F082F823
S32D000124F0AF225621786800F0DBF80021786800F061FA012301221C49786800F082FA2921786800F0CBFC642029
S32D00012518FEF7CAFDBE21786800F0C4FC0E21786800F066FDF021786800F062FD0121786800F05EFD0021786879
S32D0001254000F05AFD0021786800F056FD0F21786800F052FD786800F07FFA0121786800F031FA0021786800F03B
S32D0001256806FA00BF0837BD4680BD00BF40F00F40A09E050080B582B000AF78607B680022DA617B6801221A62D5
S32D000125907B680E225A607B681A229A607B6800225A617B6800229A617B684FF4A072DA607B68F0221A617B68B1
S32D000125B800221A70786801F097FA7B6818460837BD4680BD80B582B000AF7860064B1B78002B05D1044B0122E1
S32D000125E01A707868FFF7C2FD00BF0837BD4680BDC81B002080B58AB002AFF860B9607A607E23009362237A6866
S32D00012608B968F86800F005FF40F24E733B610023FB61FA693B699A4240DA0023BB61214AFB6913441B781A46CB
S32D00012630BB69934232DAFB6901331C4AD35C002B06D1FF23FB75FF23BB75FF237B7512E0FB690133154AD35C39
S32D00012658012B06D1D423FB750023BB7526237B7505E0B523FB75BA23BB75B0237B757B7DBA7DF97DF86800F06B
S32D0001268023F90246FB68DA61F86801F031FAF86801F06AF9BB690133BB61C4E7FB690233FB61BAE700BF20372E
S32D000126A8BD4680BD0800002080B58AB002AFF860B9607A602723009395237A68B968F86800F0A7FE40F2E63358
S32D000126D03B610023FB61FA693B699A4240DA0023BB61214AFB6913441B781A46BB69934232DAFB6901331C4A68
S32D000126F8D35C002B06D1FF23FB75FF23BB75FF237B7512E0FB690133154AD35C012B06D10023FB750023BB758B
S32D0001272000237B7505E0D423FB750023BB7526237B757B7DBA7DF97DF86800F0C5F80246FB68DA61F86801F0B6
S32D00012748D3F9F86801F00CF9BB690133BB61C4E7FB690233FB61BAE700BF2037BD4680BD5807002080B582B04F
S32D0001277000AF78600B46FB707B68FA781A703621786800F093FB7B681B78032B1ED801A252F823F0A5270100FC
S32D00012798AF270100B9270100C32701000021786800F026FC0EE00321786800F021FC09E0A321786800F01CFCC8
S32D000127C004E0A021786800F017FC00BF7B681B78002B03D07B681B78012B0DD17B680E225A607B681A229A60C9
S32D000127E87B684FF4A072DA607B68F0221A610CE07B6812225A607B6813229A607B68F022DA607B684FF4A072AA
S32D000128101A61786800F0AAFC00BF0837BD4680BD80B485B000AF78600B46FB70FB78062B29D801A252F823F019
S32D000128385D28010055280100632801006B2801007328010079280100812801006FF07F43FB6014E00023FB6077
S32D0001286011E04FF47F03FB600DE04FF47F43FB6009E0FF23FB6006E04FF41903FB6002E0044BFB6000BFFB6837
S32D0001288818461437BD4680BC704700BF9999990080B584B000AF786039603B681B0CFB733B681B0ABB733B689E
S32D000128B07B737B7BBA7BF97B786800F005F8034618461037BD4680BD80B487B000AF7860084611461A46034631
S32D000128D8FB700B46BB7013467B70FB789B107B61BB789B103B617B789B10FB607B691A033B699B011A43FB6838
S32D00012900134318461C37BD4680BC704780B582B000AF78600B46FB70FB7819467868FFF77FFF03461946786853
