S01200002E2E2F48382D526F626F742E733139A4
S32D0000C000000000205DC2000011C3000017C300001DC3000023C3000029C3000000000000000000000000000073
S32D0000C028000000002FC3000035C30000000000003BC3000041C3000049D7000055D7000061D700006DD7000036
S32D0000C05079D7000085D7000091D700009DD70000A9D70000B5D70000C1D70000CDD70000D9D70000E5D7000086
S32D0000C078F1D70000FDD7000009D8000015D8000021D800002DD8000039D8000045D8000051D800005DD80000A6
S32D0000C0A069D8000075D8000081D800008DD8000099D80000A5D80000B1D80000BDD80000C9D80000D5D80000CC
S32D0000C0C8E1D80000EDD80000F9D8000005D9000011D900001DD9000029D9000035D9000041D900004DD90000ED
S32D0000C0F059D900004D25010065D9000071D900007DD9000089D9000095D90000A1D90000ADD90000B9D900003D
S32D0000C118C5D90000D1D90000DDD90000E9D90000F5D9000001DA00000DDA000019DA000025DA000031DA0000AC
S32D0000C1403DDA000049DA000055DA000061DA0000610401006DDA000079DA000085DA000091DA00009DDA0000EC
S32D0000C168A9DA0000B5DA0000C1DA0000CDDA0000D9DA0000E5DA0000F1DA0000FDDA000009DB000015DB00006D
S32D0000C19021DB00002DDB000039DB00004D000100FDFE0000ADFF0000C5D40000F100010045DB000051DB00009D
S32D0000C1B85DDB0000C808060000000020C8170000C80806000000FF1F00000000C8170020501B00000000FF1FD0
S32D0000C1E00000000080B489B000AFF860B9607A60BB68FB61FB68BB6100237B617A697B689A420BD2BA69131DFB
S32D0000C208BB61FB69191DF96112681A607B6904337B61EFE700BF2437BD4680BC704780B485B000AF786039609E
S32D0000C2307B68FB600023BB60BA683B689A4208D2FB681A1DFA6000221A60BB680433BB60F2E700BF1437BD46FE
S32D0000C25880BC704780B586B000AF72B6234B4CF220521A80214B4DF628121A80204B4FF4E9721A801F4B7B615F
S32D0000C2807B691F4A934214D27B691A1D7A611B683B617B691A1D7A611B68FB607B691A1D7A611B68BB60BA68E9
S32D0000C2A8F9683869FFF79AFFE6E77B69134A93420ED27B691A1D7A611B68FB607B691A1D7A611B68BB60B9688B
S32D0000C2D0F868FFF7A8FFECE70B4B7B600B4A7B681A603BF017FB62B601F0B2F900F020FFFEE700BF0E20054076
S32D0000C2F800200540BCC10000D4C10000E4C1000008ED00E000C0000080B400AFFEE780B400AFFEE780B400AFF4
S32D0000C320FEE780B400AFFEE780B400AFFEE780B400AFFEE780B400AFFEE780B400AFFEE780B400AFFEE780B426
S32D0000C34800AFFEE7FFFFFFFFFFFFFFFFFFFFFFFFFFFFFFFFFFFFFFFFFFFFFFFFFFFFFFFFFFFFFFFFFFFFFFFF57
S32D0000C370FFFFFFFFFFFFFFFFFFFFFFFFFFFFFFFFFFFFFFFFFFFFFFFFFFFFFFFFFFFFFFFFFFFFFFFFFFFFFFFFC7
S32D0000C398FFFFFFFFFFFFFFFFFFFFFFFFFFFFFFFFFFFFFFFFFFFFFFFFFFFFFFFFFFFFFFFFFFFFFFFFFFFFFFFF9F
S32D0000C3C0FFFFFFFFFFFFFFFFFFFFFFFFFFFFFFFFFFFFFFFFFFFFFFFFFFFFFFFFFFFFFFFFFFFFFFFFFFFFFFFF77
S32D0000C3E8FFFFFFFFFFFFFFFFFFFFFFFFFFFFFFFFFFFFFFFFFFFFFFFFFFFFFFFFFFFFFFFFFFFFFFFFFEFFFFFF50
S32D0000C41010B5054C237833B9044B13B10448AFF300800123237010BDC817002000000000A0F6050008B5034BB7
S32D0000C4381BB103490348AFF3008008BD00000000CC170020A0F6050080B483B000AF78607B6818460C37BD4679
S32D0000C46080BC704780B582B000AF7860094800F011FD084800F024FD074800F033FB074800F0F4FD55210548BD
S32D0000C48800F0C2FD00BF0837BD4680BD38180020081800204018002080B584B000AFF860C7E900231D4800F0D9
S32D0000C4B093F902460B46D7E9000138F095FC0346002B0BD1184800F065FB02460B46D7E9000138F089FC03466F
S32D0000C4D8002B01D0012300E00023002B01D0002318E0104800F0EAFB0346002B05D10D4800F0AAFB0346002B27
S32D0000C50001D0012300E00023002B01D0002305E0BA69B969064800F0C2F9012318461037BD4680BD0018002092
S32D0000C5280C180020141800200818002080B582B000AF786039607B68012B07D13B684FF6FF72934202D103485B
S32D0000C550FFF77EFF00BF0837BD4680BDE417002080B500AF4FF6FF710120FFF7E3FF80BD80B483B000AF786034
S32D0000C5787B6818460C37BD4680BC704780B582B000AF78603960386838F0A4FD03461946034801F065FB00BF28
S32D0000C5A00837BD4680BD00BFEC17002080B582B000AF78603960386838F090FD03461946034801F051FB00BF41
S32D0000C5C80837BD4680BD00BFF417002080B582B000AF7860034801F001FB00BF0837BD4680BD00BFEC17002096
S32D0000C5F080B582B000AF7860034801F0F3FA00BF0837BD4680BD00BFF417002080B582B000AF786039607B6874
S32D0000C618012B11D13B684FF6FF7293420CD10848FFF7A2FF074A0021074801F099FA054A0121064801F094FA71
S32D0000C64000BF0837BD4680BDE817002000001041EC170020F417002080B500AF4FF6FF710120FFF7D3FF80BD11
S32D0000C66880B483B000AF78607B6818460C37BD4680BC7047FFFFFFFF80B483B000AF786005A3D3E90023104675
S32D0000C69019460C37BD4680BC704700BFAFF300802706222256599E3F80B483B000AF786005A3D3E9002310463B
S32D0000C6B819460C37BD4680BC704700BFAFF30080641CF36673BD384080B483B000AF78604FF000024FF07F531A
S32D0000C6E0104619460C37BD4680BC7047FFFFFFFF80B582B000AF78603960386838F098F80DA3D3E9002338F0AC
S32D0000C708FDF802460B46104619464FF000020A4B37F03CFF02460B461046194638F088FB034618460837BD46E6
S32D0000C73080BD00BFAFF30080295C8FC2F528F23F0080354080B582B000AF786039607B68012B07D13B684FF64E
S32D0000C758FF72934202D10348FFF782FF00BF0837BD4680BDFC17002080B500AF4FF6FF710120FFF7E3FF80BD98
S32D0000C78080B582B000AF78607868FFF7F1FE7868FFF76AFF7B6818460837BD4680BD80B582B000AF7860396052
S32D0000C7A83B685B4219467868FFF7E8FE00BF0837BD4680BD80B582B000AF7860034803F0E1FC034618460837DB
S32D0000C7D0BD4680BD04180020B0B582B000AF78600C4803F0D3FC0346184638F021F804460D467868FFF744FFED
S32D0000C7F802460B462046294638F080F802460B46104619460837BD46B0BD00BF0418002080B582B000AF78601F
S32D0000C820034803F0C5FC00BF0837BD4680BD00BF0418002080B582B000AF786039607B68012B0BD13B684FF658
S32D0000C848FF72934206D10548FFF796FF0121044803F0DAF900BF0837BD4680BD001800200418002080B500AF03
S32D0000C8704FF6FF710120FFF7DDFF80BD80B582B000AF78607868FFF77BFF7B680133184600F056F97B68184682
S32D0000C8980837BD4680BD80B584B000AFF860B9607A60B968F868FFF776FFFB6801337968184600F050F900BFD6
S32D0000C8C01037BD4680BD80B58AB006AFF860C7E90023BB690493D7E90023CDE90223BB690093D7E90023F86801
S32D0000C8E800F006F8034618461037BD4680BDFFFFB0B584B000AFF860C7E90023396A4948FFF7F2FE03461846D4
S32D0000C91037F08EFF04460D464448FFF7B1FE02460B462046294637F0EDFF02460B46D7E9000137F02FFE024600
S32D0000C9380B46C7E90023396B3A48FFF7D5FE0346184637F071FF04460D463648FFF794FE02460B46204629466F
S32D0000C96037F0D0FF02460B46D7E90A0137F012FE02460B46C7E90A23F868FFF72DFF02460B4601210C46D7E953
S32D0000C988000138F04BFA0346002B01D100231C46E3B2002B14D0396AF868FFF7FCFEFB680133184600F0F2F8E2
S32D0000C9B002460B4601210C46D7E90A0138F032FA0346002B13D110E0F86800F07BF8F86800F088F8F868FFF7FC
S32D0000C9D87BFE02460B461046194603F013F800231CE000231C46E3B2002B07D0FB680133396B184600F0AFF801
S32D0000CA0001230FE0F86800F05DF8F86800F06AF8F868FFF75DFE02460B461046194602F0F5FF002318461037F1
S32D0000CA28BD46B0BDFC1700202DE9B04F8AB006AFF860C7E900234FF000021F4BD7E9000138F086F802460B4663
S32D0000CA5014461D46F868FFF727FE02460B462046294637F04FFF02460B46904699463B6B5C424FF00002124B6D
S32D0000CA78D7E9000138F06CF802460B4692469B46F868FFF70DFE02460B465046594637F035FF02460B46396B2A
S32D0000CAA00491CDE90223009442464B46F868FFF723FF034618461037BD46BDE8B08F00BF0080764080B582B0A2
S32D0000CAC800AF78607868FFF781FD7B6801331846FFF78AFD00BF0837BD4680BD80B582B000AF78607868FFF771
S32D0000CAF093FE7B680133184600F06CF800BF0837BD4680BD80B582B000AF786039607B68012B07D13B684FF62A
S32D0000CB18FF72934202D10348FFF7ACFE00BF0837BD4680BD0818002080B500AF4FF6FF710120FFF7E3FF80BD9E
S32D0000CB4080B582B000AF78607868FFF711FD7868FFF78AFD7B6818460837BD4680BD80B582B000AF7860396051
S32D0000CB6839687868FFF71EFD00BF0837BD4680BD80B582B000AF7860034803F003FB034618460837BD4680BD7F
S32D0000CB9010180020B0B582B000AF78600C4803F0F5FA0346184637F043FE04460D467868FFF766FD02460B465D
S32D0000CBB82046294637F0A2FE02460B46104619460837BD46B0BD00BF1018002080B582B000AF7860034803F083
S32D0000CBE0E7FA00BF0837BD4680BD00BF1018002080B582B000AF786039607B68012B0BD13B684FF6FF72934261
S32D0000CC0806D10548FFF798FF0021044802F0FCFF00BF0837BD4680BD0C1800201018002080B500AF4FF6FF7190
S32D0000CC300120FFF7DDFF80BD80B483B000AF78607B6818460C37BD4680BC7047FFFFFFFF80B582B000AF786054
S32D0000CC58194803F0CDFA0346184637F0F7FD12A3D3E9002338F0DAF80346002B10D0124803F0BEFA0346184643
S32D0000CC8037F0E8FD0CA3D3E9002338F0ADF80346002B01D0012300E00023002B01D0012300E0002318460837F3
S32D0000CCA8BD4680BDAFF300805839B4C876BE9F3F5C8FC2F5285CDF3F1818002080B582B000AF7860114803F00F
S32D0000CCD093FA03464FF07C51184638F00FFC0346002B0DD00B4803F087FA03464FF07E51184638F0E5FB0346A5
S32D0000CCF8002B01D0012300E00023002B01D0012300E0002318460837BD4680BD1818002080B582B000AF7860AD
S32D0000CD2039607B68012B0BD13B684FF6FF72934206D10548FFF780FF1021044803F04AFA00BF0837BD4680BDA8
S32D0000CD48141800201818002080B500AF4FF6FF710120FFF7DDFF80BD80B483B000AF78607B6818460C37BD46E3
S32D0000CD7080BC704780B582B000AF786039607B68012B07D13B684FF6FF72934202D10348FFF7E6FF00BF08370F
S32D0000CD98BD4680BD1C18002080B500AF4FF6FF710120FFF7E3FF80BD80B483B000AF78607B6818460C37BD4695
S32D0000CDC080BC704780B582B000AF786039607B68012B0BD13B684FF6FF72934206D10548FFF7E6FF1121044835
S32D0000CDE802F036FE00BF0837BD4680BD201800202418002080B500AF4FF6FF710120FFF7DDFF80BD80B483B0D5
S32D0000CE1000AF78607B6818460C37BD4680BC704780B582B000AF786039607B68012B13D13B684FF6FF7293424B
S32D0000CE380ED10A21084803F0C9F90921074803F0C5F90821064803F0C1F90648FFF7DAFF00BF0837BD4680BD14
S32D0000CE60281800202C180020301800203418002080B500AF4FF6FF710120FFF7D1FF80BD80B483B000AF786061
S32D0000CE887B6818460C37BD4680BC704780B582B000AF78600021074804F02AF90121054804F077F9002103484E
S32D0000CEB004F052F800BF0837BD4680BD341B002080B582B000AF7860034804F02BFD00BF0837BD4680BD00BF17
S32D0000CED8341B002080B582B000AF786039607868FFF7D4FF38683DF087FA024613465B0013445B00C3F1A0033A
S32D0000CF001A4678233968034804F06EF900BF0837BD4680BD341B002080B582B000AF78600E48FFF795FE0346FE
S32D0000CF28002B04D00C490D4804F07FFB0EE00948FFF7C4FE0346002B04D00949074804F074FB03E00749054801
S32D0000CF5004F06FFB00BF0837BD4680BD14180020F86E0500341B0020FC6E0500046F050080B582B000AF78601C
S32D0000CF7839607B68012B07D13B684FF6FF72934202D10348FFF778FF00BF0837BD4680BD3818002080B500AFC0
S32D0000CFA04FF6FF710120FFF7E3FF80BD80B483B000AF78607B6818460C37BD4680BC704780B582B000AF786022
S32D0000CFC839607B68012B07D13B684FF6FF72934202D10348FFF7E6FF00BF0837BD4680BD3C18002080B500AFFE
S32D0000CFF04FF6FF710120FFF7E3FF80BD80B483B000AF78607B6818460C37BD4680BC704780B582B000AF7860D2
S32D0000D0180B46FB70FB784C2B05D14FF000010E4803F01CFC14E0FB78552B04D10B490A4803F014FC0CE0FB7809
S32D0000D040522B04D10849064803F00CFC04E04FF00001034803F006FC00BF0837BD4680BD441800200000BA42BC
S32D0000D0680000344380B582B000AF786040F26221054803F0B9FB40F6D401034803F0D1FB00BF0837BD4680BD39
S32D0000D0904418002080B582B000AF786039607B68012B0BD13B684FF6FF72934206D10548FFF7A4FF002104482C
S32D0000D0B803F07EFB00BF0837BD4680BD401800204418002080B500AF4FF6FF710120FFF7DDFF80BD80B483B07C
S32D0000D0E000AF78607B6818460C37BD4680BC704780B582B000AF786039607B68012B07D13B684FF6FF72934285
S32D0000D10802D10348FFF7E6FF00BF0837BD4680BD5018002080B500AF4FF6FF710120FFF7E3FF80BDFFFFFFFF6F
S32D0000D130B0B586B002AF0123FB721423FB60FB7A002B28D000BFB248FFF7A4FEB149B048FFF7C4FEB04804F0E3
S32D0000D158E5FB3A463B1D1946AD4804F0A5F8034683F00103DBB2002B00D0F2E73A463B1D1946A74804F098F841
S32D0000D1800346002B00D0F5E7A448FFF76BF9FB7A002B6AD017E000BF00E000BFA0499C48FFF79CFE9F48FFF7B2
S32D0000D1A853FD034683F00103DBB2002B00D0F5E79848FFF753F9FB7A002B54D000BFFB6800934FF00002964B28
S32D0000D1D09648FFF778FB0346002B00D0F3E7F9688D4804F039FA9248FFF7E8FA03461946894804F031FA8F484E
S32D0000D1F8FFF7BEFC03461946854804F029FAF9688B48FFF771FA0346184637F00DFB04460D468748FFF730FAD6
S32D0000D22002460B462046294637F06CFB02460B46794804F024FAF9687F48FFF759FA03461946754804F008FAAC
S32D0000D2484FF000007B4902F0DDFBFB680533FB604FF00000774902F0D5FBFB7A002B98D06DE700BF00E000BF7A
S32D0000D270282300934FF00002714B6C48FFF723FB0346002B00D0F3E7282300934FF000026C4B6648FFF7CCFB8E
S32D0000D2980346002B00D0F3E7282300934FF00002674B6048FFF70BFB0346002B00D0F3E7282300934FF0000298
S32D0000D2C0624B5A48FFF7B4FB0346002B00D0F3E7282300934FF00002584B5048FFF7E0F80346002B00D0F3E7E8
S32D0000D2E82823009346A3D3E900234E48FFF7E7FA0346002B00D0F3E74FF00000524902F081FB4648FFF7A0FC7F
S32D0000D3100346002B04D052214E48FFF779FE0EE04048FFF7CFFC0346002B04D04C214948FFF76EFE03E05521F9
S32D0000D3384648FFF769FE3448FFF7EAFD4FF000004FF0804102F05EFB282300934FF000023F4B3448FFF7B3FA31
S32D0000D3600346002B00D0F3E76FF0270300934FF000023A4B2D48FFF7A6FA0346002B00D0F2E7282300934FF05A
S32D0000D3880002354B2748FFF74FFB0346002B00D0F3E7282300934FF00002304B2148FFF78EFA0346002B00D063
S32D0000D3B0F3E7282300934FF000022B4B1B48FFF737FB0346002B00D0F3E7282300934FF00002264B1548FFF754
S32D0000D3D876FA0346002B00D0F3E76FF0270300934FF00002204B0F48FFF769FA0346002B00D0F2E74FF00000C5
S32D0000D4000E4902F003FB9EE69A9999999999C93F38180020146F0500341B0020E4170020246F0500141800202E
S32D0000D4280000284008180020001800200C180020FC17002000001440000034400080464000000C40008056404F
S32D0000D4500000F03F401800200000124000001A4000805B400000244000805140000039400080414080B582B0EA
S32D0000D47800AF786039607B68012B0CD13B684FF6FF72934207D1064805F048FC054A0649034805F041FA00BF15
S32D0000D4A00837BD4680BD00BF5418002000000020452D010080B500AF4FF6FF710120FFF7D9FF80BD80B500AF58
S32D0000D4C80F4BD3F8A03003F48053002B14BF01230023DBB2002B10D0094BD3F8A030084A23F48053C2F8A030E5
S32D0000D4F0064805F0A1F9064B1B68054A23F40053136000BF80BD00BF00C00440BC1B0020C0F00F4080B400AF99
S32D0000D518124B4FF480725A63114B5B69104A43F4005353610E4B1B680D4A43F4005313600A4B0C4A1A630C4B2F
S32D0000D540D3F888310A4A43F08063C2F88831084B9B68074A43F08063936000BFBD4680BC704700BF00C0044034
S32D0000D568C0F00F4003010A0000E100E080B400AF324B00225A70314B98221A702F4B9B79DBB203F01003002B6F
S32D0000D59014BF01230023DBB2002B00D0F2E7294B9B79DBB29B0803F00303022B14BF01230023DBB2002B00D072
S32D0000D5B8F1E7224B18221A71204B00225A71204B03F5825304331F4A1A601C4B54225A711A4B9B79DBB203F0F0
S32D0000D5E02003002B0CBF01230023DBB2002B00D0F2E7144B9B79DBB203F04003002B0CBF01230023DBB2002B31
S32D0000D60800D0F2E70D4B1B78DBB20C4A03F03F03DBB21370094B9B79DBB29B0803F00303032B14BF012300235F
S32D0000D630DBB2002B00D0F1E700231846BD4680BC704700BF00400640007004400000130180B500AF344B03F58D
S32D0000D658815318331B68324943F4785201F5815318331A60FFF752FFFFF780FF2D4B58221A602C4B1B684FF492
S32D0000D6807A7202FB03F32A4A1360294B1B681A46254B03F5825304331B681B0E03F00F030133B2FBF3F31A4613
S32D0000D6A8224B1A601E4B03F581531C331B681C4943F0225201F581531C331A60184B03F5815310331B68164973
S32D0000D6D043F0006201F5815310331A60164B4FF480721A61642002F065F8134B5B69124A23F010035361104B79
S32D0000D6F800221A600E4B10225A610E4803F058FB02F05EFE02F0BCFE0B4802F0B3F80B4805F0E2F84FF4FA60DD
S32D0000D72002F05EF900BF80BD00700440801A00207C1A0020841A002000D00340341B0020781A00202C1C002018
S32D0000D74880B500AFFEF7FBFD00BF80BD80B500AFFEF7F5FD00BF80BD80B500AFFEF7EFFD00BF80BD80B500AF7A
S32D0000D770FEF7E9FD00BF80BD80B500AFFEF7E3FD00BF80BD80B500AFFEF7DDFD00BF80BD80B500AFFEF7D7FDA3
S32D0000D79800BF80BD80B500AFFEF7D1FD00BF80BD80B500AFFEF7CBFD00BF80BD80B500AFFEF7C5FD00BF80BD90
S32D0000D7C080B500AFFEF7BFFD00BF80BD80B500AFFEF7B9FD00BF80BD80B500AFFEF7B3FD00BF80BD80B500AFB6
S32D0000D7E8FEF7ADFD00BF80BD80B500AFFEF7A7FD00BF80BD80B500AFFEF7A1FD00BF80BD80B500AFFEF79BFD1B
S32D0000D81000BF80BD80B500AFFEF795FD00BF80BD80B500AFFEF78FFD00BF80BD80B500AFFEF789FD00BF80BDCB
S32D0000D83880B500AFFEF783FD00BF80BD80B500AFFEF77DFD00BF80BD80B500AFFEF777FD00BF80BD80B500AFF1
S32D0000D860FEF771FD00BF80BD80B500AFFEF76BFD00BF80BD80B500AFFEF765FD00BF80BD80B500AFFEF75FFD92
S32D0000D88800BF80BD80B500AFFEF759FD00BF80BD80B500AFFEF753FD00BF80BD80B500AFFEF74DFD00BF80BD07
S32D0000D8B080B500AFFEF747FD00BF80BD80B500AFFEF741FD00BF80BD80B500AFFEF73BFD00BF80BD80B500AF2D
S32D0000D8D8FEF735FD00BF80BD80B500AFFEF72FFD00BF80BD80B500AFFEF729FD00BF80BD80B500AFFEF723FD0A
S32D0000D90000BF80BD80B500AFFEF71DFD00BF80BD80B500AFFEF717FD00BF80BD80B500AFFEF711FD00BF80BD42
S32D0000D92880B500AFFEF70BFD00BF80BD80B500AFFEF705FD00BF80BD80B500AFFEF7FFFC00BF80BD80B500AF69
S32D0000D950FEF7F9FC00BF80BD80B500AFFEF7F3FC00BF80BD80B500AFFEF7EDFC00BF80BD80B500AFFEF7E7FC85
S32D0000D97800BF80BD80B500AFFEF7E1FC00BF80BD80B500AFFEF7DBFC00BF80BD80B500AFFEF7D5FC00BF80BD81
S32D0000D9A080B500AFFEF7CFFC00BF80BD80B500AFFEF7C9FC00BF80BD80B500AFFEF7C3FC00BF80BD80B500AFA7
S32D0000D9C8FEF7BDFC00BF80BD80B500AFFEF7B7FC00BF80BD80B500AFFEF7B1FC00BF80BD80B500AFFEF7ABFCFD
S32D0000D9F000BF80BD80B500AFFEF7A5FC00BF80BD80B500AFFEF79FFC00BF80BD80B500AFFEF799FC00BF80BDBD
S32D0000DA1880B500AFFEF793FC00BF80BD80B500AFFEF78DFC00BF80BD80B500AFFEF787FC00BF80BD80B500AFE2
S32D0000DA40FEF781FC00BF80BD80B500AFFEF77BFC00BF80BD80B500AFFEF775FC00BF80BD80B500AFFEF76FFC74
S32D0000DA6800BF80BD80B500AFFEF769FC00BF80BD80B500AFFEF763FC00BF80BD80B500AFFEF75DFC00BF80BDF8
S32D0000DA9080B500AFFEF757FC00BF80BD80B500AFFEF751FC00BF80BD80B500AFFEF74BFC00BF80BD80B500AF1E
S32D0000DAB8FEF745FC00BF80BD80B500AFFEF73FFC00BF80BD80B500AFFEF739FC00BF80BD80B500AFFEF733FCEC
S32D0000DAE000BF80BD80B500AFFEF72DFC00BF80BD80B500AFFEF727FC00BF80BD80B500AFFEF721FC00BF80BD34
S32D0000DB0880B500AFFEF71BFC00BF80BD80B500AFFEF715FC00BF80BD80B500AFFEF70FFC00BF80BD80B500AF59
S32D0000DB30FEF709FC00BF80BD80B500AFFEF703FC00BF80BD80B500AFFEF7FDFB00BF80BD80B500AFFEF7F7FB65
S32D0000DB5800BF80BD80B500AFFEF7F1FB00BF80BD80B584B000AFF8600B467A60FB72FB68FA7A1A71FB680022F3
S32D0000DB805A711749786837F0B9FC0346002B02D0134B7B600AE04FF07E51786837F09AFC0346002B02D04FF0F7
S32D0000DBA87E537B60786836F051FE09A3D3E9002336F0A4FE02460B461046194637F080F90246FB681A60FB6885
S32D0000DBD018461037BD4680BDABAAAAAAAAAA20400000404180B582B000AF78607B685B79002B09D07B680022B6
S32D0000DBF85A717B6819791E230022034801F074FE00BF0837BD4680BD781A002080B584B000AF786039603B6892
S32D0000DC207F2B02DD7F23FB7308E03B6813F1800F02DA8023FB7301E03B68FB737B685B79FA7B9A4209D07B687C
S32D0000DC48FA7B5A717B681979FA7B1E23034801F04BFE00BF1037BD4680BD00BF781A0020B0B584B000AF7860E7
S32D0000DC7039603749386837F023FC0346002B02D0334B3B6008E03349386837F037FC0346002B01D02F4B3B6070
S32D0000DC98386836F0DBFD04460D467B681B68184636F0D4FD4FF00002294B36F051FF02460B462046294636F0A9
S32D0000DCC021FE02460B461046194637F0FDF803463B604FF00001386837F006FC0346002B10D0386836F0B6FDF3
S32D0000DCE817A3D3E9002336F009FE02460B461046194637F09DF80346FB6018E0386836F0A5FD4FF00002134B9B
S32D0000DD1036F0F8FD02460B46104619464FF000020D4B36F019FF02460B461046194637F083F80346FB60F968B0
S32D0000DD387868FFF76BFF00BF1037BD46B0BD00BF52B81E85EB51F43F0000C8C20000C84200005940000060405F
S32D0000DD6080B483B000AF03460A46FB711346BB71BB79002B03D1134B00221A7002E0114B01221A703823FB7106
S32D0000DD880E4B1A78FB791343FB710D4B9B78DBB20B4A43F01003DBB29370094B9B78DBB2074A43F02003DBB201
S32D0000DDB09370054AFB79137100BF0C37BD4680BC704700BF551800200060064080B483B000AF01237B607B6819
S32D0000DDD8312B04DC00BF7B6801337B60F7E700BF0C37BD4680BC704780B582B000AF03460A46FB711346BB71BA
S32D0000DE00134B1B7800211846FFF7AAFF00F024F8104AFB79137100F01FF80E4ABB79137100F01AF80B4B9B7805
S32D0000DE28DBB20A4A23F02003DBB29370074B9B78DBB2064A23F01003DBB29370FFF7C2FF00BF0837BD4680BD38
S32D0000DE50561800200060064080B483B000AF174B1B78002B24D100237B60154BDB78DBB203F00203002B0CBF19
S32D0000DE7801230023DBB2002B0DD07B6842F21072934203DD0B4B01221A7004E07B6801337B6000BFE5E7084B9B
S32D0000DEA0DB78DBB2064A43F00203DBB2D37000E000BF0C37BD4680BC704700BF571800200060064080B582B0E9
S32D0000DEC800AF0346FB71FB79184600F05FF800BF0837BD4680BD80B582B000AF03460A46FB711346BB7100F0E1
S32D0000DEF035F8FB795B00DBB21846FFF7E3FFBB791846FFF7DFFF00F037F800BF0837BD4680BD80B500AFFF207F
S32D0000DF1800F03CF80346184680BD80B584B000AF0346FB7100F016F8FB795B005BB243F001035BB2DBB21846FD
S32D0000DF40FFF7C0FFFFF7E5FF0346FB7300F014F8FB7B18461037BD4680BDFFFF80B400AF044B9B68034A43F45F
S32D0000DF688013936000BFBD4680BC704740F00F4080B400AF044B5B68034A43F48013536000BFBD4680BC70475D
S32D0000DF9040F00F4080B485B000AF0346FB710023BB73164BDB6A03F00043012B0CBF01230023DBB2002B03D021
S32D0000DFB8FB7B0133FB73F0E70E4BDB6A0D4A43F00043D3620B4AFB7953630A4BDB6A03F40033002B0CBF01234F
S32D0000DFE00023DBB2002B00D0F3E7044B9B6BBB73BB7B18461437BD4680BC704700C00A4080B582B000AF224BA9
S32D0000E00803F5815310331B681F4943F4805201F5815310331A601D4B4FF480721A651C4B5B691B4A43F48013EA
S32D0000E0305361FFF7A1FF174B4FF400725A65154B4FF400729A65134B4FF40072DA65134B134A1A60114B134A4E
S32D0000E058DA6000237B607B68092B06DCFF20FFF72DFF7B6801337B60F5E705A1D1E9000101F0C8FC00BF083746
S32D0000E080BD4680BDAFF300809A9999999999B93F0070044000A0044040F00F4000C00A40000C00800500003E91
S32D0000E0A890B486B000AFF860B9607A60FB68594A93420CD1584B03F5815314331B68564943F4806201F5815363
S32D0000E0D014331A604FE0FB68524A93420CD1504B03F5815314331B684D4943F4006201F5815314331A603EE078
S32D0000E0F8FB684B4A93420CD1474B03F5815314331B68454943F4805201F5815314331A602DE0FB68434A934234
S32D0000E1200CD13F4B03F5815314331B683C4943F4005201F5815314331A601CE0FB683C4A93420CD1364B03F52B
S32D0000E148815308331B68344943F4806201F5815308331A600BE0304B03F5815308331B682D4943F4006201F50D
S32D0000E170815308331A60FB68DB78DBB223F00C03DAB2FB68DA70FB6800229A70BB684FF47A7202FB03F27B68A4
S32D0000E1981B0192FBF3F39CB2FB681B78DBB223F01F03FB7523461B12DBB203F01F03DAB2FB7D1343DAB2FB68D3
S32D0000E1C01A70E2B2FB685A70BB684FF4FA4202FB03F27B681B0192FBF3F39AB263019BB2D31A9CB2FB689B7A30
S32D0000E1E8DBB223F01F03FB75E3B203F01F03DAB2FB7D1343DAB2FB689A72FB68DB78DBB243F00C03DAB2FB6864
S32D0000E210DA7000BF1837BD4690BC704700A006400070044000B0064000C0064000D0064000A00E4080B483B081
S32D0000E23800AF78607B681B79DBB203F02003002B0CBF01230023DBB2002B00D0F2E77B68DB79DBB218460C3714
S32D0000E260BD4680BC704780B483B000AF78600B46FB707B681B79DBB25BB2DB43DBB2DB09DBB2002B00D0F4E7ED
S32D0000E2887B68FA78DA7100BF0C37BD4680BC704780B487B000AFF860B9607A60FB687B617B685A1E7A60002BCC
S32D0000E2B014BF01230023DBB2002B06D07B695A1C7A61BA68D2B21A70EEE700BF1C37BD4680BC704780B584B0ED
S32D0000E2D800AF786039607B681B6BFB60FA683B689A4252D07B681B79002B35D07B6858787B6803F134010123A7
S32D0000E300FA6801F0F5F80346002B14BF01230023DBB2002B01D001233CE07B6800221A717B685A6A7B681B6AB9
S32D0000E3281344FA689A4217D27B68DB78FB72FB7A012B11D97B681B6AFA681344FB607B6858787B6803F13401E0
S32D0000E3500123FA6801F0CCF8FB7A013BFB72EAE73B68002B15D07B6858787B6803F1340101233A6800F0D8FF76
S32D0000E3780346002B14BF01230023DBB2002B01D0012303E07B683A681A63002318461037BD4680BD80B584B0E6
S32D0000E3A000AF786000217868FFF794FF0346FB73FB7B002B40F091807B681B78032B7BD17B685B79002B77D08C
S32D0000E3C87B6800221A637B6834334FF4007200211846FFF75DFF7B68552283F832227B68AA2283F833227B684A
S32D0000E3F0522283F834207B68522283F835207B68612283F836207B68412283F837207B68722283F818227B6837
S32D0000E418722283F819227B68412283F81A227B68612283F81B227B681B69DAB27B6883F81C227B681B699BB22E
S32D0000E4401B12DAB27B6883F81D227B681B691B0CDAB27B6883F81E227B681B691B0EDAB27B6883F81F227B6802
S32D0000E468DB68DAB27B6883F820227B68DB689BB21B12DAB27B6883F821227B68DB681B0CDAB27B6883F82222CF
S32D0000E4907B68DB681B0EDAB27B6883F823227B6858787B6803F134017B685A69012301F01FF87B6800225A717F
S32D0000E4B87B685B7800220021184601F0E1F80346002B14BF01230023DBB2002B01D00123FB73FB7B1846103751
S32D0000E4E0BD4680BD80B582B000AF78600B467B807B68002B08D07B681B78002B04D07B68DB887A889A4201D044
S32D0000E508092311E07B685B78184601F03BF9034603F00103002B14BF01230023DBB2002B01D0032300E0002358
S32D0000E53018460837BD4680BD80B586B000AF78607B681A687B689B8819461046FFF7CAFF0346FB75FB7D002BB3
S32D0000E55840F0A8807B689B7903F02003002B00F0A1807B689B7903F04003002B1BD07B681B6858787B6803F1A4
S32D0000E58028017B689A69012300F0B2FF0346002B14BF01230023DBB2002B01D0012386E07B689B7923F04003AB
S32D0000E5A8DAB27B689A717B681A687B68DB6919461046FFF78BFE0346FB75FB7D002B71D17B681B6A3B613B69C5
S32D0000E5D00B331A783B690B3342F02002D2B21A707B68DA683B691C33D2B21A707B68DB689BB21A123B691D3350
S32D0000E5F8D2B21A707B68DB681A0C3B691E33D2B21A707B68DB681A0E3B691F33D2B21A707B681A693B691A33EF
S32D0000E620D2B21A707B681B699BB21A123B691B33D2B21A707B681B691A0C3B691433D2B21A707B681B691B0CCA
S32D0000E6489BB21A123B691533D2B21A700023FB603B691633FA68D2B21A70FB689BB21A123B691733D2B21A707E
S32D0000E670FB681A0C3B691833D2B21A70FB681A0E3B691933D2B21A707B689B7923F02003DAB27B689A717B68E3
S32D0000E6981B6801221A717B681B681846FFF77AFE0346FB75FB7D18461837BD4680BD80B584B000AF7860786803
S32D0000E6C0FFF73AFF0346FB73FB7B002B02D17B6800221A60FB7B18461037BD4680BDFFFF80B588B000AF786006
S32D0000E6E8396080233B610F23FB604FF0FF337B610223FB61FB69B3F5807F23D80123BB61BB69102B1AD8FB69D6
S32D0000E710BA6902FB03F33A6802FB03F27B68D31ABB60BB68002B09DBBB687A699A4205D9BB687B61FB693B6155
S32D0000E738BB69FB60BB690133BB61E1E7FB695B00FB61D7E71D4BDB6A1C4A23F00803D3621A4BDB6A23F47F2356
S32D0000E76023F47F63BB613B695B081B029AB2FB68013B1B01DBB21A43BB691343114A43F46023D3620F4B5B6A7E
S32D0000E78803F00803002B0CBF01230023DBB2002B03D00A2001F020F9F0E7084BDB6A074A43F00803D362054BE6
S32D0000E7B01B6B044A43F48013136300BF2037BD4680BD00BF00100B4080B582B000AF786039607B6800221A60B1
S32D0000E7D8424B434ADA62414BDB6A03F08073002B14BF01230023DBB2002B00D0F3E73B4B0022C3F8C020394B98
S32D0000E8004FF481325A60374B28229A62354B4FF001125A643B689B6834491846FFF760FF304B5B6A03F00303D3
S32D0000E828002B14BF01230023DBB2002B00D0F3E72D4B40F243421A602B4B40F243425A60294B4FF488629A60F0
S32D0000E850274B40F24342DA60254B40F243421A61234B40F243425A61224B03F5815310331B68204943F40032E4
S32D0000E87801F5815310331A60184B4FF6FF721A63164B1B4A5A63154BDB6A144A43F00063D362124BDB6A03F06F
S32D0000E8A00063002B14BF01230023DBB2002B00D0F3E70C4B5B6A03F48033002B14BF01230023DBB2002B02D0AB
S32D0000E8C87B6801221A60054B1B6B044A43F080031363002318460837BD4680BD00100B400080000160CC050045
S32D0000E8F000D0044000700440B3007F0080B400AF064B5A6A40F207331340002B14BF01230023DBB21846BD4616
S32D0000E91880BC704700100B4080B485B000AF7860074B1B6B7A681340FB60FB68002B00D1F6E7FB6818461437E3
S32D0000E940BD4680BC704700BF00100B4080B584B000AF78607B681B7803F03F03764A52F82330FB60FB68002BB8
S32D0000E96805D17B681B78002B01D00123DCE0714B1B6B704A43F0800313636E4B5B6A03F00103002B14BF01239A
S32D0000E9900023DBB2002B00D0F3E7684A7B685B689360FB6823F44003FB607B685B789B0503F44003FA68134329
S32D0000E9B8FB607B685B78022B03D1FB6843F40013FB607B685B78042B16D1FB6803F44033B3F5003F08D1FB685B
S32D0000E9E023F44033FB60FB6843F44033FB6007E0FB6823F44033FB60FB6843F40033FB604E4B5B684D4A9BB225
S32D0000EA0853607B68DB68002B2AD0FB6803F44033B3F5403F03D0FB6843F40013FB607B681B7A002B03D0FB683A
S32D0000EA3043F01003FB607B68DB68012B03D9FB6843F02003FB607B68DB68B3F1FF3F0BD03A4B5A687B68DB6885
S32D0000EA581B04384913434B60FB6843F00203FB60344B00221A60334AFB68D3603248FFF753FF0346012B14BFC1
S32D0000EA8001230023DBB2002B09D02C4B1B6B2B4A43F4702343F001031363012348E0274B1B6B03F08003002BC2
S32D0000EAA814BF01230023DBB2002B07D0214B1B6B204A43F001131363012335E01D4B1B6B03F48033002B14BFAF
S32D0000EAD001230023DBB2002B08D0184B1B6B174A43F0011313634FF0FF3321E0FB6803F44033002B15D0114B8F
S32D0000EAF81A697B681A61FB6803F44033B3F5803F0BD10C4B5A697B685A610A4B9A697B689A61084BDA697B6898
S32D0000EB20DA61064B1B6B054A43F001031363002318461037BD4680BD3C6F050000100B4001000E0080B592B020
S32D0000EB4800AF7860396000237B643B68BB63994B7B637B6B002B02D140F6012362E3964B3B633B6B002B02D154
S32D0000EB7040F60B235AE33B6B1B68FB62FB6A002B02D140F60B2351E37B6841F20932934200F242837B68B3F5ED
S32D0000EB98985F08D87B68032B00F01D837B68092B00F00C8334E37B68A3F59853013B082B00F22E8301A252F8C5
S32D0000EBC023F000BFE9EB0000D9EE000037F10000EFEE00002DEF000057F000009FF00000E1EF0000FBEF000009
S32D0000EBE87649786BFFF7ECFD78647B6C002B40F01383002387F84330002387F82B30002387F82A30002387F81A
S32D0000EC102930002387F84230002387F8283000233B7200237B720023FB6000233B7400237B6107F108031846DF
S32D0000EC38FFF788FE0346002B14BF01230023DBB2002B02D001237B64EBE240F24C4000F0C3FE08233B720023E0
S32D0000EC607B724FF4D573FB6000233B7400237B6107F108031846FFF769FEF863FB6B002B09D1BA69FB689A42FC
S32D0000EC8802D001237B64CCE2012387F84230012387F8283097F82830002B00F0A58037233B7200237B7200236A
S32D0000ECB0FB6000233B7400237B6107F108031846FFF744FEF863FB6B002B02D001237B64ABE269233B720023C7
S32D0000ECD87B720023FB6000233B7400237B6107F108031846FFF72EFE0346002B14BF01230023DBB2002B02D037
S32D0000ED0001237B6491E2BB6903F44013002B6FD00023FB630A2000F063FEFB6B0133FB6337233B7200237B728C
S32D0000ED280023FB6000233B7400237B6107F108031846FFF707FE0346002B14BF01230023DBB2002B02D00123D6
S32D0000ED507B6428E069233B7200237B7297F84230002B02D0184BFB6002E04FF44013FB6000233B7400237B6105
S32D0000ED7807F108031846FFF7E5FD0346002B14BF01230023DBB2002B02D001237B6406E0BB69002B03DBFB6BA0
S32D0000EDA0632B00D8B6E77B6C002B40F03B82FB6B632B0BD9002387F8423019E06C180020701A0020306F05006C
S32D0000EDC800003040012387F8433097F84230002B0AD0002387F84230BB6903F08043002B02D0012387F8423091
S32D0000EDF097F82A30002B02D07B6B07221A6097F82930002B02D07B6B08221A6097F82B30002B02D07B6B042224
S32D0000EE181A6097F84330002B09D07B6B02221A6097F84230002B02D07B6B03221A6097F82B30002B0DD097F8C4
S32D0000EE404330002B09D07B6B05221A6097F84230002B02D07B6B06221A60A04B00221A609E4B00225A609D4BEC
S32D0000EE6800229A609B4B0022DA609A4B00221A61984B00225A61FB6A9A68FB6A5B6819461046FFF729FC934B9F
S32D0000EE9040F243421A60914B40F243425A608F4B4FF488629A608D4B40F24342DA608B4B40F243421A61894B30
S32D0000EEB840F243425A61884B03F5815310331B68854943F4003201F5815310331A60A8E1B86BFFF737FDF86366
S32D0000EEE0FB6B002B00F0A08102237B649CE1BB6B002B02D10C237B6497E17A4BDB6A1B0A5B0003F4FF73FB63E6
S32D0000EF08764BDB6A1B0903F00F035A1CFB6B02FB03F3FB63FB6A9A68FB6BB2FBF3F2BB6B1A607EE1BB6B002BD0
S32D0000EF3002D10C237B6478E1BB6B1B68002B02D10C237B6471E1FFF7D9FC0346002B0CBF01230023DBB2002B69
S32D0000EF583ED0604B00221A605E4B00225A605D4B00229A605B4B0022DA605A4B00221A61584B00225A61FB6AC4
S32D0000EF809A68BB6B1B6819461046FFF7A9FB534B40F243421A60514B40F243425A604F4B4FF488629A604D4B34
S32D0000EFA840F24342DA604B4B40F243421A61494B40F243425A61484B03F5815310331B68454943F4003201F56A
S32D0000EFD0815310331A6028E140F60A237B6424E1BB6B002B02D10C237B641EE13D4B5B68C3F30C02BB6B1A6052
S32D0000EFF817E1BB6B002B02D10C237B6411E1FFF779FC0346002B0CBF01230023DBB2002B19D0BB6B1B68B3F5EC
S32D0000F020805F02D30C237B64FFE02E4B5B682D4A23F4FF5323F01F0353602A4B5A68BB6B1B68C3F30C03274908
S32D0000F04813434B60EDE040F60A237B64E9E0BB6B002B02D10C237B64E3E0204B9B6A5B0803F00303FB63FB6B3C
S32D0000F070002B03D1BB6B00221A60D6E0FB6B012B03D1BB6B01221A60CFE0FB6B102B03D1BB6B02221A60C8E042
S32D0000F09805237B64C5E0BB6B002B02D10C237B64BFE0FFF727FC0346002B0CBF01230023DBB2002B37D0BB6B49
S32D0000F0C01B68002B10D1074B9B6A064A23F006039362044B034A9B6A9362A6E000D004400070044000100B409C
S32D0000F0E8BB6B1B68012B0CD1504B9B6A4F4A23F0060393624D4B9B6A4C4A43F0020393628FE0BB6B1B68022B59
S32D0000F1100AD1484B9B6A474A23F006039362454B444A9B6A936280E005237B647DE040F60A237B6479E0BB6B1F
S32D0000F138002B02D10C237B6473E03C4BDB6A3B4A43F00063D362394BDB6A03F00063002B14BF01230023DBB23D
S32D0000F160002B00D0F3E7334B1B6B03F08003002B14BF01230023DBB2002B08D02D4B1B6B2C4A43F080031363BD
S32D0000F1887B6B00221A60294B5B6A03F48033002B14BF01230023DBB2002B07D07B6B1B68002B06D17B6B0122AC
S32D0000F1B01A6002E07B6B00221A607B6B1A68BB6B1A6032E0BB6B1C221A60BB6B043304221A60BB6B08334FF4BA
S32D0000F1D81E721A6025E00220FFF79EFB134B1B6B03F4E003002B14BF01230023DBB2002B07D00E4B1B6B0D4A81
S32D0000F20043F4E003136304237B640A4B1B6B094A43F03203136308E040F609237B6404E000BF02E000BF00E0F1
S32D0000F22800BF7B6C18464837BD4680BD00100B4080B489B000AF786039607B687B61364B3B613B69002B01D190
S32D0000F25000235FE03B691B68022B0BD03B691B68032B07D03B691B68072B03D03B691B68082B0BD12B4B5B6A36
S32D0000F27803F00403002B14BF01230023DBB2002B00D0F3E73B68FB61FB69002B3DD0FB69B3F5007F28BF4FF477
S32D0000F2A00073FB60FB6803339B08BB61BB69002B2AD01C4B1B6B03F4E003002B14BF01230023DBB2002B09D034
S32D0000F2C8164B1B6B154A43F4E00343F02003136300231BE0114B5B6A03F40063002B0CBF01230023DBB2002B5E
S32D0000F2F000D0F3E70B497B691A1D7A610A6A1A60BB69013BBB61D1E7FA69FB68D31AFB61BEE701231846243749
S32D0000F318BD4680BC704700BF6C18002000100B4080B58EB000AFB9607A601A460346FB731346BB73414B7B63F6
S32D0000F340FB7B002B02D1BB7B002B01D1042375E03D4B1B78DBB203F00103002B14BF01230023DBB2002B01D00F
S32D0000F368032367E0BB68002B01D1002362E07B6B1B7B002B02D17B685B027B60BB7B012B28D111233B7500238E
S32D0000F3907B757B68BB6101233B77BB7B3B6207F11403194641F20230FFF7CCFB0346002B0CBF01230023DBB214
S32D0000F3B8002B38D04FF40071B868FFF739FF0346002B14BF01230023DBB2002B2BD00023BB7328E012233B7573
S32D0000F3E000237B757B68BB6101233B77BB7B3B6207F11403194641F20230FFF7A3FB0346002B0CBF0123002357
S32D0000F408DBB2002B0FD0BB7B5B021946B868FFF70FFF0346002B14BF01230023DBB2002B01D00023BB73BB7B8B
S32D0000F430002B01D0012300E0002300BF18463837BD4680BD581800200400002080B487B000AF786039607B689D
S32D0000F458FB603B687B617B69002B3DD07B69B3F5007F28BF4FF400733B617A693B69D31A7B613B6903339B087F
S32D0000F4803B613B69002BEAD0184B1B6B03F4E003002B14BF01230023DBB2002B0AD0134B1B6B124A43F4E00345
S32D0000F4A843F0100313634FF0FF3316E00D4B5B6A03F48063002B0CBF01230023DBB2002B00D0F3E7FB681A1DE3
S32D0000F4D0FA60064A1B6813623B69013B3B61D0E7012318461C37BD4680BC704700100B4080B58EB000AFB960D8
S32D0000F4F87A601A460346FB731346BB735D4B7B63FB7B002B02D1BB7B002B01D10423ADE0594B1B78DBB203F0D6
S32D0000F5200103002B14BF01230023DBB2002B01D003239FE0524B1B78DBB203F00403002B14BF01230023DBB2BD
S32D0000F548002B01D0022391E0BB68002B01D100238CE07B6B1B7B002B02D17B685B027B60BB7B012B28D1182329
S32D0000F5703B7500237B757B68BB6100233B77BB7B3B6207F11403194641F20230FFF7DAFA0346002B0CBF012303
S32D0000F5980023DBB2002B38D04FF40071B868FFF751FF0346002B14BF01230023DBB2002B2BD00023BB7328E0AE
S32D0000F5C019233B7500237B757B68BB6100233B77BB7B3B6207F11403194641F20230FFF7B1FA0346002B0CBFC4
S32D0000F5E801230023DBB2002B0FD0BB7B5B021946B868FFF727FF0346002B14BF01230023DBB2002B01D00023AF
S32D0000F610BB730D233B7500237B757B6B1B69BB6100233B7700233B6207F11403194641F20230FFF787FA0346FD
S32D0000F638002B14BF01230023DBB2002B01D0012314E07A6A0D4B1340002B01D001230DE07B6A03F4F853B3F553
S32D0000F660106F00D0D5E7BB7B002B01D0012300E0002300BF18463837BD4680BD58180020040000200880D9FF38
S32D0000F68880B58CB000AF03463A60FB710B46BB713A4BBB62FB79002B01D0042369E0012387F82F30364B1B78D0
S32D0000F6B0DBB203F00103002B14BF01230023DBB2002B01D0032358E0BB79032B50D801A252F823F0E5F6000017
S32D0000F6D8EDF60000FDF600000DF70000002387F82F3044E0BB6A9A683B681A60002387F82F303CE03B684FF4BE
S32D0000F70000721A80002387F82F3034E009233B7200237B72BB6A1B69FB6000233B7400237B6107F1080319469A
S32D0000F72841F20230FFF70AFA0346002B14BF01230023DBB2002B01D001231AE07B6A03F44003002B0CD13B6A53
S32D0000F7509B0C03F07F035A1C7B6A1B0A03F00303013B9A403B681A60002387F82F3002E0042387F82F3097F84C
S32D0000F7782F3018463037BD4680BD00BF581800200400002080B483B000AF0346FB71FB79002B01D0012302E04B
S32D0000F7A0034B1B78DBB218460C37BD4680BC70470400002080B483B000AF7860174B03F5815318331B681549CA
S32D0000F7C843F0010201F5815318331A60124A7B689360114B05225A600F4B1B680E4A43F0010313600C4B1B6826
S32D0000F7F003F08003002B0CBF01230023DBB2002B00D0F3E7064B1B68054A23F00103136000BF0C37BD4680BCE8
S32D0000F818704700BF007004400000044080B582B000AF786039607B68012B07D13B684FF6FF72934202D103489A
S32D0000F84000F00EF800BF0837BD4680BD781A002080B500AF4FF6FF710120FFF7E3FF80BD80B483B000AF7860F7
S32D0000F8687B6800221A707B6818460C37BD4680BC7047FFFF80B582B000AF78607B681B7883F00103DBB2002BD8
S32D0000F89021D0134B03F5815308334FF400621A60104B4FF440721A620E4B4FF440725A620D4B1B68DA0F1344E4
S32D0000F8B85B104FF4614219460A48FEF7F1FB642000F08AF87B6801221A70012300E0002318460837BD4680BDB5
S32D0000F8E00070044000D004407C1A002000B00E4080B582B000AF7860084611461A460346FB700B46BB70134602
S32D0000F9087B707F210E48FEF7AAFC08210C48FEF7A6FCFB7819460A48FEF7A1FCBB7819460748FEF79CFC7B782A
S32D0000F93019460548FEF797FCFF210348FEF793FC00BF0837BD4680BD00B00E4080B487B000AFF860B9607A60E5
S32D0000F958FB681F4AA2FB03239B09BA6813447B61FB681B4AA2FB031292094FF47A7101FB02F29B1AFB60FB6853
S32D0000F980DB03154AA2FB03239B097A6813443B613B69DB0B7A6913447B613B69C3F30E033B610E4B1B687A697A
S32D0000F9A89A4209D80B4B1B687A699A4206D1094B5B683A699A4201D9012300E00023002B00D0EAE700BF1C3790
S32D0000F9D0BD4680BC704700BFD34D621000D0034080B584B000AF7860074B1B68FB60064B5B68BB607B68BA685B
S32D0000F9F8F9681846FFF7A6FF00BF1037BD4680BD00D0034080B584B000AFC7E900010E4B1B68FB600C4B5B6814
S32D0000FA20BB604FF000020B4BD7E9000134F06AFF02460B461046194635F026FA0346BA68F9681846FFF782FF84
S32D0000FA4800BF1037BD4680BD00D0034000408F4080B582B000AF78600B46FB70FB781946786800F005F87B68FC
S32D0000FA7018460837BD4680BD80B483B000AF78600B46FB707B68FA781A707B681B781A46534B9B5C042B00F276
S32D0000FA989E8001A252F823F0B5FA0000EFFA000029FB000063FB00009DFB00004B4A7B681B7819464A4B53F826
S32D0000FAC0213040F2031142F82310484B5A697B681B781946444B53F8213003F01F03012101FA03F3DB434149EE
S32D0000FAE813404B6173E0404A7B681B7819463C4B53F8213040F2031142F823103B4B5A697B681B781946364BCA
S32D0000FB1053F8213003F01F03012101FA03F3DB43344913404B6156E0334A7B681B7819462D4B53F8213040F29B
S32D0000FB38031142F823102F4B5A697B681B781946274B53F8213003F01F03012101FA03F3DB43284913404B6148
S32D0000FB6039E0274A7B681B7819461F4B53F8213040F2031142F82310224B5A697B681B781946194B53F821305A
S32D0000FB8803F01F03012101FA03F3DB431B4913404B611CE01A4A7B681B781946104B53F8213040F2031142F8FA
S32D0000FBB02310164B5A697B681B7819460A4B53F8213003F01F03012101FA03F3DB430F4913404B6100BF00BFEF
S32D0000FBD80C37BD4680BC70473C700500009004408070050000F00F4000A0044040F00F4000B0044080F00F40F7
S32D0000FC0000C00440C0F00F4000D0044000F10F4080B584B000AF78600B46FB700B23FB73FA7BFB781946786810
S32D0000FC2800F094F87B6818461037BD4680BDFFFF80B485B000AF78607B68103B002B00DA1F335B11FB60FB68CD
S32D0000FC50022B53D0FB68022B75DCFB68002B03D0FB68012B25D06EE0394BD3F880217B68103B594203F01F0354
S32D0000FC7801F01F0158BF4B42012101FA03F332491343C1F88031304B1A687B68103B594203F01F0301F01F016F
S32D0000FCA058BF4B42012101FA03F3294913430B6049E0274BD3F884217B68103B594203F01F0301F01F0158BF3B
S32D0000FCC84B42012101FA03F31F491343C1F884311D4B5A687B68103B594203F01F0301F01F0158BF4B42012163
S32D0000FCF001FA03F3164913434B6024E0144BD3F888217B68103B594203F01F0301F01F0158BF4B42012101FA0E
S32D0000FD1803F30D491343C1F888310B4B9A687B68103B594203F01F0301F01F0158BF4B42012101FA03F304495E
S32D0000FD4013438B6000BF00BF1437BD4680BC704700E100E080B584B000AF78600B46FB701346BB707B68FA784F
S32D0000FD681A70BB78FB737B681B781A46574B9B5C042B00F2A68001A252F823F099FD0000E5FD000031FE0000E5
S32D0000FD90C9FE00007DFE0000FB7B1B0403F470234D497A68127810464C4A52F8202043F4897343F0010341F8C9
S32D0000FDB82230494B5A697B681B781946454B53F8213003F01F03012101FA03F3DB43424913404B616720FFF726
S32D0000FDE02BFF72E0FB7B1B0403F470233D497A6812781046394A52F8202043F4897343F0010341F82230384B8D
S32D0000FE085A697B681B781946324B53F8213003F01F03012101FA03F3DB43314913404B616820FFF705FF4CE0AE
S32D0000FE30FB7B1B0403F470232C497A6812781046264A52F8202043F4897343F0010341F82230274B5A697B6847
S32D0000FE581B7819461F4B53F8213003F01F03012101FA03F3DB43204913404B616920FFF7DFFE26E0FB7B1B04DF
S32D0000FE8003F470231B497A6812781046134A52F8202043F4897343F0010341F82230164B5A697B681B781946CF
S32D0000FEA80C4B53F8213003F01F03012101FA03F3DB430F4913404B616B20FFF7B9FE00E000BF00BF1037BD46BC
S32D0000FED080BD00BF3C700500009004408070050000F00F4000A0044040F00F4000B0044080F00F4000D0044025
S32D0000FEF800F10F4080B58AB000AF3B1D20220021184638F02FFB0B237B600A23BB600723FB6006233B61052350
S32D0000FF207B610423BB610123FB6100237B627B6A072B32DC1B4BD3F8A0207B6A9B0007F128010B4453F8243C63
S32D0000FF48012101FA03F31340002B14BF01230023DBB2002B19D0124A7B6A52F823305A1C0F497B6A41F8232032
S32D0000FF700C4BD3F8A0207B6A9B0007F128010B4453F8243C012101FA03F306491340C1F8A0307B6A01337B62B2
S32D0000FF98C9E700BF2837BD4680BD00BF00A00440A81A0020B0B489B000AF234B3C1D1D460FCD0FC495E8030003
S32D0000FFC084E803000023FB61FB69052B32DC1D4BD3F8A020FB699B0007F120010B4453F81C3C012101FA03F373
S32D0000FFE81340002B14BF01230023DBB2002B19D0FB690833124A52F823200132104941F823200E4BD3F8A0203E
S32D00010010FB699B0007F120010B4453F81C3C012101FA03F307491340C1F8A030FB690133FB61C9E700BF2437BA
S32D00010038BD46B0BC704700BF8471050000B00440A81A0020B0B48DB000AF244B3C461D460FCD0FC40FCD0FC4E2
S32D0001006095E8070084E807000023FB62FB6A0A2B32DC1D4BD3F8A020FB6A9B0007F130010B4453F8303C01210E
S32D0001008801FA03F31340002B14BF01230023DBB2002B19D0FB6A0E33124A52F823200132104941F823200E4B2F
S32D000100B0D3F8A020FB6A9B0007F130010B4453F8303C012101FA03F307491340C1F8A030FB6A0133FB62C9E782
S32D000100D800BF3437BD46B0BC704700BF9C71050000900440A81A0020B0B487B000AF224B3C461D460FCD0FC4D7
S32D000101002B68236000237B617B69042B32DC1D4BD3F8A0207B699B0007F118010B4453F8183C012101FA03F316
S32D000101281340002B14BF01230023DBB2002B19D07B691933124A52F823200132104941F823200E4BD3F8A0206A
S32D000101507B699B0007F118010B4453F8183C012101FA03F307491340C1F8A0307B6901337B61C9E700BF1C370D
S32D00010178BD46B0BC704700BFC871050000D00440A81A002080B483B000AF78607B681B781A46044B53F822308F
S32D000101A018460C37BD4680BC704700BFA81A002080B483B000AF78607B681B781946044B002243F8212000BF89
S32D000101C80C37BD4680BC7047A81A002080B483B000AF78600B46FB707B68FA781A707B6818460C37BD4680BCA1
S32D000101F07047FFFFFFFFFFFF80B586B000AF78607B681B781A463E4B53F822303B617B681B781A463B4B9B5C52
S32D00010218FB733B69DBB203F01F03DAB2384B1A723B69DBB203F01F03DAB2354B5A72354B1022C3F88820FB7BBF
S32D00010240002B13D13049324800F058FA304B1B6803F08003802B14BF01230023DBB2002B00D0F3E72A4B1B69B7
S32D000102687B6112E02649294800F044FA274B1B6803F08003802B14BF01230023DBB2002B00D0F3E7214B1B6909
S32D000102907B611E4BD3F888311C4A43F01003C2F888311A4B9B68194A43F0100393607B699BB2184634F0ACFAFA
S32D000102B80DA3D3E9002334F021FB02460B46104619460BA3D3E9002334F042FC02460B461046194634F0F4FDA8
S32D000102E00346BB60BB6818461837BD4680BD00BFA4703D0AD7A30A4000000000E0FFEF40007105005C70050048
S32D00010308881A002000E100E000B0034000B00B4080B586B000AF78607B681B781A46234B53F822303B617B6803
S32D000103301B781A46204B9B5CFB733B69DBB203F01F03DAB21D4B1A723B69DBB203F01F03DAB21A4B5A72FB7B9C
S32D00010358002B13D11749184800F0CCF9164B1B6803F08003802B14BF01230023DBB2002B00D0F3E7104B1B6992
S32D000103807B6112E00D490F4800F0B8F90D4B1B6803F08003802B14BF01230023DBB2002B00D0F3E7074B1B69E4
S32D000103A87B617B6918461837BD4680BD007105005C700500981A002000B0034000B00B4098B500AF204B5C228D
S32D000103D01A701F4B10225A701D4B41F234225A801B4B45F278629A80194B10229A71184B0722DA71164B4FF496
S32D000103F8C022DA60144B1F221A72134B1F225A721149124800F076F90F49114800F072F90F4800F0D0F80D48A0
S32D0001042000F0CDF80A490C4800F068F90849094800F064F9094A064B14460FCB84E80F00064B5C221A70054B15
S32D000104480422DA7100BF98BD881A002000B0034000B00B40981A002080B500AF064B1B680133054A136000F0E0
S32D000104703BF8044B0122C3F80C2100BF80BD00BF2C1B00200070034080B500AF0B4800F01BF80B4B0322C3F88B
S32D0001049808210A4BD3F88831084A43F01003C2F88831064B9B68054A43F01003936000BF80BD00BFA08601006A
S32D000104C00070034000E100E080B483B000AF7860044A7B68C2F8003100BF0C37BD4680BC704700BF0070034025
S32D000104E880B584B000AF174B1B68FB60FB68002B24D0FB685B78FB71FB689B68184600F023F80346BB71BB79F1
S32D00010510002B13D0FB685B68012B0FDDFB689B681B69BB60BB68002B08D0BB685B685A1CBB685A60BB681B6965
S32D00010538BB60F3E7FB68DB68FB60D7E700BF1037BD4680BD281B002080B584B000AF78607868FFF7DDFEF8603E
S32D000105607B689B695B78FB72FB7A002B0FD17B68DB68FA689A420ADD7B689B6901225A707B685B685A1C7B68A7
S32D000105885A60012313E0FB7A012B0FD17B689B68FA689A420ADA7B689B6900225A707B685B685A1C7B685A605E
S32D000105B0012300E0002318461037BD4680BD80B485B000AF78607B681B6A23F040027B681A627B685B6A23F049
S32D000105D80B027B685A627B685B6A43F007027B685A627B685B6A43F080027B685A627B681B6803F08003002BC2
S32D000106000CBF01230023DBB2002B00D0F3E77B685B6A03F04003402B0CBF01230023DBB2002B01D0012364E00B
S32D000106280023FB817B68DB6CFB817B689B6C9AB2FB891344FB817B685B6C9AB2FB891344FB817B681B6C9AB2CE
S32D00010650FB891344FB817B68DB6B9AB2FB891344FB817B689B6B9AB2FB891344FB81FB895B08FB81FB896FEA8C
S32D0001067843436FEA5343FB81FA897B68DA620023FB817B68DB6EFB817B689B6E9AB2FB891344FB817B685B6E3E
S32D000106A09AB2FB891344FB817B681B6E9AB2FB891344FB817B68DB6D9AB2FB891344FB817B689B6D9AB2FB89F0
S32D000106C81344FB81FB895B08FB81FB896FEA43436FEA5343FB81FA897B681A637B685B6A23F080027B685A6240
S32D000106F0002318461437BD4680BC704780B483B000AF786039603B681B781A467B689A603B685B781A467B6866
S32D00010718DA603B685B881A467B689A613B689B881A467B68DA613B689B791A467B681A623B68DB791A467B68C0
S32D000107405A623B68DA687B681A653B681B7A1A467B681A603B685B7A1A467B685A6000BF0C37BD4680BC704725
S32D0001076880B483B000AF78607B6818460C37BD4680BC704780B582B000AF786039607B68012B07D13B684FF6A4
S32D00010790FF72934202D10348FFF7E6FF00BF0837BD4680BD301B002080B500AF4FF6FF710120FFF7E3FF80BD83
S32D000107B880B483B000AF78600B46FB707B68FA781A707B684FF4FA725A807B6840F6C4129A807B68034A9A60EA
S32D000107E07B6818460C37BD4680BC7047000080BF80B483B000AF786039603B68B3F5FA7F04DB3B6840F6C41258
S32D00010808934204DD7B684FF4FA725A8004E03B689AB27B685A8000BF00BF0C37BD4680BC704780B483B000AF42
S32D00010830786039603B68B3F5FA7F04DB3B6840F6C412934204DD7B6840F6C4129A8004E03B689AB27B689A8047
S32D0001085800BF00BF0C37BD4680BC70472DE9904385B000AF786039604FF00001386834F023FE0346002B02D011
S32D000108804FF000033B603149386834F037FE0346002B01D02D4B3B607B689B681946386834F004FE0346002B22
S32D000108A800D04AE07B683A689A607B685C887B689B881A467B685B88D31A184633F0B4FF4FF00002204B34F0C4
S32D000108D043F902460B4690469946386833F0BAFF02460B464046494634F00CF802460B461046194634F0C8FAE9
S32D000108F803469BB22344FB81FB897B73FB891B123B737F211148FDF7AAFC05210F48FDF7A6FC7B681B7819460C
S32D000109200C48FDF7A0FC3B7B19460A48FDF79BFC7B7B19460748FDF796FCFF210548FDF792FC00BF1437BD46AC
S32D00010948BDE89083000034430080664000B00E4080B582B000AF7860B84B4FF48072DA60B74B4FF480729A6498
S32D00010970B54B4FF480721A64B34B4FF480725A64B14B4FF48072DA60B04B5B69AF4A43F008035361AE4B5B69E2
S32D00010998AD4A43F480235361AB4B5B69AA4A43F480335361A84B5B69A74A43F400335361A54B1B68A44A43F005
S32D000109C008031360A24B5B69A14A43F0080353619E4B1B689D4A43F0080313609A4B4FF480725A62984B4FF4FC
S32D000109E880721A62954B4FF480721A61934B4FF480725A61914B4FF480729A618F4B4FF48072DA618D4B4FF4A3
S32D00010A1080721A638B4B4FF480725A63894B4FF480729A63874B4FF48072DA63854B4FF480721A64834B4FF4A2
S32D00010A3880725A64814B4FF480729A647F4B4FF48072DA64814B4FF480721A607F4B4FF480729A607D4B4FF424
S32D00010A608072DA607B4B4FF480721A61784B5B69774A43F440735361744B5B69734A43F47F2343F0F0035361EC
S32D00010A88734B5B69724A43F01D035361E221786800F006FE1D21786800F0A8FE0221786800F0A4FE04217868D5
S32D00010AB000F0A0FEE021786800F0F6FD0121786800F098FE6420FEF78BFFE021786800F0EBFD0321786800F08D
S32D00010AD88DFE0121786800F0E3FD0120FEF77CFFE621786800F0DCFD0121786800F07EFEA021786800F07AFEDA
S32D00010B00FF21786800F076FEB021786800F0CCFD1C21786800F06EFE0F21786800F06AFE0121786800F066FEC1
S32D00010B283F21786800F062FE0021786800F05EFEEF21786800F05AFE0021786800F056FEB421786800F0ACFDF6
S32D00010B500121786800F04EFE9921786800F04AFE0021786800F046FE4521786800F042FE0221786800F03EFE8C
S32D00010B780021786800F03AFE0021786800F036FE0021786800F032FEB621786800F088FD0121786800F02AFE99
S32D00010BA00921786800F026FE0021786800F022FE0E21786800F01EFE0221786800F01AFE0021786800F016FECC
S32D00010BC80021786800F012FEBA21786800F068FD0F21786800F00AFE6420FEF7FDFE3A21786800F05DFD60216B
S32D00010BF0786800F0FFFD2A21786800F055FD0021786800F0F7FD0021786800F0F3FD0121786800F0EFFD3F2199
S32D00010C18786800F0EBFD2B21786800F041FD0021786800F0E3FD0021786800F0DFFD0021786800F0DBFDEF2124
S32D00010C4078680BE000B0044000A0044080F00F4040F00F4000C00440C0F00F4000F0CAFD3621786800F020FDA6
S32D00010C680021786800F0C2FDF021786800F018FD0421786800F0BAFDB821786800F010FD0F21786800F0B2FDA6
S32D00010C900121786800F0AEFD314B1B68304A43F0080313606420FEF79BFE3621786800F0FBFC0021786800F04D
S32D00010CB89DFDF021786800F0F3FC0421786800F095FD0121786800F013FA1E226F21786800F082F8AF225621BB
S32D00010CE0786800F0DBF80021786800F056FA012301221C49786800F077FA2921786800F0D3FC6420FEF76CFE48
S32D00010D08BE21786800F0CCFC0E21786800F06EFDF021786800F06AFD0121786800F066FD0021786800F062FDEE
S32D00010D300021786800F05EFD0F21786800F05AFD786800F074FA0121786800F026FA0021786800F0FBF900BFFD
S32D00010D580837BD4680BD00BF40F00F40DC71050080B582B000AF78607B680022DA617B6801221A627B680E229A
S32D00010D805A607B681A229A607B6800225A617B6800229A617B684FF4A072DA607B68F0221A617B6800221A7040
S32D00010DA8786801F06DF97B6818460837BD4680BD80B582B000AF7860064B1B78002B05D1044B01221A70786876
S32D00010DD0FFF7C2FD00BF0837BD4680BD781B002080B58AB002AFF860B9607A607E23009362237A68B968F868C7
S32D00010DF800F0A6FE40F24E733B610023FB61FA693B699A4240DA0023BB61214AFB6913441B781A46BB699342DC
S32D00010E2032DAFB6901331C4AD35C002B06D1FF23FB75FF23BB75FF237B7512E0FB690133154AD35C012B06D157
S32D00010E48D423FB750023BB7526237B7505E0B523FB75BA23BB75B0237B757B7DBA7DF97DF86800F023F9024632
S32D00010E70FB68DA61F86801F007F9F86801F040F8BB690133BB61C4E7FB690233FB61BAE700BF2037BD4680BDD0
S32D00010E980800002080B58AB002AFF860B9607A602723009395237A68B968F86800F048FE40F2E6333B61002360
S32D00010EC0FB61FA693B699A4240DA0023BB61214AFB6913441B781A46BB69934232DAFB6901331C4AD35C002BF5
S32D00010EE806D1FF23FB75FF23BB75FF237B7512E0FB690133154AD35C012B06D10023FB750023BB7500237B75FA
S32D00010F1005E0D423FB750023BB7526237B757B7DBA7DF97DF86800F0C5F80246FB68DA61F86801F0A9F8F868F0
S32D00010F3800F0E2FFBB690133BB61C4E7FB690233FB61BAE700BF2037BD4680BD5807002080B582B000AF786041
S32D00010F600B46FB707B68FA781A703621786800F09BFB7B681B78032B1ED801A252F823F0910F01009B0F010024
S32D00010F88A50F0100AF0F01000021786800F02EFC0EE00321786800F029FC09E0A321786800F024FC04E0A02162
S32D00010FB0786800F01FFC00BF7B681B78002B03D07B681B78012B0DD17B680E225A607B681A229A607B684FF468
S32D00010FD8A072DA607B68F0221A610CE07B6812225A607B6813229A607B68F022DA607B684FF4A0721A6178689D
S32D0001100000F0B2FC00BF0837BD4680BD80B485B000AF78600B46FB70FB78062B29D801A252F823F0491001003A
S32D00011028411001004F100100571001005F100100651001006D1001006FF07F43FB6014E00023FB6011E04FF4F9
S32D000110507F03FB600DE04FF47F43FB6009E0FF23FB6006E04FF41903FB6002E0044BFB6000BFFB6818461437EA
S32D00011078BD4680BC704700BF9999990080B584B000AF786039603B681B0CFB733B681B0ABB733B687B737B7B8B
S32D000110A0BA7BF97B786800F005F8034618461037BD4680BD80B487B000AF7860084611461A460346FB700B4681
S32D000110C8BB7013467B70FB789B107B61BB789B103B617B789B10FB607B691A033B699B011A43FB681343184668
S32D000110F01C37BD4680BC704780B582B000AF78600B46FB70FB7819467868FFF77FFF03461946786800F004F844
S32D0001111800BF0837BD4680BD80B582B000AF7860396039687868FFF7A9FF02467B681A62786800F0A5FF7868C9
S32D0001114000F012FC00BF0837BD4680BD80B582B000AF78600B46FB70FB7819467868FFF755FF03461946786816
S32D0001116800F004F800BF0837BD4680BD80B582B000AF7860396039687868FFF77FFF02467B681A62786800F03B
S32D000111907BFF00BF0837BD4680BD80B582B000AF78600B46FB70FB7819467868FFF72EFF03461946786800F081
S32D000111B804F800BF0837BD4680BD80B582B000AF7860396039687868FFF758FF02467B68DA61786800F054FFF0
S32D000111E000BF0837BD4680BD80B586B000AFF860B9607A603B6000237B617B69BA6813441B78002B0FD07B69C5
S32D00011208BA6813441B783A687968F86800F032FD7B680C337B607B6901337B61E9E700BF1837BD4680BD80B565
S32D0001123082B000AF7860FCF7E3FE67210120FCF74EFE00210220FCF74AFEA0210320FCF746FE50210420FCF7F9
S32D0001125842FE20210520FCF73EFE20210620FCF73AFE77210720FCF736FE00210820FCF732FE00210920FCF771
S32D000112802EFE00210A20FCF72AFE04210B20FCF726FE7B684FF0FF32DA637B684FF0FF321A6400BF0837BD46E4
S32D000112A880BDFFFFFFFFFFFF80B586B000AFF860B9607A600020FCF730FE0346FB75FB7D03F00203002B00F0F6
S32D000112D0CE80FCF743FEE020FCF7F4FD0220FEF77FFBFCF749FE0120FEF77AFBFCF736FEA520FCF7E7FD01204F
S32D000112F8FEF772FBFCF709FE03469BB21B02BB82FCF703FE03469AB2BB8A1343BB82FCF7FCFD03469BB21B027B
S32D000113207B82FCF7F6FD03469AB27B8A13437B82BB8A1B11BB827B8A1B117B82FCF71CFEFB68DB6BB3F1FF3F5A
S32D0001134834D1FB681B6CB3F1FF3F2FD1BA8AFB68DA637A8AFB681A647B8AC3F57F630F337B82BB8A184633F038
S32D000113705FFA49A3D3E9002333F0C4FA02460B461046194633F0A0FD0246BB681A607B8A184633F04DFA42A3A4
S32D00011398D3E9002333F0B2FA02460B461046194633F08EFD02467B681A605AE0FB68DA6BBB8AD31A1946F86804
S32D000113C000F074F80346632B0CDCFB681A6C7B8AD31A1946F86800F069F80346632B01DC012300E00023002BF2
S32D000113E82FD0BA8AFB68DA637A8AFB681A647B8AC3F57F630F337B82BB8A184633F014FA23A3D3E9002333F094
S32D0001141079FA02460B461046194633F055FD0246BB681A607B8A184633F002FA1CA3D3E9002333F067FA0246A6
S32D000114380B461046194633F043FD02467B681A600FE0BB68164A1A607B68154A1A60FB684FF0FF32DA63FB685C
S32D000114604FF0FF321A64002310E001230EE0BB680D4A1A607B680C4A1A60FB684FF0FF32DA63FB684FF0FF32C0
S32D000114881A64002318461837BD4680BDAFF30080144001144001B43F1EE0011EE001AE3F000080BF80B483B057
S32D000114B000AF786039603B68002B02DA3B685B423B603B6818460C37BD4680BC704780B584B000AF78603960A5
S32D000114D80023FB60786800F006FBFB683A6813441B78002B12D07B6859697B689869FB683A6813441B780246DA
S32D00011500786800F0A0FB786800F005FBFB680133FB60E6E700BF1037BD4680BD80B590B000AF7860396007F1EF
S32D000115280C033A680649184637F0F6FB07F10C0319467868FFF7C7FF00BF4037BD4680BDE871050080B592B0D1
S32D0001155000AF786039604FF00001386833F0C4FF0346002B1FD0386833F0D2FF03467B64786C33F0B3FD034667
S32D000115781946386833F0F8FC03461F49184633F0FDFD0346184633F0BFFF03463B6407F10C003B6C7A6C19499F
S32D000115A037F0BEFB22E03B6883F000433B60386833F0AEFF03467B64786C33F08FFD03461946386833F0D4FCE0
S32D000115C803460D49184633F0D9FD0346184633F09BFF03463B6407F10C003B6C7A6C084937F09AFB07F10C030D
S32D000115F019467868FFF76BFF00BF4837BD4680BD00007A44F8710500EC71050080B584B000AFF860C7E90023DE
S32D00011618D7E9000133F054FC03461946F868FFF791FF00BF1037BD4680BD80B582B000AF78603960786800F044
S32D0001164056FA39687868FFF742FF786800F03AFA00BF0837BD4680BD80B582B000AF78603960786800F043FA9D
S32D0001166839687868FFF756FF786800F027FA00BF0837BD4680BD80B584B000AFF860C7E90023F86800F02FFA9C
S32D00011690D7E90023F868FFF7B9FFF86800F012FA00BF1037BD4680BD80B483B000AF78600B46FB704D4B1B68D3
S32D000116B84C4A23F0080313604B4B1B684A4A23F480231360484B1B68474A43F480331360454B1B68444A23F446
S32D000116E040731360414B1B68404A23F4435323F0300313603E4B1A68FB785B0203F400733B4913430B603A4BA7
S32D000117081A68FB785B101B0203F48073364913430B60344B1A68FB789B101B0103F01003304913430B602F4B16
S32D000117301A68FB78DB105B0103F020032B4913430B602A4B1A68FB781B119B0103F04003264913430B60254BFB
S32D000117581A68FB785B11DB01DBB2224913430B60204B1A68FB789B111B0303F480531D4913430B601B4B1A6869
S32D0001178097F90330DB115BB25B0303F40053174913430B60164B1B68154A23F400331360134B1B68124A43F441
S32D000117A8003313600F4B1B680E4A43F0080313600D4B1B680C4A43F440731360094B1B68084A43F4435343F0CF
S32D000117D030031360064B1B68054A43F48023136000BF0C37BD4680BC704700BF80F00F4040F00F4080B483B078
S32D000117F800AF78600B46FB70464B1B68454A23F008031360444B1B68434A43F480331360414B1B68404A43F47F
S32D00011820802313603E4B1B683D4A23F4407313603A4B1B68394A23F4435323F030031360374B1A68FB785B02EE
S32D0001184803F40073344913430B60334B1A68FB785B101B0203F480732F4913430B602D4B1A68FB789B101B0177
S32D0001187003F01003294913430B60284B1A68FB78DB105B0103F02003244913430B60234B1A68FB781B119B01F2
S32D0001189803F040031F4913430B601E4B1A68FB785B11DB01DBB21B4913430B60194B1A68FB789B111B0303F450
S32D000118C08053164913430B60144B1A6897F90330DB115BB25B0303F40053104913430B600F4B1B680E4A23F45B
S32D000118E8003313600C4B1B680B4A43F400331360084B1B68074A43F008031360064B1B68054A23F480231360F7
S32D0001191000BF0C37BD4680BC704700BF80F00F4040F00F4080B586B000AF786000237B6107F10C0207F11003B1
S32D0001193819467868FFF7B8FC0346002B05D07B69B3F57A7F01DA012300E00023002B03D07B6901337B61E7E707
S32D0001196000BF1837BD4680BD80B586B000AF78607B6800225A617B6800229A617B681B6AFB60FB68FB72FB6862
S32D000119881B0ABB72FB681B0CDBB203F003037B722A217868FFF784FE00217868FFF726FF00217868FFF722FF0A
S32D000119B001217868FFF71EFF3F217868FFF71AFF2B217868FFF770FE00217868FFF712FF00217868FFF70EFF08
S32D000119D800217868FFF70AFFEF217868FFF706FF2C217868FFF75CFE314B1B68304A23F4407313602F4B1B68C5
S32D00011A002E4A23F47F2323F0F00313602C4B1B682B4A23F01D031360274B1A687B681B6B254913430B60254BFC
S32D00011A281A687B685B6B234913430B60224B1A687B689B6B204913430B601E4B1B681D4A23F0080313601A4BEC
S32D00011A501B68194A43F48023136000237B617B69EF2B19D800233B613B69B3F5A07F0FD2114B1B68104A23F4EB
S32D00011A78003313600E4B1B680D4A43F4003313603B6901333B61EBE77B6901337B61E2E7084B1B68074A43F02C
S32D00011AA008031360044B1B68034A23F48023136000BF1837BD4680BD40F00F4080F00F40C0F00F4080B483B05B
S32D00011AC800AF78607B689B69002B07DD7B685B695A1C7B685A617B6800229A6100BF0C37BD4680BC704780B58A
S32D00011AF082B000AF78607B685A697B685B689A4205DB7B6800225A617868FFF72DFF00BF0837BD4680BD80B5D1
S32D00011B1882B000AF78607B689B695A1C7B689A617B689A697B689B689A4205D17868FFF7C5FF7868FFF7D7FFE6
S32D00011B4000BF0837BD4680BD80B588B000AFF860B9607A603B60FB681B78022B03D0FB681B78032B11D17B6857
S32D00011B68FB61BA6AFB691344013BBB61FB68DA68BB68D31A3B613B683A69D31A01337B610DE0BB68FB613A6819
S32D00011B90FB691344013BBB617B687B61BA6A7B691344013B3B612A21F868FFF77DFDFB691B0ADBB203F00F03E7
S32D00011BB8DBB21946F868FFF719FEFB69DBB21946F868FFF713FEBB691B0ADBB203F00F03DBB21946F868FFF7D1
S32D00011BE009FEBB69DBB21946F868FFF703FE2B21F868FFF759FD7B691B0ADBB203F00F03DBB21946F868FFF793
S32D00011C08F5FD7B69DBB21946F868FFF7EFFD3B691B0ADBB203F00F03DBB21946F868FFF7E5FD3B69DBB219469A
S32D00011C30F868FFF7DFFD2C21F868FFF735FD00BF2037BD4680BD80B584B000AFF860B9607A60FB707A6813461F
S32D00011C585B0013449B00991CBA6813461B011344DA1CFB78F86800F005F800BF1037BD4680BDFFFF80B58EB000
S32D00011C8002AFF860B9607A60FB70FB780A2B06D1F868FFF72CFFF868FFF714FFF2E0FB787D2B02D8FB781F2BE1
S32D00011CA801D82023FB70FB78203BFB70112300930C237A68B968F868FFF742FFFA7813469B0013446F4AD35C18
S32D00011CD03B75FA7813469B00134401336B4AD35C7B75FA7813469B0013440233674AD35CBB75FA7813469B0008
S32D00011CF813440333634AD35CFB75FA7813469B00134404335F4AD35C3B760023BB62BB6A062B00F3A180F8685D
S32D00011D2000F050F9F86800F0B3F8002387F82F3000237B627B6A042B35DC07F114027B6A13441B7803F0010366
S32D00011D48002B14BF01230023FB76FB7E002B11D097F82F3083F00103DBB2002B03D0F86800F0CAF802E0F868ED
S32D00011D7000F08EF8F86800F08BF80DE097F82F30002B03D0F86800F01DF902E0F86800F07FF8F86800F07CF84F
S32D00011D98FB7E87F82F307B6A01337B62C6E797F82F30002B03D0F86800F008F902E0F86800F06AF8F86800F001
S32D00011DC067F8002387F82F3000233B623B6A042B42DC07F114023B6A13441B7803F00103002B14BF0123002309
S32D00011DE8BB76BB7E002B11D097F82F3083F00103DBB2002B03D0F86800F07EF802E0F86800F042F8F86800F0E4
S32D00011E103FF80DE097F82F30002B03D0F86800F0D1F802E0F86800F033F8F86800F030F8BB7E87F82F3007F196
S32D00011E3814023B6A13441B785B10D9B207F114023B6A13440A461A703B6A01333B62B9E7BB6A0133BB625AE72F
S32D00011E60F86800F0AFF8002387F82F300123FB61FB69232B06DCF86800F00AF8FB690133FB61F5E73037BD46BB
S32D00011E8880BD00BF400B002080B483B000AF7860174B1B68164A43F480331360154B1B68144A23F00803136062
S32D00011EB0114B1B68104A43F4802313600E4B1B680D4A23F4003313600B4B1B680A4A43F400331360094B1B68AC
S32D00011ED8084A43F008031360054B1B68044A23F48023136000BF0C37BD4680BC704700BF40F00F4080F00F4095
S32D00011F0080B483B000AF78602B4B1B682A4A43F480331360294B1B68284A23F008031360254B1B68244A43F468
S32D00011F2880231360224B1B68214A23F440731360204B1B681F4A23F47F2323F0F00313601D4B1B681C4A23F0EF
S32D00011F501D031360184B1A687B685B6A164913430B60164B1A687B689B6A144913430B60134B1A687B68DB6A31
S32D00011F78114913430B600E4B1B680D4A23F4003313600B4B1B680A4A43F400331360094B1B68084A43F00803BE
S32D00011FA01360054B1B68044A23F48023136000BF0C37BD4680BC704740F00F4080F00F40C0F00F4080B483B0B5
S32D00011FC800AF78602B4B1B682A4A43F480331360294B1B68284A23F008031360254B1B68244A43F480231360F1
S32D00011FF0224B1B68214A23F440731360204B1B681F4A23F47F2323F0F00313601D4B1B681C4A23F01D031360AA
S32D00012018184B1A687B681B6B164913430B60164B1A687B685B6B144913430B60134B1A687B689B6B1149134308
S32D000120400B600E4B1B680D4A23F4003313600B4B1B680A4A43F400331360094B1B68084A43F008031360054BE2
S32D000120681B68044A23F48023136000BF0C37BD4680BC704740F00F4080F00F40C0F00F4080B485B000AF786026
S32D000120907B681B6AFB60FB68FB72FB681B0ABB72FB681B0CDBB203F003037B727B6800225A627B6800229A621A
S32D000120B87B680022DA627B6800221A637B6800225A637B6800229A637B681A6BFB7A5B0203F400731A437B688E
S32D000120E01A637B681A6BFB7A5B101B0203F480731A437B681A637B685A6BFB7A9B101B0103F010031A437B681E
S32D000121085A637B685A6BFB7ADB105B0103F020031A437B685A637B685A6BFB7A1B119B0103F040031A437B6819
S32D000121305A637B685A6BFB7A5B11DB01DBB21A437B685A637B685A6BFB7A9B111B0303F480531A437B685A6326
S32D000121587B685A6B97F90B30DB115BB25B0303F400531A437B685A637B685A6BBB7A9B0303F480431A437B68D2
S32D000121805A637B685A6BBB7A5B10DB039BB21A437B685A637B685A6BBB7A9B101B0403F480331A437B685A63B5
S32D000121A87B685A6BBB7ADB105B0403F400331A437B685A637B685A6BBB7A1B119B0403F480231A437B685A637B
S32D000121D07B685A6BBB7A5B11DB0403F400231A437B685A637B689A6BBB7A9B1103F001031A437B689A637B68C1
S32D000121F89A6B97F90A30DB115BB29B0003F004031A437B689A637B689A6B7B7ADB0003F008031A437B689A632B
S32D000122207B689A6B7B7A5B101B0103F010031A437B689A637B68DB69FB60FB68FB72FB681B0ABB72FB681B0C57
S32D00012248DBB203F003037B727B685A6AFB7A5B0203F400731A437B685A627B685A6AFB7A5B101B0203F4807387
S32D000122701A437B685A627B689A6AFB7A9B101B0103F010031A437B689A627B689A6AFB7ADB105B0103F0200325
S32D000122981A437B689A627B689A6AFB7A1B119B0103F040031A437B689A627B689A6AFB7A5B11DB01DBB21A43B7
S32D000122C07B689A627B689A6AFB7A9B111B0303F480531A437B689A627B689A6A97F90B30DB115BB25B0303F4E4
S32D000122E800531A437B689A627B689A6ABB7A9B0303F480431A437B689A627B689A6ABB7A5B10DB039BB21A4379
S32D000123107B689A627B689A6ABB7A9B101B0403F480331A437B689A627B689A6ABB7ADB105B0403F400331A4306
S32D000123387B689A627B689A6ABB7A1B119B0403F480231A437B689A627B689A6ABB7A5B11DB0403F400231A43FC
S32D000123607B689A627B68DA6ABB7A9B1103F001031A437B68DA627B68DA6A97F90A30DB115BB29B0003F0040375
S32D000123881A437B68DA627B68DA6A7B7ADB0003F008031A437B68DA627B68DA6A7B7A5B101B0103F010031A4333
S32D000123B07B68DA6200BF1437BD4680BC7047FFFF80B582B000AF786039607B68012B07D13B684FF6FF72934245
S32D000123D802D10348FEF7C4FC00BF0837BD4680BD341B002080B500AF4FF6FF710120FFF7E3FF80BD80B582B020
S32D0001240000AF7860174B03F5815314331B68154943F0400201F5815314331A60124B4FF400725A62104B4FF464
S32D0001242800721A620F4B14225A700E4B1B7ADBB20C4A43F00103DBB213720A4B80229A7002212B20FBF7D0FCF6
S32D000124503D212A20FBF7CCFC7B6818460837BD4680BD00BF0070044000C004400060064080B582B000AF786030
S32D0001247839607B68012B07D13B684FF6FF72934202D10348FFF7B6FF00BF0837BD4680BD7C1B002080B500AFE5
S32D000124A04FF6FF710120FFF7E3FF80BD80B582B000AF78600B46FB707B68FA7811461846FDF788FE7B681846B3
S32D000124C80837BD4680BDFFFF80B582B000AF786039607B68012B08D13B684FF6FF72934203D120210348FFF775
S32D000124F0DDFF00BF0837BD4680BD00BF801B002080B500AF4FF6FF710120FFF7E1FF80BD80B483B000AF78606E
S32D000125187B6800221A707B6818460C37BD4680BC7047FFFF80B483B000AF78603960044A3B68136000BF0C37A0
S32D00012540BD4680BC704700BF841B002080B582B000AF3248FBF76EFE0346FB71304AFB791370304B01221A70BC
S32D000125682F4B1B78022B33D0022B4FDC002B02D0012B14D04AE0FB79FF2B44D1284B01221A70284B00221A7086
S32D00012590264B1B785A1CD1B2244A11701946244AFB79535433E0214B1B785A1CD1B21F4A117019461E4AFB7918
S32D000125B853541C4B1B780D2B27D11C4B1B68194A1278114618489847154B02221A701CE0FB79FF2B10D1124BD0
S32D000125E001221A70114B00221A70104B1B785A1CD1B20E4A117019460D4AFB79535409E00A4B00221A70084B49
S32D0001260800221A7002E000BF00E000BF00BF0837BD4680BD00A006409B1B00209A1B0020991B0020981B002041
S32D00012630881B0020841B002080B582B000AF78607B681846FFF764FF7B6811491846FFF76DFF7B684FF0FF3221
S32D000126585A600E4B4FF000021A600D4B4FF000021A600C4B4FF000021A600B4B00221A600A4B00221A700A4B18
S32D0001268000221A707B6818460837BD4680BD00BFAD260100A81B0020AC1B0020B01B0020B41B0020B81B002095
S32D000126A8B91B002080B582B000AF78600B46FB703B4B1B78002B6ED07B6801331B781B027A6802321278134425
S32D000126D0184632F003FD03463449184632F006FE03463349184632F043FC03461A46314B1A607B6803331B7842
S32D000126F81B027A68043212781344184632F0EAFC03462849184632F0EDFD03462649184632F02AFC03461A460C
S32D00012720254B1A607B6805331B781B027A68063212781344184632F0D1FC03461B49184632F0D4FD03461A49E3
S32D00012748184632F011FC03461A461A4B1A607B680A331B781A46184B1A607B68DA7A174B1A707B680C331B7885
S32D00012770AA2B0CBF01230023DAB2134B1A70134B01221A70104B1B78002B08D0104800F053F8104B1B680F4A19
S32D0001279823F40053136000BF0837BD4680BD00BFA41B0020000020410000C844A81B0020AC1B0020B01B002037
S32D000127C0B41B0020B81B0020B91B0020BA1B0020BC1B0020C0F00F4080B582B000AF786039607B68012B07D1BB
S32D000127E83B684FF6FF72934202D10348FFF720FF00BF0837BD4680BD9C1B002080B500AF4FF6FF710120FFF79C
S32D00012810E3FF80BD80B483B000AF7860054B00221A60044B00225A607B6818460C37BD4680BC7047BC1B002004
S32D0001283880B584B000AF7860154B1B68002B21D00023FB60124B5B68FA689A4214DA114AFB6852F82330002B32
S32D000128600AD00E4AFB6852F823301846FBF723FF03461A460A4B1A70FB680133FB60E5E7054B00225A60044BE4
S32D0001288800221A60044B1B7818461037BD4680BDBC1B0020C81B0020C41B002080B582B000AF786039607B685B
S32D000128B0012B07D13B684FF6FF72934202D10348FFF7A8FF00BF0837BD4680BDBC1B002080B500AF4FF6FF713E
S32D000128D80120FFF7E3FF80BD80B483B000AF78600B4B03F5815310331B68094943F0010201F5815310331A60B6
S32D00012900064B5B68054A43F03203536000BF0C37BD4680BC704700BF0070044000000A4003460846194633F05C
