S01200002E2E2F48382D526F626F742E733139A4
S32D0000C000000000205DC2000011C3000017C300001DC3000023C3000029C3000000000000000000000000000073
S32D0000C028000000002FC3000035C30000000000003BC3000041C30000EDC70000F9C7000005C8000011C80000E4
S32D0000C0501DC8000029C8000035C8000041C800004DC8000059C8000065C8000071C800007DC8000089C80000B4
S32D0000C07895C80000A1C80000ADC80000B9C80000C5C80000D1C80000DDC80000E9C80000F5C8000001C90000DB
S32D0000C0A00DC9000019C9000025C9000031C900003DC9000049C9000055C9000061C900006DC9000079C90000FA
S32D0000C0C885C9000091C900009DC90000A9C90000B5C90000C1C90000CDC90000D9C90000E5C90000F1C9000022
S32D0000C0F0FDC900002D0C010009CA000015CA000021CA00002DCA000039CA000045CA000051CA00005DCA00003A
S32D0000C11869CA000075CA000081CA00008DCA000099CA0000A5CA0000B1CA0000BDCA0000C9CA0000D5CA0000DF
S32D0000C140E1CA0000EDCA0000F9CA000005CB000091ED000011CB00001DCB000029CB000035CB000041CB00009A
S32D0000C1684DCB000059CB000065CB000071CB00007DCB000089CB000095CB0000A1CB0000ADCB0000B9CB00009D
S32D0000C190C5CB0000D1CB0000DDCB0000C9E9000079E8000029E9000069C500006DEA0000E9CB0000F5CB00008F
S32D0000C1B801CC00006421020000000020D0160000642102000000FF1F00000000D01600207C0400000000FF1FB6
S32D0000C1E00000000080B489B000AFF860B9607A60BB68FB61FB68BB6100237B617A697B689A420BD2BA69131DFB
S32D0000C208BB61FB69191DF96112681A607B6904337B61EFE700BF2437BD4680BC704780B485B000AF786039609E
S32D0000C2307B68FB600023BB60BA683B689A4208D2FB681A1DFA6000221A60BB680433BB60F2E700BF1437BD46FE
S32D0000C25880BC704780B586B000AF72B6234B4CF220521A80214B4DF628121A80204B4FF4E9721A801F4B7B615F
S32D0000C2807B691F4A934214D27B691A1D7A611B683B617B691A1D7A611B68FB607B691A1D7A611B68BB60BA68E9
S32D0000C2A8F9683869FFF79AFFE6E77B69134A93420ED27B691A1D7A611B68FB607B691A1D7A611B68BB60B9688B
S32D0000C2D0F868FFF7A8FFECE70B4B7B600B4A7B681A600EF06BFF62B600F004FA00F000F9FEE700BF0E2005401F
S32D0000C2F800200540BCC10000D4C10000E4C1000008ED00E000C0000080B400AFFEE780B400AFFEE780B400AFF4
S32D0000C320FEE780B400AFFEE780B400AFFEE780B400AFFEE780B400AFFEE780B400AFFEE780B400AFFEE780B426
S32D0000C34800AFFEE7FFFFFFFFFFFFFFFFFFFFFFFFFFFFFFFFFFFFFFFFFFFFFFFFFFFFFFFFFFFFFFFFFFFFFFFF57
S32D0000C370FFFFFFFFFFFFFFFFFFFFFFFFFFFFFFFFFFFFFFFFFFFFFFFFFFFFFFFFFFFFFFFFFFFFFFFFFFFFFFFFC7
S32D0000C398FFFFFFFFFFFFFFFFFFFFFFFFFFFFFFFFFFFFFFFFFFFFFFFFFFFFFFFFFFFFFFFFFFFFFFFFFFFFFFFF9F
S32D0000C3C0FFFFFFFFFFFFFFFFFFFFFFFFFFFFFFFFFFFFFFFFFFFFFFFFFFFFFFFFFFFFFFFFFFFFFFFFFFFFFFFF77
S32D0000C3E8FFFFFFFFFFFFFFFFFFFFFFFFFFFFFFFFFFFFFFFFFFFFFFFFFFFFFFFFFFFFFFFFFFFFFFFFFEFFFFFF50
S32D0000C41010B5054C237833B9044B13B10448AFF300800123237010BDD016002000000000D41F020008B5034B56
S32D0000C4381BB103490348AFF3008008BD00000000D4160020D41F020080B483B000AF78607B6818460C37BD4618
S32D0000C46080BC704780B582B000AF78600021074803F00AFA0121054803F057FA0021034803F032F900BF08372B
S32D0000C488BD4680BDCC19002080B582B000AF7860396038680FF090FF024613465B0013445B00C3F1A0031A4627
S32D0000C4B078233968034803F05FFA00BF0837BD4680BD00BFCC19002080B582B000AF7860054804F03FFB0346D7
S32D0000C4D81946044803F046FC00BF0837BD4680BD181A0020CC19002090B585B000AF0023FB60012004F082FD86
S32D0000C50003461C462046FFF7A3FFBC60B868FFF7A9FF1349B868FFF7BBFF3A463B1D1946104803F08DFA03460C
S32D0000C52883F00103DBB2002B00D0F2E73A463B1D19460A4803F080FA0346002B00D0F5E7B868FFF78BFFB86837
S32D0000C550FFF7BAFF002318461437BD4690BD00BF44070200CC19002080B500AF0F4BD3F8A03003F48053002B13
S32D0000C57814BF01230023DBB2002B10D0094BD3F8A030084A23F48053C2F8A030064804F0BFFC064B1B68054A0E
S32D0000C5A023F40053136000BF80BD00BF00C00440541A0020C0F00F4080B400AF124B4FF480725A63114B5B69F2
S32D0000C5C8104A43F4005353610E4B1B680D4A43F4005313600A4B0C4A1A630C4BD3F888310A4A43F08063C2F856
S32D0000C5F08831084B9B68074A43F08063936000BFBD4680BC704700BF00C00440C0F00F4003010A0000E100E06E
S32D0000C61880B400AF324B00225A70314B98221A702F4B9B79DBB203F01003002B14BF01230023DBB2002B00D0FA
S32D0000C640F2E7294B9B79DBB29B0803F00303022B14BF01230023DBB2002B00D0F1E7224B18221A71204B0022DC
S32D0000C6685A71204B03F5825304331F4A1A601C4B54225A711A4B9B79DBB203F02003002B0CBF01230023DBB2F9
S32D0000C690002B00D0F2E7144B9B79DBB203F04003002B0CBF01230023DBB2002B00D0F2E70D4B1B78DBB20C4A06
S32D0000C6B803F03F03DBB21370094B9B79DBB29B0803F00303032B14BF01230023DBB2002B00D0F1E70023184655
S32D0000C6E0BD4680BC704700BF00400640007004400000130180B500AF344B03F5815318331B68324943F47852B0
S32D0000C70801F5815318331A60FFF752FFFFF780FF2D4B58221A602C4B1B684FF47A7202FB03F32A4A1360294BD5
S32D0000C7301B681A46254B03F5825304331B681B0E03F00F030133B2FBF3F31A46224B1A601E4B03F581531C3341
S32D0000C7581B681C4943F0225201F581531C331A60184B03F5815310331B68164943F0006201F5815310331A6021
S32D0000C780164B4FF480721A61642001F051FF134B5B69124A23F010035361104B00221A600E4B10225A610E48CA
S32D0000C7A802F0CEFE02F0A4FA02F002FB0B4801F09FFF0B4804F000FC4FF4FA6002F01CF800BF80BD00700440AE
S32D0000C7D018190020141900201C19002000D00340CC19002010190020C41A002080B500AFFFF7A9FD00BF80BD6D
S32D0000C7F880B500AFFFF7A3FD00BF80BD80B500AFFFF79DFD00BF80BD80B500AFFFF797FD00BF80BD80B500AFDF
S32D0000C820FFF791FD00BF80BD80B500AFFFF78BFD00BF80BD80B500AFFFF785FD00BF80BD80B500AFFFF77FFD5E
S32D0000C84800BF80BD80B500AFFFF779FD00BF80BD80B500AFFFF773FD00BF80BD80B500AFFFF76DFD00BF80BDF4
S32D0000C87080B500AFFFF767FD00BF80BD80B500AFFFF761FD00BF80BD80B500AFFFF75BFD00BF80BD80B500AF1A
S32D0000C898FFF755FD00BF80BD80B500AFFFF74FFD00BF80BD80B500AFFFF749FD00BF80BD80B500AFFFF743FDD6
S32D0000C8C000BF80BD80B500AFFFF73DFD00BF80BD80B500AFFFF737FD00BF80BD80B500AFFFF731FD00BF80BD30
S32D0000C8E880B500AFFFF72BFD00BF80BD80B500AFFFF725FD00BF80BD80B500AFFFF71FFD00BF80BD80B500AF56
S32D0000C910FFF719FD00BF80BD80B500AFFFF713FD00BF80BD80B500AFFFF70DFD00BF80BD80B500AFFFF707FD4D
S32D0000C93800BF80BD80B500AFFFF701FD00BF80BD80B500AFFFF7FBFC00BF80BD80B500AFFFF7F5FC00BF80BD6D
S32D0000C96080B500AFFFF7EFFC00BF80BD80B500AFFFF7E9FC00BF80BD80B500AFFFF7E3FC00BF80BD80B500AF94
S32D0000C988FFF7DDFC00BF80BD80B500AFFFF7D7FC00BF80BD80B500AFFFF7D1FC00BF80BD80B500AFFFF7CBFCC9
S32D0000C9B000BF80BD80B500AFFFF7C5FC00BF80BD80B500AFFFF7BFFC00BF80BD80B500AFFFF7B9FC00BF80BDAA
S32D0000C9D880B500AFFFF7B3FC00BF80BD80B500AFFFF7ADFC00BF80BD80B500AFFFF7A7FC00BF80BD80B500AFD0
S32D0000CA00FFF7A1FC00BF80BD80B500AFFFF79BFC00BF80BD80B500AFFFF795FC00BF80BD80B500AFFFF78FFC40
S32D0000CA2800BF80BD80B500AFFFF789FC00BF80BD80B500AFFFF783FC00BF80BD80B500AFFFF77DFC00BF80BDE5
S32D0000CA5080B500AFFFF777FC00BF80BD80B500AFFFF771FC00BF80BD80B500AFFFF76BFC00BF80BD80B500AF0B
S32D0000CA78FFF765FC00BF80BD80B500AFFFF75FFC00BF80BD80B500AFFFF759FC00BF80BD80B500AFFFF753FCB8
S32D0000CAA000BF80BD80B500AFFFF74DFC00BF80BD80B500AFFFF747FC00BF80BD80B500AFFFF741FC00BF80BD21
S32D0000CAC880B500AFFFF73BFC00BF80BD80B500AFFFF735FC00BF80BD80B500AFFFF72FFC00BF80BD80B500AF47
S32D0000CAF0FFF729FC00BF80BD80B500AFFFF723FC00BF80BD80B500AFFFF71DFC00BF80BD80B500AFFFF717FC30
S32D0000CB1800BF80BD80B500AFFFF711FC00BF80BD80B500AFFFF70BFC00BF80BD80B500AFFFF705FC00BF80BD5C
S32D0000CB4080B500AFFFF7FFFB00BF80BD80B500AFFFF7F9FB00BF80BD80B500AFFFF7F3FB00BF80BD80B500AF85
S32D0000CB68FFF7EDFB00BF80BD80B500AFFFF7E7FB00BF80BD80B500AFFFF7E1FB00BF80BD80B500AFFFF7DBFBAB
S32D0000CB9000BF80BD80B500AFFFF7D5FB00BF80BD80B500AFFFF7CFFB00BF80BD80B500AFFFF7C9FB00BF80BD9B
S32D0000CBB880B500AFFFF7C3FB00BF80BD80B500AFFFF7BDFB00BF80BD80B500AFFFF7B7FB00BF80BD80B500AFC1
S32D0000CBE0FFF7B1FB00BF80BD80B500AFFFF7ABFB00BF80BD80B500AFFFF7A5FB00BF80BD80B500AFFFF79FFB23
S32D0000CC0800BF80BD80B483B000AF03460A46FB711346BB71BB79002B03D1134B00221A7002E0114B01221A703A
S32D0000CC303823FB710E4B1A78FB791343FB710D4B9B78DBB20B4A43F01003DBB29370094B9B78DBB2074A43F053
S32D0000CC582003DBB29370054AFB79137100BF0C37BD4680BC704700BFEC1600200060064080B483B000AF0123FB
S32D0000CC807B607B68312B04DC00BF7B6801337B60F7E700BF0C37BD4680BC704780B582B000AF03460A46FB71EA
S32D0000CCA81346BB71134B1B7800211846FFF7AAFF00F024F8104AFB79137100F01FF80E4ABB79137100F01AF853
S32D0000CCD00B4B9B78DBB20A4A23F02003DBB29370074B9B78DBB2064A23F01003DBB29370FFF7C2FF00BF083779
S32D0000CCF8BD4680BDED1600200060064080B483B000AF174B1B78002B24D100237B60154BDB78DBB203F00203A4
S32D0000CD20002B0CBF01230023DBB2002B0DD07B6842F21072934203DD0B4B01221A7004E07B6801337B6000BF2D
S32D0000CD48E5E7084BDB78DBB2064A43F00203DBB2D37000E000BF0C37BD4680BC704700BFEE1600200060064005
S32D0000CD7080B582B000AF0346FB71FB79184600F05FF800BF0837BD4680BD80B582B000AF03460A46FB711346FF
S32D0000CD98BB7100F035F8FB795B00DBB21846FFF7E3FFBB791846FFF7DFFF00F037F800BF0837BD4680BD80B59A
S32D0000CDC000AFFF2000F03CF80346184680BD80B584B000AF0346FB7100F016F8FB795B005BB243F001035BB284
S32D0000CDE8DBB21846FFF7C0FFFFF7E5FF0346FB7300F014F8FB7B18461037BD4680BDFFFF80B400AF044B9B6862
S32D0000CE10034A43F48013936000BFBD4680BC704740F00F4080B400AF044B5B68034A43F48013536000BFBD4635
S32D0000CE3880BC704740F00F4080B485B000AF0346FB710023BB73164BDB6A03F00043012B0CBF01230023DBB295
S32D0000CE60002B03D0FB7B0133FB73F0E70E4BDB6A0D4A43F00043D3620B4AFB7953630A4BDB6A03F40033002BA9
S32D0000CE880CBF01230023DBB2002B00D0F3E7044B9B6BBB73BB7B18461437BD4680BC704700C00A40FFFFFFFFAA
S32D0000CEB080B582B000AF224B03F5815310331B681F4943F4805201F5815310331A601D4B4FF480721A651C4BC4
S32D0000CED85B691B4A43F480135361FFF79FFF174B4FF400725A65154B4FF400729A65134B4FF40072DA65134B57
S32D0000CF00134A1A60114B134ADA6000237B607B68092B06DCFF20FFF72BFF7B6801337B60F5E705A1D1E90001D4
S32D0000CF2801F080FC00BF0837BD4680BDAFF300809A9999999999B93F0070044000A0044040F00F4000C00A405E
S32D0000CF50000C00800500003E90B486B000AFF860B9607A60FB68594A93420CD1584B03F5815314331B685649E0
S32D0000CF7843F4806201F5815314331A604FE0FB68524A93420CD1504B03F5815314331B684D4943F4006201F5B1
S32D0000CFA0815314331A603EE0FB684B4A93420CD1474B03F5815314331B68454943F4805201F5815314331A60BC
S32D0000CFC82DE0FB68434A93420CD13F4B03F5815314331B683C4943F4005201F5815314331A601CE0FB683C4AEE
S32D0000CFF093420CD1364B03F5815308331B68344943F4806201F5815308331A600BE0304B03F5815308331B6851
S32D0000D0182D4943F4006201F5815308331A60FB68DB78DBB223F00C03DAB2FB68DA70FB6800229A70BB684FF4C9
S32D0000D0407A7202FB03F27B681B0192FBF3F39CB2FB681B78DBB223F01F03FB7523461B12DBB203F01F03DAB238
S32D0000D068FB7D1343DAB2FB681A70E2B2FB685A70BB684FF4FA4202FB03F27B681B0192FBF3F39AB263019BB28F
S32D0000D090D31A9CB2FB689B7ADBB223F01F03FB75E3B203F01F03DAB2FB7D1343DAB2FB689A72FB68DB78DBB24B
S32D0000D0B843F00C03DAB2FB68DA7000BF1837BD4690BC704700A006400070044000B0064000C0064000D006400F
S32D0000D0E000A00E4080B483B000AF78607B681B79DBB203F02003002B0CBF01230023DBB2002B00D0F2E77B68AB
S32D0000D108DB79DBB218460C37BD4680BC704780B487B000AFF860B9607A60FB687B617B685A1E7A60002B14BFAA
S32D0000D13001230023DBB2002B06D07B695A1C7A61BA68D2B21A70EEE700BF1C37BD4680BC704780B584B000AFA2
S32D0000D158786039607B681B6BFB60FA683B689A4252D07B681B79002B35D07B6858787B6803F134010123FA6885
S32D0000D18001F0F4F80346002B14BF01230023DBB2002B01D001233CE07B6800221A717B685A6A7B681B6A134457
S32D0000D1A8FA689A4217D27B68DB78FB72FB7A012B11D97B681B6AFA681344FB607B6858787B6803F134010123A5
S32D0000D1D0FA6801F0CBF8FB7A013BFB72EAE73B68002B15D07B6858787B6803F1340101233A6800F0D7FF0346E5
S32D0000D1F8002B14BF01230023DBB2002B01D0012303E07B683A681A63002318461037BD4680BD80B584B000AF12
S32D0000D220786000217868FFF794FF0346FB73FB7B002B40F091807B681B78032B7BD17B685B79002B77D07B68E9
S32D0000D24800221A637B6834334FF4007200211846FFF75DFF7B68552283F832227B68AA2283F833227B6852224A
S32D0000D27083F834207B68522283F835207B68612283F836207B68412283F837207B68722283F818227B687222A8
S32D0000D29883F819227B68412283F81A227B68612283F81B227B681B69DAB27B6883F81C227B681B699BB21B1227
S32D0000D2C0DAB27B6883F81D227B681B691B0CDAB27B6883F81E227B681B691B0EDAB27B6883F81F227B68DB687E
S32D0000D2E8DAB27B6883F820227B68DB689BB21B12DAB27B6883F821227B68DB681B0CDAB27B6883F822227B68C1
S32D0000D310DB681B0EDAB27B6883F823227B6858787B6803F134017B685A69012301F01EF87B6800225A717B6811
S32D0000D3385B7800220021184601F0E0F80346002B14BF01230023DBB2002B01D00123FB73FB7B18461037BD46C3
S32D0000D36080BD80B582B000AF78600B467B807B68002B08D07B681B78002B04D07B68DB887A889A4201D00923AC
S32D0000D38811E07B685B78184601F03AF9034603F00103002B14BF01230023DBB2002B01D0032300E000231846B9
S32D0000D3B00837BD4680BD80B586B000AF78607B681A687B689B8819461046FFF7CAFF0346FB75FB7D002B40F073
S32D0000D3D8A8807B689B7903F02003002B00F0A1807B689B7903F04003002B1BD07B681B6858787B6803F128013D
S32D0000D4007B689A69012300F0B1FF0346002B14BF01230023DBB2002B01D0012386E07B689B7923F04003DAB2DA
S32D0000D4287B689A717B681A687B68DB6919461046FFF78BFE0346FB75FB7D002B71D17B681B6A3B613B690B33A4
S32D0000D4501A783B690B3342F02002D2B21A707B68DA683B691C33D2B21A707B68DB689BB21A123B691D33D2B29B
S32D0000D4781A707B68DB681A0C3B691E33D2B21A707B68DB681A0E3B691F33D2B21A707B681A693B691A33D2B280
S32D0000D4A01A707B681B699BB21A123B691B33D2B21A707B681B691A0C3B691433D2B21A707B681B691B0C9BB293
S32D0000D4C81A123B691533D2B21A700023FB603B691633FA68D2B21A70FB689BB21A123B691733D2B21A70FB68FA
S32D0000D4F01A0C3B691833D2B21A70FB681A0E3B691933D2B21A707B689B7923F02003DAB27B689A717B681B6855
S32D0000D51801221A717B681B681846FFF77AFE0346FB75FB7D18461837BD4680BD80B584B000AF78607868FFF721
S32D0000D5403AFF0346FB73FB7B002B02D17B6800221A60FB7B18461037BD4680BD80B588B000AF7860396080234F
S32D0000D5683B610F23FB604FF0FF337B610223FB61FB69B3F5807F23D80123BB61BB69102B1AD8FB69BA6902FB83
S32D0000D59003F33A6802FB03F27B68D31ABB60BB68002B09DBBB687A699A4205D9BB687B61FB693B61BB69FB6088
S32D0000D5B8BB690133BB61E1E7FB695B00FB61D7E71D4BDB6A1C4A23F00803D3621A4BDB6A23F47F2323F47F636E
S32D0000D5E0BB613B695B081B029AB2FB68013B1B01DBB21A43BB691343114A43F46023D3620F4B5B6A03F008030B
S32D0000D608002B0CBF01230023DBB2002B03D00A2001F0F2F8F0E7084BDB6A074A43F00803D362054B1B6B044AD0
S32D0000D63043F48013136300BF2037BD4680BD00BF00100B4080B582B000AF786039607B6800221A60424B434AFC
S32D0000D658DA62414BDB6A03F08073002B14BF01230023DBB2002B00D0F3E73B4B0022C3F8C020394B4FF481324D
S32D0000D6805A60374B28229A62354B4FF001125A643B689B6834491846FFF760FF304B5B6A03F00303002B14BF5D
S32D0000D6A801230023DBB2002B00D0F3E72D4B40F243421A602B4B40F243425A60294B4FF488629A60274B40F2DC
S32D0000D6D04342DA60254B40F243421A61234B40F243425A61224B03F5815310331B68204943F4003201F5815350
S32D0000D6F810331A60184B4FF6FF721A63164B1B4A5A63154BDB6A144A43F00063D362124BDB6A03F00063002B3D
S32D0000D72014BF01230023DBB2002B00D0F3E70C4B5B6A03F48033002B14BF01230023DBB2002B02D07B680122C4
S32D0000D7481A60054B1B6B044A43F080031363002318460837BD4680BD00100B400080000160CC050000D00440C8
S32D0000D77000700440B3007F0080B400AF064B5A6A40F207331340002B14BF01230023DBB21846BD4680BC7047C8
S32D0000D79800100B4080B485B000AF7860074B1B6B7A681340FB60FB68002B00D1F6E7FB6818461437BD4680BC29
S32D0000D7C0704700BF00100B4080B584B000AF78607B681B7803F03F03764A52F82330FB60FB68002B05D17B68D0
S32D0000D7E81B78002B01D00123DCE0714B1B6B704A43F0800313636E4B5B6A03F00103002B14BF01230023DBB235
S32D0000D810002B00D0F3E7684A7B685B689360FB6823F44003FB607B685B789B0503F44003FA681343FB607B682C
S32D0000D8385B78022B03D1FB6843F40013FB607B685B78042B16D1FB6803F44033B3F5003F08D1FB6823F44033A0
S32D0000D860FB60FB6843F44033FB6007E0FB6823F44033FB60FB6843F40033FB604E4B5B684D4A9BB253607B68AA
S32D0000D888DB68002B2AD0FB6803F44033B3F5403F03D0FB6843F40013FB607B681B7A002B03D0FB6843F010031C
S32D0000D8B0FB607B68DB68012B03D9FB6843F02003FB607B68DB68B3F1FF3F0BD03A4B5A687B68DB681B043849BD
S32D0000D8D813434B60FB6843F00203FB60344B00221A60334AFB68D3603248FFF753FF0346012B14BF01230023AC
S32D0000D900DBB2002B09D02C4B1B6B2B4A43F4702343F001031363012348E0274B1B6B03F08003002B14BF0123A3
S32D0000D9280023DBB2002B07D0214B1B6B204A43F001131363012335E01D4B1B6B03F48033002B14BF01230023F0
S32D0000D950DBB2002B08D0184B1B6B174A43F0011313634FF0FF3321E0FB6803F44033002B15D0114B1A697B6801
S32D0000D9781A61FB6803F44033B3F5803F0BD10C4B5A697B685A610A4B9A697B689A61084BDA697B68DA61064B03
S32D0000D9A01B6B054A43F001031363002318461037BD4680BD5807020000100B4001000E0080B592B000AF786006
S32D0000D9C8396000237B643B68BB63994B7B637B6B002B02D140F6012362E3964B3B633B6B002B02D140F60B2309
S32D0000D9F05AE33B6B1B68FB62FB6A002B02D140F60B2351E37B6841F20932934200F242837B68B3F5985F08D80C
S32D0000DA187B68032B00F01D837B68092B00F00C8334E37B68A3F59853013B082B00F22E8301A252F823F000BF5B
S32D0000DA4065DA000055DD0000B3DF00006BDD0000A9DD0000D3DE00001BDF00005DDE000077DE00007649786B0A
S32D0000DA68FFF7ECFD78647B6C002B40F01383002387F84330002387F82B30002387F82A30002387F829300023D1
S32D0000DA9087F84230002387F8283000233B7200237B720023FB6000233B7400237B6107F108031846FFF788FE71
S32D0000DAB80346002B14BF01230023DBB2002B02D001237B64EBE240F24C4000F095FE08233B7200237B724FF4EC
S32D0000DAE0D573FB6000233B7400237B6107F108031846FFF769FEF863FB6B002B09D1BA69FB689A4202D00123C8
S32D0000DB087B64CCE2012387F84230012387F8283097F82830002B00F0A58037233B7200237B720023FB60002373
S32D0000DB303B7400237B6107F108031846FFF744FEF863FB6B002B02D001237B64ABE269233B7200237B720023C6
S32D0000DB58FB6000233B7400237B6107F108031846FFF72EFE0346002B14BF01230023DBB2002B02D001237B64D5
S32D0000DB8091E2BB6903F44013002B6FD00023FB630A2000F035FEFB6B0133FB6337233B7200237B720023FB60D1
S32D0000DBA800233B7400237B6107F108031846FFF707FE0346002B14BF01230023DBB2002B02D001237B6428E0FF
S32D0000DBD069233B7200237B7297F84230002B02D0184BFB6002E04FF44013FB6000233B7400237B6107F108037B
S32D0000DBF81846FFF7E5FD0346002B14BF01230023DBB2002B02D001237B6406E0BB69002B03DBFB6B632B00D8CF
S32D0000DC20B6E77B6C002B40F03B82FB6B632B0BD9002387F8423019E004170020081900204C0702000000304014
S32D0000DC48012387F8433097F84230002B0AD0002387F84230BB6903F08043002B02D0012387F8423097F82A30A9
S32D0000DC70002B02D07B6B07221A6097F82930002B02D07B6B08221A6097F82B30002B02D07B6B04221A6097F895
S32D0000DC984330002B09D07B6B02221A6097F84230002B02D07B6B03221A6097F82B30002B0DD097F84330002BC1
S32D0000DCC009D07B6B05221A6097F84230002B02D07B6B06221A60A04B00221A609E4B00225A609D4B00229A6000
S32D0000DCE89B4B0022DA609A4B00221A61984B00225A61FB6A9A68FB6A5B6819461046FFF729FC934B40F2434296
S32D0000DD101A60914B40F243425A608F4B4FF488629A608D4B40F24342DA608B4B40F243421A61894B40F24342C1
S32D0000DD385A61884B03F5815310331B68854943F4003201F5815310331A60A8E1B86BFFF737FDF863FB6B002B1D
S32D0000DD6000F0A08102237B649CE1BB6B002B02D10C237B6497E17A4BDB6A1B0A5B0003F4FF73FB63764BDB6A02
S32D0000DD881B0903F00F035A1CFB6B02FB03F3FB63FB6A9A68FB6BB2FBF3F2BB6B1A607EE1BB6B002B02D10C2366
S32D0000DDB07B6478E1BB6B1B68002B02D10C237B6471E1FFF7D9FC0346002B0CBF01230023DBB2002B3ED0604B44
S32D0000DDD800221A605E4B00225A605D4B00229A605B4B0022DA605A4B00221A61584B00225A61FB6A9A68BB6BE7
S32D0000DE001B6819461046FFF7A9FB534B40F243421A60514B40F243425A604F4B4FF488629A604D4B40F2434236
S32D0000DE28DA604B4B40F243421A61494B40F243425A61484B03F5815310331B68454943F4003201F5815310339B
S32D0000DE501A6028E140F60A237B6424E1BB6B002B02D10C237B641EE13D4B5B68C3F30C02BB6B1A6017E1BB6BDC
S32D0000DE78002B02D10C237B6411E1FFF779FC0346002B0CBF01230023DBB2002B19D0BB6B1B68B3F5805F02D3E7
S32D0000DEA00C237B64FFE02E4B5B682D4A23F4FF5323F01F0353602A4B5A68BB6B1B68C3F30C03274913434B604D
S32D0000DEC8EDE040F60A237B64E9E0BB6B002B02D10C237B64E3E0204B9B6A5B0803F00303FB63FB6B002B03D1D0
S32D0000DEF0BB6B00221A60D6E0FB6B012B03D1BB6B01221A60CFE0FB6B102B03D1BB6B02221A60C8E005237B64CC
S32D0000DF18C5E0BB6B002B02D10C237B64BFE0FFF727FC0346002B0CBF01230023DBB2002B37D0BB6B1B68002B33
S32D0000DF4010D1074B9B6A064A23F006039362044B034A9B6A9362A6E000D004400070044000100B40BB6B1B6832
S32D0000DF68012B0CD1504B9B6A4F4A23F0060393624D4B9B6A4C4A43F0020393628FE0BB6B1B68022B0AD1484B25
S32D0000DF909B6A474A23F006039362454B444A9B6A936280E005237B647DE040F60A237B6479E0BB6B002B02D121
S32D0000DFB80C237B6473E03C4BDB6A3B4A43F00063D362394BDB6A03F00063002B14BF01230023DBB2002B00D0D2
S32D0000DFE0F3E7334B1B6B03F08003002B14BF01230023DBB2002B08D02D4B1B6B2C4A43F0800313637B6B002242
S32D0000E0081A60294B5B6A03F48033002B14BF01230023DBB2002B07D07B6B1B68002B06D17B6B01221A6002E0E9
S32D0000E0307B6B00221A607B6B1A68BB6B1A6032E0BB6B1C221A60BB6B043304221A60BB6B08334FF41E721A609D
S32D0000E05825E00220FFF79EFB134B1B6B03F4E003002B14BF01230023DBB2002B07D00E4B1B6B0D4A43F4E00302
S32D0000E080136304237B640A4B1B6B094A43F03203136308E040F609237B6404E000BF02E000BF00E000BF7B6CF7
S32D0000E0A818464837BD4680BD00100B4080B489B000AF786039607B687B61364B3B613B69002B01D100235FE066
S32D0000E0D03B691B68022B0BD03B691B68032B07D03B691B68072B03D03B691B68082B0BD12B4B5B6A03F0040330
S32D0000E0F8002B14BF01230023DBB2002B00D0F3E73B68FB61FB69002B3DD0FB69B3F5007F28BF4FF40073FB6035
S32D0000E120FB6803339B08BB61BB69002B2AD01C4B1B6B03F4E003002B14BF01230023DBB2002B09D0164B1B6BAC
S32D0000E148154A43F4E00343F02003136300231BE0114B5B6A03F40063002B0CBF01230023DBB2002B00D0F3E72C
S32D0000E1700B497B691A1D7A610A6A1A60BB69013BBB61D1E7FA69FB68D31AFB61BEE7012318462437BD4680BC45
S32D0000E198704700BF0417002000100B4080B58EB000AFB9607A601A460346FB731346BB73414B7B63FB7B002B8F
S32D0000E1C002D1BB7B002B01D1042375E03D4B1B78DBB203F00103002B14BF01230023DBB2002B01D0032367E0D5
S32D0000E1E8BB68002B01D1002362E07B6B1B7B002B02D17B685B027B60BB7B012B28D111233B7500237B757B68BA
S32D0000E210BB6101233B77BB7B3B6207F11403194641F20230FFF7CCFB0346002B0CBF01230023DBB2002B38D045
S32D0000E2384FF40071B868FFF739FF0346002B14BF01230023DBB2002B2BD00023BB7328E012233B7500237B7524
S32D0000E2607B68BB6101233B77BB7B3B6207F11403194641F20230FFF7A3FB0346002B0CBF01230023DBB2002B43
S32D0000E2880FD0BB7B5B021946B868FFF70FFF0346002B14BF01230023DBB2002B01D00023BB73BB7B002B01D0D9
S32D0000E2B0012300E0002300BF18463837BD4680BDF01600200000002080B487B000AF786039607B68FB603B689B
S32D0000E2D87B617B69002B3DD07B69B3F5007F28BF4FF400733B617A693B69D31A7B613B6903339B083B613B69CF
S32D0000E300002BEAD0184B1B6B03F4E003002B14BF01230023DBB2002B0AD0134B1B6B124A43F4E00343F01003D0
S32D0000E32813634FF0FF3316E00D4B5B6A03F48063002B0CBF01230023DBB2002B00D0F3E7FB681A1DFA60064A10
S32D0000E3501B6813623B69013B3B61D0E7012318461C37BD4680BC704700100B4080B58EB000AFB9607A601A46D9
S32D0000E3780346FB731346BB735D4B7B63FB7B002B02D1BB7B002B01D10423ADE0594B1B78DBB203F00103002B72
S32D0000E3A014BF01230023DBB2002B01D003239FE0524B1B78DBB203F00403002B14BF01230023DBB2002B01D082
S32D0000E3C8022391E0BB68002B01D100238CE07B6B1B7B002B02D17B685B027B60BB7B012B28D118233B750023E4
S32D0000E3F07B757B68BB6100233B77BB7B3B6207F11403194641F20230FFF7DAFA0346002B0CBF01230023DBB2B8
S32D0000E418002B38D04FF40071B868FFF751FF0346002B14BF01230023DBB2002B2BD00023BB7328E019233B7503
S32D0000E44000237B757B68BB6100233B77BB7B3B6207F11403194641F20230FFF7B1FA0346002B0CBF01230023FA
S32D0000E468DBB2002B0FD0BB7B5B021946B868FFF727FF0346002B14BF01230023DBB2002B01D00023BB730D2329
S32D0000E4903B7500237B757B6B1B69BB6100233B7700233B6207F11403194641F20230FFF787FA0346002B14BFEF
S32D0000E4B801230023DBB2002B01D0012314E07A6A0D4B1340002B01D001230DE07B6A03F4F853B3F5106F00D094
S32D0000E4E0D5E7BB7B002B01D0012300E0002300BF18463837BD4680BDF0160020000000200880D9FF80B58CB016
S32D0000E50800AF03463A60FB710B46BB713A4BBB62FB79002B01D0042369E0012387F82F30364B1B78DBB203F052
S32D0000E5300103002B14BF01230023DBB2002B01D0032358E0BB79032B50D801A252F823F061E5000069E500006F
S32D0000E55879E5000089E50000002387F82F3044E0BB6A9A683B681A60002387F82F303CE03B684FF400721A8051
S32D0000E580002387F82F3034E009233B7200237B72BB6A1B69FB6000233B7400237B6107F10803194641F20230D3
S32D0000E5A8FFF70AFA0346002B14BF01230023DBB2002B01D001231AE07B6A03F44003002B0CD13B6A9B0C03F0B0
S32D0000E5D07F035A1C7B6A1B0A03F00303013B9A403B681A60002387F82F3002E0042387F82F3097F82F301846BB
S32D0000E5F83037BD4680BD00BFF01600200000002080B483B000AF0346FB71FB79002B01D0012302E0034B1B7827
S32D0000E620DBB218460C37BD4680BC70470000002080B483B000AF7860174B03F5815318331B68154943F001020A
S32D0000E64801F5815318331A60124A7B689360114B05225A600F4B1B680E4A43F0010313600C4B1B6803F0800377
S32D0000E670002B0CBF01230023DBB2002B00D0F3E7064B1B68054A23F00103136000BF0C37BD4680BC704700BF79
S32D0000E698007004400000044080B582B000AF786039607B68012B07D13B684FF6FF72934202D1034800F00EF8AC
S32D0000E6C000BF0837BD4680BD1019002080B500AF4FF6FF710120FFF7E3FF80BD80B483B000AF78607B680022E3
S32D0000E6E81A707B6818460C37BD4680BC7047FFFF80B582B000AF78607B681B7883F00103DBB2002B21D0134B20
S32D0000E71003F5815308334FF400621A60104B4FF440721A620E4B4FF440725A620D4B1B68DA0F13445B104FF416
S32D0000E738614219460A48FEF70BFC642000F05CF87B6801221A70012300E0002318460837BD4680BD0070044053
S32D0000E76000D004401419002000B00E4080B487B000AFF860B9607A60FB681F4AA2FB03239B09BA6813447B613F
S32D0000E788FB681B4AA2FB031292094FF47A7101FB02F29B1AFB60FB68DB03154AA2FB03239B097A6813443B6144
S32D0000E7B03B69DB0B7A6913447B613B69C3F30E033B610E4B1B687A699A4209D80B4B1B687A699A4206D1094B55
S32D0000E7D85B683A699A4201D9012300E00023002B00D0EAE700BF1C37BD4680BC704700BFD34D621000D0034098
S32D0000E80080B584B000AF7860074B1B68FB60064B5B68BB607B68BA68F9681846FFF7A6FF00BF1037BD4680BDF6
S32D0000E82800D0034080B584B000AFC7E900010E4B1B68FB600C4B5B68BB604FF000020B4BD7E900010AF0DEFC4E
S32D0000E85002460B46104619460AF09AFF0346BA68F9681846FFF782FF00BF1037BD4680BD00D0034000408F40B0
S32D0000E87880B58AB000AF3B1D2022002118460DF019F90B237B600A23BB600723FB6006233B6105237B61042366
S32D0000E8A0BB610123FB6100237B627B6A072B32DC1B4BD3F8A0207B6A9B0007F128010B4453F8243C012101FAE0
S32D0000E8C803F31340002B14BF01230023DBB2002B19D0124A7B6A52F823305A1C0F497B6A41F823200C4BD3F8C4
S32D0000E8F0A0207B6A9B0007F128010B4453F8243C012101FA03F306491340C1F8A0307B6A01337B62C9E700BFFC
S32D0000E9182837BD4680BD00BF00A0044040190020B0B489B000AF234B3C1D1D460FCD0FC495E8030084E8030002
S32D0000E9400023FB61FB69052B32DC1D4BD3F8A020FB699B0007F120010B4453F81C3C012101FA03F31340002BFA
S32D0000E96814BF01230023DBB2002B19D0FB690833124A52F823200132104941F823200E4BD3F8A020FB699B0053
S32D0000E99007F120010B4453F81C3C012101FA03F307491340C1F8A030FB690133FB61C9E700BF2437BD46B0BCE2
S32D0000E9B8704700BF0009020000B0044040190020B0B48DB000AF244B3C461D460FCD0FC40FCD0FC495E80700BD
S32D0000E9E084E807000023FB62FB6A0A2B32DC1D4BD3F8A020FB6A9B0007F130010B4453F8303C012101FA03F339
S32D0000EA081340002B14BF01230023DBB2002B19D0FB6A0E33124A52F823200132104941F823200E4BD3F8A0202C
S32D0000EA30FB6A9B0007F130010B4453F8303C012101FA03F307491340C1F8A030FB6A0133FB62C9E700BF34377A
S32D0000EA58BD46B0BC704700BF180902000090044040190020B0B487B000AF224B3C461D460FCD0FC42B682360DA
S32D0000EA8000237B617B69042B32DC1D4BD3F8A0207B699B0007F118010B4453F8183C012101FA03F31340002B46
S32D0000EAA814BF01230023DBB2002B19D07B691933124A52F823200132104941F823200E4BD3F8A0207B699B0001
S32D0000EAD007F118010B4453F8183C012101FA03F307491340C1F8A0307B6901337B61C9E700BF1C37BD46B0BCB5
S32D0000EAF8704700BF4409020000D004404019002080B483B000AF78600B46FB707B68FA781A707B6818460C3791
S32D0000EB20BD4680BC7047FFFF80B586B000AF78607B681B781A463E4B53F822303B617B681B781A463B4B9B5CF6
S32D0000EB48FB733B69DBB203F01F03DAB2384B1A723B69DBB203F01F03DAB2354B5A72354B1022C3F88820FB7BA7
S32D0000EB70002B13D13049324800F058FA304B1B6803F08003802B14BF01230023DBB2002B00D0F3E72A4B1B699F
S32D0000EB987B6112E02649294800F044FA274B1B6803F08003802B14BF01230023DBB2002B00D0F3E7214B1B69F1
S32D0000EBC07B611E4BD3F888311C4A43F01003C2F888311A4B9B68194A43F0100393607B699BB218460AF098FA20
S32D0000EBE80DA3D3E900230AF00DFB02460B46104619460BA3D3E900230AF02EFC02460B46104619460AF0E0FD4A
S32D0000EC100346BB60BB6818461837BD4680BD00BFA4703D0AD7A30A4000000000E0FFEF407C080200580802008E
S32D0000EC382019002000E100E000B0034000B00B4080B586B000AF78607B681B781A46234B53F822303B617B6854
S32D0000EC601B781A46204B9B5CFB733B69DBB203F01F03DAB21D4B1A723B69DBB203F01F03DAB21A4B5A72FB7B84
S32D0000EC88002B13D11749184800F0CCF9164B1B6803F08003802B14BF01230023DBB2002B00D0F3E7104B1B697A
S32D0000ECB07B6112E00D490F4800F0B8F90D4B1B6803F08003802B14BF01230023DBB2002B00D0F3E7074B1B69CC
S32D0000ECD87B617B6918461837BD4680BD7C080200580802003019002000B0034000B00B4098B500AF204B5C223D
S32D0000ED001A701F4B10225A701D4B41F234225A801B4B45F278629A80194B10229A71184B0722DA71164B4FF47D
S32D0000ED28C022DA60144B1F221A72134B1F225A721149124800F076F90F49114800F072F90F4800F0D0F80D4887
S32D0000ED5000F0CDF80A490C4800F068F90849094800F064F9094A064B14460FCB84E80F00064B5C221A70054BFD
S32D0000ED780422DA7100BF98BD2019002000B0034000B00B403019002080B500AF064B1B680133054A136000F09A
S32D0000EDA03BF8044B0122C3F80C2100BF80BD00BFC41900200070034080B500AF0B4800F01BF80B4B0322C3F8DD
S32D0000EDC808210A4BD3F88831084A43F01003C2F88831064B9B68054A43F01003936000BF80BD00BFA086010052
S32D0000EDF00070034000E100E080B483B000AF7860044A7B68C2F8003100BF0C37BD4680BC704700BF007003400D
S32D0000EE1880B584B000AF174B1B68FB60FB68002B24D0FB685B78FB71FB689B68184600F023F80346BB71BB79D8
S32D0000EE40002B13D0FB685B68012B0FDDFB689B681B69BB60BB68002B08D0BB685B685A1CBB685A60BB681B694D
S32D0000EE68BB60F3E7FB68DB68FB60D7E700BF1037BD4680BDC019002080B584B000AF78607868FFF7DDFEF86090
S32D0000EE907B689B695B78FB72FB7A002B0FD17B68DB68FA689A420ADD7B689B6901225A707B685B685A1C7B688F
S32D0000EEB85A60012313E0FB7A012B0FD17B689B68FA689A420ADA7B689B6900225A707B685B685A1C7B685A6046
S32D0000EEE0012300E0002318461037BD4680BD80B485B000AF78607B681B6A23F040027B681A627B685B6A23F031
S32D0000EF080B027B685A627B685B6A43F007027B685A627B685B6A43F080027B685A627B681B6803F08003002BA9
S32D0000EF300CBF01230023DBB2002B00D0F3E77B685B6A03F04003402B0CBF01230023DBB2002B01D0012364E0F3
S32D0000EF580023FB817B68DB6CFB817B689B6C9AB2FB891344FB817B685B6C9AB2FB891344FB817B681B6C9AB2B6
S32D0000EF80FB891344FB817B68DB6B9AB2FB891344FB817B689B6B9AB2FB891344FB81FB895B08FB81FB896FEA74
S32D0000EFA843436FEA5343FB81FA897B68DA620023FB817B68DB6EFB817B689B6E9AB2FB891344FB817B685B6E26
S32D0000EFD09AB2FB891344FB817B681B6E9AB2FB891344FB817B68DB6D9AB2FB891344FB817B689B6D9AB2FB89D8
S32D0000EFF81344FB81FB895B08FB81FB896FEA43436FEA5343FB81FA897B681A637B685B6A23F080027B685A6228
S32D0000F020002318461437BD4680BC704780B483B000AF786039603B681B781A467B689A603B685B781A467B684D
S32D0000F048DA603B685B881A467B689A613B689B881A467B68DA613B689B791A467B681A623B68DB791A467B68A8
S32D0000F0705A623B68DA687B681A653B681B7A1A467B681A603B685B7A1A467B685A6000BF0C37BD4680BC70470D
S32D0000F09880B483B000AF78607B6818460C37BD4680BC704780B582B000AF786039607B68012B07D13B684FF68C
S32D0000F0C0FF72934202D10348FFF7E6FF00BF0837BD4680BDC819002080B500AF4FF6FF710120FFF7E3FF80BDD5
S32D0000F0E880B582B000AF7860B84B4FF48072DA60B74B4FF480729A64B54B4FF480721A64B34B4FF480725A64C1
S32D0000F110B14B4FF48072DA60B04B5B69AF4A43F008035361AE4B5B69AD4A43F480235361AB4B5B69AA4A43F495
S32D0000F13880335361A84B5B69A74A43F400335361A54B1B68A44A43F008031360A24B5B69A14A43F008035361DC
S32D0000F1609E4B1B689D4A43F0080313609A4B4FF480725A62984B4FF480721A62954B4FF480721A61934B4FF462
S32D0000F18880725A61914B4FF480729A618F4B4FF48072DA618D4B4FF480721A638B4B4FF480725A63894B4FF4ED
S32D0000F1B080729A63874B4FF48072DA63854B4FF480721A64834B4FF480725A64814B4FF480729A647F4B4FF4AE
S32D0000F1D88072DA64814B4FF480721A607F4B4FF480729A607D4B4FF48072DA607B4B4FF480721A61784B5B6931
S32D0000F200774A43F440735361744B5B69734A43F47F2343F0F0035361734B5B69724A43F01D035361E221786866
S32D0000F22800F0B4FD1D21786800F056FE0221786800F052FE0421786800F04EFEE021786800F0A4FD01217868BD
S32D0000F25000F046FE6420FFF7D3FAE021786800F099FD0321786800F03BFE0121786800F091FD0120FFF7C4FA2C
S32D0000F278E621786800F08AFD0121786800F02CFEA021786800F028FEFF21786800F024FEB021786800F07AFD0D
S32D0000F2A01C21786800F01CFE0F21786800F018FE0121786800F014FE3F21786800F010FE0021786800F00CFEC6
S32D0000F2C8EF21786800F008FE0021786800F004FEB421786800F05AFD0121786800F0FCFD9921786800F0F8FDD9
S32D0000F2F00021786800F0F4FD4521786800F0F0FD0221786800F0ECFD0021786800F0E8FD0021786800F0E4FD67
S32D0000F3180021786800F0E0FDB621786800F036FD0121786800F0D8FD0921786800F0D4FD0021786800F0D0FDCF
S32D0000F3400E21786800F0CCFD0221786800F0C8FD0021786800F0C4FD0021786800F0C0FDBA21786800F016FD01
S32D0000F3680F21786800F0B8FD6420FFF745FA3A21786800F00BFD6021786800F0ADFD2A21786800F003FD00219F
S32D0000F390786800F0A5FD0021786800F0A1FD0121786800F09DFD3F21786800F099FD2B21786800F0EFFC0021D4
S32D0000F3B8786800F091FD0021786800F08DFD0021786800F089FDEF2178680BE000B0044000A0044080F00F4065
S32D0000F3E040F00F4000C00440C0F00F4000F078FD3621786800F0CEFC0021786800F070FDF021786800F0C6FC26
S32D0000F4080421786800F068FDB821786800F0BEFC0F21786800F060FD0121786800F05CFD314B1B68304A43F0C5
S32D0000F430080313606420FFF7E3F93621786800F0A9FC0021786800F04BFDF021786800F0A1FC0421786800F062
S32D0000F45843FD0121786800F013FA1E226F21786800F082F8AF225621786800F0DBF80021786800F056FA0123DD
S32D0000F48001221C49786800F077FA2921786800F081FC6420FFF7B4F9BE21786800F07AFC0E21786800F01CFD9A
S32D0000F4A8F021786800F018FD0121786800F014FD0021786800F010FD0021786800F00CFD0F21786800F008FD40
S32D0000F4D0786800F074FA0121786800F026FA0021786800F0FBF900BF0837BD4680BD00BF40F00F4058090200FA
S32D0000F4F880B582B000AF78607B680022DA617B6801221A627B680E225A607B681A229A607B6800225A617B68AD
S32D0000F52000229A617B684FF4A072DA607B68F0221A617B6800221A70786801F0F9F87B6818460837BD4680BDAD
S32D0000F54880B582B000AF7860064B1B78002B05D1044B01221A707868FFF7C2FD00BF0837BD4680BD101A0020A9
S32D0000F57080B58AB002AFF860B9607A607E23009362237A68B968F86800F032FE40F24E733B610023FB61FA6955
S32D0000F5983B699A4240DA0023BB61214AFB6913441B781A46BB69934232DAFB6901331C4AD35C002B06D1FF23FD
S32D0000F5C0FB75FF23BB75FF237B7512E0FB690133154AD35C012B06D1D423FB750023BB7526237B7505E0B5237E
S32D0000F5E8FB75BA23BB75B0237B757B7DBA7DF97DF86800F023F90246FB68DA61F86801F093F8F86800F0CCFFC7
S32D0000F610BB690133BB61C4E7FB690233FB61BAE700BF2037BD4680BD0400002080B58AB002AFF860B9607A6032
S32D0000F6382723009395237A68B968F86800F0D4FD40F2E6333B610023FB61FA693B699A4240DA0023BB61214ADE
S32D0000F660FB6913441B781A46BB69934232DAFB6901331C4AD35C002B06D1FF23FB75FF23BB75FF237B7512E0B2
S32D0000F688FB690133154AD35C012B06D10023FB750023BB7500237B7505E0D423FB750023BB7526237B757B7D62
S32D0000F6B0BA7DF97DF86800F0C5F80246FB68DA61F86801F035F8F86800F06EFFBB690133BB61C4E7FB69023399
S32D0000F6D8FB61BAE700BF2037BD4680BD5407002080B582B000AF78600B46FB707B68FA781A703621786800F086
S32D0000F70049FB7B681B78032B1ED801A252F823F021F700002BF7000035F700003FF700000021786800F0DCFB99
S32D0000F7280EE00321786800F0D7FB09E0A321786800F0D2FB04E0A021786800F0CDFB00BF7B681B78002B03D045
S32D0000F7507B681B78012B0DD17B680E225A607B681A229A607B684FF4A072DA607B68F0221A610CE07B68122240
S32D0000F7785A607B6813229A607B68F022DA607B684FF4A0721A61786800F03EFC00BF0837BD4680BD80B485B004
S32D0000F7A000AF78600B46FB70FB78062B29D801A252F823F0D9F70000D1F70000DFF70000E7F70000EFF7000021
S32D0000F7C8F5F70000FDF700006FF07F43FB6014E00023FB6011E04FF47F03FB600DE04FF47F43FB6009E0FF23DC
S32D0000F7F0FB6006E04FF41903FB6002E0044BFB6000BFFB6818461437BD4680BC704700BF9999990080B584B0B0
S32D0000F81800AF786039603B681B0CFB733B681B0ABB733B687B737B7BBA7BF97B786800F005F803461846103789
S32D0000F840BD4680BD80B487B000AF7860084611461A460346FB700B46BB7013467B70FB789B107B61BB789B1017
S32D0000F8683B617B789B10FB607B691A033B699B011A43FB68134318461C37BD4680BC704780B582B000AF7860F1
S32D0000F8900B46FB70FB7819467868FFF77FFF03461946786800F004F800BF0837BD4680BD80B582B000AF7860C8
S32D0000F8B8396039687868FFF7A9FF02467B681A62786800F031FF786800F09EFB00BF0837BD4680BD80B582B0B5
S32D0000F8E000AF78600B46FB70FB7819467868FFF755FF03461946786800F004F800BF0837BD4680BD80B582B0A2
S32D0000F90800AF7860396039687868FFF77FFF02467B681A62786800F007FF00BF0837BD4680BD80B582B000AFEB
S32D0000F93078600B46FB70FB7819467868FFF72EFF03461946786800F004F800BF0837BD4680BD80B582B000AF78
S32D0000F9587860396039687868FFF758FF02467B68DA61786800F0E0FE00BF0837BD4680BD80B586B000AFF8607E
S32D0000F980B9607A603B6000237B617B69BA6813441B78002B0FD07B69BA6813441B783A687968F86800F0BEFC55
S32D0000F9A87B680C337B607B6901337B61E9E700BF1837BD4680BD80B582B000AF7860FDF773FA67210120FDF736
S32D0000F9D0DCF900210220FDF7D8F9A0210320FDF7D4F950210420FDF7D0F920210520FDF7CCF920210620FDF7BB
S32D0000F9F8C8F977210720FDF7C4F900210820FDF7C0F900210920FDF7BCF900210A20FDF7B8F904210B20FDF793
S32D0000FA20B4F97B684FF0FF32DA637B684FF0FF321A6400BF0837BD4680BDFFFFFFFFFFFF80B586B000AFF86000
S32D0000FA48B9607A600020FDF7BEF90346FB75FB7D03F00203002B00F0CE80FDF7D1F9E020FDF782F90220FEF7FC
S32D0000FA70C7FEFDF7D7F90120FEF7C2FEFDF7C4F9A520FDF775F90120FEF7BAFEFDF797F903469BB21B02BB82EF
S32D0000FA98FDF791F903469AB2BB8A1343BB82FDF78AF903469BB21B027B82FDF784F903469AB27B8A13437B82D0
S32D0000FAC0BB8A1B11BB827B8A1B117B82FDF7AAF9FB68DB6BB3F1FF3F34D1FB681B6CB3F1FF3F2FD1BA8AFB68A2
S32D0000FAE8DA637A8AFB681A647B8AC3F57F630F337B82BB8A184609F01BFB49A3D3E9002309F080FB02460B4666
S32D0000FB101046194609F05CFE0246BB681A607B8A184609F009FB42A3D3E9002309F06EFB02460B461046194606
S32D0000FB3809F04AFE02467B681A605AE0FB68DA6BBB8AD31A1946F86800F074F80346632B0CDCFB681A6C7B8ADD
S32D0000FB60D31A1946F86800F069F80346632B01DC012300E00023002B2FD0BA8AFB68DA637A8AFB681A647B8AA7
S32D0000FB88C3F57F630F337B82BB8A184609F0D0FA23A3D3E9002309F035FB02460B461046194609F011FE0246A4
S32D0000FBB0BB681A607B8A184609F0BEFA1CA3D3E9002309F023FB02460B461046194609F0FFFD02467B681A60D9
S32D0000FBD80FE0BB68164A1A607B68154A1A60FB684FF0FF32DA63FB684FF0FF321A64002310E001230EE0BB68AE
S32D0000FC000D4A1A607B680C4A1A60FB684FF0FF32DA63FB684FF0FF321A64002318461837BD4680BDAFF30080BF
S32D0000FC28144001144001B43F1EE0011EE001AE3F000080BF80B483B000AF786039603B68002B02DA3B685B4276
S32D0000FC503B603B6818460C37BD4680BC704780B584B000AF786039600023FB60786800F092FAFB683A681344F2
S32D0000FC781B78002B12D07B6859697B689869FB683A6813441B780246786800F02CFB786800F091FAFB68013315
S32D0000FCA0FB60E6E700BF1037BD4680BD80B592B000AF786039604FF0000138680AF098F80346002B1FD03868C4
S32D0000FCC80AF0A6F803467B64786C09F087FE03461946386809F0CCFD03461F49184609F0D1FE034618460AF06A
S32D0000FCF093F803463B6407F10C003B6C7A6C19490CF0C8F922E03B6883F000433B6038680AF082F803467B6491
S32D0000FD18786C09F063FE03461946386809F0A8FD03460D49184609F0ADFE034618460AF06FF803463B6407F110
S32D0000FD400C003B6C7A6C08490CF0A4F907F10C0319467868FFF783FF00BF4837BD4680BD00007A447409020099
S32D0000FD686809020080B582B000AF78603960786800F00DFA39687868FFF794FF786800F0F1F900BF0837BD46D7
S32D0000FD9080BDFFFF80B483B000AF78600B46FB704D4B1B684C4A23F0080313604B4B1B684A4A23F48023136044
S32D0000FDB8484B1B68474A43F480331360454B1B68444A23F440731360414B1B68404A23F4435323F0300313603C
S32D0000FDE03E4B1A68FB785B0203F400733B4913430B603A4B1A68FB785B101B0203F48073364913430B60344BC0
S32D0000FE081A68FB789B101B0103F01003304913430B602F4B1A68FB78DB105B0103F020032B4913430B602A4B5A
S32D0000FE301A68FB781B119B0103F04003264913430B60254B1A68FB785B11DB01DBB2224913430B60204B1A682E
S32D0000FE58FB789B111B0303F480531D4913430B601B4B1A6897F90330DB115BB25B0303F40053174913430B60E1
S32D0000FE80164B1B68154A23F400331360134B1B68124A43F4003313600F4B1B680E4A43F0080313600D4B1B6879
S32D0000FEA80C4A43F440731360094B1B68084A43F4435343F030031360064B1B68054A43F48023136000BF0C3738
S32D0000FED0BD4680BC704700BF80F00F4040F00F4080B483B000AF78600B46FB70464B1B68454A23F00803136033
S32D0000FEF8444B1B68434A43F480331360414B1B68404A43F4802313603E4B1B683D4A23F4407313603A4B1B6822
S32D0000FF20394A23F4435323F030031360374B1A68FB785B0203F40073344913430B60334B1A68FB785B101B0253
S32D0000FF4803F480732F4913430B602D4B1A68FB789B101B0103F01003294913430B60284B1A68FB78DB105B014C
S32D0000FF7003F02003244913430B60234B1A68FB781B119B0103F040031F4913430B601E4B1A68FB785B11DB01EF
S32D0000FF98DBB21B4913430B60194B1A68FB789B111B0303F48053164913430B60144B1A6897F90330DB115BB2DF
S32D0000FFC05B0303F40053104913430B600F4B1B680E4A23F4003313600C4B1B680B4A43F400331360084B1B687D
S32D0000FFE8074A43F008031360064B1B68054A23F48023136000BF0C37BD4680BC704700BF80F00F4040F00F40A4
S32D0001001080B586B000AF78607B6800225A617B6800229A617B681B6AFB60FB68FB72FB681B0ABB72FB681B0C3D
S32D00010038DBB203F003037B722A217868FFF7A6FE00217868FFF748FF00217868FFF744FF01217868FFF740FFB2
S32D000100603F217868FFF73CFF2B217868FFF792FE00217868FFF734FF00217868FFF730FF00217868FFF72CFFDC
S32D00010088EF217868FFF728FF2C217868FFF77EFE314B1B68304A23F4407313602F4B1B682E4A23F47F2323F0A6
S32D000100B0F00313602C4B1B682B4A23F01D031360274B1A687B681B6B254913430B60254B1A687B685B6B234913
S32D000100D813430B60224B1A687B689B6B204913430B601E4B1B681D4A23F0080313601A4B1B68194A43F480232D
S32D00010100136000237B617B69EF2B19D800233B613B69B3F5A07F0FD2114B1B68104A23F4003313600E4B1B6892
S32D000101280D4A43F4003313603B6901333B61EBE77B6901337B61E2E7084B1B68074A43F008031360044B1B68C7
S32D00010150034A23F48023136000BF1837BD4680BD40F00F4080F00F40C0F00F4080B483B000AF78607B689B69A6
S32D00010178002B07DD7B685B695A1C7B685A617B6800229A6100BF0C37BD4680BC704780B582B000AF78607B68C5
S32D000101A05A697B685B689A4205DB7B6800225A617868FFF72DFF00BF0837BD4680BD80B582B000AF78607B683A
S32D000101C89B695A1C7B689A617B689A697B689B689A4205D17868FFF7C5FF7868FFF7D7FF00BF0837BD4680BDAE
S32D000101F080B588B000AFF860B9607A603B60FB681B78022B03D0FB681B78032B11D17B68FB61BA6AFB691344C4
S32D00010218013BBB61FB68DA68BB68D31A3B613B683A69D31A01337B610DE0BB68FB613A68FB691344013BBB61AA
S32D000102407B687B61BA6A7B691344013B3B612A21F868FFF79FFDFB691B0ADBB203F00F03DBB21946F868FFF7FF
S32D000102683BFEFB69DBB21946F868FFF735FEBB691B0ADBB203F00F03DBB21946F868FFF72BFEBB69DBB21946FF
S32D00010290F868FFF725FE2B21F868FFF77BFD7B691B0ADBB203F00F03DBB21946F868FFF717FE7B69DBB21946EA
S32D000102B8F868FFF711FE3B691B0ADBB203F00F03DBB21946F868FFF707FE3B69DBB21946F868FFF701FE2C21DE
S32D000102E0F868FFF757FD00BF2037BD4680BD80B584B000AFF860B9607A60FB707A6813465B0013449B00991CE4
S32D00010308BA6813461B011344DA1CFB78F86800F005F800BF1037BD4680BDFFFF80B58EB002AFF860B9607A606F
S32D00010330FB70FB780A2B06D1F868FFF72CFFF868FFF714FFF2E0FB787D2B02D8FB781F2B01D82023FB70FB784C
S32D00010358203BFB70112300930C237A68B968F868FFF742FFFA7813469B0013446F4AD35C3B75FA7813469B0065
S32D00010380134401336B4AD35C7B75FA7813469B0013440233674AD35CBB75FA7813469B0013440333634AD35C1E
S32D000103A8FB75FA7813469B00134404335F4AD35C3B760023BB62BB6A062B00F3A180F86800F050F9F86800F0A6
S32D000103D0B3F8002387F82F3000237B627B6A042B35DC07F114027B6A13441B7803F00103002B14BF0123002314
S32D000103F8FB76FB7E002B11D097F82F3083F00103DBB2002B03D0F86800F0CAF802E0F86800F08EF8F86800F0D6
S32D000104208BF80DE097F82F30002B03D0F86800F01DF902E0F86800F07FF8F86800F07CF8FB7E87F82F307B6A42
S32D0001044801337B62C6E797F82F30002B03D0F86800F008F902E0F86800F06AF8F86800F067F8002387F82F3046
S32D0001047000233B623B6A042B42DC07F114023B6A13441B7803F00103002B14BF01230023BB76BB7E002B11D05C
S32D0001049897F82F3083F00103DBB2002B03D0F86800F07EF802E0F86800F042F8F86800F03FF80DE097F82F30B1
S32D000104C0002B03D0F86800F0D1F802E0F86800F033F8F86800F030F8BB7E87F82F3007F114023B6A13441B786D
S32D000104E85B10D9B207F114023B6A13440A461A703B6A01333B62B9E7BB6A0133BB625AE7F86800F0AFF8002324
S32D0001051087F82F300123FB61FB69232B06DCF86800F00AF8FB690133FB61F5E73037BD4680BD00BF3C0B0020DB
S32D0001053880B483B000AF7860174B1B68164A43F480331360154B1B68144A23F008031360114B1B68104A43F4C2
S32D00010560802313600E4B1B680D4A23F4003313600B4B1B680A4A43F400331360094B1B68084A43F00803136082
S32D00010588054B1B68044A23F48023136000BF0C37BD4680BC704700BF40F00F4080F00F4080B483B000AF786013
S32D000105B02B4B1B682A4A43F480331360294B1B68284A23F008031360254B1B68244A43F480231360224B1B68BA
S32D000105D8214A23F440731360204B1B681F4A23F47F2323F0F00313601D4B1B681C4A23F01D031360184B1A68E7
S32D000106007B685B6A164913430B60164B1A687B689B6A144913430B60134B1A687B68DB6A114913430B600E4B9E
S32D000106281B680D4A23F4003313600B4B1B680A4A43F400331360094B1B68084A43F008031360054B1B68044A07
S32D0001065023F48023136000BF0C37BD4680BC704740F00F4080F00F40C0F00F4080B483B000AF78602B4B1B6832
S32D000106782A4A43F480331360294B1B68284A23F008031360254B1B68244A43F480231360224B1B68214A23F468
S32D000106A040731360204B1B681F4A23F47F2323F0F00313601D4B1B681C4A23F01D031360184B1A687B681B6B37
S32D000106C8164913430B60164B1A687B685B6B144913430B60134B1A687B689B6B114913430B600E4B1B680D4A22
S32D000106F023F4003313600B4B1B680A4A43F400331360094B1B68084A43F008031360054B1B68044A23F480235F
S32D00010718136000BF0C37BD4680BC704740F00F4080F00F40C0F00F4080B485B000AF78607B681B6AFB60FB68F4
S32D00010740FB72FB681B0ABB72FB681B0CDBB203F003037B727B6800225A627B6800229A627B680022DA627B6885
S32D0001076800221A637B6800225A637B6800229A637B681A6BFB7A5B0203F400731A437B681A637B681A6BFB7AC1
S32D000107905B101B0203F480731A437B681A637B685A6BFB7A9B101B0103F010031A437B685A637B685A6BFB7A07
S32D000107B8DB105B0103F020031A437B685A637B685A6BFB7A1B119B0103F040031A437B685A637B685A6BFB7A83
S32D000107E05B11DB01DBB21A437B685A637B685A6BFB7A9B111B0303F480531A437B685A637B685A6B97F90B30F7
S32D00010808DB115BB25B0303F400531A437B685A637B685A6BBB7A9B0303F480431A437B685A637B685A6BBB7A14
S32D000108305B10DB039BB21A437B685A637B685A6BBB7A9B101B0403F480331A437B685A637B685A6BBB7ADB10F0
S32D000108585B0403F400331A437B685A637B685A6BBB7A1B119B0403F480231A437B685A637B685A6BBB7A5B1163
S32D00010880DB0403F400231A437B685A637B689A6BBB7A9B1103F001031A437B689A637B689A6B97F90A30DB11B8
S32D000108A85BB29B0003F004031A437B689A637B689A6B7B7ADB0003F008031A437B689A637B689A6B7B7A5B1007
S32D000108D01B0103F010031A437B689A637B68DB69FB60FB68FB72FB681B0ABB72FB681B0CDBB203F003037B7296
S32D000108F87B685A6AFB7A5B0203F400731A437B685A627B685A6AFB7A5B101B0203F480731A437B685A627B6885
S32D000109209A6AFB7A9B101B0103F010031A437B689A627B689A6AFB7ADB105B0103F020031A437B689A627B684E
S32D000109489A6AFB7A1B119B0103F040031A437B689A627B689A6AFB7A5B11DB01DBB21A437B689A627B689A6A79
S32D00010970FB7A9B111B0303F480531A437B689A627B689A6A97F90B30DB115BB25B0303F400531A437B689A6284
S32D000109987B689A6ABB7A9B0303F480431A437B689A627B689A6ABB7A5B10DB039BB21A437B689A627B689A6AAB
S32D000109C0BB7A9B101B0403F480331A437B689A627B689A6ABB7ADB105B0403F400331A437B689A627B689A6A70
S32D000109E8BB7A1B119B0403F480231A437B689A627B689A6ABB7A5B11DB0403F400231A437B689A627B68DA6A26
S32D00010A10BB7A9B1103F001031A437B68DA627B68DA6A97F90A30DB115BB29B0003F004031A437B68DA627B6885
S32D00010A38DA6A7B7ADB0003F008031A437B68DA627B68DA6A7B7A5B101B0103F010031A437B68DA6200BF1437D2
S32D00010A60BD4680BC7047FFFF80B582B000AF786039607B68012B07D13B684FF6FF72934202D10348FEF738FD8F
S32D00010A8800BF0837BD4680BDCC19002080B500AF4FF6FF710120FFF7E3FF80BD80B582B000AF7860174B03F5E5
S32D00010AB0815314331B68154943F0400201F5815314331A60124B4FF400725A62104B4FF400721A620F4B142231
S32D00010AD85A700E4B1B7ADBB20C4A43F00103DBB213720A4B80229A7002212B20FCF7D2F83D212A20FCF7CEF87E
S32D00010B007B6818460837BD4680BD00BF0070044000C004400060064080B582B000AF786039607B68012B07D17B
S32D00010B283B684FF6FF72934202D10348FFF7B6FF00BF0837BD4680BD141A002080B500AF4FF6FF710120FFF76B
S32D00010B50E3FF80BD80B582B000AF78607B681846FDF7E2FF03460749184608F08FFF03460549184609F03EF8B2
S32D00010B78034618460837BD4680BD00BF00404A4400004D4380B582B000AF78600B46FB707B68FA781146184657
S32D00010BA0FDF7B2FF7B6818460837BD4680BDFFFF80B582B000AF786039607B68012B08D13B684FF6FF72934226
S32D00010BC803D120210348FFF7DDFF00BF0837BD4680BD00BF181A002080B500AF4FF6FF710120FFF7E1FF80BDB0
S32D00010BF080B483B000AF78607B6800221A707B6818460C37BD4680BC7047FFFF80B483B000AF78603960044A0C
S32D00010C183B68136000BF0C37BD4680BC704700BF1C1A002080B582B000AF3248FCF756FA0346FB71304AFB7914
S32D00010C401370304B01221A702F4B1B78022B33D0022B4FDC002B02D0012B14D04AE0FB79FF2B44D1284B0122C5
S32D00010C681A70284B00221A70264B1B785A1CD1B2244A11701946244AFB79535433E0214B1B785A1CD1B21F4A6C
S32D00010C90117019461E4AFB7953541C4B1B780D2B27D11C4B1B68194A1278114618489847154B02221A701CE031
S32D00010CB8FB79FF2B10D1124B01221A70114B00221A70104B1B785A1CD1B20E4A117019460D4AFB79535409E002
S32D00010CE00A4B00221A70084B00221A7002E000BF00E000BF00BF0837BD4680BD00A00640331A0020321A0020A8
S32D00010D08311A0020301A0020201A00201C1A002080B582B000AF78607B681846FFF764FF7B6811491846FFF71E
S32D00010D306DFF7B684FF0FF325A600E4B4FF000021A600D4B4FF000021A600C4B4FF000021A600B4B00221A60F0
S32D00010D580A4B00221A700A4B00221A707B6818460837BD4680BD00BF8D0D0100401A0020441A0020481A0020D6
S32D00010D804C1A0020501A0020511A002080B582B000AF78600B46FB703B4B1B78002B6ED07B6801331B781B02B6
S32D00010DA87A68023212781344184608F017FE03463449184608F01AFF03463349184608F057FD03461A46314BF1
S32D00010DD01A607B6803331B781B027A68043212781344184608F0FEFD03462849184608F001FF03462649184641
S32D00010DF808F03EFD03461A46254B1A607B6805331B781B027A68063212781344184608F0E5FD03461B491846FD
S32D00010E2008F0E8FE03461A49184608F025FD03461A461A4B1A607B680A331B781A46184B1A607B68DA7A174B90
S32D00010E481A707B680C331B78AA2B0CBF01230023DAB2134B1A70134B01221A70104B1B78002B08D0104800F09D
S32D00010E7053F8104B1B680F4A23F40053136000BF0837BD4680BD00BF3C1A0020000020410000C844401A00209A
S32D00010E98441A0020481A00204C1A0020501A0020511A0020521A0020541A0020C0F00F4080B582B000AF786089
S32D00010EC039607B68012B07D13B684FF6FF72934202D10348FFF720FF00BF0837BD4680BD341A002080B500AF92
S32D00010EE84FF6FF710120FFF7E3FF80BD80B483B000AF7860054B00221A60044B00225A607B6818460C37BD4664
S32D00010F1080BC7047541A002080B584B000AF7860154B1B68002B21D00023FB60124B5B68FA689A4214DA114A1D
S32D00010F38FB6852F82330002B0AD00E4AFB6852F823301846FCF7F2FA03461A460A4B1A70FB680133FB60E5E7AA
S32D00010F60054B00225A60044B00221A60044B1B7818461037BD4680BD541A0020601A00205C1A002080B582B05F
S32D00010F8800AF786039607B68012B07D13B684FF6FF72934202D10348FFF7A8FF00BF0837BD4680BD541A00207E
S32D00010FB080B500AF4FF6FF710120FFF7E3FF80BD80B483B000AF78600B4B03F5815310331B68094943F00102E5
S32D00010FD801F5815310331A60064B5B68054A43F03203536000BF0C37BD4680BC704700BF0070044000000A4030
S32D0001100000F03AB8012838BF012010B5044620460AF000F900B110BD00F0C8F908B18047F5E7042000F098F807
S32D00011028024B034A0349036000F068F9C0090200491001009C090200004870478C09020010B5034B03600446DD
S32D0001105000F0BEF8204610BDC009020010B5054B0360044600F0B4F820460421FFF7C8FF204610BDC009020029
S32D000110780AF0D4B8F0B4214C6368A0F108061BB350F8087CF519AB421ED82BD05A6804342AB90CE051681C1D07
S32D000110A0F1B113460A469542F8D329D1D5E900215960236817441A6899188E420DD05B6840F8043C236840F8DE
S32D000110C8087C5E60F0BC704740F8043C6660F0BC704717441F60FAE75B681A6899188E42E9D1F6E7D3E90023BC
S32D000110F0174440F8087C40F8043C6660F0BC70472368D8E7C81A0020124900F108024868082A38BF0822D8B1EB
S32D00011118073222F00702043102E0011D4068A0B103689A42F9D89B1A072B0AD930B4841845686560835008680F
S32D0001114002600C60083030BC704743680B60083070477047C81A002010B500F1800420460AF058F8034630B105
S32D000111688022002118460AF0A5FC803010BD2046FFF7C6FF03460028F2D100F049F800BF064A936880389842FD
S32D0001119005D9D2681344984201D2FFF76FBF0AF041B800BFC81A002038B5084C4FF41E652846E5600AF02EF862
S32D000111B8A06020B10023C0E90053606038BDE060606038BDC81A0020704700BF704700BF00487047CC090200AA
S32D000111E010B504210446FFF70BFF204610BD00BF08B5804709F08EFD07F092FA09F08AFD0D46044607F0CAFA57
S32D00011208013502D1204607F017FA07F017F900BF08B5034B1868BFF35B8FFFF7E5FF00BF200D002008B58047E9
S32D00011230FFF7F2FF08B5034B1868BFF35B8FFFF7F5FF00BF1C0D0020024B1868BFF35B8F704700BF200D002063
S32D00011258024B1868BFF35B8F704700BF1C0D0020012810B51AD8BFF35B8FA1F1280353E8002F013A43E8002016
S32D000112800028F8D1BFF35B8F5AB951F81C3C01F158040BB1204698472046BDE81040FFF773BF10BD51F8140CF6
S32D000112A8FFF7A2FFF8B5002540E91E1240F8805C0446FFF7CDFF44F8700CFFF7C1FF472343224E27552604F80C
S32D000112D0583C2B230A4904F8515C04F8577C04F8566C04F8552C04F8542C04F8533C04F8523C44F86C0C44F886
S32D000112F8501CA4F18000F8BD6912010070B5144605460E4607F08EFA224644680346013431465C602846FFF74F
S32D00011320C5FF0446012344F8283B204609F0F2FA204607F0F5F9FFF76FFF00BF10B507F075FAD0E900420132BB
S32D00011348426064B194F82020472A0AD0002202602034204609F0FEFA204607F0DDF9FFF757FF94F821204E2AB5
S32D00011370F0D194F82220552AECD194F82320432AE8D194F82420432AE4D194F825202B2AE0D194F826202B2A9E
S32D00011398DCD194F82720012AD8D8626952426261D6E700BF024B1868BFF35B8F704700BFD81A002010B5034B29
S32D000113C00360044600F04AF9204610BDBC0A020010B5054B0360044600F040F920460C21FFF70EFE204610BD70
S32D000113E8BC0A020070B582B00D46069E9642044609D0A06804680696246A2946A44602B0BDE8704060471946C1
S32D000114100192009300F064F8DDE900320028ECD0062002B070BD00BF2DE9F04F0D4681B01946DDE90A8BDDE942
S32D000114380CA91C461646074600F04EF880B9D04527D0B8680768CDE90CA9CDE90A8B2346FC6932462946A44666
S32D0001146001B0BDE8F04F6047002DC9F8008089F804600CDB4544AA450CBF4FF0060A4FF0010A89F806A00020C4
S32D0001148801B0BDE8F08F0235F9D1012389F80630F5E75946384600F01FF80028D1D089F80560ECE72DE9F041BB
S32D000114B006460F4614461D4600F00AF948B9B06806682246B4692B463946A446BDE8F0416047BDE8F08100BF84
S32D000114D8704700BF00207047814211D008B5406803782A2B0AD049680B782A2B08BF01310AF0F6FDB0FA80F05C
S32D00011500400908BD002008BD0120704770B53B4B1A7882B0002A41D101241C7007F0ACFC002831D04468364D9E
S32D0001152823782A2B08BF0134002211464FF0FF3601AB2046019606F00DFF2B680646DB682E483022012109F00B
S32D0001155025FE019B93B12B682046D96809F052FC2B682948DB680222012109F017FE019B13B9304609F056FE22
S32D00011578FFF7E0FE2B683046D96809F03FFCEBE71D4B20481B682146DB682D2209F002FE09F0BCFB184B1C4864
S32D000115A01B681D22DB68012109F0F8FD09F0B2FB01290C4619D107F0B3F803689B6898472B680646DB6813488F
S32D000115C821460B2209F0E6FD2B683046D96809F015FC2B680A20D96809F0A0FB07F0DAF8D6E707F099F807F099
S32D000115F0D5F8D1E707F0D2F806F024FFDC1A0020240D0020180B02004C0B0200500B0200F80A0200800B02009A
S32D0001161870B5036884B000249E6900941023CDE9023415466B4612688DF80440B0479DF8043003F00603062BC5
S32D0001164003BF009B2B600120204604B070BD00BF0098904214BF01200620704710B5034B03600446FFF738FF44
S32D00011668204610BDC40B020010B5054B03600446FFF72EFF20460821FFF7BEFC204610BDC40B02002DE9F041E0
S32D00011690DDE90815069F8F4290461E4604460CD031462046FFF71CFF20B101232F6085F80480AB710020BDE81E
S32D000116B8F0810799FFF710FF0028EDD085F805800020BDE8F08100BF38B515461C46FFF703FF00B938BD082297
S32D000116E006232560E260237138BD00BF2DE9F04116461D4607460C46FFF7F2FE48B9032D07D823683246394686
S32D0001170820465B69BDE8F0411847BDE8F08100BFF0B44D1E04464F2D40D8DFE805F0282828283F3F3F3F3D3DBF
S32D00011730283D3D3D3D3D3D3D3D3D3D3D3D3F2A2A2A2A2A2A2A2A283D3D3D3D3D3F3D2A29283F282A2A3D293F47
S32D000117583F3D3D3D28282828283D28283D283F3F3D3D3D3F3F3F3D3D3D282A282A2AAAB1A3B1D4E905508542B3
S32D0001178010DA26692F0106EB05104FF0000C0135C0F804C06561F155F0BCC0E902237047002AEAD10020F0BCA0
S32D000117A8704700BF10B4C3681C78522C0A460DD04F2C02D0084610BC7047C16A0331C16220210133C36010BC6A
S32D000117D00023A1E7C16A0231C1621F21F5E700BF002963D038B505460C462378013B4F2B37D8DFE803F0313181
S32D000117F8315036363B3B31313131313131313131313131313136313131313131313131312828313136313131E5
S32D0001182031373131313131363B3131313131313131313131313136363137373737363131313131313131A3680C
S32D000118481B78052B04D1D5F838310133C5F83831D5F81C31B3F5006F08DD38BDA468002CBFD138BDE468002C09
S32D00011870BBD1FAE70133C5F81C31A1682846FFF7AFFFE1682846FFF7ABFFD5F81C31013BC5F81C3138BDD5F80A
S32D0001189844310133C5F84431D5F81C31B3F5006FDBDCE3E7704700BF7AB32DE9F0410A440D460446D0F80011E6
S32D000118C0571E013D4FF0000809E00B46BD4201F10101C4F80011E65484F8046117D0FF2915F8016FF1D1D4E9DF
S32D000118E8423284F8FF8020469847D4F828310133C4F8283100230121BD42C4F80011E65484F80461E7D1BDE826
S32D00011910F08170472DE9F041026815786E2D07462CD0A5F13003092B33D84FF0000EDFF868C000206FF0004843
S32D0001193802E0B0EBD10F19DC01323A601478A4F1300300EB8000A8EB0301DBB205EB4006092BACFB0101254600
S32D00011960A6F13000E9D9BEF1000F01D0C6F13000BDE8F0814FF0FF30BDE8F081531C03605578A5F13002092A25
S32D0001198803D81A464FF0010ECDE70020ECE700BFCDCCCCCC38B5D0E9053293420FDA026902EB031419010025C7
S32D000119B0656001334225436155540C30FFF7AAFFA060204638BD0024204638BD10B5C3681A785F2A04460DD074
S32D000119D86E2A0DD00C30FFF799FF013008D4E3681A785F2A04D10133E36010BD0020FAE74FF0FF3010BD00BF1A
S32D00011A00C3681A78542A19D1013370B5C3600446FFF7DCFF021E0FDBD4E905318B420BDA216901EB03101D01A5
S32D00011A28002646600133052663614E55826070BD002070BD0020704770B504460C30FFF765FF051E3EDDE66839
S32D00011A5063689B1B9D4237DCA26873195207E36004D5725D242A04BF0133E360092D12DCD4E90532934227DAA4
S32D00011A78206900EB03100022013342606361FEB1C0E90265002343600370A06270BD1B490822304609F0D8FE02
S32D00011AA030B9337A2E2B13D05F2B11D0242B0FD0D4E905329A4207DD206900EB03100022013342606361DFE7EF
S32D00011AC80020E2E7002070BD737A4E2BECD1E26AD4E905311632551B8B42E562F0DA2269074D02EB0310591C6D
S32D00011AF01B01616100214160D1541523C0E90253C7E700BFE80B0200F40B020070B5C368866A1A78422A0446E1
S32D00011B180D460FD10133E3602046FFF78DFF2A4603464C212046FFF7F3FDE3681A78422A0546EFD0A6622846D1
S32D00011B4070BD00BF2DE9F843C3681A78532A30D15A1CC2605A78044692B39A1CC2605A785F2A42D0A2F13000FD
S32D00011B68C3B2092B24D800210DE0303B99421CD8E1680A78481C1AB1E0600A785F2A39D0A2F130001946C0B27F
S32D00011B9001EBC1030928A2F1410502EB8303E8D9192D06D801EBC10302EB8303373B9942E2D90020BDE8F883A9
S32D00011BB8A2F14103192BD6D9A36803F00803002B14BF0125002500D1B1B9354B742103F1A80001E013F81C1FCF
S32D00011BE0914214D08342F9D1E3E70023226A9A42DFD9E26952F82300BDE8F8830133F5E7E3681B78433B012B13
S32D00011C0898BF0D46E1E75E69002E42D0D4E905208242D3F818C041DA27694FEA021E07EB02114FF00009013267
S32D00011C304FF01808C1F80490626107F80E80C1E9026CA16235B3D3E90351E36A82420B44E36225DA236903EB58
S32D00011C5802101601002747600132182762619F55C0E90251E3681B78422B9FD101462046FFF748FF002898D00C
S32D00011C80D4E90832934294DAE1695A1C41F8230022628FE7D3E90151D7E7D4E90520D1E70020E3E70021CCE7C1
S32D00011CA87414020038B5044629B9C3681A787AB15A1CC2601978682919D0762908D104F10C052846FFF722FEDD
S32D00011CD0E3681A785F2A01D0002038BD0133E3602846FFF717FEE3681A785F2AF4D10133E360012038BD04F1FC
S32D00011CF80C00FFF70BFEF2E7C3681A785F2A01D00120704710B55A1CC2605A785F2A044605D00C30FFF7FAFDEA
S32D00011D20C043C00F10BD023340F80C3FFFF7F2FD002809DB092805DDE3681A785F2A03D10133E360012010BD9A
S32D00011D48002010BD28B909E0002908DDC068013940B103782F2BF7D0002070477047FBD180687047704700BF49
S32D00011D700346D0F8100130B1096843680029D86800DBE3E770470122C3F81821704700BF002943D038B505465F
S32D00011D980C4623784C2B33D8DFE803F03032323232273038383232323232323232323232323232323032323280
S32D00011DC03232323232323232323232303232323230323232323230383232323232323232323232323230303228
S32D00011DE83232303030323230300004F108012846FFF7BAFF10B103782F2B00D0002038BDA1682846FFF7C0FF52
S32D00011E100028F8D1E468002CBFD1F3E700207047F0B514465268A5684B1C1344AB4283B00E46074611D8E5687E
S32D00011E386DB9D4E9000339461844324609F034FDD4E9003233449D5461683144616003B0F0BDE268002AFAD123
S32D00011E6055B16D00AB42FCD82068294609F0BCFE38B12060A560DEE7022B4FF00205F0D8F2E70190206809F01C
S32D00011E88CDF9019B0122C4E90033C4E90232DEE72DE9F04FC268157885B000238D420446039300F028820F461E
S32D00011EB0994603AE4FF00108D4F830A0C4F8308013784C2B7FD0542B00F09C80732B4DD0662B24D15378702BA0
S32D00011ED800F09980204601F025FD0546002800F087800378322B00F0B280342B00F061810AD8332B08D18368C0
S32D00011F00032B05D8DFE813F032015E0104000400C4F830A00025284605B0BDE8F08FA3F13001092935D82046E1
S32D00011F2801F0CCFE0546002862D0E3681A78492A00F0A180C4F830A02A4600232E212046FFF7E6FB3060002866
S32D00011F5041D0E2681378BB4200F10C06ACD1039D01322846E26005B0BDE8F08F5378722B00F0E580702BB1D1C9
S32D00011F780232E260204600F00BFA002302464B212046FFF7C5FB05461DE06F2B24D0692B7ED153786C2B9DD1ED
S32D00011FA00232E26000255078002800F0978145212046FFF771FF2A46034631212046FFF7ABFB054603E02046AC
S32D00011FC801F0CAFF0546C4F830A0002DB4D10025284605B0BDE8F08F53786E2B7FF47AAF0232E260204601F06E
S32D00011FF069FE054600289CD12846C4F830A005B0BDE8F08F2046FFF7FBFC0546DFE7931CE3609378542B5FD099
S32D000120182046FFF7D7FC6FF0004398423FF474AF431C3FF471AF0130D4E905329342BFF66BAF2269190102EB8B
S32D0001204003154FF0060C0133C5F80490636102F801C0A86072E78068E26A8168036802390A44E2621A78732A1F
S32D0001206825D0D0F80CB0BBF1030F3FF64DAFDFE80BF0793381B00133E360204600F0BCFB2A460346042120467A
S32D00012090FFF742FB05469AE7742B7FF41FAF53786C2B7FF41BAF0232E260204601F046F8E268054677E75978D4
S32D000120B87429D6D199780029D3D1204601F03AF803462A4637212046FFF722FB05467AE70332E2600020A7E7F3
S32D000120E01978702920D06D291ED04FF0000B732A12D15A78502A0FD19B786BB9204600F07FFB0346BBF1000F32
S32D00012108DFD01A4639212046FFF702FB0346D8E7204600F03DF90346BBF1000FF1D1D0E758788842DDD1E16844
S32D0001213008785F28DBD10131E1601A78D5E70232E260204600F0FAFF0546204601F0BAFDE368197849298346D7
S32D0001215800F0C48003462A4601212046FFF7D8FA054630E72A46002336212046FFF7D0FA054628E7AA681268C3
S32D000121805178632900F0CC801A78662A00F0D8802046019300F000F9019B83461A78632A72D159786C296FD1E5
S32D000121A8997800296CD145212046FFF771FE024675E0E3681A785F2A00F0A680204600F0E7F82A460346372101
S32D000121D02046FFF7A1FA0546F9E6712A17D15A78752A14D19A7892B9204600F0D5F88346204600F0D1F8024636
S32D000121F82046019200F0CCF8019A034670BBC4F830A0054683E61A78662A00F09C806E2A7FF47AAE5B78772BE6
S32D0001222002D0612B7FF474AE5F212046FFF734FE8346204600F082FFE36819784529024600F0A580702900F0BE
S32D00012248948069297FF460AE5B786C2B7FF45CAE0190204600F09CF8019A03463C212046FFF756FA5A46034608
S32D000122703B212046FFF750FA2A4603463A212046FFF74AFA0546A2E6642A1AD15978742917D19978A9B920460E
S32D0001229801F014FDE36819784929024657D0134639215A462046FFF733FA2A46034638212046FFF72DFA05469C
S32D000122C085E6702A05D15A78742A02D19B78002BE1D0204600F060F80246E4E7C4F830A0054618E60133E360D5
S32D000122E8204600F089FA5A46034604212046FFF70FFA03462FE70132C2602E211A4605B0BDE8F04FFFF704BACB
S32D000123100133E36045212046FFF7BEFD0346D4E61278A2F16301012903D9723A012A3FF62BAF2046019300F050
S32D0001233801FF019B83462DE72046019301F0F2FA019B834626E7204601F0ECFA4BE701330190E360204600F0E7
S32D000123604FFA019A034604212046FFF7D5F9024699E7597869297FF4CBAD02330190E36045212046FFF788FD6C
S32D00012388019A03466AE70133E360002366E700BFC26813784C2B00F09280542B00F09180732B2DE9F04104466E
S32D000123B053D0662B31D0A3F1300109290CD8204601F080FC0546002879D0E3681A78492A7DD02846BDE8F081BE
S32D000123D86F2B4FD0692B40F0838053786C2B00F0A280204601F09EFA0546002863D00378322B45D0342B00F011
S32D0001240093815CD8332B5AD18368032B57D8DFE813F0CF000301560056005378702BE4D1931CC3609378542BD4
S32D0001242800F02481FFF7CEFAC34333F0004342D00130D4E9053293423DDA226902EB0315190100266E600133D1
S32D00012450062663615654A860BBE75378722B51D0702BC2D10232C260FFF796FF002302464B212046BDE8F0416E
S32D00012478FFF74EB953786E2BB3D10232C2609AE78168E36A8A680E68023A1344E3623378732B5AD17278742A07
S32D000124A057D1B278002A54D1204600F047FE03462A4620463721BDE8F041FFF72DB900252846BDE8F08101F00E
S32D000124C84BBDFFF799BA0133E360204600F094F92A46034604212046BDE8F041FFF718B9742B7FF47EAF53784F
S32D000124F06C2B7FF47AAF0232E26000F01FFEE268054617E00232C26000F018FE0546204601F0D8FBE3681A78CD
S32D00012518492A064620D003462A4620460121BDE8F041FFF7F5B80232E26000255378002BC1D045212046FFF747
S32D00012540ABFC2A46034631212046BDE8F041FFF7E3B8CF68032FB2D8DFE807F02A0F32630133E360204600F0A1
S32D000125684BF93246034604212046FFF7D1F80346D2E73278702A00F082806D2A7FD00027732B77D17378502B64
S32D0001259074D1B378002B71D1204600F031F90346002F85D01A4639212046FFF7B5F87EE72A4620460023BDE82C
S32D000125B8F0413621FFF7ACB8AB681B685A78632A00F0C2803378662B00F0CC802046FFF7DFFE07463378632BB4
S32D000125E040F0858072786C2A40F08180B278002A7DD145212046FFF74FFC064633463A4639212046FFF788F8BC
S32D000126082A46034638212046BDE8F041FFF780B82046FFF7BDFE034646E7712B3CD17378752B39D1B378BBBBBB
S32D000126302046FFF7B1FE06462046FFF7ADFE07462046FFF7A9FE034600283FF438AF3A463C212046FFF760F8B1
S32D00012658324603463B212046FFF75AF82A4603463A212046BDE8F041FFF752B80332C2600020DEE62046FFF7A1
S32D000126808BFE03468CE7717891427FF47CAFE26811785F297FF478AF0132E260337872E73378662B6ED06E2B0B
S32D000126A87FF409AF7378772B02D0612B7FF403AF5F212046FFF7ECFB0646204600F03AFDE3681A78452A074693
S32D000126D068D0702A5AD0692A7FF4F1AE5B786C2B7FF4EDAE2046FFF757FE0346AFE7642B27D17278742A24D12E
S32D000126F8B27812BB204601F0E1FAE3681A78492A06467FF477AF0133E360204600F074F83246034604212046D0
S32D00012720FEF7FAFF064669E7E3681A785F2A7FF473AF0133E36045212046FFF7ADFB0346B6E6702B17D0204657
S32D00012748FFF726FE064655E71B78A3F16302012A03D9723B012B3FF635AF204600F0EAFC074637E7204601F03D
S32D00012770DDF8074632E77378742BE4D1B378002BBCD0E0E7204601F0D1F854E75A78692A7FF495AE0233E36029
S32D0001279845212046FFF77CFB034654E70133E360002350E738B5C26813784C2B1DD0044605D8493B012B13D8BC
S32D000127C0BDE838404EE0582B0ED101320123056BC2600363FFF7E0FDE36825631A78452A0BD10133E36038BDFF
S32D000127E82046BDE8384000F0A5BCBDE8384001F0B3BB002038BD00BF70B5C368866A1A78452A82B004461FD0F2
S32D000128100023019301AD09E0FEF77EFF286000F10C0560B1E3681A78452A0BD02046FFF7BDFF024600232F2144
S32D000128382046002AECD1002002B070BD0198A6620133E36002B070BD5A1C0023C2602F211A4602B0BDE87040BC
S32D00012860FEF75ABFC1680A78493A012A02D80131C160C5E7002070472DE9F047C2681378472B044601D0542B24
S32D0001288834D1E16A01F11403E3621378542B5DD0472B40F0A680531CE3605378002B00F0A080931CE36053780F
S32D000128B0562B00F2B580402B40F29780413B152B00F29380DFE813F01C019100910091009100910091009100FE
S32D000128D891009100910091009100910091009100910028019100370191004B010E4600F057FA0546002874D09D
S32D00012900002E76D0A368DB0773D42B784D2BA3F11C01A3F14F0200F0D88000F2D480042940F2D380022B61D1B0
