S01200002E2E2F48382D526F626F742E733139A4
S32D0000C000000000205DC2000011C3000017C300001DC3000023C3000029C3000000000000000000000000000073
S32D0000C028000000002FC3000035C30000000000003BC3000041C30000C9DE0000D5DE0000E1DE0000EDDE00001A
S32D0000C050F9DE000005DF000011DF00001DDF000029DF000035DF000041DF00004DDF000059DF000065DF000037
S32D0000C07871DF00007DDF000089DF000095DF0000A1DF0000ADDF0000B9DF0000C5DF0000D1DF0000DDDF00005E
S32D0000C0A0E9DF0000F5DF000001E000000DE0000019E0000025E0000031E000003DE0000049E0000055E000007E
S32D0000C0C861E000006DE0000079E0000085E0000091E000009DE00000A9E00000B5E00000C1E00000CDE00000A4
S32D0000C0F0D9E000002D510100E5E00000F1E00000FDE0000009E1000015E1000021E100002DE1000039E100006D
S32D0000C11845E1000051E100005DE1000069E1000075E1000081E100008DE1000099E10000A5E10000B1E1000061
S32D0000C140BDE10000C9E10000D5E10000E1E1000091300100EDE10000F9E1000005E2000011E200001DE20000CE
S32D0000C16829E2000035E2000041E200004DE2000059E2000065E2000071E200007DE2000089E2000095E200001F
S32D0000C190A1E20000ADE20000B9E200007D2C01002D2B0100DD2B010045DC0000212D0100C5E20000D1E20000FE
S32D0000C1B8DDE20000A839060000000020C8170000A83906000000FF1F00000000C8170020E41D00000000FF1F91
S32D0000C1E00000000080B489B000AFF860B9607A60BB68FB61FB68BB6100237B617A697B689A420BD2BA69131DFB
S32D0000C208BB61FB69191DF96112681A607B6904337B61EFE700BF2437BD4680BC704780B485B000AF786039609E
S32D0000C2307B68FB600023BB60BA683B689A4208D2FB681A1DFA6000221A60BB680433BB60F2E700BF1437BD46FE
S32D0000C25880BC704780B586B000AF72B6234B4CF220521A80214B4DF628121A80204B4FF4E9721A801F4B7B615F
S32D0000C2807B691F4A934214D27B691A1D7A611B683B617B691A1D7A611B68FB607B691A1D7A611B68BB60BA68E9
S32D0000C2A8F9683869FFF79AFFE6E77B69134A93420ED27B691A1D7A611B68FB607B691A1D7A611B68BB60B9688B
S32D0000C2D0F868FFF7A8FFECE70B4B7B600B4A7B681A603EF09DFA62B601F072FD01F0A8FAFEE700BF0E200540A6
S32D0000C2F800200540BCC10000D4C10000E4C1000008ED00E000C0000080B400AFFEE780B400AFFEE780B400AFF4
S32D0000C320FEE780B400AFFEE780B400AFFEE780B400AFFEE780B400AFFEE780B400AFFEE780B400AFFEE780B426
S32D0000C34800AFFEE7FFFFFFFFFFFFFFFFFFFFFFFFFFFFFFFFFFFFFFFFFFFFFFFFFFFFFFFFFFFFFFFFFFFFFFFF57
S32D0000C370FFFFFFFFFFFFFFFFFFFFFFFFFFFFFFFFFFFFFFFFFFFFFFFFFFFFFFFFFFFFFFFFFFFFFFFFFFFFFFFFC7
S32D0000C398FFFFFFFFFFFFFFFFFFFFFFFFFFFFFFFFFFFFFFFFFFFFFFFFFFFFFFFFFFFFFFFFFFFFFFFFFFFFFFFF9F
S32D0000C3C0FFFFFFFFFFFFFFFFFFFFFFFFFFFFFFFFFFFFFFFFFFFFFFFFFFFFFFFFFFFFFFFFFFFFFFFFFFFFFFFF77
S32D0000C3E8FFFFFFFFFFFFFFFFFFFFFFFFFFFFFFFFFFFFFFFFFFFFFFFFFFFFFFFFFFFFFFFFFFFFFFFFFEFFFFFF50
S32D0000C41010B5054C237833B9044B13B10448AFF300800123237010BDC8170020000000008027060008B5034BA5
S32D0000C4381BB103490348AFF3008008BD00000000CC1700208027060080B483B000AF78607B6818460C37BD4667
S32D0000C46080BC704780B582B000AF7860134800F023FE134800F002FF114800F015FF114800F052FC104801F0D8
S32D0000C4888DF855210E4801F05BF80E4801F002F955210C4801F0C4F80B4801F06DF95521094801F039F9094853
S32D0000C4B001F010F800BF0837BD4680BD2C18002054180020101800207018002080180020901800205818002037
S32D0000C4D880B582B000AF7860074800F011FC074800F08CFF044800F01BFC044800F094FF00BF0837BD4680BDD2
S32D0000C500101800205818002080B582B000AF7860174800F0C3FD174800F0F2FE4FF00002154B164800F02EFFDD
S32D0000C528124800F0A7FE1449104800F0C7FE134807F0E4FF124A1349104807F0CDFC034683F00103DBB2002B0F
S32D0000C55000D0F3E70C4A0D490A4807F0C1FC0346002B00D0F6E700BF0837BD4680BD00BF2C1800205418002053
S32D0000C5780000144058180020F89D0500901B0020EC170020E817002080B584B000AFF860C7E900231F4800F070
S32D0000C5A0EBF902460B46D7E900013BF0A3FB0346002B0BD11A4800F001FC02460B46D7E900013BF097FB034667
S32D0000C5C8002B01D0012300E00023002B04D0F868FFF77EFF002318E0104800F003FD0346002B05D10D4800F05E
S32D0000C5F0C3FC0346002B01D0012300E00023002B01D0002305E0BA69B969074800F017FA012318461037BD468D
S32D0000C61880BD00BF0818002014180020241800201018002080B582B000AF786039607B68012B07D13B684FF672
S32D0000C640FF72934202D10348FFF702FF00BF0837BD4680BDE417002080B500AF4FF6FF710120FFF7E3FF80BD49
S32D0000C66880B483B000AF78607B6818460C37BD4680BC704780B582B000AF7860396038683BF0AEFC0346194698
S32D0000C690034801F0A9FE00BF0837BD4680BD00BFF417002080B582B000AF7860396038683BF09AFC03461946E1
S32D0000C6B8034801F095FE00BF0837BD4680BD00BFFC17002080B582B000AF7860034801F045FE00BF0837BD46E7
S32D0000C6E080BD00BFF417002080B582B000AF7860034801F037FE00BF0837BD4680BD00BFFC17002080B582B00F
S32D0000C70800AF786039607B68012B11D13B684FF6FF7293420CD10848FFF7A2FF074A0021074801F0DDFD054A25
S32D0000C7300121064801F0D8FD00BF0837BD4680BDF017002000001041F4170020FC17002080B500AF4FF6FF71F8
S32D0000C7580120FFF7D3FF80BD80B483B000AF78607B6818460C37BD4680BC7047FFFFFFFF80B483B000AF78603B
S32D0000C78005A3D3E90023104619460C37BD4680BC704700BFAFF300802706222256599E3F80B483B000AF78604A
S32D0000C7A805A3D3E90023104619460C37BD4680BC704700BFAFF30080814EE62E0BEB3940B0B584B000AFF8601B
S32D0000C7D00B467A60FB72FB7A4C2B37D178683AF0ADFF3BA3D3E900233BF012F802460B4614461D4678683AF0A7
S32D0000C7F8A1FF02460B46204629463BF005F802460B4614461D4678683AF094FF30A3D3E900233AF0F9FF0246CE
S32D0000C8200B46204629463AF03DFE02460B46104619462BA3D3E900233AF032FE02460B46104619463BF07EFA19
S32D0000C84803463AE0FB7A522B37D178683AF072FF23A3D3E900233AF0D7FF02460B4614461D4678683AF066FF80
S32D0000C87002460B46204629463AF0CAFF02460B4614461D4678683AF059FF19A3D3E900233AF0BEFF02460B4666
S32D0000C898204629463AF002FE02460B461046194613A3D3E900233AF0F7FD02460B46104619463BF043FA034673
S32D0000C8C0FFE718461037BD46B0BD00BFAFF300802D431CEBE2367A3FF4FDD478E926E53FE3A59BC420F024405B
S32D0000C8E876711B0DE02D803FE71DA7E8482EE53FA01A2FDD2486324080B582B000AF786039607B68012B07D1CA
S32D0000C9103B684FF6FF72934202D10348FFF720FF00BF0837BD4680BD0418002080B500AF4FF6FF710120FFF76E
S32D0000C938E3FF80BD80B582B000AF78607868FFF78FFE7868FFF708FF7B6818460837BD4680BD80B582B000AFAE
S32D0000C960786039603B685B4219467868FFF786FE00BF0837BD4680BDB0B582B000AF78600C4806F01BFA03463B
S32D0000C98818463AF0D7FE04460D467868FFF7F0FE02460B46204629463AF036FF02460B46104619460837BD4666
S32D0000C9B0B0BD00BF0C18002080B582B000AF7860034806F00DFA00BF0837BD4680BD00BF0C18002080B582B00B
S32D0000C9D800AF786039607B68012B0BD13B684FF6FF72934206D10548FFF7A4FF0121044805F022FF00BF0837B9
S32D0000CA00BD4680BD081800200C18002080B500AF4FF6FF710120FFF7DDFF80BD80B582B000AF78607868FFF7B7
S32D0000CA2889FF7B680133184600F0A8F97B6818460837BD4680BD80B584B000AFF860B9607A60B968F868FFF7B8
S32D0000CA5084FFFB6801337968184600F0A2F900BF1037BD4680BDFFFF90B585B000AFF860C7E90023F868FFF7E6
S32D0000CA787FFF02460B4601210C46D7E900013BF053F90346002B01D100231C46E3B2002B14D0396AF868FFF765
S32D0000CAA05CFFFB680133184600F088F902460B4601210C46D7E90A013BF03AF90346002B07D104E00C48FFF7F7
S32D0000CAC807FD002310E000231C46E3B2002B07D0FB680133396B184600F05FF9012303E00348FFF7F5FC0023D0
S32D0000CAF018461437BD4690BDE4170020B0B58AB006AFF860C7E900233A6A4C212548FFF75BFE034618463AF0E7
S32D0000CB1811FE04460D462148FFF72AFE02460B46204629463AF070FE02460B46D7E900013AF0B2FC02460B46EB
S32D0000CB40C7E900233A6B52211648FFF73DFE034618463AF0F3FD04460D461248FFF70CFE02460B462046294627
S32D0000CB683AF052FE02460B46D7E90A013AF094FC02460B46C7E90A233B6B0493D7E90A23CDE902233B6A009354
S32D0000CB90D7E90023F868FFF767FF034618461037BD46B0BD0418002080B58AB006AFF860C7E90023BB69049334
S32D0000CBB8D7E90023CDE90223BB690093D7E90023F868FFF797FF034618461037BD4680BD2DE9B04F8AB006AFD9
S32D0000CBE0F860C7E900234FF000021F4BD7E900013AF038FF02460B4614461D461B48FFF7CFFD02460B462046B5
S32D0000CC0829463AF001FE02460B46904699463B6B5C424FF00002124BD7E900013AF01EFF02460B4692469B46DC
S32D0000CC300E48FFF7B5FD02460B46504659463AF0E7FD02460B46396B0491CDE90223009442464B46F868FFF74C
S32D0000CC5851FF034618461037BD46BDE8B08F00BF00807640041800202DE9B0438AB006AFF860C7E900234FF0F6
S32D0000CC8000021F4BD7E900013AF0ECFE02460B4614461D461B48FFF783FD02460B46204629463AF0B5FD024684
S32D0000CCA80B4614461D464FF00002134BD7E900013AF0D4FE02460B46904699460F48FFF76BFD02460B464046D2
S32D0000CCD049463AF09DFD02460B46B96A49420491CDE90223BB6A009322462B46F868FFF705FF03461846103753
S32D0000CCF8BD46BDE8B08300BF008076400418002080B582B000AF78607868FFF7DBFC7B6801331846FFF7E4FC1C
S32D0000CD2000BF0837BD4680BD80B582B000AF78607868FFF741FE7B680133184600F05EF800BF0837BD4680BDAB
S32D0000CD4880B582B000AF786039607B68012B07D13B684FF6FF72934202D10348FFF75AFE00BF0837BD4680BD77
S32D0000CD701018002080B500AF4FF6FF710120FFF7E3FF80BD80B582B000AF78607868FFF76BFC7868FFF7E4FC9D
S32D0000CD987B6818460837BD4680BD80B582B000AF7860396039687868FFF778FC00BF0837BD4680BDB0B582B066
S32D0000CDC000AF78600C4805F0F9FF034618463AF0B5FC04460D467868FFF7CEFC02460B46204629463AF014FD15
S32D0000CDE802460B46104619460837BD46B0BD00BF1818002080B582B000AF7860034805F0EBFF00BF0837BD46F8
S32D0000CE1080BD00BF1818002080B582B000AF786039607B68012B0BD13B684FF6FF72934206D10548FFF7A6FF49
S32D0000CE380021044805F000FD00BF0837BD4680BD141800201818002080B500AF4FF6FF710120FFF7DDFF80BDCA
S32D0000CE6080B483B000AF78607B6818460C37BD4680BC704780B582B000AF7860154808F005FA0346002B0CBFBB
S32D0000CE8801230023DBB2002B01D04C2319E00F4808F0F8F90346012B0CBF01230023DBB2002B01D04D230CE098
S32D0000CEB0084808F0EBF90346022B0CBF01230023DBB2002B01D05223FFE718460837BD4680BD00BFF81B0020ED
S32D0000CED880B582B000AF786039607B68012B07D13B684FF6FF72934202D10348FFF7B4FF00BF0837BD4680BD8B
S32D0000CF001C18002080B500AF4FF6FF710120FFF7E3FF80BD80B483B000AF78607B6818460C37BD4680BC704778
S32D0000CF2880B582B000AF786039607B68012B07D13B684FF6FF72934202D10348FFF7E6FF00BF0837BD4680BD08
S32D0000CF502018002080B500AF4FF6FF710120FFF7E3FF80BD80B483B000AF78607B6818460C37BD4680BC704724
S32D0000CF7880B582B000AF7860194805F051FF034618463AF0E9FB12A3D3E900233AF0CCFE0346002B10D012480C
S32D0000CFA005F042FF034618463AF0DAFB0CA3D3E900233AF09FFE0346002B01D0012300E00023002B01D00123A6
S32D0000CFC800E0002318460837BD4680BDAFF300805839B4C876BE9F3F5C8FC2F5285CDF3F2818002080B582B00F
S32D0000CFF000AF7860114805F017FF03464FF07C5118463BF001FA0346002B0DD00B4805F00BFF03464FF07E5155
S32D0000D01818463BF0D7F90346002B01D0012300E00023002B01D0012300E0002318460837BD4680BD28180020C5
S32D0000D04080B582B000AF786039607B68012B0BD13B684FF6FF72934206D10548FFF782FF1021044805F0CEFE49
S32D0000D06800BF0837BD4680BD241800202818002080B500AF4FF6FF710120FFF7DDFF80BD80B483B000AF7860E9
S32D0000D0907B6818460C37BD4680BC704780B582B000AF7860034808F0B1FA00BF0837BD4680BD00BF181C0020CB
S32D0000D0B880B582B000AF7860054B1968054B064A064808F0D5FA00BF0837BD4680BD00BF30180020109E0500BE
S32D0000D0E0189E0500181C002090B585B002AF7860084B1C68084800F0DDF902460B46CDE90023064A21460648AC
S32D0000D10808F0B6FA00BF0C37BD4690BD30180020581800201C9E0500181C002080B582B000AF786039607B688A
S32D0000D130012B0FD13B684FF6FF7293420AD10748FFF7A2FF064A0749074808F093F90346064A136000BF083759
S32D0000D158BD4680BD2C180020209E0500249E0500181C00203018002080B500AF4FF6FF710120FFF7D3FF80BD00
S32D0000D18080B483B000AF78607B6818460C37BD4680BC704780B582B000AF786039607B68012B13D13B684FF6B7
S32D0000D1A8FF7293420ED10948FFF7E6FF1121084805F066FA1221074805F062FA1321064805F05EFA00BF083791
S32D0000D1D0BD4680BD34180020381800203C1800204018002080B500AF4FF6FF710120FFF7D1FF80BD80B483B005
S32D0000D1F800AF78607B6818460C37BD4680BC704780B582B000AF786039607B68012B13D13B684FF6FF72934260
S32D0000D2200ED10A21084805F0EDFD0921074805F0E9FD0821064805F0E5FD0648FFF7DAFF00BF0837BD4680BDAA
S32D0000D24844180020481800204C1800205018002080B500AF4FF6FF710120FFF7D1FF80BD80B483B000AF786005
S32D0000D2707B6818460C37BD4680BC704780B582B000AF78600021074806F050FD0121054806F09DFD002103480A
S32D0000D29806F078FC00BF0837BD4680BD901B002080B582B000AF7860034807F027F900BF0837BD4680BD00BFA8
S32D0000D2C0901B002080B582B000AF786039607868FFF7D4FF386840F013F8024613465B0013445B00C3F1A00365
S32D0000D2E81A4678233968034806F094FD00BF0837BD4680BD901B002080B582B000AF78600749084806F0F7FE28
S32D0000D310074800F0CFF802460B46044806F08EFF00BF0837BD4680BD509E0500901B00205818002080B582B08E
S32D0000D33800AF786039607B68012B07D13B684FF6FF72934202D10348FFF78AFF00BF0837BD4680BD541800202B
S32D0000D36080B500AF4FF6FF710120FFF7E3FF80BD80B483B000AF78607B6818460C37BD4680BC704780B584B0FF
S32D0000D38800AFF860C7E90023D7E9000105F052F9074BD3E90001D7E900233AF07FF802460B460349C1E9002357
S32D0000D3B000BF1037BD4680BD6018002080B582B000AF78603960386805F022F93B680B4A82FB03129211DB171B
S32D0000D3D8D31A18463AF0AEF9074BD3E900233AF05DF802460B460449C1E9002300BF0837BD4680BDD34D6210D8
S32D0000D4006018002080B582B000AF78604FF4FA717868FFF7D3FF00BF0837BD4680BDFFFF80B483B000AF7860F8
S32D0000D42805494FF000024FF00003C1E9002300BF0C37BD4680BC704768180020FFFFFFFF80B582B000AF7860B6
S32D0000D45013A1D1E9000105F0F1F8134BD3E900010FA3D3E900233AF01DF802460B460E49C1E900230D4BD3E9A5
S32D0000D478000109A3D3E900233AF010F802460B460849C1E900230848FFF72AFE00BF0837BD4680BDAFF3008043
S32D0000D4A0FCA9F1D24D62503F60180020681800202C18002080B483B000AF7860044BD3E90023104619460C3708
S32D0000D4C8BD4680BC704700BF6018002080B483B000AF786005494FF000024FF00003C1E9002300BF0C37BD4658
S32D0000D4F080BC70476018002080B582B000AF786039607B68012B07D13B684FF6FF72934202D10348FFF72CFFA8
S32D0000D51800BF0837BD4680BD5818002080B500AF4FF6FF710120FFF7E3FF80BD80B483B000AF78607B68184619
S32D0000D5400C37BD4680BC704780B582B000AF78600B46FB70FB784C2B05D14FF000010E4805F09AFF14E0FB788F
S32D0000D568552B04D10B490A4805F092FF0CE0FB78522B04D10849064805F08AFF04E04FF00001034805F084FF5F
S32D0000D59000BF0837BD4680BD741800200000BA420000344380B582B000AF786040F26221054805F037FF40F6BF
S32D0000D5B8D401034805F04FFF00BF0837BD4680BD7418002080B582B000AF786039607B68012B0BD13B684FF69E
S32D0000D5E0FF72934206D10548FFF7A4FF0021044805F0FCFE00BF0837BD4680BD701800207418002080B500AF48
S32D0000D6084FF6FF710120FFF7DDFF80BD80B483B000AF78607B6818460C37BD4680BC704780B582B000AF7860B9
S32D0000D6300B46FB70FB784C2B04D11349134805F02BFF1CE0FB784D2B04D111490F4805F023FF14E0FB78482B1D
S32D0000D65804D10E490B4805F01BFF0CE0FB78552B05D14FF00001074805F012FF03E00849044805F00DFF00BF8C
S32D0000D6800837BD4680BD00BF0000C8428418002000009242000070420000344380B582B000AF78604FF43E719B
S32D0000D6A8054805F0BBFE4FF41B61034805F0D3FE00BF0837BD4680BD8418002080B582B000AF786039607B6825
S32D0000D6D0012B0BD13B684FF6FF72934206D10548FFF798FF0121044805F080FE00BF0837BD4680BD801800206E
S32D0000D6F88418002080B500AF4FF6FF710120FFF7DDFF80BD80B483B000AF78607B6818460C37BD4680BC704717
S32D0000D72080B582B000AF78600B46FB70FB78552B04D10F490F4805F0AFFE14E0FB784D2B04D10D490B4805F0C6
S32D0000D748A7FE0CE0FB78442B04D10A49074805F09FFE04E04FF00001044805F099FE00BF0837BD4680BD00BF3E
S32D0000D7700000A04094180020000020420000824280B582B000AF78604FF4FA71054805F049FE4FF4166103488F
S32D0000D79805F061FE00BF0837BD4680BD9418002080B582B000AF786039607B68012B0BD13B684FF6FF72934265
S32D0000D7C006D10548FFF7A2FF0221044805F00EFE00BF0837BD4680BD901800209418002080B500AF4FF6FF71A5
S32D0000D7E80120FFF7DDFF80BD80B483B000AF78607B6818460C37BD4680BC704780B582B000AF786039607B6811
S32D0000D810012B07D13B684FF6FF72934202D10348FFF7E6FF00BF0837BD4680BDA018002080B500AF4FF6FF7110
S32D0000D8380120FFF7E3FF80BD80B586B002AF0023FB731423BB60B548FEF708FEFB7B002B24D0B348FFF70EFD04
S32D0000D860B249B148FFF72EFDB14806F04BFE3A463B1D1946AE4806F033FB034683F00103DBB2002B00D0F2E7DB
S32D0000D8883A463B1D1946A84806F026FB0346002B00D0F5E7A148FEF7E1FD11E0A349A048FFF70CFDA248FFF7B4
S32D0000D8B063FB034683F00103DBB2002B00D0F5E79848FEF7CFFD03E09648FEF71DFEC4E7282300934FF000028C
S32D0000D8D8984B9948FFF764F90346002B03D09748FFF7AEFDF0E7282300934FF00002944B9148FFF7B9F90346A5
S32D0000D900002B03D08F48FFF79FFDF0E7282300934FF000028D4B8A48FFF746F90346002B03D08848FFF790FD23
S32D0000D928F0E7282300934FF00002874B8248FFF74FF90346002B03D08048FFF781FDF0E76FF0270300934FF04C
S32D0000D9500002804B7348FEF71BFE0346002B03D07848FFF771FDEFE7282300934FF00002794B7348FFF718F92D
S32D0000D9780346002B03D07148FFF762FDF0E74C217448FFF7DDFD282300934FF000026E4B6948FFF769F9034632
S32D0000D9A0002B03D06748FFF74FFDF0E7282300934FF00002684B6248FFF7F6F80346002B03D06048FFF740FD11
S32D0000D9C8F0E755216348FFF7BBFD4FF00002624B5A48FFF7D3FC4C215E48FFF7B1FD6FF0270300934FF0000222
S32D0000D9F05C4B5348FFF7D8F80346002B03D05148FFF722FDEFE7282300934FF00002504B4B48FFF7E1F80346D1
S32D0000DA18002B03D04948FFF713FDF0E7282300934FF00002434B4448FFF7BAF80346002B03D04248FFF704FDCB
S32D0000DA40F0E748214848FFF7EFFD282300934FF000023D4B3A48FFF7BFF80346002B03D03848FFF7F1FCF0E7AF
S32D0000DA684048FFF703FA03464C2B0CBF01230023DBB2002B0ED0282300934FF000023A4B2D48FFF78DF80346D0
S32D0000DA90002B37D02B48FFF7D7FCF0E73348FFF7E9F903464D2B0CBF01230023DBB2002B0ED0282300934FF04A
S32D0000DAB800022A4B2048FFF773F80346002B1DD01E48FFF7BDFCF0E72648FFF7CFF90346522B0CBF01230023AF
S32D0000DAE0DBB2002B0ED0282300934FF00002214B1348FFF759F80346002B03D01148FFF7A3FCF0E7282300936B
S32D0000DB084FF00002104B0C48FFF7AEF80346002B2ED00A48FFF794FCF0E700BFE417002054180020589E0500E1
S32D0000DB30901B0020689E0500241800200000284010180020581800200080464000003E400080564000805040AB
S32D0000DB5800002440701800200000F83F00001440801800201C1800200000084000002040282300934FF0000235
S32D0000DB80164B1748FFF710F80346002B03D01548FFF75AFCF0E74C211348FFF745FD4FF00002124B0F48FFF707
S32D0000DBA8EDFB48210E48FFF73BFD6FF0270300934FF00002074B0848FEF7F2FF0346002B03D00648FFF73CFCD2
S32D0000DBD0EFE70748FEF798FC64E600BF0000104010180020581800208018002000001D40E417002080B582B0B1
S32D0000DBF800AF786039607B68012B0CD13B684FF6FF72934207D1064808F00EF8054A0649034807F007FE00BFFD
S32D0000DC200837BD4680BD00BFA418002000000020515C010080B500AF4FF6FF710120FFF7D9FF80BD80B500AF45
S32D0000DC480F4BD3F8A03003F48053002B14BF01230023DBB2002B10D0094BD3F8A030084A23F48053C2F8A0305D
S32D0000DC70064807F0CBFC064B1B68054A23F40053136000BF80BD00BF00C00440181C0020C0F00F4080B400AF85
S32D0000DC98124B4FF480725A63114B5B69104A43F4005353610E4B1B680D4A43F4005313600A4B0C4A1A630C4BA8
S32D0000DCC0D3F888310A4A43F08063C2F88831084B9B68074A43F08063936000BFBD4680BC704700BF00C00440AD
S32D0000DCE8C0F00F4003010A0000E100E080B400AF324B00225A70314B98221A702F4B9B79DBB203F01003002BE8
S32D0000DD1014BF01230023DBB2002B00D0F2E7294B9B79DBB29B0803F00303022B14BF01230023DBB2002B00D0EA
S32D0000DD38F1E7224B18221A71204B00225A71204B03F5825304331F4A1A601C4B54225A711A4B9B79DBB203F068
S32D0000DD602003002B0CBF01230023DBB2002B00D0F2E7144B9B79DBB203F04003002B0CBF01230023DBB2002BA9
S32D0000DD8800D0F2E70D4B1B78DBB20C4A03F03F03DBB21370094B9B79DBB29B0803F00303032B14BF01230023D8
S32D0000DDB0DBB2002B00D0F1E700231846BD4680BC704700BF00400640007004400000130180B500AF344B03F506
S32D0000DDD8815318331B68324943F4785201F5815318331A60FFF752FFFFF780FF2D4B58221A602C4B1B684FF40B
S32D0000DE007A7202FB03F32A4A1360294B1B681A46254B03F5825304331B681B0E03F00F030133B2FBF3F31A468B
S32D0000DE28224B1A601E4B03F581531C331B681C4943F0225201F581531C331A60184B03F5815310331B681649EB
S32D0000DE5043F0006201F5815310331A60164B4FF480721A61642004F0BDFA134B5B69124A23F010035361104B95
S32D0000DE7800221A600E4B10225A610E4805F0B2FD05F0B6F805F014F90B4804F00BFB0B4807F0A8FC4FF4FA6023
S32D0000DEA004F0B6FB00BF80BD00700440DC1A0020D81A0020E01A002000D00340901B0020D41A0020C01E0020D3
S32D0000DEC880B500AFFEF73BFA00BF80BD80B500AFFEF735FA00BF80BD80B500AFFEF72FFA00BF80BD80B500AF3C
S32D0000DEF0FEF729FA00BF80BD80B500AFFEF723FA00BF80BD80B500AFFEF71DFA00BF80BD80B500AFFEF717FA28
S32D0000DF1800BF80BD80B500AFFEF711FA00BF80BD80B500AFFEF70BFA00BF80BD80B500AFFEF705FA00BF80BD51
S32D0000DF4080B500AFFEF7FFF900BF80BD80B500AFFEF7F9F900BF80BD80B500AFFEF7F3F900BF80BD80B500AF7A
S32D0000DF68FEF7EDF900BF80BD80B500AFFEF7E7F900BF80BD80B500AFFEF7E1F900BF80BD80B500AFFEF7DBF9A3
S32D0000DF9000BF80BD80B500AFFEF7D5F900BF80BD80B500AFFEF7CFF900BF80BD80B500AFFEF7C9F900BF80BD90
S32D0000DFB880B500AFFEF7C3F900BF80BD80B500AFFEF7BDF900BF80BD80B500AFFEF7B7F900BF80BD80B500AFB6
S32D0000DFE0FEF7B1F900BF80BD80B500AFFEF7ABF900BF80BD80B500AFFEF7A5F900BF80BD80B500AFFEF79FF91B
S32D0000E00800BF80BD80B500AFFEF799F900BF80BD80B500AFFEF793F900BF80BD80B500AFFEF78DF900BF80BDCB
S32D0000E03080B500AFFEF787F900BF80BD80B500AFFEF781F900BF80BD80B500AFFEF77BF900BF80BD80B500AFF1
S32D0000E058FEF775F900BF80BD80B500AFFEF76FF900BF80BD80B500AFFEF769F900BF80BD80B500AFFEF763F992
S32D0000E08000BF80BD80B500AFFEF75DF900BF80BD80B500AFFEF757F900BF80BD80B500AFFEF751F900BF80BD07
S32D0000E0A880B500AFFEF74BF900BF80BD80B500AFFEF745F900BF80BD80B500AFFEF73FF900BF80BD80B500AF2D
S32D0000E0D0FEF739F900BF80BD80B500AFFEF733F900BF80BD80B500AFFEF72DF900BF80BD80B500AFFEF727F90A
S32D0000E0F800BF80BD80B500AFFEF721F900BF80BD80B500AFFEF71BF900BF80BD80B500AFFEF715F900BF80BD43
S32D0000E12080B500AFFEF70FF900BF80BD80B500AFFEF709F900BF80BD80B500AFFEF703F900BF80BD80B500AF68
S32D0000E148FEF7FDF800BF80BD80B500AFFEF7F7F800BF80BD80B500AFFEF7F1F800BF80BD80B500AFFEF7EBF885
S32D0000E17000BF80BD80B500AFFEF7E5F800BF80BD80B500AFFEF7DFF800BF80BD80B500AFFEF7D9F800BF80BD81
S32D0000E19880B500AFFEF7D3F800BF80BD80B500AFFEF7CDF800BF80BD80B500AFFEF7C7F800BF80BD80B500AFA7
S32D0000E1C0FEF7C1F800BF80BD80B500AFFEF7BBF800BF80BD80B500AFFEF7B5F800BF80BD80B500AFFEF7AFF8FD
S32D0000E1E800BF80BD80B500AFFEF7A9F800BF80BD80B500AFFEF7A3F800BF80BD80B500AFFEF79DF800BF80BDBD
S32D0000E21080B500AFFEF797F800BF80BD80B500AFFEF791F800BF80BD80B500AFFEF78BF800BF80BD80B500AFE2
S32D0000E238FEF785F800BF80BD80B500AFFEF77FF800BF80BD80B500AFFEF779F800BF80BD80B500AFFEF773F874
S32D0000E26000BF80BD80B500AFFEF76DF800BF80BD80B500AFFEF767F800BF80BD80B500AFFEF761F800BF80BDF8
S32D0000E28880B500AFFEF75BF800BF80BD80B500AFFEF755F800BF80BD80B500AFFEF74FF800BF80BD80B500AF1E
S32D0000E2B0FEF749F800BF80BD80B500AFFEF743F800BF80BD80B500AFFEF73DF800BF80BD80B500AFFEF737F8EC
S32D0000E2D800BF80BD80B500AFFEF731F800BF80BD80B584B000AFF8600B467A60FB72FB68FA7A1A71FB6800222F
S32D0000E3005A71174978683AF07FF80346002B02D0134B7B600AE04FF07E5178683AF060F80346002B02D04FF0E5
S32D0000E3287E537B60786839F017FA09A3D3E9002339F06AFA02460B461046194639F046FD0246FB681A60FB68A7
S32D0000E35018461037BD4680BDABAAAAAAAAAA20400000404180B582B000AF78607B685B79002B09D07B6800222E
S32D0000E3785A717B6819791E230022034804F0CCF800BF0837BD4680BDD41A002080B584B000AF786039603B6859
S32D0000E3A07F2B02DD7F23FB7308E03B6813F1800F02DA8023FB7301E03B68FB737B685B79FA7B9A4209D07B68F5
S32D0000E3C8FA7B5A717B681979FA7B1E23034804F0A3F800BF1037BD4680BD00BFD41A0020B0B584B000AF7860AF
S32D0000E3F039603749386839F0E9FF0346002B02D0334B3B6008E03349386839F0FDFF0346002B01D02F4B3B6053
S32D0000E418386839F0A1F904460D467B681B68184639F09AF94FF00002294B39F017FB02460B462046294639F0CF
S32D0000E440E7F902460B461046194639F0C3FC03463B604FF00001386839F0CCFF0346002B10D0386839F07CF94E
S32D0000E46817A3D3E9002339F0CFF902460B461046194639F063FC0346FB6018E0386839F06BF94FF00002134BBE
S32D0000E49039F0BEF902460B46104619464FF000020D4B39F0DFFA02460B461046194639F049FC0346FB60F968D4
S32D0000E4B87868FFF76BFF00BF1037BD46B0BD00BF52B81E85EB51F43F0000C8C20000C8420000594000006040D8
S32D0000E4E080B483B000AF03460A46FB711346BB71BB79002B03D1134B00221A7002E0114B01221A703823FB717F
S32D0000E5080E4B1A78FB791343FB710D4B9B78DBB20B4A43F01003DBB29370094B9B78DBB2074A43F02003DBB279
S32D0000E5309370054AFB79137100BF0C37BD4680BC704700BFA51800200060064080B483B000AF01237B607B6841
S32D0000E558312B04DC00BF7B6801337B60F7E700BF0C37BD4680BC704780B582B000AF03460A46FB711346BB7132
S32D0000E580134B1B7800211846FFF7AAFF00F024F8104AFB79137100F01FF80E4ABB79137100F01AF80B4B9B787E
S32D0000E5A8DBB20A4A23F02003DBB29370074B9B78DBB2064A23F01003DBB29370FFF7C2FF00BF0837BD4680BDB1
S32D0000E5D0A61800200060064080B483B000AF174B1B78002B24D100237B60154BDB78DBB203F00203002B0CBF42
S32D0000E5F801230023DBB2002B0DD07B6842F21072934203DD0B4B01221A7004E07B6801337B6000BFE5E7084B14
S32D0000E620DB78DBB2064A43F00203DBB2D37000E000BF0C37BD4680BC704700BFA71800200060064080B582B011
S32D0000E64800AF0346FB71FB79184600F05FF800BF0837BD4680BD80B582B000AF03460A46FB711346BB7100F059
S32D0000E67035F8FB795B00DBB21846FFF7E3FFBB791846FFF7DFFF00F037F800BF0837BD4680BD80B500AFFF20F7
S32D0000E69800F03CF80346184680BD80B584B000AF0346FB7100F016F8FB795B005BB243F001035BB2DBB2184676
S32D0000E6C0FFF7C0FFFFF7E5FF0346FB7300F014F8FB7B18461037BD4680BDFFFF80B400AF044B9B68034A43F4D8
S32D0000E6E88013936000BFBD4680BC704740F00F4080B400AF044B5B68034A43F48013536000BFBD4680BC7047D6
S32D0000E71040F00F4080B485B000AF0346FB710023BB73164BDB6A03F00043012B0CBF01230023DBB2002B03D099
S32D0000E738FB7B0133FB73F0E70E4BDB6A0D4A43F00043D3620B4AFB7953630A4BDB6A03F40033002B0CBF0123C7
S32D0000E7600023DBB2002B00D0F3E7044B9B6BBB73BB7B18461437BD4680BC704700C00A4080B582B000AF224B21
S32D0000E78803F5815310331B681F4943F4805201F5815310331A601D4B4FF480721A651C4B5B691B4A43F4801363
S32D0000E7B05361FFF7A1FF174B4FF400725A65154B4FF400729A65134B4FF40072DA65134B134A1A60114B134AC7
S32D0000E7D8DA6000237B607B68092B06DCFF20FFF72DFF7B6801337B60F5E705A1D1E9000103F020FF00BF083762
S32D0000E800BD4680BDAFF300809A9999999999B93F0070044000A0044040F00F4000C00A40000C00800500003E09
S32D0000E82890B486B000AFF860B9607A60FB68594A93420CD1584B03F5815314331B68564943F4806201F58153DB
S32D0000E85014331A604FE0FB68524A93420CD1504B03F5815314331B684D4943F4006201F5815314331A603EE0F0
S32D0000E878FB684B4A93420CD1474B03F5815314331B68454943F4805201F5815314331A602DE0FB68434A9342AC
S32D0000E8A00CD13F4B03F5815314331B683C4943F4005201F5815314331A601CE0FB683C4A93420CD1364B03F5A4
S32D0000E8C8815308331B68344943F4806201F5815308331A600BE0304B03F5815308331B682D4943F4006201F586
S32D0000E8F0815308331A60FB68DB78DBB223F00C03DAB2FB68DA70FB6800229A70BB684FF47A7202FB03F27B681D
S32D0000E9181B0192FBF3F39CB2FB681B78DBB223F01F03FB7523461B12DBB203F01F03DAB2FB7D1343DAB2FB684B
S32D0000E9401A70E2B2FB685A70BB684FF4FA4202FB03F27B681B0192FBF3F39AB263019BB2D31A9CB2FB689B7AA8
S32D0000E968DBB223F01F03FB75E3B203F01F03DAB2FB7D1343DAB2FB689A72FB68DB78DBB243F00C03DAB2FB68DC
S32D0000E990DA7000BF1837BD4690BC704700A006400070044000B0064000C0064000D0064000A00E4080B483B0FA
S32D0000E9B800AF78607B681B79DBB203F02003002B0CBF01230023DBB2002B00D0F2E77B68DB79DBB218460C378D
S32D0000E9E0BD4680BC704780B483B000AF78600B46FB707B681B79DBB25BB2DB43DBB2DB09DBB2002B00D0F4E766
S32D0000EA087B68FA78DA7100BF0C37BD4680BC704780B487B000AFF860B9607A60FB687B61BB683B617B685A1E8A
S32D0000EA307A60002B14BF01230023DBB2002B08D03A69531C3B617B69591C796112781A70ECE700BF1C37BD462C
S32D0000EA5880BC704780B487B000AFF860B9607A60FB687B617B685A1E7A60002B14BF01230023DBB2002B06D0F1
S32D0000EA807B695A1C7A61BA68D2B21A70EEE700BF1C37BD4680BC704780B489B000AFF860B9607A60FB68FB6100
S32D0000EAA8BB68BB6100237B617B685A1E7A60002B0FD0FB695A1CFA611B781946BB695A1CBA611B78CB1A7B6193
S32D0000EAD07B69002B01D1012300E00023002B00D0E6E77B6918462437BD4680BC704780B483B000AF786039602E
S32D0000EAF87B681B78002B09D07B681B781A463B68934203D07B6801337B60F1E77B681B7818460C37BD4680BC35
S32D0000EB20704780B584B000AF786039607B681B6BFB60FA683B689A4252D07B681B79002B35D07B6858787B6883
S32D0000EB4803F134010123FA6803F0E6FA0346002B14BF01230023DBB2002B01D001233CE07B6800221A717B6853
S32D0000EB705A6A7B681B6A1344FA689A4217D27B68DB78FB72FB7A012B11D97B681B6AFA681344FB607B68587870
S32D0000EB987B6803F134010123FA6803F0BDFAFB7A013BFB72EAE73B68002B15D07B6858787B6803F1340101238E
S32D0000EBC03A6803F0C9F90346002B14BF01230023DBB2002B01D0012303E07B683A681A63002318461037BD46E5
S32D0000EBE880BD80B584B000AF786000217868FFF794FF0346FB73FB7B002B40F091807B681B78032B7BD17B68DC
S32D0000EC105B79002B77D07B6800221A637B6834334FF4007200211846FFF718FF7B68552283F832227B68AA22AB
S32D0000EC3883F833227B68522283F834207B68522283F835207B68612283F836207B68412283F837207B687222CB
S32D0000EC6083F818227B68722283F819227B68412283F81A227B68612283F81B227B681B69DAB27B6883F81C22FA
S32D0000EC887B681B699BB21B12DAB27B6883F81D227B681B691B0CDAB27B6883F81E227B681B691B0EDAB27B689D
S32D0000ECB083F81F227B68DB68DAB27B6883F820227B68DB689BB21B12DAB27B6883F821227B68DB681B0CDAB282
S32D0000ECD87B6883F822227B68DB681B0EDAB27B6883F823227B6858787B6803F134017B685A69012303F010FA68
S32D0000ED007B6800225A717B685B7800220021184603F0D2FA0346002B14BF01230023DBB2002B01D00123FB7356
S32D0000ED28FB7B18461037BD4680BD80B483B000AF786039603B68023B3B607B68DB69023B3A689A4201D3002387
S32D0000ED5008E07B689B781A463B6803FB02F27B68DB6A134418460C37BD4680BC704780B586B000AF7860396021
S32D0000ED783B68012B04D97B68DB693A689A4201D30123B5E07B681B78032B7AD0032B00F3AD80012B02D0022B28
S32D0000EDA04DD0A7E03B683B613B695B083A6913443B617B685A6A3B695B0A134419467868FFF7AFFE0346002B68
S32D0000EDC814BF01230023DBB2002B40F088803B69C3F308037A68134493F83430FB603B6901333B617B685A6A10
S32D0000EDF03B695B0A134419467868FFF792FE0346002B14BF01230023DBB2002B6DD13B69C3F308037A681344AE
S32D0000EE1893F834301B021A46FB681343FB603B6803F00103002B02D0FB681B0960E0FB68C3F30B035CE07B68A8
S32D0000EE405A6A3B681B0A134419467868FFF769FE0346002B14BF01230023DBB2002B46D13B685B0003F4FF7361
S32D0000EE6830337A68134404337B617B6901331B781B021AB27B691B781BB213431BB29BB236E07B685A6A3B6825
S32D0000EE90DB09134419467868FFF743FE0346002B14BF01230023DBB2002B22D13B689B0003F4FE7330337A687F
S32D0000EEB8134404337B617B6903331B781A067B6902331B781B0413437A6901321278120213437A691278134307
S32D0000EEE023F0704308E000BF04E000BF02E000BF00E000BF4FF0FF3318461837BD4680BD80B588B000AFF860E2
S32D0000EF08B9607A60BB68012B04D9FB68DB69BA689A4202D30223FB77ECE0FB681B78032B00F09680032B00F394
S32D0000EF30D880012B02D0022B6BD0D2E0BB687B617B695B087A6913447B61FB685A6A7B695B0A13441946F86861
S32D0000EF58FFF7E3FD0346FB77FB7F002B40F0C0807B69C3F308033033FA6813440433BB61BB6803F00103002B8C
S32D0000EF800DD0BB691B785BB203F00F035AB27B68DBB21B015BB213435BB2DBB201E07B68DBB2BA6913707B694D
S32D0000EFA801337B61FB6801221A71FB685A6A7B695B0A13441946F868FFF7AFFD0346FB77FB7F002B40F08E8054
S32D0000EFD07B69C3F308033033FA6813440433BB61BB6803F00103002B03D07B681B09DBB20CE0BB691B7823F09D
S32D0000EFF80F03DAB27B681B0ADBB203F00F03DBB21343DBB2BA69137071E0FB685A6ABB681B0A13441946F868C7
S32D0000F020FFF77FFD0346FB77FB7F002B60D1BB685B0003F4FF733033FA6813440433BB617B68DAB2BB691A704C
S32D0000F0487B689BB21A12BB690133D2B21A704EE0FB685A6ABB68DB0913441946F868FFF75CFD0346FB77FB7FE2
S32D0000F070002B3FD1BB689B0003F4FE733033FA6813440433BB61BB6903331B781A06BB6902331B781B04134334
S32D0000F098BA690132127812021343BA691278134303F070437A6813437B607B68DAB2BB691A707B689BB21A12CB
S32D0000F0C0BB690133D2B21A707B681A0CBB690233D2B21A707B681A0EBB690333D2B21A7009E00223FB7706E073
S32D0000F0E800BF04E000BF02E000BF00E000BFFB6801221A71FB7F18462037BD4680BD80B584B000AF786039604F
S32D0000F1103B68012B04D97B68DB693A689A4202D30223FB7338E00023FB737B68DB693A689A4231D23968786846
S32D0000F138FFF719FEB860BB68002B26D0BB68012B02D10223FB7323E0BB68B3F1FF3F02D10123FB731CE0002200
S32D0000F16039687868FFF7CCFE0346FB73FB7B002B11D17B681B69B3F1FF3F07D07B681B695A1C7B681A617B68C8
S32D0000F18801225A71BB683B60CBE700BF00E000BFFB7B18461037BD4680BD80B586B000AF786039603B68002BE9
S32D0000F1B00DD17B68DB683B613B69002B04D07B68DB693A699A4215D301233B6112E039687868FFF7CCFDB86056
S32D0000F1D8BB68012B01D8012364E07B68DB69BA689A4201D2BB685DE03B683B613B697B617B6901337B617B688B
S32D0000F200DB697A699A4207D302237B617A693B699A4201D9002349E079697868FFF7A7FDB860BB68002B0ED0D9
S32D0000F228BB68B3F1FF3F02D0BB68012B01D1BB6838E07A693B699A42DAD1002332E000BF6FF0704279697868B0
S32D0000F250FFF756FE0346FB73FB7B002B09D13B68002B06D07A6939687868FFF749FE0346FB73FB7B002B10D196
S32D0000F2787B687A69DA607B681B69B3F1FF3F10D07B681B695A1E7B681A617B6801225A7107E0FB7B012B02D1D5
S32D0000F2A04FF0FF3300E001237B617B6918461837BD4680BD80B487B000AF786039607B685B6A04333B613B6875
S32D0000F2C85B0A7A6812689278B3FBF2F37B613B691A1D3A611B68FB60FB68002B01D1002310E07A69FB689A42F5
S32D0000F2F007D37A69FB68D31A7B613B6904333B61E9E700BF3B691A687B69134418461C37BD4680BC704780B5C4
S32D0000F31884B000AF78600B467B807B687A88DA807B689B68FB60FB68012B05D07B681B68DB69FA689A4201D320
S32D0000F340022364E0FB68002B08D17B681B681B78032B03D17B681B689B6AFB60FB68002B13D17B68FA68DA601D
S32D0000F3687B681B681B897A889A4201D302234AE07B681B689A6A7B881B091A447B681A6135E07B681B689B7891
S32D0000F3909BB21B017B817A887B899A421CD37B681B68F9681846FFF7E2FCF860FB68B3F1FF3F01D101232AE083
S32D0000F3B8FB68012B05D97B681B68DB69FA689A4201D302231FE07A887B89D31A7B80DEE77B68FA68DA607B68C5
S32D0000F3E01B68F9681846FFF7A4FC02467B881B091A447B681A617B681B6803F134027B8803F00F035B011A44AA
S32D0000F4087B685A61002318461037BD4680BD90B585B000AF786039607B68DB8801333B813B89002B03D07B68BB
S32D0000F4301B69002B01D10423C4E03B8903F00F03002B40F0B0807B681B695A1C7B681A617B68DB68002B08D1A9
S32D0000F4587B681B681B893A899A42C0F0A0800423ACE03B891B097A6812689278013A1340002B40F094807B682C
S32D0000F4801A687B68DB6819461046FFF770FCF860FB68012B01D8022394E0FB68B3F1FF3F01D101238EE07B68BA
S32D0000F4A81B68DB69FA689A426DD33B68002B01D1042383E07B681A687B68DB6819461046FFF76BFEF860FB686D
S32D0000F4D0002B01D1072375E0FB68012B01D1022370E0FB68B3F1FF3F01D101236AE07B681B6800211846FFF75C
S32D0000F4F814FB0346002B14BF01230023DBB2002B01D001235AE07B681B6834334FF4007200211846FFF79EFAD3
S32D0000F5207B681A687B681C68F9681046FFF701FC034623630023FB727B681B689B78FA7A9A421CD27B681B68CB
S32D0000F54801221A717B681B6800211846FFF7E5FA0346002B14BF01230023DBB2002B01D001232BE07B681B6881
S32D0000F5701A6B01321A63FB7A0133FB72DCE77B681B68196BFA7A7B681B688A1A1A637B68FA68DA607B681B6895
S32D0000F598F9681846FFF7C9FB02467B681A617B683A89DA807B681B6803F134023B8903F00F035B011A447B6830
S32D0000F5C05A61002318461437BD4690BD80B586B000AF786000217868FFF79DFE0346FB75FB7D002B01D0FB7D1D
S32D0000F5E83CE07B681A687B681B6919461046FFF794FA0346FB75FB7D002B2BD17B685B693B613B691B78FB7394
S32D0000F610FB7B002B02D10423FB7522E03B690B331B7803F00803002B0BD17B689B690B2219463869FFF730FA11
S32D0000F6380346002B01D1012300E00023002B0BD100217868FFF7E3FE0346FB75FB7D002B03D1C6E700BF00E0DC
S32D0000F66000BFFB7D18461837BD4680BD80B584B000AF786000217868FFF74DFE0346FB73FB7B002B21D17B68F9
S32D0000F6881A687B681B6919461046FFF746FA0346FB73FB7B002B13D17B685B691B78BB73BB7BE52B0DD0BB7B83
S32D0000F6B0002B0AD001217868FFF7ADFE0346FB73FB7B002B01D1DEE700BFFB7B002B1FD17B681A687B681B6979
S32D0000F6D819461046FFF721FA0346FB73FB7B002B12D17B685B69BB6020220021B868FFF7B1F97B689B690B220A
S32D0000F7001946B868FFF788F97B681B6801221A71FB7B18461037BD4680BDFFFF80B588B000AF786039603B6848
S32D0000F7281B68FB60FB681B782F2B03D0FB681B785C2B03D1FB680133FB60F3E77B689B69BB600B222021B86805
S32D0000F750FFF784F90023FB7700233B613B697B610823BB61FA687B6913441B782E2B2FD17B695A1C7A61FA68DD
S32D0000F77813441B78BB77BB7F2E2B0AD17B69022B07D83B695A1C3A61BA681344BA7F1A70EAE7BB7F2F2B07D0BC
S32D0000F7A0BB7F5C2B04D0BB7F202B01D90623A7E0FA687B691A443B681A60BB7F202B01D8242200E02022BB68ED
S32D0000F7C80B331A70002397E07B695A1C7A61FA6813441B78BB77BB7F202B58D9BB7F2F2B55D0BB7F5C2B52D0AC
S32D0000F7F0BB7F2E2B03D03A69BB699A420FD3BB69082B02D1BB7F2E2B01D0062378E008233B610B23BB61FB7F66
S32D0000F8189B00FB773AE097F91E30002B08DAFB7F43F00303FB77BB7F803B354AD35CBB77BB7F19463348FFF7AC
S32D0000F84056F90346002B14BF01230023DBB2002B01D0062354E0BB7F402B07D9BB7F5A2B04D8FB7F43F0020305
S32D0000F868FB770CE0BB7F602B09D9BB7F7A2B06D8FB7F43F00103FB77BB7F203BBB773B695A1C3A61BA68134498
S32D0000F890BA7F1A709CE7FA687B691A443B681A60BB7F202B01D8042300E00023BB773B69002B01D1062323E0BC
S32D0000F8B8BB681B78E52B02D1BB6805221A70BB69082B02D1FB7F9B00FB77FB7F03F00303012B03D1BB7F43F024
S32D0000F8E01003BB77FB7F03F00C03042B03D1BB7F43F00803BB77BB680B33BA7F1A70002318462037BD4680BD50
S32D0000F908749E0500F49E050080B584B000AF786039603B681B782F2B03D03B681B785C2B06D13B6801333B6031
S32D0000F9307B6800229A6004E07B681B689A697B689A603B681B781F2B09D800217868FFF7E2FC0346FB737B68B0
S32D0000F95800225A6169E03B4619467868FFF7DAFE0346FB73FB7B002B58D17868FFF72AFE0346FB737B689B69B0
S32D0000F980DB7ABB73FB7B002B1DD0FB7B042B4BD1BB7B03F02003002B0DD07B6800229A607B6800225A61002351
S32D0000F9A8FB73BB7B03F00403002B3BD135E0BB7B03F00403002B35D10523FB7332E0BB7B03F00403002B2FD1E3
S32D0000F9D07B685B69BB60BB680B331B7803F01003002B02D10523FB7323E0BB6815331B781B021AB2BB68143365
S32D0000F9F81B781BB213431BB29BB21B04BA681B321278120211B2BA681A32127812B20A4312B292B21A437B68D1
S32D0000FA209A609CE700BF04E000BF02E000BF00E000BFFB7B18461037BD4680BD80B582B000AF786039607B68D4
S32D0000FA4858787B6803F1340101233A6802F080FA0346002B14BF01230023DBB2002B01D003234AE07B6803F243
S32D0000FA70322301331B781B021AB27B6893F832321BB213431BB2214A934201D0022338E07B686A3303331B780A
S32D0000FA981A067B686A3302331B781B0413437A686A3201321278120213437A6892F86A20134323F07F43144A3F
S32D0000FAC0934201D100231CE07B68863303331B781A067B68863302331B781B0413437A68863201321278120289
S32D0000FAE813437A6892F88620134323F07F43064A934201D1002300E0012318460837BD4680BD00BF55AAFFFFA6
S32D0000FB104641540080B592B000AFF860B9601346FB71FB681B68FB62FB6A1B78303B3B643B6C092B0BD8FB6A28
S32D0000FB3801331B783A2B06D1FB6A0233FB62FB68FA6A1A6002E0A94B1B783B643B6C002B01D00B2366E2A64A53
S32D0000FB603B6C52F82330BB62BB68BA6A1A60BB6A002B01D10C2359E2BB6A1B78002B1AD0BB6A5B78184602F0B4
S32D0000FB8819FC034687F8273097F8273003F00103002B0CD1FB79002B07D097F8273003F00403002B01D00A23B7
S32D0000FBB03CE200233AE2BB6A00221A703B6CDAB2BB6A5A70BB6A5B78184601F089FF034687F8273097F8273003
S32D0000FBD803F00103002B01D0032323E2FB79002B07D097F8273003F00403002B01D00A2318E20023FB63F96B83
S32D0000FC00B86AFFF71BFF034687F8473097F84730012B22D1BB6A03F5F9733B623B6A04331B78002B19D03B6AF2
S32D0000FC280B331B781A063B6A0A331B781B0413433A6A09321278120213433A6A083212781343FB63F96BB86A5E
S32D0000FC50FFF7F4FE034687F8473097F84730032B01D10123E2E197F84730002B01D00D23DCE1BB6A93F8403063
S32D0000FC781B021AB2BB6A93F83F301BB213431BB2B3F5007F01D00D23CCE1BB6A93F84B301B021AB2BB6A93F8CD
S32D0000FCA04A301BB213431BB29BB2BB63BB6B002B12D1BB6A93F85B301A06BB6A93F85A301B041343BA6A92F875
S32D0000FCC8592012021343BA6A92F858201343BB63BB6ABA6B1A62BB6A93F84430FB77BB6AFA7FDA70FB7F012BA7
S32D0000FCF004D0FB7F022B01D00D2397E1FA7FBB6B02FB03F3BB63BB6A93F84130FB77BB6AFA7F9A70FB7F002B62
S32D0000FD1805D0FA7FFB7F013B1340002B01D00D2380E1BB6A93F846301B021AB2BB6A93F845301BB213431BB2B5
S32D0000FD409AB2BB6A1A81BB6A1B8903F00F03002B01D00D236AE1BB6A93F848301B021AB2BB6A93F847301BB23F
S32D0000FD6813431BB29BB27B637B6B002B12D1BB6A93F857301A06BB6A93F856301B041343BA6A92F855201202F2
S32D0000FD901343BA6A92F8542013437B63BB6A93F843301B021AB2BB6A93F842301BB213431BB2BB83BB8B002BCC
S32D0000FDB801D10D2336E1BA8BBB6B1A44BB6A1B891B091344BB617A6BBB699A4201D20D2328E17A6BBB69D31AF4
S32D0000FDE0BA6A9278B3FBF2F37B617B69002B05D10D231BE1AE180020A8180020012387F847307B6940F6F572E6
S32D0000FE08934202D9022387F847307B694FF6F572934202D9032387F847307B699A1CBB6ADA61FA6BBB691A44C4
S32D0000FE30BB6ADA62BA8BFB6B1A44BB6A5A6297F84730032B1ED1BB6A1B89002B01D00D23ECE0BB6A93F8633032
S32D0000FE581A06BB6A93F862301B041343BA6A92F8612012021343BA6A92F860201A43BB6A9A62BB6ADB699B005C
S32D0000FE803B631FE0BB6A1B89002B01D10D23CDE0BB6A5A6ABB6B1A44BB6A9A6297F84730022B03D1BB6ADB6916
S32D0000FEA85B000AE0BB6ADA6913465B0013445A08BB6ADB6903F0010313443B63BB6A1A6A3B6B03F2FF135B0A02
S32D0000FED09A4201D20D23A9E0BB6A4FF0FF321A61BB6A0022DA6097F84730032B40F08680BB6A00225A71BB6A6A
S32D0000FEF893F865301B021AB2BB6A93F864301BB213431BB29BB21A46FB6B1A44BB6A5A61BB6A5878BB6A03F140
S32D0000FF203401BB6A5A69012302F016F80346002B39D1BB6A93F833321B021AB2BB6A93F832321BB213431BB2F2
S32D0000FF483A4A93422BD1BB6A93F837301A06BB6A93F836301B041343BA6A92F8352012021343BA6A92F8342005
S32D0000FF701343314A934216D1BB6A93F81B321A06BB6A93F81A321B041343BA6A92F8192212021343BA6A92F847
S32D0000FF9818221343274A934201D1012300E00023002B27D0BB6A93F823321A06BB6A93F822321B041343BA6A88
S32D0000FFC092F8212212021343BA6A92F820221A43BB6ADA60BB6A93F81F321A06BB6A93F81E321B041343BA6A76
S32D0000FFE892F81D2212021343BA6A92F81C221A43BB6A1A61BB6A97F847201A700E4B1B8801339AB20C4B1A80BD
S32D000100100B4B1A88BB6ADA80BB6A00221A63BB6A00221A71BB6A00229A61002318464837BD4680BD55AAFFFF35
S32D000100385252614172724161AC18002080B582B000AF78600B467B807B68002B08D07B681B78002B04D07B6871
S32D00010060DB887A889A4201D0092311E07B685B78184602F0A3F9034603F00103002B14BF01230023DBB2002B63
S32D0001008801D0032300E0002318460837BD4680BD80B485B000AF03463960FB71FB79002B01D00B2316E0FB7904
S32D000100B00D4A52F82330FB60FB68002B02D0FB6800221A703B68002B02D03B6800221A70FB7905493A6841F8D7
S32D000100D82320002318461437BD4680BC704700BFA818002080B592B000AFF860B9601346FB71FB6800221A60FA
S32D00010100FB7903F01F03FB71FB7923F00103DAB207F11C0107F108031846FFF7FBFC034687F8473007F1100317
S32D000101287B6397F84730002B09D1BA6807F11C0311461846FFF7E8FB034687F847303B6B3B6497F84730002B43
S32D0001015005D13B6C002B02D1062387F84730FB7903F01C03002B00F0B08097F84730002B12D097F84730042BCD
S32D0001017807D107F11C031846FFF774FA034687F84730FB7943F00803FB713B6B3B6412E03B6C0B331B7803F0A8
S32D000101A01103002B03D0072387F8473007E0FB7903F00403002B02D0082387F8473097F84730002B40F09F800B
S32D000101C8FB7903F00803002B00F099800023FB633B6C0E33FA6BD2B21A70FB6B9BB21A123B6C0F33D2B21A70B0
S32D000101F0FB6B1A0C3B6C1033D2B21A70FB6B1A0E3B6C1133D2B21A703B6C0B3300221A703B6C1C3300221A70A2
S32D000102183B6C1D3300221A703B6C1E3300221A703B6C1F3300221A703B6C15331B781B021AB23B6C14331B78DF
S32D000102401BB213431BB29BB21B043A6C1B321278120211B23A6C1A32127812B20A4312B292B21343BB633B6C2F
S32D000102681A3300221A703B6C1B3300221A703B6C143300221A703B6C153300221A70FB6901221A71BB6B002B35
S32D0001029039D0FB691B6BFB63FB69B96B1846FEF732FF034687F8473097F84730002B2AD1FB69BA6B013ADA6079
S32D000102B8FB69F96B1846FEF730FC034687F847301DE097F84730002B19D13B6C0B331B7803F01003002B03D0FD
S32D000102E0042387F847300EE0FB7903F00203002B09D03B6C0B331B7803F00103002B02D0072387F8473097F859
S32D000103084730002B0FD1FB7903F00803002B03D0FB7943F02003FB71FB691A6BFB68DA61FB683A6C1A6297F803
S32D000103304730002B42D1FB68FA799A713B6C15331B781B021AB23B6C14331B781BB213431BB29BB21B043A6C1A
S32D000103581B321278120211B23A6C1A32127812B20A4312B292B21A43FB681A613B6C1F331B781A063B6C1E3354
S32D000103801B781B0413433A6C1D321278120213433A6C1C3212781A43FB68DA60FB6800229A60FB6800229A61E6
S32D000103A8FB6800225A62FA69FB681A60FB69DA88FB689A8097F8473018464837BD4680BD80B58AB000AFF860C9
S32D000103D0B9607A603B60BB68BB613B6800221A60FB681A68FB689B8819461046FFF72AFE0346FB75FB7D002B58
S32D000103F801D0FB7D7EE1FB689B795BB2002B01DA022377E1FB689B7903F00203002B01D107236FE1FB68DA689C
S32D000104207B681A44FB68DB689A4201D200237B607B68002B00F05081FB689B68C3F30803002B40F01381FB68D1
S32D000104489B685B0ADAB2FB681B689B78013BDBB21340BB75BB7D002B49D1FB689B68002B10D1FB681B697B6299
S32D000104707B6A002B1FD1FB681B6800211846FEF790FE7862FB687A6A1A6114E0FB685B6A002B07D0FB689B6855
S32D000104981946F868FEF70AFF786208E0FB681A68FB685B6919461046FEF777FE78627B6A002B00F00C817B6A3F
S32D000104C0012B08D1FB689B7963F07F03DAB2FB689A71022312E17B6AB3F1FF3F08D1FB689B7963F07F03DAB232
S32D000104E8FB689A71012305E1FB687A6A5A61FB689B7903F04003002B22D0FB681B685878FB6803F12801FB6808
S32D000105109A69012301F004FE0346002B14BF01230023DBB2002B08D0FB689B7963F07F03DAB2FB689A7101231A
S32D00010538E0E0FB689B7923F04003DAB2FB689A71FB681A68FB685B6919461046FEF7EDFB38613B69002B08D12E
S32D00010560FB689B7963F07F03DAB2FB689A710223C4E0BB7D3A6913443B617B685B0AFB61FB69002B49D0BA7D0C
S32D00010588FB691344FA6812689278934206D9FB681B689B781A46BB7DD31AFB61FB681B685878FB69DBB23A69CB
S32D000105B0B96901F0B5FD0346002B14BF01230023DBB2002B08D0FB689B7963F07F03DAB2FB689A71012391E05E
S32D000105D8FB689A693B69D31AFA699A4215D9FB6803F12800FB689A693B69D31A5B02BA6913444FF4007219466F
S32D00010600FEF70AFAFB689B7923F04003DAB2FB689A71FB695B023B6248E0FB689B693A699A4220D0FB689A684A
S32D00010628FB68DB689A420ED2FB681B685878FB6803F1280101233A6901F08AFC0346002B01D0012300E0002361
S32D00010650002B08D0FB689B7963F07F03DAB2FB689A7101234AE0FB683A699A61FB689B68C3F30803C3F5007391
S32D000106783B623A6A7B689A4201D97B683B62FB689B68C3F308032833FA6813443A6AB9691846FEF7BDF9FB688C
S32D000106A09B7943F04003DAB2FB689A71BA693B6A1344BB61FB689A683B6A1A44FB689A603B681A683B6A1A447F
S32D000106C83B681A607A683B6AD31A7B60ACE600BFFB689A68FB68DB689A4203D9FB689A68FB68DA60FB689B790A
S32D000106F043F02003DAB2FB689A71002318462837BD4680BD80B586B000AF78607B681A687B689B881946104659
S32D00010718FFF794FC0346FB75FB7D002B40F0A8807B689B7903F02003002B00F0A1807B689B7903F04003002BD7
S32D000107401BD07B681B6858787B6803F128017B689A69012301F0E4FC0346002B14BF01230023DBB2002B01D077
S32D00010768012386E07B689B7923F04003DAB27B689A717B681A687B68DB6919461046FEF7CCF90346FB75FB7DE5
S32D00010790002B71D17B681B6A3B613B690B331A783B690B3342F02002D2B21A707B68DA683B691C33D2B21A70EB
S32D000107B87B68DB689BB21A123B691D33D2B21A707B68DB681A0C3B691E33D2B21A707B68DB681A0E3B691F33DE
S32D000107E0D2B21A707B681A693B691A33D2B21A707B681B699BB21A123B691B33D2B21A707B681B691A0C3B6966
S32D000108081433D2B21A707B681B691B0C9BB21A123B691533D2B21A700023FB603B691633FA68D2B21A70FB682D
S32D000108309BB21A123B691733D2B21A70FB681A0C3B691833D2B21A70FB681A0E3B691933D2B21A707B689B791E
S32D0001085823F02003DAB27B689A717B681B6801221A717B681B681846FEF7BBF90346FB75FB7D18461837BD465F
S32D0001088080BD80B584B000AF78607868FFF73AFF0346FB73FB7B002B02D17B6800221A60FB7B18461037BD4645
S32D000108A880BD80B586B000AF03463960FB71FB793B7301237B6107F1100307F10C017A693868FFF77DFD3B69B3
S32D000108D07A699A4201D1012301E04FF0FF3318461837BD4680BD80B584B000AF786039600023FB607B681B7888
S32D000108F8002B18D07B681B7839681846FFF7D1FF0346B3F1FF3F0CBF01230023DBB2002B02D04FF0FF3307E064
S32D000109207B6801337B60FB680133FB60E2E7FB6818461037BD4680BD80B485B000AF786039600123FB60002388
S32D00010948BB600023BB60BA683B689A4208DAFB687A6802FB03F3FB60BB680133BB60F2E7FB6818461437BD46B7
S32D0001097080BC704780B598B000AFF860B9607A6000233B643B6CFB63FB6BB3F1FF3F00F0EF82BB685A1CBA60CB
S32D000109981B7887F8473097F84730002B00F0E18297F84730252B0ED097F84730F9681846FFF777FFF863FB6BFD
S32D000109C0B3F1FF3F00F0C7820123FB63C3E2002387F85F3000233B65BB685A1CBA601B7887F8473097F8473090
S32D000109E8302B09D1012387F85F30BB685A1CBA601B7887F847300CE097F847302D2B08D1022387F85F30BB68C4
S32D00010A105A1CBA601B7887F8473097F847302E2B05D1BB685A1CBA601B7887F8473097F847302F2B15D997F850
S32D00010A384730392B11D83A6D13469B0013445B001A4697F847301344303B3B65BB685A1CBA601B7887F847307A
S32D00010A60E5E797F847306C2B03D097F847304C2B0BD197F85F3043F0040387F85F30BB685A1CBA601B7887F8A7
S32D00010A88473097F84730002B00F06D8297F8473087F8463097F84630602B08D997F846307A2B04D897F84630C1
S32D00010AB0203B87F8463097F84630423B162B00F2748101A252F823F08B0D0100750D01009B0D0100AB0D01009F
S32D00010AD8CD0B0100AB0D0100AB0D0100AB0D0100AB0D0100AB0D0100AB0D0100AB0D0100AB0D0100930D0100AD
S32D00010B00AB0D0100AB0D0100AB0D0100250B0100AB0D01009B0D0100AB0D0100AB0D0100A30D01007B681A1DCB
S32D00010B287A601B687B6200237B657A6A7B6D13441B78002B03D07B6D01337B65F5E700233B6497F85F3003F002
S32D00010B500203002B07D17B6D5A1C7A653A6D9A4201D9012300E00023002B09D0F9682020FFF79BFEF863FB6BB8
S32D00010B783A6C13443B64E4E7F968786AFFF7AFFEF863FB6B3A6C13443B647B6D5A1C7A653A6D9A428CBF012375
S32D00010BA00023DBB2002B09D0F9682020FFF77DFEF863FB6B3A6C13443B64EAE7FB6BB3F1FF3F00F0CA813B6C08
S32D00010BC8FB63C6E17B68073323F0070303F108027A60D3E90023C7E90C23D7E90C23C7E90A230023FB644FF09C
S32D00010BF000024FF00003D7E90C0137F07BF80346002B14D0F9682D20FFF74FFEF863FB6B3A6C13443B643B6BDF
S32D00010C183B637B6B83F000437B63BB6ABB62FB6A83F00043FB62D7E90A0137F087F80346002B0ED04FF00002D7
S32D00010C40AA4BD7E90A0136F00DFF02460B46C7E90A23FB6C0133FB64E9E7FB6C013B7B657B6DB3F1FF3F35D001
S32D00010C687B6D19460A20FFF763FE0346184636F061FD02460B46D7E90C0136F0EFFE02460B461046194637F07C
S32D00010C9059F803463B623A6A954B83FB02139910D317C91A0B469B000B445B00D31A3B623B6A30333B623B6A07
S32D00010CB8DBB2F9681846FFF7F4FDF863FB6B3A6C13443B647B6D013B7B65C5E7F9682E20FFF7E7FDF863FB6B83
S32D00010CE03A6C13443B643B6D002B01D103233B650123BB65BA6D3B6D9A4233D8BB6D19460A20FFF719FE0346DD
S32D00010D08184636F017FDD7E90C2336F07DFD02460B461046194637F011F803463B623A6A714B83FB0213991095
S32D00010D30D317C91A0B469B000B445B00D31A3B623B6A30333B623B6ADBB2F9681846FFF7ACFDF863FB6B3A6C0B
S32D00010D5813443B64BB6D0133BB65C7E7FB6BB3F1FF3F00F0F8803B6CFB63F4E07B681A1D7A601B68DBB2F9685E
S32D00010D801846FFF792FDF863EAE0022387F85E3013E0082387F85E300FE00A2387F85E300BE0102387F85E308B
S32D00010DA807E097F84730F9681846FFF77AFDF863D2E097F85F3003F00403002B04D07B681A1D7A601B680CE07C
S32D00010DD097F84630442B04D17B681A1D7A601B6803E07B681A1D7A601B68BB6497F84630442B0BD1BB6C002B19
S32D00010DF808DABB6C5B42BB6497F85F3043F0080387F85F300023BB6597F85E20BB6CB3FBF2F102FB01F29B1AF0
S32D00010E2087F8463097F85E30BA6CB2FBF3F3BB6497F84630092B0BD997F84730782B01D1272200E0072297F840
S32D00010E484630134487F84630BB6D5A1CBA6597F846203032D2B207F160010B4403F8502CBB6C002B03D0BB6DB5
S32D00010E700F2B00D8CCE797F85F3003F00803002B08D0BB6D5A1CBA6507F1600213442D2203F8502CBB6D7B6533
S32D00010E9897F85F3003F00103002B01D0302300E0202387F8463000233B6497F85F3003F00203002B07D17B6DEC
S32D00010EC05A1C7A653A6D9A4201D9012300E00023002B0FD097F84630F9681846FFF7E5FCF863FB6B3A6C1344C7
S32D00010EE83B64E2E70000244067666666BB6D013BBB6507F11002BB6D13441B78F9681846FFF7CFFCF863FB6B95
S32D00010F103A6C13443B64BB6D002B00D0EAE77B6D5A1C7A653A6D9A428CBF01230023DBB2002B09D0F96820209E
S32D00010F38FFF7B7FCF863FB6B3A6C13443B64EAE7FB6BB3F1FF3F07D03B6CFB6304E000BF02E000BF00E000BFAC
S32D00010F603A6CFB6B13443B640EE500BF00E000BFFB6BB3F1FF3F01D1FB6B00E03B6C18466037BD4680BD00BF14
S32D00010F8880B588B000AF7860396080233B610F23FB604FF0FF337B610223FB61FB69B3F5807F23D80123BB61CD
S32D00010FB0BB69102B1AD8FB69BA6902FB03F33A6802FB03F27B68D31ABB60BB68002B09DBBB687A699A4205D9D6
S32D00010FD8BB687B61FB693B61BB69FB60BB690133BB61E1E7FB695B00FB61D7E71D4BDB6A1C4A23F00803D362F1
S32D000110001A4BDB6A23F47F2323F47F63BB613B695B081B029AB2FB68013B1B01DBB21A43BB691343114A43F428
S32D000110286023D3620F4B5B6A03F00803002B0CBF01230023DBB2002B03D00A2001F0E4FAF0E7084BDB6A074A43
S32D0001105043F00803D362054B1B6B044A43F48013136300BF2037BD4680BD00BF00100B4080B582B000AF78603C
S32D0001107839607B6800221A60424B434ADA62414BDB6A03F08073002B14BF01230023DBB2002B00D0F3E73B4BF7
S32D000110A00022C3F8C020394B4FF481325A60374B28229A62354B4FF001125A643B689B6834491846FFF760FF02
S32D000110C8304B5B6A03F00303002B14BF01230023DBB2002B00D0F3E72D4B40F243421A602B4B40F243425A6089
S32D000110F0294B4FF488629A60274B40F24342DA60254B40F243421A61234B40F243425A61224B03F581531033D5
S32D000111181B68204943F4003201F5815310331A60184B4FF6FF721A63164B1B4A5A63154BDB6A144A43F000631A
S32D00011140D362124BDB6A03F00063002B14BF01230023DBB2002B00D0F3E70C4B5B6A03F48033002B14BF0123C4
S32D000111680023DBB2002B02D07B6801221A60054B1B6B044A43F080031363002318460837BD4680BD00100B4080
S32D000111900080000160CC050000D0044000700440B3007F0080B400AF064B5A6A40F207331340002B14BF0123AB
S32D000111B80023DBB21846BD4680BC704700100B4080B485B000AF7860074B1B6B7A681340FB60FB68002B00D1F2
S32D000111E0F6E7FB6818461437BD4680BC704700BF00100B4080B584B000AF78607B681B7803F03F03764A52F842
S32D000112082330FB60FB68002B05D17B681B78002B01D00123DCE0714B1B6B704A43F0800313636E4B5B6A03F0BA
S32D000112300103002B14BF01230023DBB2002B00D0F3E7684A7B685B689360FB6823F44003FB607B685B789B052B
S32D0001125803F44003FA681343FB607B685B78022B03D1FB6843F40013FB607B685B78042B16D1FB6803F44033C2
S32D00011280B3F5003F08D1FB6823F44033FB60FB6843F44033FB6007E0FB6823F44033FB60FB6843F40033FB6078
S32D000112A84E4B5B684D4A9BB253607B68DB68002B2AD0FB6803F44033B3F5403F03D0FB6843F40013FB607B6827
S32D000112D01B7A002B03D0FB6843F01003FB607B68DB68012B03D9FB6843F02003FB607B68DB68B3F1FF3F0BD033
S32D000112F83A4B5A687B68DB681B04384913434B60FB6843F00203FB60344B00221A60334AFB68D3603248FFF725
S32D0001132053FF0346012B14BF01230023DBB2002B09D02C4B1B6B2B4A43F4702343F001031363012348E0274B85
S32D000113481B6B03F08003002B14BF01230023DBB2002B07D0214B1B6B204A43F001131363012335E01D4B1B6B66
S32D0001137003F48033002B14BF01230023DBB2002B08D0184B1B6B174A43F0011313634FF0FF3321E0FB6803F4FC
S32D000113984033002B15D0114B1A697B681A61FB6803F44033B3F5803F0BD10C4B5A697B685A610A4B9A697B6863
S32D000113C09A61084BDA697B68DA61064B1B6B054A43F001031363002318461037BD4680BD109F050000100B4065
S32D000113E801000E0080B592B000AF7860396000237B643B68BB63994B7B637B6B002B02D140F6012362E3964B47
S32D000114103B633B6B002B02D140F60B235AE33B6B1B68FB62FB6A002B02D140F60B2351E37B6841F20932934223
S32D0001143800F242837B68B3F5985F08D87B68032B00F01D837B68092B00F00C8334E37B68A3F59853013B082B49
S32D0001146000F22E8301A252F823F000BF9114010081170100DF19010097170100D5170100FF18010047190100AE
S32D0001148889180100A31801007649786BFFF7ECFD78647B6C002B40F01383002387F84330002387F82B3000236D
S32D000114B087F82A30002387F82930002387F84230002387F8283000233B7200237B720023FB6000233B740023D8
S32D000114D87B6107F108031846FFF788FE0346002B14BF01230023DBB2002B02D001237B64EBE240F24C4001F095
S32D0001150087F808233B7200237B724FF4D573FB6000233B7400237B6107F108031846FFF769FEF863FB6B002BF4
S32D0001152809D1BA69FB689A4202D001237B64CCE2012387F84230012387F8283097F82830002B00F0A580372344
S32D000115503B7200237B720023FB6000233B7400237B6107F108031846FFF744FEF863FB6B002B02D001237B6406
S32D00011578ABE269233B7200237B720023FB6000233B7400237B6107F108031846FFF72EFE0346002B14BF012331
S32D000115A00023DBB2002B02D001237B6491E2BB6903F44013002B6FD00023FB630A2001F027F8FB6B0133FB636E
S32D000115C837233B7200237B720023FB6000233B7400237B6107F108031846FFF707FE0346002B14BF01230023A4
S32D000115F0DBB2002B02D001237B6428E069233B7200237B7297F84230002B02D0184BFB6002E04FF44013FB605F
S32D0001161800233B7400237B6107F108031846FFF7E5FD0346002B14BF01230023DBB2002B02D001237B6406E098
S32D00011640BB69002B03DBFB6B632B00D8B6E77B6C002B40F03B82FB6B632B0BD9002387F8423019E0C818002001
S32D00011668CC1A0020049F050000003040012387F8433097F84230002B0AD0002387F84230BB6903F08043002B00
S32D0001169002D0012387F8423097F82A30002B02D07B6B07221A6097F82930002B02D07B6B08221A6097F82B307C
S32D000116B8002B02D07B6B04221A6097F84330002B09D07B6B02221A6097F84230002B02D07B6B03221A6097F8E4
S32D000116E02B30002B0DD097F84330002B09D07B6B05221A6097F84230002B02D07B6B06221A60A04B00221A60DE
S32D000117089E4B00225A609D4B00229A609B4B0022DA609A4B00221A61984B00225A61FB6A9A68FB6A5B68194677
S32D000117301046FFF729FC934B40F243421A60914B40F243425A608F4B4FF488629A608D4B40F24342DA608B4B1D
S32D0001175840F243421A61894B40F243425A61884B03F5815310331B68854943F4003201F5815310331A60A8E13E
S32D00011780B86BFFF737FDF863FB6B002B00F0A08102237B649CE1BB6B002B02D10C237B6497E17A4BDB6A1B0A96
S32D000117A85B0003F4FF73FB63764BDB6A1B0903F00F035A1CFB6B02FB03F3FB63FB6A9A68FB6BB2FBF3F2BB6B0F
S32D000117D01A607EE1BB6B002B02D10C237B6478E1BB6B1B68002B02D10C237B6471E1FFF7D9FC0346002B0CBF75
S32D000117F801230023DBB2002B3ED0604B00221A605E4B00225A605D4B00229A605B4B0022DA605A4B00221A61E1
S32D00011820584B00225A61FB6A9A68BB6B1B6819461046FFF7A9FB534B40F243421A60514B40F243425A604F4B44
S32D000118484FF488629A604D4B40F24342DA604B4B40F243421A61494B40F243425A61484B03F5815310331B68CE
S32D00011870454943F4003201F5815310331A6028E140F60A237B6424E1BB6B002B02D10C237B641EE13D4B5B68FF
S32D00011898C3F30C02BB6B1A6017E1BB6B002B02D10C237B6411E1FFF779FC0346002B0CBF01230023DBB2002BF8
S32D000118C019D0BB6B1B68B3F5805F02D30C237B64FFE02E4B5B682D4A23F4FF5323F01F0353602A4B5A68BB6BBD
S32D000118E81B68C3F30C03274913434B60EDE040F60A237B64E9E0BB6B002B02D10C237B64E3E0204B9B6A5B0878
S32D0001191003F00303FB63FB6B002B03D1BB6B00221A60D6E0FB6B012B03D1BB6B01221A60CFE0FB6B102B03D127
S32D00011938BB6B02221A60C8E005237B64C5E0BB6B002B02D10C237B64BFE0FFF727FC0346002B0CBF01230023F8
S32D00011960DBB2002B37D0BB6B1B68002B10D1074B9B6A064A23F006039362044B034A9B6A9362A6E000D00440FC
S32D000119880070044000100B40BB6B1B68012B0CD1504B9B6A4F4A23F0060393624D4B9B6A4C4A43F002039362C5
S32D000119B08FE0BB6B1B68022B0AD1484B9B6A474A23F006039362454B444A9B6A936280E005237B647DE040F69C
S32D000119D80A237B6479E0BB6B002B02D10C237B6473E03C4BDB6A3B4A43F00063D362394BDB6A03F00063002B90
S32D00011A0014BF01230023DBB2002B00D0F3E7334B1B6B03F08003002B14BF01230023DBB2002B08D02D4B1B6BEE
S32D00011A282C4A43F0800313637B6B00221A60294B5B6A03F48033002B14BF01230023DBB2002B07D07B6B1B684B
S32D00011A50002B06D17B6B01221A6002E07B6B00221A607B6B1A68BB6B1A6032E0BB6B1C221A60BB6B0433042203
S32D00011A781A60BB6B08334FF41E721A6025E00220FFF79EFB134B1B6B03F4E003002B14BF01230023DBB2002BA6
S32D00011AA007D00E4B1B6B0D4A43F4E003136304237B640A4B1B6B094A43F03203136308E040F609237B6404E05B
S32D00011AC800BF02E000BF00E000BF7B6C18464837BD4680BD00100B4080B590B000AF0346FB71A74BFB63A74B76
S32D00011AF0BB63BB6BA64A1A60FB79002B01D00123ABE1A44B1B78DBB203F00203002B14BF01230023DBB2002BF5
S32D00011B1803D09E4B1B78DBB29BE19C4B1B78DBB203F00303002B0CBF01230023DBB2002B01D000238DE1BB6BC9
S32D00011B40002B03D0BB6B1B68002B01D1002384E1FB6B914A1A60FB6B01225A60BB6B00225A60BB6B00229A6008
S32D00011B68BB6B00221A61BB6B00221A73BB6B00225A73884B03F5815310331B68854943F4003201F581531033F8
S32D00011B901A60002141F20130FFF728FC0346002B14BF01230023DBB2002B01D0002354E10023BB6207F128033B
S32D00011BB8194641F20330FFF715FC0346002B14BF01230023DBB2002B01D0002341E1BB6A022B08D0BB6A032B59
S32D00011BE005D0BB6A052B02D0BB6A062B09D1BB6A032B02D0BB6A062B05D1BB6B01221A7301E0002329E100BFB6
S32D00011C0802233B7200237B720023FB6000233B7400237B6107F10803194641F20230FFF7E1FB0346002B14BF9C
S32D00011C3001230023DBB2002B01D000230DE103233B7200237B720023FB6000233B7400237B6107F10803194610
S32D00011C5841F20230FFF7C6FB0346002B14BF01230023DBB2002B01D00023F2E0BB691B0C1B04BA6B1361092306
S32D00011C803B7200237B72BB6B1B69FB6000233B7400237B6107F10803194641F20230FFF7A5FB0346002B14BFFE
S32D00011CA801230023DBB2002B01D00023D1E07B6A03F44003002B1ED13B6A1B0A03F00F033B633B6A03F0030325
S32D00011CD07B637B6B9A02FB699B0D13437B63FB69DB0903F00703FB627B6B5A1CFB6A02339A403B6B093B9A400F
S32D00011CF8BB6B9A600CE0BB6B01225A73FB691B0AC3F315037B637B6B01339A02BB6B9A6007233B7200237B72A9
S32D00011D20BB6B1B69FB6000233B7400237B6107F10803194641F20230FFF758FB0346002B14BF01230023DBB293
S32D00011D48002B01D0002384E010233B7200237B724FF40073FB6000233B7400237B6107F10803194641F2023050
S32D00011D70FFF73CFB0346002B14BF01230023DBB2002B0DD0002368E0CC1A0020B0180020C4180020040000207B
S32D00011D98049F050000700440BB6B1B681B68012B49D137233B7200237B72BB6B1B69FB6000233B7400237B6161
S32D00011DC007F10803194641F20230FFF70FFB0346002B14BF01230023DBB2002B01D000233BE046233B7200239F
S32D00011DE87B720223FB6000233B7400237B6107F10803194641F20230FFF7F4FA0346002B14BF01230023DBB2C8
S32D00011E10002B01D0002320E00123BB6207F12803194641F20730FFF7E1FA0346002B14BF01230023DBB2002B40
S32D00011E3801D000230DE0094B1B78DBB223F00103DAB2064B1A70054B1B78DBB203F00303DBB218464037BD46DA
S32D00011E6080BD00BF0400002080B489B000AF786039607B687B61364B3B613B69002B01D100235FE03B691B68A0
S32D00011E88022B0BD03B691B68032B07D03B691B68072B03D03B691B68082B0BD12B4B5B6A03F00403002B14BF62
S32D00011EB001230023DBB2002B00D0F3E73B68FB61FB69002B3DD0FB69B3F5007F28BF4FF40073FB60FB680333A3
S32D00011ED89B08BB61BB69002B2AD01C4B1B6B03F4E003002B14BF01230023DBB2002B09D0164B1B6B154A43F4B9
S32D00011F00E00343F02003136300231BE0114B5B6A03F40063002B0CBF01230023DBB2002B00D0F3E70B497B6993
S32D00011F281A1D7A610A6A1A60BB69013BBB61D1E7FA69FB68D31AFB61BEE7012318462437BD4680BC704700BF10
S32D00011F50C818002000100B4080B58EB000AFB9607A601A460346FB731346BB73414B7B63FB7B002B02D1BB7B40
S32D00011F78002B01D1042375E03D4B1B78DBB203F00103002B14BF01230023DBB2002B01D0032367E0BB68002B99
S32D00011FA001D1002362E07B6B1B7B002B02D17B685B027B60BB7B012B28D111233B7500237B757B68BB610123D1
S32D00011FC83B77BB7B3B6207F11403194641F20230FFF708FA0346002B0CBF01230023DBB2002B38D04FF40071A0
S32D00011FF0B868FFF739FF0346002B14BF01230023DBB2002B2BD00023BB7328E012233B7500237B757B68BB61E3
S32D0001201801233B77BB7B3B6207F11403194641F20230FFF7DFF90346002B0CBF01230023DBB2002B0FD0BB7BFC
S32D000120405B021946B868FFF70FFF0346002B14BF01230023DBB2002B01D00023BB73BB7B002B01D0012300E0F3
S32D00012068002300BF18463837BD4680BDB01800200400002080B487B000AF786039607B68FB603B687B617B6922
S32D00012090002B3DD07B69B3F5007F28BF4FF400733B617A693B69D31A7B613B6903339B083B613B69002BEAD0B3
S32D000120B8184B1B6B03F4E003002B14BF01230023DBB2002B0AD0134B1B6B124A43F4E00343F0100313634FF00A
S32D000120E0FF3316E00D4B5B6A03F48063002B0CBF01230023DBB2002B00D0F3E7FB681A1DFA60064A1B681362D7
S32D000121083B69013B3B61D0E7012318461C37BD4680BC704700100B4080B58EB000AFB9607A601A460346FB7323
S32D000121301346BB735D4B7B63FB7B002B02D1BB7B002B01D10423ADE0594B1B78DBB203F00103002B14BF01233B
S32D000121580023DBB2002B01D003239FE0524B1B78DBB203F00403002B14BF01230023DBB2002B01D0022391E0EC
S32D00012180BB68002B01D100238CE07B6B1B7B002B02D17B685B027B60BB7B012B28D118233B7500237B757B68B0
S32D000121A8BB6100233B77BB7B3B6207F11403194641F20230FFF716F90346002B0CBF01230023DBB2002B38D026
S32D000121D04FF40071B868FFF751FF0346002B14BF01230023DBB2002B2BD00023BB7328E019233B7500237B752D
S32D000121F87B68BB6100233B77BB7B3B6207F11403194641F20230FFF7EDF80346002B0CBF01230023DBB2002B25
S32D000122200FD0BB7B5B021946B868FFF727FF0346002B14BF01230023DBB2002B01D00023BB730D233B75002317
S32D000122487B757B6B1B69BB6100233B7700233B6207F11403194641F20230FFF7C3F80346002B14BF012300234A
S32D00012270DBB2002B01D0012314E07A6A0D4B1340002B01D001230DE07B6A03F4F853B3F5106F00D0D5E7BB7BF2
S32D00012298002B01D0012300E0002300BF18463837BD4680BDB0180020040000200880D9FF80B58CB000AF034653
S32D000122C03A60FB710B46BB713A4BBB62FB79002B01D0042369E0012387F82F30364B1B78DBB203F00103002B25
S32D000122E814BF01230023DBB2002B01D0032358E0BB79032B50D801A252F823F0152301001D2301002D23010071
S32D000123103D230100002387F82F3044E0BB6A9A683B681A60002387F82F303CE03B684FF400721A80002387F823
S32D000123382F3034E009233B7200237B72BB6A1B69FB6000233B7400237B6107F10803194641F20230FFF746F84A
S32D000123600346002B14BF01230023DBB2002B01D001231AE07B6A03F44003002B0CD13B6A9B0C03F07F035A1CBB
S32D000123887B6A1B0A03F00303013B9A403B681A60002387F82F3002E0042387F82F3097F82F3018463037BD4652
S32D000123B080BD00BFB01800200400002080B483B000AF0346FB71FB79002B01D0012302E0034B1B78DBB21846E9
S32D000123D80C37BD4680BC70470400002080B483B000AF7860174B03F5815318331B68154943F0010201F5815331
S32D0001240018331A60124A7B689360114B05225A600F4B1B680E4A43F0010313600C4B1B6803F08003002B0CBF54
S32D0001242801230023DBB2002B00D0F3E7064B1B68054A23F00103136000BF0C37BD4680BC704700BF00700440C4
S32D000124500000044080B582B000AF786039607B68012B07D13B684FF6FF72934202D1034800F00EF800BF08376B
S32D00012478BD4680BDD41A002080B500AF4FF6FF710120FFF7E3FF80BD80B483B000AF78607B6800221A707B68B8
S32D000124A018460C37BD4680BC7047FFFF80B582B000AF78607B681B7883F00103DBB2002B21D0134B03F58153CA
S32D000124C808334FF400621A60104B4FF440721A620E4B4FF440725A620D4B1B68DA0F13445B104FF461421946EA
S32D000124F00A48FCF799F9642000F08AF87B6801221A70012300E0002318460837BD4680BD0070044000D0044094
S32D00012518D81A002000B00E4080B582B000AF7860084611461A460346FB700B46BB7013467B707F210E48FCF734
S32D0001254052FA08210C48FCF74EFAFB7819460A48FCF749FABB7819460748FCF744FA7B7819460548FCF73FFA31
S32D00012568FF210348FCF73BFA00BF0837BD4680BD00B00E4080B487B000AFF860B9607A60FB681F4AA2FB032381
S32D000125909B09BA6813447B61FB681B4AA2FB031292094FF47A7101FB02F29B1AFB60FB68DB03154AA2FB03237D
S32D000125B89B097A6813443B613B69DB0B7A6913447B613B69C3F30E033B610E4B1B687A699A4209D80B4B1B687F
S32D000125E07A699A4206D1094B5B683A699A4201D9012300E00023002B00D0EAE700BF1C37BD4680BC704700BF0C
S32D00012608D34D621000D0034080B584B000AF7860074B1B68FB60064B5B68BB607B68BA68F9681846FFF7A6FF50
S32D0001263000BF1037BD4680BD00D0034080B584B000AFC7E900010E4B1B68FB600C4B5B68BB604FF000020B4B56
S32D00012658D7E9000135F0D8F802460B461046194635F094FB0346BA68F9681846FFF782FF00BF1037BD4680BDB4
S32D0001268000D0034000408F4080B582B000AF78600B46FB70FB781946786800F005F87B6818460837BD4680BD00
S32D000126A880B483B000AF78600B46FB707B68FA781A707B681B781A46534B9B5C042B00F29E8001A252F823F0D0
S32D000126D0E52601001F2701005927010093270100CD2701004B4A7B681B7819464A4B53F8213040F2031142F83C
S32D000126F82310484B5A697B681B781946444B53F8213003F01F03012101FA03F3DB43414913404B6173E0404A7E
S32D000127207B681B7819463C4B53F8213040F2031142F823103B4B5A697B681B781946364B53F8213003F01F038F
S32D00012748012101FA03F3DB43344913404B6156E0334A7B681B7819462D4B53F8213040F2031142F823102F4BEC
S32D000127705A697B681B781946274B53F8213003F01F03012101FA03F3DB43284913404B6139E0274A7B681B78DE
S32D0001279819461F4B53F8213040F2031142F82310224B5A697B681B781946194B53F8213003F01F03012101FAC3
S32D000127C003F3DB431B4913404B611CE01A4A7B681B781946104B53F8213040F2031142F82310164B5A697B688D
S32D000127E81B7819460A4B53F8213003F01F03012101FA03F3DB430F4913404B6100BF00BF0C37BD4680BC70478B
S32D0001281010A005000090044054A0050000F00F4000A0044040F00F4000B0044080F00F4000C00440C0F00F40BF
S32D0001283800D0044000F10F4080B584B000AF78600B46FB700B23FB73FA7BFB781946786800F094F87B681846F1
S32D000128601037BD4680BDFFFF80B485B000AF78607B68103B002B00DA1F335B11FB60FB68022B53D0FB68022B45
S32D0001288875DCFB68002B03D0FB68012B25D06EE0394BD3F880217B68103B594203F01F0301F01F0158BF4B421A
S32D000128B0012101FA03F332491343C1F88031304B1A687B68103B594203F01F0301F01F0158BF4B42012101FAFE
S32D000128D803F3294913430B6049E0274BD3F884217B68103B594203F01F0301F01F0158BF4B42012101FA03F3F7
S32D000129001F491343C1F884311D4B5A687B68103B594203F01F0301F01F0158BF4B42012101FA03F316491343F7
