S01200002E2E2F48382D526F626F742E733139A4
S32D0000C000000000205DC2000011C3000017C300001DC3000023C3000029C3000000000000000000000000000073
S32D0000C028000000002FC3000035C30000000000003BC3000041C30000D1DA0000DDDA0000E9DA0000F5DA00000A
S32D0000C05001DB00000DDB000019DB000025DB000031DB00003DDB000049DB000055DB000061DB00006DDB00000E
S32D0000C07879DB000085DB000091DB00009DDB0000A9DB0000B5DB0000C1DB0000CDDB0000D9DB0000E5DB000036
S32D0000C0A0F1DB0000FDDB000009DC000015DC000021DC00002DDC000039DC000045DC000051DC00005DDC000056
S32D0000C0C869DC000075DC000081DC00008DDC000099DC0000A5DC0000B1DC0000BDDC0000C9DC0000D5DC00007C
S32D0000C0F0E1DC000071270100EDDC0000F9DC000005DD000011DD00001DDD000029DD000035DD000041DD00002E
S32D0000C1184DDD000059DD000065DD000071DD00007DDD000089DD000095DD0000A1DD0000ADDD0000B9DD000039
S32D0000C140C5DD0000D1DD0000DDDD0000E9DD0000E9070100F5DD000001DE00000DDE000019DE000025DE00007A
S32D0000C16831DE00003DDE000049DE000055DE000061DE00006DDE000079DE000085DE000091DE00009DDE0000F7
S32D0000C190A9DE0000B5DE0000C1DE0000D503010085020100350301004DD8000079040100CDDE0000D9DE000029
S32D0000C1B8E5DE0000C80A060000000020C8170000C80A06000000FF1F00000000C8170020942100000000FF1FF7
S32D0000C1E00000000080B489B000AFF860B9607A60BB68FB61FB68BB6100237B617A697B689A420BD2BA69131DFB
S32D0000C208BB61FB69191DF96112681A607B6904337B61EFE700BF2437BD4680BC704780B485B000AF786039609E
S32D0000C2307B68FB600023BB60BA683B689A4208D2FB681A1DFA6000221A60BB680433BB60F2E700BF1437BD46FE
S32D0000C25880BC704780B586B000AF72B6234B4CF220521A80214B4DF628121A80204B4FF4E9721A801F4B7B615F
S32D0000C2807B691F4A934214D27B691A1D7A611B683B617B691A1D7A611B68FB607B691A1D7A611B68BB60BA68E9
S32D0000C2A8F9683869FFF79AFFE6E77B69134A93420ED27B691A1D7A611B68FB607B691A1D7A611B68BB60B9688B
S32D0000C2D0F868FFF7A8FFECE70B4B7B600B4A7B681A603BF003FC62B601F076FB01F028F9FEE700BF0E200540C0
S32D0000C2F800200540BCC10000D4C10000E4C1000008ED00E000C0000080B400AFFEE780B400AFFEE780B400AFF4
S32D0000C320FEE780B400AFFEE780B400AFFEE780B400AFFEE780B400AFFEE780B400AFFEE780B400AFFEE780B426
S32D0000C34800AFFEE7FFFFFFFFFFFFFFFFFFFFFFFFFFFFFFFFFFFFFFFFFFFFFFFFFFFFFFFFFFFFFFFFFFFFFFFF57
S32D0000C370FFFFFFFFFFFFFFFFFFFFFFFFFFFFFFFFFFFFFFFFFFFFFFFFFFFFFFFFFFFFFFFFFFFFFFFFFFFFFFFFC7
S32D0000C398FFFFFFFFFFFFFFFFFFFFFFFFFFFFFFFFFFFFFFFFFFFFFFFFFFFFFFFFFFFFFFFFFFFFFFFFFFFFFFFF9F
S32D0000C3C0FFFFFFFFFFFFFFFFFFFFFFFFFFFFFFFFFFFFFFFFFFFFFFFFFFFFFFFFFFFFFFFFFFFFFFFFFFFFFFFF77
S32D0000C3E8FFFFFFFFFFFFFFFFFFFFFFFFFFFFFFFFFFFFFFFFFFFFFFFFFFFFFFFFFFFFFFFFFFFFFFFFFEFFFFFF50
S32D0000C41010B5054C237833B9044B13B10448AFF300800123237010BDC817002000000000A0F8050008B5034BB5
S32D0000C4381BB103490348AFF3008008BD00000000CC170020A0F8050080B483B000AF78607B6818460C37BD4677
S32D0000C46080BC704780B582B000AF7860094800F019FF084800F02CFF074800F009FD074800F0FCFF55210548C7
S32D0000C48800F0CAFF00BF0837BD4680BD7C1E0020281B0020841E002080B584B000AFF860C7E900231D4800F018
S32D0000C4B0A3FA02460B46D7E9000138F0A7FD0346002B0BD1184800F06FFD02460B46D7E9000138F09BFD03462C
S32D0000C4D8002B01D0012300E00023002B01D0002318E0104800F0F2FD0346002B05D10D4800F0B2FD0346002B13
S32D0000C50001D0012300E00023002B01D0002305E0BA69B969064800F0D2FA012318461037BD4680BD0018002081
S32D0000C5282C1B0020581E0020281B002080B582B000AF786039607B68012B07D13B684FF6FF72934202D10348CB
S32D0000C550FFF77EFF00BF0837BD4680BDE417002080B500AF4FF6FF710120FFF7E3FF80BD80B483B000AF786034
S32D0000C5787B6818460C37BD4680BC704780B582B000AF78603960386838F0B6FE03461946034801F029FD00BF4F
S32D0000C5A00837BD4680BD00BFEC17002080B582B000AF78603960386838F0A2FE03461946034801F015FD00BF68
S32D0000C5C80837BD4680BD00BFF417002080B586B000AFF860C7E90023114800F063F978617B69002B12DD7B6937
S32D0000C5F003F10053013BDB003A6A13447A69D200396A1144D3E90023C1E900237B69013B7B61E9E7396AD7E93C
S32D0000C6180023C1E9002300BF1837BD4680BD00BFFC17002080B584B000AF786039600023FB600F4800F036F947
S32D0000C6400246FB689342B4BF01230023DBB2002B0DD0FB68DB003A68D1184FF000024FF00003C1E90023FB6881
S32D0000C6680133FB60E5E700BF1037BD4680BD00BFFC170020B0B58CB008AFF860C7E900230B46FB72114800F087
S32D0000C69077F8D7E9002338F047FA02460B4614461D46F97AD7E90E23CDE90623D7E90C23CDE90423D7E90A236F
S32D0000C6B8CDE902233B6A009322462B46F868FFF7D9FF00BF1037BD46B0BD00BFFC17002080B582B000AF7860E4
S32D0000C6E0034801F043FC00BF0837BD4680BD00BFEC17002080B582B000AF7860034801F035FC00BF0837BD4635
S32D0000C70880BD00BFF417002080B582B000AF786039607B68012B11D13B684FF6FF7293420CD10848FFF720FFF4
S32D0000C730074A0021074801F0DBFB054A0121064801F0D6FB00BF0837BD4680BDE817002000001041EC17002001
S32D0000C758F417002080B500AF4FF6FF710120FFF7D3FF80BD80B483B000AF78607B6818460C37BD4680BC704761
S32D0000C78080B483B000AF786005A3D3E90023104619460C37BD4680BC704700BFAFF300802706222256599E3F4A
S32D0000C7A880B483B000AF786005A3D3E90023104619460C37BD4680BC704700BFAFF30080641CF36673BD38409E
S32D0000C7D080B483B000AF78604FF000024FF07F53104619460C37BD4680BC704780B483B000AF78600B46FB7063
S32D0000C7F8FB784C2B03D14FF00002094B0AE0FB78522B03D14FF00002054B03E04FF000024FF000031046194666
S32D0000C8200C37BD4680BC70470000F03F80B483B000AF78600B46FB70FB784C2B04D14FF000024FF000030BE0AB
S32D0000C848FB78522B04D14FF000024FF0000303E04FF000024FF00003104619460C37BD4680BC704780B483B0BF
S32D0000C87000AF78600B46FB70FB784C2B04D14FF000024FF000030BE0FB78522B04D14FF000024FF0000303E0FF
S32D0000C8984FF000024FF00003104619460C37BD4680BC704780B483B000AF7860192318460C37BD4680BC704740
S32D0000C8C080B483B000AF78604FF000024FF07F53104619460C37BD4680BC704780B582B000AF786039607B68B2
S32D0000C8E8012B07D13B684FF6FF72934202D10348FFF738FF00BF0837BD4680BDFC17002080B500AF4FF6FF719B
S32D0000C9100120FFF7E3FF80BD80B582B000AF78607868FFF725FE7868FFF720FF7B6818460837BD4680BD80B5F2
S32D0000C93882B000AF786039603B685B4219467868FFF71CFE00BF0837BD4680BD2DE9B0438CB008AFF860C7E9AE
S32D0000C96000234C211948FFF741FF04460D464C211648FFF75BFF804689464C211348FFF775FF02460B46CDE9B4
S32D0000C9880623CDE90489CDE902450F4B0093D7E900234C210D48FFF76DFEF86800F028F802460B46D7E900015B
S32D0000C9B037F002FF02460B46054900910548FFF709FE00BF1037BD46BDE8B083FC17002008180020E8170020FC
S32D0000C9D880B582B000AF786003490448FFF722FE00BF0837BD4680BD08180020E8170020B0B582B000AF7860DA
S32D0000CA000C4803F087FD0346184638F023F804460D467868FFF7B4FE02460B462046294638F082F802460B4685
S32D0000CA28104619460837BD46B0BD00BF0418002080B582B000AF7860034803F079FD00BF0837BD4680BD00BFE2
S32D0000CA500418002080B582B000AF786039607B68012B0BD13B684FF6FF72934206D10548FFF752FF0121044803
S32D0000CA7803F08EFA00BF0837BD4680BD001800200418002080B500AF4FF6FF710120FFF7DDFF80BD80B582B033
S32D0000CAA000AF78607868FFF737FF7B680133184600F01CFA7B6818460837BD4680BD80B584B000AFF860B96011
S32D0000CAC87A60B968F868FFF732FFFB6801337968184600F016FA00BF1037BD4680BD90B585B000AFF860C7E971
S32D0000CAF00023F868FFF780FF02460B4601210C46D7E9000138F096FA0346002B01D100231C46E3B2002B14D02B
S32D0000CB18396AF868FFF70BFFFB680133184600F03FFA02460B4601210C46D7E9000138F07DFA0346002B13D109
S32D0000CB4010E0F86800F094F9F86800F0A1F9F868FFF73EFE02460B461046194603F01AF900231CE000231C4686
S32D0000CB68E3B2002B07D0FB680133396A184600F0C8F901230FE0F86800F076F9F86800F083F9F868FFF720FEAD
S32D0000CB9002460B461046194603F0FCF8002318461437BD4690BD90B585B000AFF860C7E90023F868FFF720FF5D
S32D0000CBB802460B4601210C46D7E9000138F040FA0346002B01D100231C46E3B2002B14D0396AF868FFF7ABFE0E
S32D0000CBE0FB680133184600F0DFF902460B4601210C46D7E90A0138F027FA0346002B13D110E0F86800F034F984
S32D0000CC08F86800F041F9F868FFF7DEFD02460B461046194603F0BAF800231CE000231C46E3B2002B07D0FB68B2
S32D0000CC300133396B184600F068F901230FE0F86800F016F9F86800F023F9F868FFF7C0FD02460B461046194610
S32D0000CC5803F09CF8002318461437BD4690BD80B586B002AFF860C7E90023D7E90023CDE90023D7E90023F868C5
S32D0000CC8000F006F8034618461037BD4680BDFFFFB0B584B000AFF860C7E90023F868FFF7ABFE04460D464048D5
S32D0000CCA8FFF70AFE02460B46D7E9000137F080FD02460B462046294638F0B8F90346002B16D0F868FFF794FED9
S32D0000CCD004460D463448FFF7F3FDD7E9002337F06DFD02460B462046294638F099F90346002B01D0012300E052
S32D0000CCF80023002B39D0FB680133184600F050F904460D462648FFF7D7FD02460B46D7E9080137F04DFD024699
S32D0000CD200B462046294638F085F90346002B18D0FB680133184600F037F904460D461A48FFF7BEFDD7E908230D
S32D0000CD4837F038FD02460B462046294638F064F90346002B01D0012300E00023002B04D0F86800F01FF8002379
S32D0000CD7015E0D7E90023F868FFF7ECFDFB68591CD7E90823084600F0CDF80748FFF720FD02460B461046194608
S32D0000CD9802F0FCFF012318461037BD46B0BD00BFFC17002080B582B000AF78607868FFF70FFE7B68013318460F
S32D0000CDC000F0E2F87868FFF737FE7B680133184600F00AF900BF0837BD4680BD2DE9B04F8AB006AFF860C7E9BE
S32D0000CDE800234FF000021F4BD7E9000137F0C2FF02460B4614461D46F868FFF7D1FC02460B462046294637F098
S32D0000CE108BFE02460B46904699463B6B5C424FF00002124BD7E9000137F0A8FF02460B4692469B46F868FFF704
S32D0000CE38B7FC02460B465046594637F071FE02460B46396B0491CDE90223009442464B46F868FFF7A4FE03461A
S32D0000CE6018461037BD46BDE8B08F00BF0080764080B582B000AF78607868FFF72DFC7B6801331846FFF736FC99
S32D0000CE8800BF0837BD4680BD80B582B000AF78607868FFF7CDFD7B680133184600F0A0F800BF0837BD4680BD75
S32D0000CEB080B582B000AF786039607B68012B07D13B684FF6FF72934202D10348FFF7E6FD00BF0837BD4680BD83
S32D0000CED8281B002080B500AF4FF6FF710120FFF7E3FF80BD80B582B000AF78607868FFF73BFB7868FFF736FCF8
S32D0000CF007B6818460837BD4680BD80B582B000AF7860396039687868FFF748FB00BF0837BD4680BD2DE9B043BB
S32D0000CF288CB008AFF860C7E9002352211148FFF759FC04460D4652210E48FFF773FC8046894652210B48FFF78A
S32D0000CF508DFC02460B46CDE90623CDE90489CDE90245074B0093D7E9002352210548FFF785FB00BF1037BD466B
S32D0000CF78BDE8B083FC170020381B0020E817002080B582B000AF786003490448FFF74AFB00BF0837BD4680BDEF
S32D0000CFA0381B0020E8170020B0B582B000AF78600C4803F0AFFA0346184637F04BFD04460D467868FFF7DCFB63
S32D0000CFC802460B462046294637F0AAFD02460B46104619460837BD46B0BD00BF301B002080B582B000AF7860EA
S32D0000CFF0034803F0A1FA00BF0837BD4680BD00BF301B002080B582B000AF786039607B68012B0BD13B684FF678
S32D0000D018FF72934206D10548FFF764FF0021044802F0B6FF00BF0837BD4680BD2C1B0020301B002080B500AF1F
S32D0000D0404FF6FF710120FFF7DDFF80BD80B483B000AF78607B6818460C37BD4680BC704780B582B000AF786087
S32D0000D068194803F089FA0346184637F001FD12A3D3E9002337F0E4FF0346002B10D0124803F07AFA034618469D
S32D0000D09037F0F2FC0CA3D3E9002337F0B7FF0346002B01D0012300E00023002B01D0012300E0002318460837C6
S32D0000D0B8BD4680BDAFF300805839B4C876BE9F3F5C8FC2F5285CDF3F5C1E002080B582B000AF7860114803F0B1
S32D0000D0E04FFA03464FF07C51184638F019FB0346002B0DD00B4803F043FA03464FF07E51184638F0EFFA034607
S32D0000D108002B01D0012300E00023002B01D0012300E0002318460837BD4680BD5C1E002080B582B000AF78604E
S32D0000D13039607B68012B0BD13B684FF6FF72934206D10548FFF782FF1021044803F006FA00BF0837BD4680BDD6
S32D0000D158581E00205C1E002080B500AF4FF6FF710120FFF7DDFF80BD80B483B000AF78607B6818460C37BD463B
S32D0000D18080BC704780B582B000AF786039607B68012B07D13B684FF6FF72934202D10348FFF7E6FF00BF0837FB
S32D0000D1A8BD4680BD601E002080B500AF4FF6FF710120FFF7E3FF80BD80B483B000AF78607B6818460C37BD4637
S32D0000D1D080BC704780B582B000AF786039607B68012B0BD13B684FF6FF72934206D10548FFF7E6FF1121044821
S32D0000D1F802F0F2FD00BF0837BD4680BD641E0020681E002080B500AF4FF6FF710120FFF7DDFF80BD80B483B072
S32D0000D22000AF78607B6818460C37BD4680BC704780B582B000AF786039607B68012B13D13B684FF6FF72934237
S32D0000D2480ED10A21084803F085F90921074803F081F90821064803F07DF90648FFF7DAFF00BF0837BD4680BDCC
S32D0000D2706C1E0020701E0020741E0020781E002080B500AF4FF6FF710120FFF7D1FF80BD80B483B000AF786025
S32D0000D2987B6818460C37BD4680BC704780B582B000AF78600021074804F0E6F80121054804F033F900210348C3
S32D0000D2C004F00EF800BF0837BD4680BD7821002080B582B000AF7860034804F035FC00BF0837BD4680BD00BFF4
S32D0000D2E87821002080B582B000AF786039607868FFF7D4FF38683DF07FF9024613465B0013445B00C3F1A003E5
S32D0000D3101A4678233968034804F02AF900BF0837BD4680BD7821002080B582B000AF78600E48FFF795FE0346E4
S32D0000D338002B04D00C490D4804F0B0FA0EE00948FFF7C4FE0346002B04D00949074804F0A5FA03E0074905488D
S32D0000D36004F0A0FA00BF0837BD4680BD581E0020F870050078210020FC7005000471050080B582B000AF78603E
S32D0000D38839607B68012B07D13B684FF6FF72934202D10348FFF778FF00BF0837BD4680BD7C1E002080B500AF62
S32D0000D3B04FF6FF710120FFF7E3FF80BD80B483B000AF78607B6818460C37BD4680BC704780B582B000AF78600E
S32D0000D3D839607B68012B07D13B684FF6FF72934202D10348FFF7E6FF00BF0837BD4680BD801E002080B500AFA0
S32D0000D4004FF6FF710120FFF7E3FF80BD80B483B000AF78607B6818460C37BD4680BC704780B582B000AF7860BD
S32D0000D4280B46FB70FB784C2B05D14FF000010E4803F0D8FB14E0FB78552B04D10B490A4803F0D0FB0CE0FB787F
S32D0000D450522B04D10849064803F0C8FB04E04FF00001034803F0C2FB00BF0837BD4680BD881E00200000BA42E8
S32D0000D4780000344380B582B000AF786040F26221054803F075FB40F6D401034803F08DFB00BF0837BD4680BDAD
S32D0000D4A0881E002080B582B000AF786039607B68012B0BD13B684FF6FF72934206D10548FFF7A4FF00210448CE
S32D0000D4C803F03AFB00BF0837BD4680BD841E0020881E002080B500AF4FF6FF710120FFF7DDFF80BD80B483B018
S32D0000D4F000AF78607B6818460C37BD4680BC704780B582B000AF786039607B68012B07D13B684FF6FF72934271
S32D0000D51802D10348FFF7E6FF00BF0837BD4680BD941E002080B500AF4FF6FF710120FFF7E3FF80BDFFFFFFFF11
S32D0000D54080B5B8B002AF012387F8D73097F8D730002B2DD000BF9448FFF7A4FE93499248FFF7C4FE924804F098
S32D0000D568EFFA07F1CC0207F1D00319468E4804F05FF8034683F00103DBB2002B00D0F0E707F1CC0207F1D003EB
S32D0000D5901946874804F050F80346002B00D0F3E78448FEF75FFF97F8D730002B29D018E000BF00E000BF8049ED
S32D0000D5B87B48FFF797FE7F48FFF74EFD034683F00103DBB2002B00D0F5E77848FEF746FF97F8D730002B12D02E
S32D0000D5E000BF4FF00002764B7648FFF73CFB4FF00000734902F0CEFB97F8D730002BD9D0A9E700BF00E000BF63
S32D0000D608282300934FF000026D4B6C48FFF767FA0346002B00D0F3E7282300934FF00002684B6648FFF7D6FBAD
S32D0000D6300346002B00D0F3E7282300934FF00002634B6048FFF74FFA0346002B00D0F3E7282300934FF00002BD
S32D0000D6585E4B5A48FFF7BEFB0346002B00D0F3E7282300934FF00002534B5048FEF714FF0346002B00D0F3E711
S32D0000D6802823009346A3D3E900234E48FFF72BFA0346002B00D0F3E74FF000004E4902F079FB4648FFF7DCFC6F
S32D0000D6A80346002B04D052214A48FFF7B5FE0EE04048FFF70BFD0346002B04D04C214548FFF7AAFE03E05521B1
S32D0000D6D04248FFF7A5FE3448FFF726FE4FF000004FF0804102F056FB282300934FF000023B4B3448FFF7F7F9EA
S32D0000D6F80346002B00D0F3E76FF0270300934FF00002364B2D48FFF7EAF90346002B00D0F2E7282300934FF080
S32D0000D7200002314B2748FFF759FB0346002B00D0F3E7282300934FF000022C4B2148FFF7D2F90346002B00D082
S32D0000D748F3E7282300934FF00002274B1B48FFF741FB0346002B00D0F3E7282300934FF00002224B1548FFF7B6
S32D0000D770BAF90346002B00D0F3E76FF0270300934FF000021C4B0F48FFF7ADF90346002B00D0F2E74FF00000A7
S32D0000D798094902F0FBFADAE69A9999999999C93F7C1E00201471050078210020E417002024710500581E002083
S32D0000D7C000001440281B0020000034400080464000000C40008056400000F03F841E00200000124000001A400B
S32D0000D7E800805B400000244000805140000039400080414080B582B000AF786039607B68012B0CD13B684FF6AE
S32D0000D810FF72934207D1064805F096FB054A0649034805F08FF900BF0837BD4680BD00BF981E0020000000209F
S32D0000D838692F010080B500AF4FF6FF710120FFF7D9FF80BD80B500AF0F4BD3F8A03003F48053002B14BF01239F
S32D0000D8600023DBB2002B10D0094BD3F8A030084A23F48053C2F8A030064805F0EFF8064B1B68054A23F4005373
S32D0000D888136000BF80BD00BF00C0044000220020C0F00F4080B400AF124B4FF480725A63114B5B69104A43F41C
S32D0000D8B0005353610E4B1B680D4A43F4005313600A4B0C4A1A630C4BD3F888310A4A43F08063C2F88831084BE0
S32D0000D8D89B68074A43F08063936000BFBD4680BC704700BF00C00440C0F00F4003010A0000E100E080B400AF9C
S32D0000D900324B00225A70314B98221A702F4B9B79DBB203F01003002B14BF01230023DBB2002B00D0F2E7294B95
S32D0000D9289B79DBB29B0803F00303022B14BF01230023DBB2002B00D0F1E7224B18221A71204B00225A71204BF8
S32D0000D95003F5825304331F4A1A601C4B54225A711A4B9B79DBB203F02003002B0CBF01230023DBB2002B00D039
S32D0000D978F2E7144B9B79DBB203F04003002B0CBF01230023DBB2002B00D0F2E70D4B1B78DBB20C4A03F03F03D1
S32D0000D9A0DBB21370094B9B79DBB29B0803F00303032B14BF01230023DBB2002B00D0F1E700231846BD4680BC50
S32D0000D9C8704700BF00400640007004400000130180B500AF344B03F5815318331B68324943F4785201F581532A
S32D0000D9F018331A60FFF752FFFFF780FF2D4B58221A602C4B1B684FF47A7202FB03F32A4A1360294B1B681A46C2
S32D0000DA18254B03F5825304331B681B0E03F00F030133B2FBF3F31A46224B1A601E4B03F581531C331B681C4941
S32D0000DA4043F0225201F581531C331A60184B03F5815310331B68164943F0006201F5815310331A60164B4FF46A
S32D0000DA6880721A61642002F065F8134B5B69124A23F010035361104B00221A600E4B10225A610E4803F058FB1F
S32D0000DA9002F05EFE02F0BCFE0B4802F0B3F80B4805F030F84FF4FA6002F05EF900BF80BD00700440C420002074
S32D0000DAB8C0200020C820002000D0034078210020BC2000207022002080B500AFFEF737FC00BF80BD80B500AFD2
S32D0000DAE0FEF731FC00BF80BD80B500AFFEF72BFC00BF80BD80B500AFFEF725FC00BF80BD80B500AFFEF71FFC14
S32D0000DB0800BF80BD80B500AFFEF719FC00BF80BD80B500AFFEF713FC00BF80BD80B500AFFEF70DFC00BF80BD47
S32D0000DB3080B500AFFEF707FC00BF80BD80B500AFFEF701FC00BF80BD80B500AFFEF7FBFB00BF80BD80B500AF6E
S32D0000DB58FEF7F5FB00BF80BD80B500AFFEF7EFFB00BF80BD80B500AFFEF7E9FB00BF80BD80B500AFFEF7E3FB8F
S32D0000DB8000BF80BD80B500AFFEF7DDFB00BF80BD80B500AFFEF7D7FB00BF80BD80B500AFFEF7D1FB00BF80BD86
S32D0000DBA880B500AFFEF7CBFB00BF80BD80B500AFFEF7C5FB00BF80BD80B500AFFEF7BFFB00BF80BD80B500AFAC
S32D0000DBD0FEF7B9FB00BF80BD80B500AFFEF7B3FB00BF80BD80B500AFFEF7ADFB00BF80BD80B500AFFEF7A7FB07
S32D0000DBF800BF80BD80B500AFFEF7A1FB00BF80BD80B500AFFEF79BFB00BF80BD80B500AFFEF795FB00BF80BDC2
S32D0000DC2080B500AFFEF78FFB00BF80BD80B500AFFEF789FB00BF80BD80B500AFFEF783FB00BF80BD80B500AFE7
S32D0000DC48FEF77DFB00BF80BD80B500AFFEF777FB00BF80BD80B500AFFEF771FB00BF80BD80B500AFFEF76BFB7E
S32D0000DC7000BF80BD80B500AFFEF765FB00BF80BD80B500AFFEF75FFB00BF80BD80B500AFFEF759FB00BF80BDFD
S32D0000DC9880B500AFFEF753FB00BF80BD80B500AFFEF74DFB00BF80BD80B500AFFEF747FB00BF80BD80B500AF23
S32D0000DCC0FEF741FB00BF80BD80B500AFFEF73BFB00BF80BD80B500AFFEF735FB00BF80BD80B500AFFEF72FFBF6
S32D0000DCE800BF80BD80B500AFFEF729FB00BF80BD80B500AFFEF723FB00BF80BD80B500AFFEF71DFB00BF80BD39
S32D0000DD1080B500AFFEF717FB00BF80BD80B500AFFEF711FB00BF80BD80B500AFFEF70BFB00BF80BD80B500AF5E
S32D0000DD38FEF705FB00BF80BD80B500AFFEF7FFFA00BF80BD80B500AFFEF7F9FA00BF80BD80B500AFFEF7F3FA70
S32D0000DD6000BF80BD80B500AFFEF7EDFA00BF80BD80B500AFFEF7E7FA00BF80BD80B500AFFEF7E1FA00BF80BD77
S32D0000DD8880B500AFFEF7DBFA00BF80BD80B500AFFEF7D5FA00BF80BD80B500AFFEF7CFFA00BF80BD80B500AF9D
S32D0000DDB0FEF7C9FA00BF80BD80B500AFFEF7C3FA00BF80BD80B500AFFEF7BDFA00BF80BD80B500AFFEF7B7FAE9
S32D0000DDD800BF80BD80B500AFFEF7B1FA00BF80BD80B500AFFEF7ABFA00BF80BD80B500AFFEF7A5FA00BF80BDB3
S32D0000DE0080B500AFFEF79FFA00BF80BD80B500AFFEF799FA00BF80BD80B500AFFEF793FA00BF80BD80B500AFD8
S32D0000DE28FEF78DFA00BF80BD80B500AFFEF787FA00BF80BD80B500AFFEF781FA00BF80BD80B500AFFEF77BFA60
S32D0000DE5000BF80BD80B500AFFEF775FA00BF80BD80B500AFFEF76FFA00BF80BD80B500AFFEF769FA00BF80BDEE
S32D0000DE7880B500AFFEF763FA00BF80BD80B500AFFEF75DFA00BF80BD80B500AFFEF757FA00BF80BD80B500AF14
S32D0000DEA0FEF751FA00BF80BD80B500AFFEF74BFA00BF80BD80B500AFFEF745FA00BF80BD80B500AFFEF73FFAD8
S32D0000DEC800BF80BD80B500AFFEF739FA00BF80BD80B500AFFEF733FA00BF80BD80B500AFFEF72DFA00BF80BD2A
S32D0000DEF080B584B000AFF8600B467A60FB72FB68FA7A1A71FB6800225A711749786837F007FC0346002B02D09A
S32D0000DF18134B7B600AE04FF07E51786837F0E8FB0346002B02D04FF07E537B60786836F09FFD09A3D3E9002362
S32D0000DF4036F0F2FD02460B461046194637F0CEF80246FB681A60FB6818461037BD4680BDABAAAAAAAAAA204099
S32D0000DF680000404180B582B000AF78607B685B79002B09D07B6800225A717B6819791E230022034801F074FE0B
S32D0000DF9000BF0837BD4680BDBC20002080B584B000AF786039603B687F2B02DD7F23FB7308E03B6813F1800F46
S32D0000DFB802DA8023FB7301E03B68FB737B685B79FA7B9A4209D07B68FA7B5A717B681979FA7B1E23034801F0F1
S32D0000DFE04BFE00BF1037BD4680BD00BFBC200020B0B584B000AF786039603749386837F071FB0346002B02D017
S32D0000E008334B3B6008E03349386837F085FB0346002B01D02F4B3B60386836F029FD04460D467B681B6818467F
S32D0000E03036F022FD4FF00002294B36F09FFE02460B462046294636F06FFD02460B461046194637F04BF8034604
S32D0000E0583B604FF00001386837F054FB0346002B10D0386836F004FD17A3D3E9002336F057FD02460B4610468C
S32D0000E080194636F0EBFF0346FB6018E0386836F0F3FC4FF00002134B36F046FD02460B46104619464FF000021B
S32D0000E0A80D4B36F067FE02460B461046194636F0D1FF0346FB60F9687868FFF76BFF00BF1037BD46B0BD00BFA9
S32D0000E0D052B81E85EB51F43F0000C8C20000C842000059400000604080B483B000AF03460A46FB711346BB7199
S32D0000E0F8BB79002B03D1134B00221A7002E0114B01221A703823FB710E4B1A78FB791343FB710D4B9B78DBB2F2
S32D0000E1200B4A43F01003DBB29370094B9B78DBB2074A43F02003DBB29370054AFB79137100BF0C37BD4680BCF3
S32D0000E148704700BF991E00200060064080B483B000AF01237B607B68312B04DC00BF7B6801337B60F7E700BF34
S32D0000E1700C37BD4680BC704780B582B000AF03460A46FB711346BB71134B1B7800211846FFF7AAFF00F024F88D
S32D0000E198104AFB79137100F01FF80E4ABB79137100F01AF80B4B9B78DBB20A4A23F02003DBB29370074B9B7879
S32D0000E1C0DBB2064A23F01003DBB29370FFF7C2FF00BF0837BD4680BD9A1E00200060064080B483B000AF174BB3
S32D0000E1E81B78002B24D100237B60154BDB78DBB203F00203002B0CBF01230023DBB2002B0DD07B6842F21072B5
S32D0000E210934203DD0B4B01221A7004E07B6801337B6000BFE5E7084BDB78DBB2064A43F00203DBB2D37000E05C
S32D0000E23800BF0C37BD4680BC704700BF9B1E00200060064080B582B000AF0346FB71FB79184600F05FF800BFDF
S32D0000E2600837BD4680BD80B582B000AF03460A46FB711346BB7100F035F8FB795B00DBB21846FFF7E3FFBB798E
S32D0000E2881846FFF7DFFF00F037F800BF0837BD4680BD80B500AFFF2000F03CF80346184680BD80B584B000AFB6
S32D0000E2B00346FB7100F016F8FB795B005BB243F001035BB2DBB21846FFF7C0FFFFF7E5FF0346FB7300F014F840
S32D0000E2D8FB7B18461037BD4680BDFFFF80B400AF044B9B68034A43F48013936000BFBD4680BC704740F00F404C
S32D0000E30080B400AF044B5B68034A43F48013536000BFBD4680BC704740F00F4080B485B000AF0346FB7100230C
S32D0000E328BB73164BDB6A03F00043012B0CBF01230023DBB2002B03D0FB7B0133FB73F0E70E4BDB6A0D4A43F0DD
S32D0000E3500043D3620B4AFB7953630A4BDB6A03F40033002B0CBF01230023DBB2002B00D0F3E7044B9B6BBB73C2
S32D0000E378BB7B18461437BD4680BC704700C00A4080B582B000AF224B03F5815310331B681F4943F4805201F51C
S32D0000E3A0815310331A601D4B4FF480721A651C4B5B691B4A43F480135361FFF7A1FF174B4FF400725A65154BC8
S32D0000E3C84FF400729A65134B4FF40072DA65134B134A1A60114B134ADA6000237B607B68092B06DCFF20FFF7ED
S32D0000E3F02DFF7B6801337B60F5E705A1D1E9000101F0C8FC00BF0837BD4680BDAFF300809A9999999999B93F00
S32D0000E4180070044000A0044040F00F4000C00A40000C00800500003E90B486B000AFF860B9607A60FB68594A6C
S32D0000E44093420CD1584B03F5815314331B68564943F4806201F5815314331A604FE0FB68524A93420CD1504B05
S32D0000E46803F5815314331B684D4943F4006201F5815314331A603EE0FB684B4A93420CD1474B03F581531433C9
S32D0000E4901B68454943F4805201F5815314331A602DE0FB68434A93420CD13F4B03F5815314331B683C4943F42E
S32D0000E4B8005201F5815314331A601CE0FB683C4A93420CD1364B03F5815308331B68344943F4806201F5815357
S32D0000E4E008331A600BE0304B03F5815308331B682D4943F4006201F5815308331A60FB68DB78DBB223F00C0376
S32D0000E508DAB2FB68DA70FB6800229A70BB684FF47A7202FB03F27B681B0192FBF3F39CB2FB681B78DBB223F083
S32D0000E5301F03FB7523461B12DBB203F01F03DAB2FB7D1343DAB2FB681A70E2B2FB685A70BB684FF4FA4202FBC0
S32D0000E55803F27B681B0192FBF3F39AB263019BB2D31A9CB2FB689B7ADBB223F01F03FB75E3B203F01F03DAB216
S32D0000E580FB7D1343DAB2FB689A72FB68DB78DBB243F00C03DAB2FB68DA7000BF1837BD4690BC704700A00640EC
S32D0000E5A80070044000B0064000C0064000D0064000A00E4080B483B000AF78607B681B79DBB203F02003002B5E
S32D0000E5D00CBF01230023DBB2002B00D0F2E77B68DB79DBB218460C37BD4680BC704780B483B000AF78600B4610
S32D0000E5F8FB707B681B79DBB25BB2DB43DBB2DB09DBB2002B00D0F4E77B68FA78DA7100BF0C37BD4680BC7047EF
S32D0000E62080B487B000AFF860B9607A60FB687B617B685A1E7A60002B14BF01230023DBB2002B06D07B695A1CC6
S32D0000E6487A61BA68D2B21A70EEE700BF1C37BD4680BC704780B584B000AF786039607B681B6BFB60FA683B686A
S32D0000E6709A4252D07B681B79002B35D07B6858787B6803F134010123FA6801F0F5F80346002B14BF0123002326
S32D0000E698DBB2002B01D001233CE07B6800221A717B685A6A7B681B6A1344FA689A4217D27B68DB78FB72FB7A56
S32D0000E6C0012B11D97B681B6AFA681344FB607B6858787B6803F134010123FA6801F0CCF8FB7A013BFB72EAE7B1
S32D0000E6E83B68002B15D07B6858787B6803F1340101233A6800F0D8FF0346002B14BF01230023DBB2002B01D0EE
S32D0000E710012303E07B683A681A63002318461037BD4680BD80B584B000AF786000217868FFF794FF0346FB7399
S32D0000E738FB7B002B40F091807B681B78032B7BD17B685B79002B77D07B6800221A637B6834334FF40072002116
S32D0000E7601846FFF75DFF7B68552283F832227B68AA2283F833227B68522283F834207B68522283F835207B6803
S32D0000E788612283F836207B68412283F837207B68722283F818227B68722283F819227B68412283F81A227B68BE
S32D0000E7B0612283F81B227B681B69DAB27B6883F81C227B681B699BB21B12DAB27B6883F81D227B681B691B0CD9
S32D0000E7D8DAB27B6883F81E227B681B691B0EDAB27B6883F81F227B68DB68DAB27B6883F820227B68DB689BB269
S32D0000E8001B12DAB27B6883F821227B68DB681B0CDAB27B6883F822227B68DB681B0EDAB27B6883F823227B68B4
S32D0000E82858787B6803F134017B685A69012301F01FF87B6800225A717B685B7800220021184601F0E1F80346DA
S32D0000E850002B14BF01230023DBB2002B01D00123FB73FB7B18461037BD4680BD80B582B000AF78600B467B80A5
S32D0000E8787B68002B08D07B681B78002B04D07B68DB887A889A4201D0092311E07B685B78184601F03BF9034683
S32D0000E8A003F00103002B14BF01230023DBB2002B01D0032300E0002318460837BD4680BD80B586B000AF78608D
S32D0000E8C87B681A687B689B8819461046FFF7CAFF0346FB75FB7D002B40F0A8807B689B7903F02003002B00F067
S32D0000E8F0A1807B689B7903F04003002B1BD07B681B6858787B6803F128017B689A69012300F0B2FF0346002B41
S32D0000E91814BF01230023DBB2002B01D0012386E07B689B7923F04003DAB27B689A717B681A687B68DB691946F2
S32D0000E9401046FFF78BFE0346FB75FB7D002B71D17B681B6A3B613B690B331A783B690B3342F02002D2B21A707A
S32D0000E9687B68DA683B691C33D2B21A707B68DB689BB21A123B691D33D2B21A707B68DB681A0C3B691E33D2B2F5
S32D0000E9901A707B68DB681A0E3B691F33D2B21A707B681A693B691A33D2B21A707B681B699BB21A123B691B3346
S32D0000E9B8D2B21A707B681B691A0C3B691433D2B21A707B681B691B0C9BB21A123B691533D2B21A700023FB601E
S32D0000E9E03B691633FA68D2B21A70FB689BB21A123B691733D2B21A70FB681A0C3B691833D2B21A70FB681A0EC3
S32D0000EA083B691933D2B21A707B689B7923F02003DAB27B689A717B681B6801221A717B681B681846FFF77AFEF5
S32D0000EA300346FB75FB7D18461837BD4680BD80B584B000AF78607868FFF73AFF0346FB73FB7B002B02D17B688D
S32D0000EA5800221A60FB7B18461037BD4680BDFFFF80B588B000AF7860396080233B610F23FB604FF0FF337B61F5
S32D0000EA800223FB61FB69B3F5807F23D80123BB61BB69102B1AD8FB69BA6902FB03F33A6802FB03F27B68D31A72
S32D0000EAA8BB60BB68002B09DBBB687A699A4205D9BB687B61FB693B61BB69FB60BB690133BB61E1E7FB695B00BA
S32D0000EAD0FB61D7E71D4BDB6A1C4A23F00803D3621A4BDB6A23F47F2323F47F63BB613B695B081B029AB2FB684D
S32D0000EAF8013B1B01DBB21A43BB691343114A43F46023D3620F4B5B6A03F00803002B0CBF01230023DBB2002BD8
S32D0000EB2003D00A2001F020F9F0E7084BDB6A074A43F00803D362054B1B6B044A43F48013136300BF2037BD4610
S32D0000EB4880BD00BF00100B4080B582B000AF786039607B6800221A60424B434ADA62414BDB6A03F08073002B0A
S32D0000EB7014BF01230023DBB2002B00D0F3E73B4B0022C3F8C020394B4FF481325A60374B28229A62354B4FF0FD
S32D0000EB9801125A643B689B6834491846FFF760FF304B5B6A03F00303002B14BF01230023DBB2002B00D0F3E7C8
S32D0000EBC02D4B40F243421A602B4B40F243425A60294B4FF488629A60274B40F24342DA60254B40F243421A61F7
S32D0000EBE8234B40F243425A61224B03F5815310331B68204943F4003201F5815310331A60184B4FF6FF721A6331
S32D0000EC10164B1B4A5A63154BDB6A144A43F00063D362124BDB6A03F00063002B14BF01230023DBB2002B00D0C0
S32D0000EC38F3E70C4B5B6A03F48033002B14BF01230023DBB2002B02D07B6801221A60054B1B6B044A43F08003E5
S32D0000EC601363002318460837BD4680BD00100B400080000160CC050000D0044000700440B3007F0080B400AF26
S32D0000EC88064B5A6A40F207331340002B14BF01230023DBB21846BD4680BC704700100B4080B485B000AF786019
S32D0000ECB0074B1B6B7A681340FB60FB68002B00D1F6E7FB6818461437BD4680BC704700BF00100B4080B584B00D
S32D0000ECD800AF78607B681B7803F03F03764A52F82330FB60FB68002B05D17B681B78002B01D00123DCE0714BB2
S32D0000ED001B6B704A43F0800313636E4B5B6A03F00103002B14BF01230023DBB2002B00D0F3E7684A7B685B6805
S32D0000ED289360FB6823F44003FB607B685B789B0503F44003FA681343FB607B685B78022B03D1FB6843F40013AB
S32D0000ED50FB607B685B78042B16D1FB6803F44033B3F5003F08D1FB6823F44033FB60FB6843F44033FB6007E04A
S32D0000ED78FB6823F44033FB60FB6843F40033FB604E4B5B684D4A9BB253607B68DB68002B2AD0FB6803F44033F2
S32D0000EDA0B3F5403F03D0FB6843F40013FB607B681B7A002B03D0FB6843F01003FB607B68DB68012B03D9FB6838
S32D0000EDC843F02003FB607B68DB68B3F1FF3F0BD03A4B5A687B68DB681B04384913434B60FB6843F00203FB6085
S32D0000EDF0344B00221A60334AFB68D3603248FFF753FF0346012B14BF01230023DBB2002B09D02C4B1B6B2B4A73
S32D0000EE1843F4702343F001031363012348E0274B1B6B03F08003002B14BF01230023DBB2002B07D0214B1B6BD5
S32D0000EE40204A43F001131363012335E01D4B1B6B03F48033002B14BF01230023DBB2002B08D0184B1B6B174A8D
S32D0000EE6843F0011313634FF0FF3321E0FB6803F44033002B15D0114B1A697B681A61FB6803F44033B3F5803FFF
S32D0000EE900BD10C4B5A697B685A610A4B9A697B689A61084BDA697B68DA61064B1B6B054A43F0010313630023E0
S32D0000EEB818461037BD4680BD3C71050000100B4001000E0080B592B000AF7860396000237B643B68BB63994BED
S32D0000EEE07B637B6B002B02D140F6012362E3964B3B633B6B002B02D140F60B235AE33B6B1B68FB62FB6A002BC9
S32D0000EF0802D140F60B2351E37B6841F20932934200F242837B68B3F5985F08D87B68032B00F01D837B68092B79
S32D0000EF3000F00C8334E37B68A3F59853013B082B00F22E8301A252F823F000BF71EF000061F20000BFF4000080
S32D0000EF5877F20000B5F20000DFF3000027F4000069F3000083F300007649786BFFF7ECFD78647B6C002B40F01D
S32D0000EF801383002387F84330002387F82B30002387F82A30002387F82930002387F84230002387F82830002393
S32D0000EFA83B7200237B720023FB6000233B7400237B6107F108031846FFF788FE0346002B14BF01230023DBB237
S32D0000EFD0002B02D001237B64EBE240F24C4000F0C3FE08233B7200237B724FF4D573FB6000233B7400237B6138
S32D0000EFF807F108031846FFF769FEF863FB6B002B09D1BA69FB689A4202D001237B64CCE2012387F84230012349
S32D0000F02087F8283097F82830002B00F0A58037233B7200237B720023FB6000233B7400237B6107F108031846FD
S32D0000F048FFF744FEF863FB6B002B02D001237B64ABE269233B7200237B720023FB6000233B7400237B6107F184
S32D0000F07008031846FFF72EFE0346002B14BF01230023DBB2002B02D001237B6491E2BB6903F44013002B6FD081
S32D0000F0980023FB630A2000F063FEFB6B0133FB6337233B7200237B720023FB6000233B7400237B6107F10803ED
S32D0000F0C01846FFF707FE0346002B14BF01230023DBB2002B02D001237B6428E069233B7200237B7297F842305C
S32D0000F0E8002B02D0184BFB6002E04FF44013FB6000233B7400237B6107F108031846FFF7E5FD0346002B14BF1B
S32D0000F11001230023DBB2002B02D001237B6406E0BB69002B03DBFB6B632B00D8B6E77B6C002B40F03B82FB6B1C
S32D0000F138632B0BD9002387F8423019E0B01E0020B42000203071050000003040012387F8433097F84230002BF0
S32D0000F1600AD0002387F84230BB6903F08043002B02D0012387F8423097F82A30002B02D07B6B07221A6097F8A9
S32D0000F1882930002B02D07B6B08221A6097F82B30002B02D07B6B04221A6097F84330002B09D07B6B02221A6082
S32D0000F1B097F84230002B02D07B6B03221A6097F82B30002B0DD097F84330002B09D07B6B05221A6097F842302E
S32D0000F1D8002B02D07B6B06221A60A04B00221A609E4B00225A609D4B00229A609B4B0022DA609A4B00221A6170
S32D0000F200984B00225A61FB6A9A68FB6A5B6819461046FFF729FC934B40F243421A60914B40F243425A608F4B8B
S32D0000F2284FF488629A608D4B40F24342DA608B4B40F243421A61894B40F243425A61884B03F5815310331B6815
S32D0000F250854943F4003201F5815310331A60A8E1B86BFFF737FDF863FB6B002B00F0A08102237B649CE1BB6B58
S32D0000F278002B02D10C237B6497E17A4BDB6A1B0A5B0003F4FF73FB63764BDB6A1B0903F00F035A1CFB6B02FB8B
S32D0000F2A003F3FB63FB6A9A68FB6BB2FBF3F2BB6B1A607EE1BB6B002B02D10C237B6478E1BB6B1B68002B02D15C
S32D0000F2C80C237B6471E1FFF7D9FC0346002B0CBF01230023DBB2002B3ED0604B00221A605E4B00225A605D4B2D
S32D0000F2F000229A605B4B0022DA605A4B00221A61584B00225A61FB6A9A68BB6B1B6819461046FFF7A9FB534B13
S32D0000F31840F243421A60514B40F243425A604F4B4FF488629A604D4B40F24342DA604B4B40F243421A61494BE3
S32D0000F34040F243425A61484B03F5815310331B68454943F4003201F5815310331A6028E140F60A237B6424E13A
S32D0000F368BB6B002B02D10C237B641EE13D4B5B68C3F30C02BB6B1A6017E1BB6B002B02D10C237B6411E1FFF785
S32D0000F39079FC0346002B0CBF01230023DBB2002B19D0BB6B1B68B3F5805F02D30C237B64FFE02E4B5B682D4A0E
S32D0000F3B823F4FF5323F01F0353602A4B5A68BB6B1B68C3F30C03274913434B60EDE040F60A237B64E9E0BB6BC2
S32D0000F3E0002B02D10C237B64E3E0204B9B6A5B0803F00303FB63FB6B002B03D1BB6B00221A60D6E0FB6B012B97
S32D0000F40803D1BB6B01221A60CFE0FB6B102B03D1BB6B02221A60C8E005237B64C5E0BB6B002B02D10C237B64D1
S32D0000F430BFE0FFF727FC0346002B0CBF01230023DBB2002B37D0BB6B1B68002B10D1074B9B6A064A23F0060339
S32D0000F4589362044B034A9B6A9362A6E000D004400070044000100B40BB6B1B68012B0CD1504B9B6A4F4A23F054
S32D0000F480060393624D4B9B6A4C4A43F0020393628FE0BB6B1B68022B0AD1484B9B6A474A23F006039362454B16
S32D0000F4A8444A9B6A936280E005237B647DE040F60A237B6479E0BB6B002B02D10C237B6473E03C4BDB6A3B4A79
S32D0000F4D043F00063D362394BDB6A03F00063002B14BF01230023DBB2002B00D0F3E7334B1B6B03F08003002BD8
S32D0000F4F814BF01230023DBB2002B08D02D4B1B6B2C4A43F0800313637B6B00221A60294B5B6A03F48033002B0C
S32D0000F52014BF01230023DBB2002B07D07B6B1B68002B06D17B6B01221A6002E07B6B00221A607B6B1A68BB6B34
S32D0000F5481A6032E0BB6B1C221A60BB6B043304221A60BB6B08334FF41E721A6025E00220FFF79EFB134B1B6BE6
S32D0000F57003F4E003002B14BF01230023DBB2002B07D00E4B1B6B0D4A43F4E003136304237B640A4B1B6B094AC5
S32D0000F59843F03203136308E040F609237B6404E000BF02E000BF00E000BF7B6C18464837BD4680BD00100B40FC
S32D0000F5C080B489B000AF786039607B687B61364B3B613B69002B01D100235FE03B691B68022B0BD03B691B685B
S32D0000F5E8032B07D03B691B68072B03D03B691B68082B0BD12B4B5B6A03F00403002B14BF01230023DBB2002B5C
S32D0000F61000D0F3E73B68FB61FB69002B3DD0FB69B3F5007F28BF4FF40073FB60FB6803339B08BB61BB69002B5D
S32D0000F6382AD01C4B1B6B03F4E003002B14BF01230023DBB2002B09D0164B1B6B154A43F4E00343F020031363E1
S32D0000F66000231BE0114B5B6A03F40063002B0CBF01230023DBB2002B00D0F3E70B497B691A1D7A610A6A1A600C
S32D0000F688BB69013BBB61D1E7FA69FB68D31AFB61BEE7012318462437BD4680BC704700BFB01E002000100B4091
S32D0000F6B080B58EB000AFB9607A601A460346FB731346BB73414B7B63FB7B002B02D1BB7B002B01D1042375E0EC
S32D0000F6D83D4B1B78DBB203F00103002B14BF01230023DBB2002B01D0032367E0BB68002B01D1002362E07B6BBF
S32D0000F7001B7B002B02D17B685B027B60BB7B012B28D111233B7500237B757B68BB6101233B77BB7B3B6207F13A
S32D0000F7281403194641F20230FFF7CCFB0346002B0CBF01230023DBB2002B38D04FF40071B868FFF739FF03468A
S32D0000F750002B14BF01230023DBB2002B2BD00023BB7328E012233B7500237B757B68BB6101233B77BB7B3B629A
S32D0000F77807F11403194641F20230FFF7A3FB0346002B0CBF01230023DBB2002B0FD0BB7B5B021946B868FFF7D7
S32D0000F7A00FFF0346002B14BF01230023DBB2002B01D00023BB73BB7B002B01D0012300E0002300BF18463837E0
S32D0000F7C8BD4680BD9C1E00200400002080B487B000AF786039607B68FB603B687B617B69002B3DD07B69B3F5E5
S32D0000F7F0007F28BF4FF400733B617A693B69D31A7B613B6903339B083B613B69002BEAD0184B1B6B03F4E0037E
S32D0000F818002B14BF01230023DBB2002B0AD0134B1B6B124A43F4E00343F0100313634FF0FF3316E00D4B5B6A51
S32D0000F84003F48063002B0CBF01230023DBB2002B00D0F3E7FB681A1DFA60064A1B6813623B69013B3B61D0E7B2
S32D0000F868012318461C37BD4680BC704700100B4080B58EB000AFB9607A601A460346FB731346BB735D4B7B6313
S32D0000F890FB7B002B02D1BB7B002B01D10423ADE0594B1B78DBB203F00103002B14BF01230023DBB2002B01D066
S32D0000F8B803239FE0524B1B78DBB203F00403002B14BF01230023DBB2002B01D0022391E0BB68002B01D100231F
S32D0000F8E08CE07B6B1B7B002B02D17B685B027B60BB7B012B28D118233B7500237B757B68BB6100233B77BB7B96
S32D0000F9083B6207F11403194641F20230FFF7DAFA0346002B0CBF01230023DBB2002B38D04FF40071B868FFF787
S32D0000F93051FF0346002B14BF01230023DBB2002B2BD00023BB7328E019233B7500237B757B68BB6100233B77EC
S32D0000F958BB7B3B6207F11403194641F20230FFF7B1FA0346002B0CBF01230023DBB2002B0FD0BB7B5B0219462B
S32D0000F980B868FFF727FF0346002B14BF01230023DBB2002B01D00023BB730D233B7500237B757B6B1B69BB613C
S32D0000F9A800233B7700233B6207F11403194641F20230FFF787FA0346002B14BF01230023DBB2002B01D0012317
S32D0000F9D014E07A6A0D4B1340002B01D001230DE07B6A03F4F853B3F5106F00D0D5E7BB7B002B01D0012300E069
S32D0000F9F8002300BF18463837BD4680BD9C1E0020040000200880D9FF80B58CB000AF03463A60FB710B46BB71A8
S32D0000FA203A4BBB62FB79002B01D0042369E0012387F82F30364B1B78DBB203F00103002B14BF01230023DBB2CA
S32D0000FA48002B01D0032358E0BB79032B50D801A252F823F06DFA000075FA000085FA000095FA0000002387F826
S32D0000FA702F3044E0BB6A9A683B681A60002387F82F303CE03B684FF400721A80002387F82F3034E009233B72A4
S32D0000FA9800237B72BB6A1B69FB6000233B7400237B6107F10803194641F20230FFF70AFA0346002B14BF01232F
S32D0000FAC00023DBB2002B01D001231AE07B6A03F44003002B0CD13B6A9B0C03F07F035A1C7B6A1B0A03F00303ED
S32D0000FAE8013B9A403B681A60002387F82F3002E0042387F82F3097F82F3018463037BD4680BD00BF9C1E002049
S32D0000FB100400002080B483B000AF0346FB71FB79002B01D0012302E0034B1B78DBB218460C37BD4680BC70475D
S32D0000FB380400002080B483B000AF7860174B03F5815318331B68154943F0010201F5815318331A60124A7B682F
S32D0000FB609360114B05225A600F4B1B680E4A43F0010313600C4B1B6803F08003002B0CBF01230023DBB2002B23
S32D0000FB8800D0F3E7064B1B68054A23F00103136000BF0C37BD4680BC704700BF007004400000044080B582B0E2
S32D0000FBB000AF786039607B68012B07D13B684FF6FF72934202D1034800F00EF800BF0837BD4680BDBC200020A4
S32D0000FBD880B500AF4FF6FF710120FFF7E3FF80BD80B483B000AF78607B6800221A707B6818460C37BD4680BCF0
S32D0000FC007047FFFF80B582B000AF78607B681B7883F00103DBB2002B21D0134B03F5815308334FF400621A6019
S32D0000FC28104B4FF440721A620E4B4FF440725A620D4B1B68DA0F13445B104FF4614219460A48FEF7F1FB642056
S32D0000FC5000F08AF87B6801221A70012300E0002318460837BD4680BD0070044000D00440C020002000B00E40BA
S32D0000FC7880B582B000AF7860084611461A460346FB700B46BB7013467B707F210E48FEF7AAFC08210C48FEF7F4
S32D0000FCA0A6FCFB7819460A48FEF7A1FCBB7819460748FEF79CFC7B7819460548FEF797FCFF210348FEF793FC5A
S32D0000FCC800BF0837BD4680BD00B00E4080B487B000AFF860B9607A60FB681F4AA2FB03239B09BA6813447B61E5
S32D0000FCF0FB681B4AA2FB031292094FF47A7101FB02F29B1AFB60FB68DB03154AA2FB03239B097A6813443B61C7
S32D0000FD183B69DB0B7A6913447B613B69C3F30E033B610E4B1B687A699A4209D80B4B1B687A699A4206D1094BD7
S32D0000FD405B683A699A4201D9012300E00023002B00D0EAE700BF1C37BD4680BC704700BFD34D621000D003401A
S32D0000FD6880B584B000AF7860074B1B68FB60064B5B68BB607B68BA68F9681846FFF7A6FF00BF1037BD4680BD79
S32D0000FD9000D0034080B584B000AFC7E900010E4B1B68FB600C4B5B68BB604FF000020B4BD7E9000134F0B8FECB
S32D0000FDB802460B461046194635F074F90346BA68F9681846FFF782FF00BF1037BD4680BD00D0034000408F4034
S32D0000FDE080B582B000AF78600B46FB70FB781946786800F005F87B6818460837BD4680BD80B483B000AF7860FE
S32D0000FE080B46FB707B68FA781A707B681B781A46534B9B5C042B00F29E8001A252F823F03DFE000077FE0000D7
S32D0000FE30B1FE0000EBFE000025FF00004B4A7B681B7819464A4B53F8213040F2031142F82310484B5A697B6861
S32D0000FE581B781946444B53F8213003F01F03012101FA03F3DB43414913404B6173E0404A7B681B7819463C4B57
S32D0000FE8053F8213040F2031142F823103B4B5A697B681B781946364B53F8213003F01F03012101FA03F3DB4384
S32D0000FEA8344913404B6156E0334A7B681B7819462D4B53F8213040F2031142F823102F4B5A697B681B7819464F
S32D0000FED0274B53F8213003F01F03012101FA03F3DB43284913404B6139E0274A7B681B7819461F4B53F82130DB
S32D0000FEF840F2031142F82310224B5A697B681B781946194B53F8213003F01F03012101FA03F3DB431B49134027
S32D0000FF204B611CE01A4A7B681B781946104B53F8213040F2031142F82310164B5A697B681B7819460A4B53F88F
S32D0000FF48213003F01F03012101FA03F3DB430F4913404B6100BF00BF0C37BD4680BC70473C720500009004405F
S32D0000FF708072050000F00F4000A0044040F00F4000B0044080F00F4000C00440C0F00F4000D0044000F10F40C0
S32D0000FF9880B584B000AF78600B46FB700B23FB73FA7BFB781946786800F094F87B6818461037BD4680BDFFFF8A
S32D0000FFC080B485B000AF78607B68103B002B00DA1F335B11FB60FB68022B53D0FB68022B75DCFB68002B03D0E2
S32D0000FFE8FB68012B25D06EE0394BD3F880217B68103B594203F01F0301F01F0158BF4B42012101FA03F3324908
S32D000100101343C1F88031304B1A687B68103B594203F01F0301F01F0158BF4B42012101FA03F3294913430B602B
S32D0001003849E0274BD3F884217B68103B594203F01F0301F01F0158BF4B42012101FA03F31F491343C1F88431BC
S32D000100601D4B5A687B68103B594203F01F0301F01F0158BF4B42012101FA03F3164913434B6024E0144BD3F813
S32D0001008888217B68103B594203F01F0301F01F0158BF4B42012101FA03F30D491343C1F888310B4B9A687B68A1
S32D000100B0103B594203F01F0301F01F0158BF4B42012101FA03F3044913438B6000BF00BF1437BD4680BC704711
S32D000100D800E100E080B584B000AF78600B46FB701346BB707B68FA781A70BB78FB737B681B781A46574B9B5C19
S32D00010100042B00F2A68001A252F823F0210101006D010100B90101005102010005020100FB7B1B0403F47023C1
S32D000101284D497A68127810464C4A52F8202043F4897343F0010341F82230494B5A697B681B781946454B53F834
S32D00010150213003F01F03012101FA03F3DB43424913404B616720FFF72BFF72E0FB7B1B0403F470233D497A68DF
S32D0001017812781046394A52F8202043F4897343F0010341F82230384B5A697B681B781946324B53F8213003F04F
S32D000101A01F03012101FA03F3DB43314913404B616820FFF705FF4CE0FB7B1B0403F470232C497A681278104660
S32D000101C8264A52F8202043F4897343F0010341F82230274B5A697B681B7819461F4B53F8213003F01F030121D2
S32D000101F001FA03F3DB43204913404B616920FFF7DFFE26E0FB7B1B0403F470231B497A6812781046134A52F81B
S32D00010218202043F4897343F0010341F82230164B5A697B681B7819460C4B53F8213003F01F03012101FA03F36E
S32D00010240DB430F4913404B616B20FFF7B9FE00E000BF00BF1037BD4680BD00BF3C7205000090044080720500C0
S32D0001026800F00F4000A0044040F00F4000B0044080F00F4000D0044000F10F4080B58AB000AF3B1D20220021E5
S32D00010290184638F05BFA0B237B600A23BB600723FB6006233B6105237B610423BB610123FB6100237B627B6A1D
S32D000102B8072B32DC1B4BD3F8A0207B6A9B0007F128010B4453F8243C012101FA03F31340002B14BF01230023A0
S32D000102E0DBB2002B19D0124A7B6A52F823305A1C0F497B6A41F823200C4BD3F8A0207B6A9B0007F128010B446F
S32D0001030853F8243C012101FA03F306491340C1F8A0307B6A01337B62C9E700BF2837BD4680BD00BF00A0044036
S32D00010330EC200020B0B489B000AF234B3C1D1D460FCD0FC495E8030084E803000023FB61FB69052B32DC1D4BD5
S32D00010358D3F8A020FB699B0007F120010B4453F81C3C012101FA03F31340002B14BF01230023DBB2002B19D095
S32D00010380FB690833124A52F823200132104941F823200E4BD3F8A020FB699B0007F120010B4453F81C3C0121AE
S32D000103A801FA03F307491340C1F8A030FB690133FB61C9E700BF2437BD46B0BC704700BF8473050000B0044076
S32D000103D0EC200020B0B48DB000AF244B3C461D460FCD0FC40FCD0FC495E8070084E807000023FB62FB6A0A2BBF
S32D000103F832DC1D4BD3F8A020FB6A9B0007F130010B4453F8303C012101FA03F31340002B14BF01230023DBB26E
S32D00010420002B19D0FB6A0E33124A52F823200132104941F823200E4BD3F8A020FB6A9B0007F130010B4453F85B
S32D00010448303C012101FA03F307491340C1F8A030FB6A0133FB62C9E700BF3437BD46B0BC704700BF9C73050011
S32D0001047000900440EC200020B0B487B000AF224B3C461D460FCD0FC42B68236000237B617B69042B32DC1D4B74
S32D00010498D3F8A0207B699B0007F118010B4453F8183C012101FA03F31340002B14BF01230023DBB2002B19D0E0
S32D000104C07B691933124A52F823200132104941F823200E4BD3F8A0207B699B0007F118010B4453F8183C012168
S32D000104E801FA03F307491340C1F8A0307B6901337B61C9E700BF1C37BD46B0BC704700BFC873050000D00440D9
S32D00010510EC20002080B483B000AF78607B681B781A46044B53F8223018460C37BD4680BC704700BFEC2000205E
S32D0001053880B483B000AF78607B681B781946044B002243F8212000BF0C37BD4680BC7047EC20002080B483B059
S32D0001056000AF78600B46FB707B68FA781A707B6818460C37BD4680BC7047FFFFFFFFFFFF80B586B000AF7860E4
S32D000105887B681B781A463E4B53F822303B617B681B781A463B4B9B5CFB733B69DBB203F01F03DAB2384B1A720A
S32D000105B03B69DBB203F01F03DAB2354B5A72354B1022C3F88820FB7B002B13D13049324800F058FA304B1B6831
S32D000105D803F08003802B14BF01230023DBB2002B00D0F3E72A4B1B697B6112E02649294800F044FA274B1B688D
S32D0001060003F08003802B14BF01230023DBB2002B00D0F3E7214B1B697B611E4BD3F888311C4A43F01003C2F80F
S32D0001062888311A4B9B68194A43F0100393607B699BB2184634F0FAF90DA3D3E9002334F06FFA02460B46104635
S32D0001065019460BA3D3E9002334F090FB02460B461046194634F042FD0346BB60BB6818461837BD4680BD00BFFC
S32D00010678A4703D0AD7A30A4000000000E0FFEF40007305005C720500CC20002000E100E000B0034000B00B4020
S32D000106A080B586B000AF78607B681B781A46234B53F822303B617B681B781A46204B9B5CFB733B69DBB203F0F2
S32D000106C81F03DAB21D4B1A723B69DBB203F01F03DAB21A4B5A72FB7B002B13D11749184800F0CCF9164B1B6880
S32D000106F003F08003802B14BF01230023DBB2002B00D0F3E7104B1B697B6112E00D490F4800F0B8F90D4B1B6868
S32D0001071803F08003802B14BF01230023DBB2002B00D0F3E7074B1B697B617B6918461837BD4680BD007305001A
S32D000107405C720500DC20002000B0034000B00B4098B500AF204B5C221A701F4B10225A701D4B41F234225A800D
S32D000107681B4B45F278629A80194B10229A71184B0722DA71164B4FF4C022DA60144B1F221A72134B1F225A7202
S32D000107901149124800F076F90F49114800F072F90F4800F0D0F80D4800F0CDF80A490C4800F068F90849094868
S32D000107B800F064F9094A064B14460FCB84E80F00064B5C221A70054B0422DA7100BF98BDCC20002000B0034045
S32D000107E000B00B40DC20002080B500AF064B1B680133054A136000F03BF8044B0122C3F80C2100BF80BD00BFED
S32D00010808702100200070034080B500AF0B4800F01BF80B4B0322C3F808210A4BD3F88831084A43F01003C2F899
S32D000108308831064B9B68054A43F01003936000BF80BD00BFA08601000070034000E100E080B483B000AF7860C0
S32D00010858044A7B68C2F8003100BF0C37BD4680BC704700BF0070034080B584B000AF174B1B68FB60FB68002B05
S32D0001088024D0FB685B78FB71FB689B68184600F023F80346BB71BB79002B13D0FB685B68012B0FDDFB689B6889
S32D000108A81B69BB60BB68002B08D0BB685B685A1CBB685A60BB681B69BB60F3E7FB68DB68FB60D7E700BF1037C2
S32D000108D0BD4680BD6C21002080B584B000AF78607868FFF7DDFEF8607B689B695B78FB72FB7A002B0FD17B6889
S32D000108F8DB68FA689A420ADD7B689B6901225A707B685B685A1C7B685A60012313E0FB7A012B0FD17B689B685E
S32D00010920FA689A420ADA7B689B6900225A707B685B685A1C7B685A60012300E0002318461037BD4680BD80B4BA
S32D0001094885B000AF78607B681B6A23F040027B681A627B685B6A23F00B027B685A627B685B6A43F007027B687A
S32D000109705A627B685B6A43F080027B685A627B681B6803F08003002B0CBF01230023DBB2002B00D0F3E77B6842
S32D000109985B6A03F04003402B0CBF01230023DBB2002B01D0012364E00023FB817B68DB6CFB817B689B6C9AB24C
S32D000109C0FB891344FB817B685B6C9AB2FB891344FB817B681B6C9AB2FB891344FB817B68DB6B9AB2FB89134407
S32D000109E8FB817B689B6B9AB2FB891344FB81FB895B08FB81FB896FEA43436FEA5343FB81FA897B68DA620023E2
S32D00010A10FB817B68DB6EFB817B689B6E9AB2FB891344FB817B685B6E9AB2FB891344FB817B681B6E9AB2FB8979
S32D00010A381344FB817B68DB6D9AB2FB891344FB817B689B6D9AB2FB891344FB81FB895B08FB81FB896FEA43439A
S32D00010A606FEA5343FB81FA897B681A637B685B6A23F080027B685A62002318461437BD4680BC704780B483B014
S32D00010A8800AF786039603B681B781A467B689A603B685B781A467B68DA603B685B881A467B689A613B689B882F
S32D00010AB01A467B68DA613B689B791A467B681A623B68DB791A467B685A623B68DA687B681A653B681B7A1A464E
S32D00010AD87B681A603B685B7A1A467B685A6000BF0C37BD4680BC704780B483B000AF78607B6818460C37BD46B0
S32D00010B0080BC704780B582B000AF786039607B68012B07D13B684FF6FF72934202D10348FFF7E6FF00BF083740
S32D00010B28BD4680BD7421002080B500AF4FF6FF710120FFF7E3FF80BD80B483B000AF78600B46FB707B68FA78DB
S32D00010B501A707B684FF4FA725A807B6840F6C4129A807B68034A9A607B6818460C37BD4680BC7047000080BF94
S32D00010B7880B483B000AF786039603B68B3F5FA7F04DB3B6840F6C412934204DD7B684FF4FA725A8004E03B68CC
S32D00010BA09AB27B685A8000BF00BF0C37BD4680BC704780B483B000AF786039603B68B3F5FA7F04DB3B6840F663
S32D00010BC8C412934204DD7B6840F6C4129A8004E03B689AB27B689A8000BF00BF0C37BD4680BC70472DE99043F9
S32D00010BF085B000AF786039604FF00001386834F071FD0346002B02D04FF000033B603149386834F085FD0346E3
S32D00010C18002B01D02D4B3B607B689B681946386834F052FD0346002B00D04AE07B683A689A607B685C887B68AF
S32D00010C409B881A467B685B88D31A184633F002FF4FF00002204B34F091F802460B4690469946386833F008FF5C
S32D00010C6802460B464046494633F05AFF02460B461046194634F016FA03469BB22344FB81FB897B73FB891B1215
S32D00010C903B737F211148FDF7AAFC05210F48FDF7A6FC7B681B7819460C48FDF7A0FC3B7B19460A48FDF79BFC36
S32D00010CB87B7B19460748FDF796FCFF210548FDF792FC00BF1437BD46BDE89083000034430080664000B00E4094
S32D00010CE080B582B000AF7860B84B4FF48072DA60B74B4FF480729A64B54B4FF480721A64B34B4FF480725A64AC
S32D00010D08B14B4FF48072DA60B04B5B69AF4A43F008035361AE4B5B69AD4A43F480235361AB4B5B69AA4A43F480
S32D00010D3080335361A84B5B69A74A43F400335361A54B1B68A44A43F008031360A24B5B69A14A43F008035361C7
S32D00010D589E4B1B689D4A43F0080313609A4B4FF480725A62984B4FF480721A62954B4FF480721A61934B4FF44D
S32D00010D8080725A61914B4FF480729A618F4B4FF48072DA618D4B4FF480721A638B4B4FF480725A63894B4FF4D8
S32D00010DA880729A63874B4FF48072DA63854B4FF480721A64834B4FF480725A64814B4FF480729A647F4B4FF499
S32D00010DD08072DA64814B4FF480721A607F4B4FF480729A607D4B4FF48072DA607B4B4FF480721A61784B5B691C
S32D00010DF8774A43F440735361744B5B69734A43F47F2343F0F0035361734B5B69724A43F01D035361E221786852
S32D00010E2000F054FD1D21786800F0F6FD0221786800F0F2FD0421786800F0EEFDE021786800F044FD012178688B
S32D00010E4800F0E6FD6420FEF78BFFE021786800F039FD0321786800F0DBFD0121786800F031FD0120FEF77CFF21
S32D00010E70E621786800F02AFD0121786800F0CCFDA021786800F0C8FDFF21786800F0C4FDB021786800F01AFDDB
S32D00010E981C21786800F0BCFD0F21786800F0B8FD0121786800F0B4FD3F21786800F0B0FD0021786800F0ACFD96
S32D00010EC0EF21786800F0A8FD0021786800F0A4FDB421786800F0FAFC0121786800F09CFD9921786800F098FDA7
S32D00010EE80021786800F094FD4521786800F090FD0221786800F08CFD0021786800F088FD0021786800F084FD32
S32D00010F100021786800F080FDB621786800F0D6FC0121786800F078FD0921786800F074FD0021786800F070FD9B
S32D00010F380E21786800F06CFD0221786800F068FD0021786800F064FD0021786800F060FDBA21786800F0B6FCCD
S32D00010F600F21786800F058FD6420FEF7FDFE3A21786800F0ABFC6021786800F04DFD2A21786800F0A3FC002151
S32D00010F88786800F045FD0021786800F041FD0121786800F03DFD3F21786800F039FD2B21786800F08FFC00219F
S32D00010FB0786800F031FD0021786800F02DFD0021786800F029FDEF2178680BE000B0044000A0044080F00F4070
S32D00010FD840F00F4000C00440C0F00F4000F018FD3621786800F06EFC0021786800F010FDF021786800F066FC91
S32D000110000421786800F008FDB821786800F05EFC0F21786800F000FD0121786800F0FCFC314B1B68304A43F031
S32D00011028080313606420FEF79BFE3621786800F049FC0021786800F0EBFCF021786800F041FC0421786800F0B2
S32D00011050E3FC0121786800F013FA1E226F21786800F082F8AF225621786800F0DBF80021786800F056FA012329
S32D0001107801221C49786800F077FA2921786800F021FC6420FEF76CFEBE21786800F01AFC0E21786800F0BCFCEA
S32D000110A0F021786800F0B8FC0121786800F0B4FC0021786800F0B0FC0021786800F0ACFC0F21786800F0A8FC10
S32D000110C8786800F074FA0121786800F026FA0021786800F0FBF900BF0837BD4680BD00BF40F00F40DC730500F4
S32D000110F080B582B000AF78607B680022DA617B6801221A627B680E225A607B681A229A607B6800225A617B6898
S32D0001111800229A617B684FF4A072DA607B68F0221A617B6800221A70786801F0BBF87B6818460837BD4680BDD6
S32D0001114080B582B000AF7860064B1B78002B05D1044B01221A707868FFF7C2FD00BF0837BD4680BDBC210020E1
S32D0001116880B58AB002AFF860B9607A607E23009362237A68B968F86800F0F4FD40F24E733B610023FB61FA697F
S32D000111903B699A4240DA0023BB61214AFB6913441B781A46BB69934232DAFB6901331C4AD35C002B06D1FF23E8
S32D000111B8FB75FF23BB75FF237B7512E0FB690133154AD35C012B06D1D423FB750023BB7526237B7505E0B52369
S32D000111E0FB75BA23BB75B0237B757B7DBA7DF97DF86800F023F90246FB68DA61F86801F055F8F86800F08EFF2E
S32D00011208BB690133BB61C4E7FB690233FB61BAE700BF2037BD4680BD0800002080B58AB002AFF860B9607A6019
S32D000112302723009395237A68B968F86800F096FD40F2E6333B610023FB61FA693B699A4240DA0023BB61214A07
S32D00011258FB6913441B781A46BB69934232DAFB6901331C4AD35C002B06D1FF23FB75FF23BB75FF237B7512E09D
S32D00011280FB690133154AD35C012B06D10023FB750023BB7500237B7505E0D423FB750023BB7526237B757B7D4D
S32D000112A8BA7DF97DF86800F0C5F80246FB68DA61F86800F0F7FFF86800F030FFBB690133BB61C4E7FB690233FA
S32D000112D0FB61BAE700BF2037BD4680BD5807002080B582B000AF78600B46FB707B68FA781A703621786800F06D
S32D000112F8E9FA7B681B78032B1ED801A252F823F019130100231301002D130100371301000021786800F07CFBF2
S32D000113200EE00321786800F077FB09E0A321786800F072FB04E0A021786800F06DFB00BF7B681B78002B03D050
S32D000113487B681B78012B0DD17B680E225A607B681A229A607B684FF4A072DA607B68F0221A610CE07B6812222B
S32D000113705A607B6813229A607B68F022DA607B684FF4A0721A61786800F000FC00BF0837BD4680BD80B485B02D
S32D0001139800AF78600B46FB70FB78062B29D801A252F823F0D1130100C9130100D7130100DF130100E7130100A3
S32D000113C0ED130100F51301006FF07F43FB6014E00023FB6011E04FF47F03FB600DE04FF47F43FB6009E0FF239D
S32D000113E8FB6006E04FF41903FB6002E0044BFB6000BFFB6818461437BD4680BC704700BF9999990080B584B09B
S32D0001141000AF786039603B681B0CFB733B681B0ABB733B687B737B7BBA7BF97B786800F005F803461846103774
S32D00011438BD4680BD80B487B000AF7860084611461A460346FB700B46BB7013467B70FB789B107B61BB789B1002
S32D000114603B617B789B10FB607B691A033B699B011A43FB68134318461C37BD4680BC704780B582B000AF7860DC
S32D000114880B46FB70FB7819467868FFF77FFF03461946786800F004F800BF0837BD4680BD80B582B000AF7860B3
S32D000114B0396039687868FFF7A9FF02467B681A62786800F0F3FE786800F060FB00BF0837BD4680BD80B582B01D
S32D000114D800AF78600B46FB70FB7819467868FFF755FF03461946786800F004F800BF0837BD4680BD80B582B08D
S32D0001150000AF7860396039687868FFF77FFF02467B681A62786800F0C9FE00BF0837BD4680BD80B582B000AF15
S32D0001152878600B46FB70FB7819467868FFF72EFF03461946786800F004F800BF0837BD4680BD80B582B000AF63
S32D000115507860396039687868FFF758FF02467B68DA61786800F0A2FE00BF0837BD4680BD80B586B000AFF860A7
S32D00011578B9607A603B6000237B617B69BA6813441B78002B0FD07B69BA6813441B783A687968F86800F080FC7E
S32D000115A07B680C337B607B6901337B61E9E700BF1837BD4680BD80B582B000AF7860FCF7E3FE67210120FCF7AF
S32D000115C84EFE00210220FCF74AFEA0210320FCF746FE50210420FCF742FE20210520FCF73EFE20210620FCF758
S32D000115F03AFE77210720FCF736FE00210820FCF732FE00210920FCF72EFE00210A20FCF72AFE04210B20FCF730
S32D0001161826FE7B684FF0FF32DA637B684FF0FF321A6400BF0837BD4680BDFFFFFFFFFFFF80B586B000AFF86074
S32D00011640B9607A600020FCF730FE0346FB75FB7D03F00203002B00F0CE80FCF743FEE020FCF7F4FD0220FEF786
S32D000116687FFBFCF749FE0120FEF77AFBFCF736FEA520FCF7E7FD0120FEF772FBFCF709FE03469BB21B02BB82E4
S32D00011690FCF703FE03469AB2BB8A1343BB82FCF7FCFD03469BB21B027B82FCF7F6FD03469AB27B8A13437B825B
S32D000116B8BB8A1B11BB827B8A1B117B82FCF71CFEFB68DB6BB3F1FF3F34D1FB681B6CB3F1FF3F2FD1BA8AFB6817
S32D000116E0DA637A8AFB681A647B8AC3F57F630F337B82BB8A184633F0ADF949A3D3E9002333F012FA02460B46DC
S32D000117081046194633F0EEFC0246BB681A607B8A184633F09BF942A3D3E9002333F000FA02460B4610461946C2
S32D0001173033F0DCFC02467B681A605AE0FB68DA6BBB8AD31A1946F86800F074F80346632B0CDCFB681A6C7B8A0E
S32D00011758D31A1946F86800F069F80346632B01DC012300E00023002B2FD0BA8AFB68DA637A8AFB681A647B8A92
S32D00011780C3F57F630F337B82BB8A184633F062F923A3D3E9002333F0C7F902460B461046194633F0A3FC024660
S32D000117A8BB681A607B8A184633F050F91CA3D3E9002333F0B5F902460B461046194633F091FC02467B681A6094
S32D000117D00FE0BB68164A1A607B68154A1A60FB684FF0FF32DA63FB684FF0FF321A64002310E001230EE0BB6899
S32D000117F80D4A1A607B680C4A1A60FB684FF0FF32DA63FB684FF0FF321A64002318461837BD4680BDAFF30080AB
S32D00011820144001144001B43F1EE0011EE001AE3F000080BF80B483B000AF786039603B68002B02DA3B685B4261
S32D000118483B603B6818460C37BD4680BC704780B584B000AF786039600023FB60786800F054FAFB683A6813441B
S32D000118701B78002B12D07B6859697B689869FB683A6813441B780246786800F0EEFA786800F053FAFB6801337D
S32D00011898FB60E6E700BF1037BD4680BD80B582B000AF78603960786800F02FFA39687868FFF7CDFF786800F020
S32D000118C013FA00BF0837BD4680BDFFFF80B483B000AF78600B46FB704D4B1B684C4A23F0080313604B4B1B68AB
S32D000118E84A4A23F480231360484B1B68474A43F480331360454B1B68444A23F440731360414B1B68404A23F47E
S32D00011910435323F0300313603E4B1A68FB785B0203F400733B4913430B603A4B1A68FB785B101B0203F48073E3
S32D00011938364913430B60344B1A68FB789B101B0103F01003304913430B602F4B1A68FB78DB105B0103F02003F9
S32D000119602B4913430B602A4B1A68FB781B119B0103F04003264913430B60254B1A68FB785B11DB01DBB22249E6
S32D0001198813430B60204B1A68FB789B111B0303F480531D4913430B601B4B1A6897F90330DB115BB25B0303F45B
S32D000119B00053174913430B60164B1B68154A23F400331360134B1B68124A43F4003313600F4B1B680E4A43F012
S32D000119D8080313600D4B1B680C4A43F440731360094B1B68084A43F4435343F030031360064B1B68054A43F4AB
S32D00011A008023136000BF0C37BD4680BC704700BF80F00F4040F00F4080B483B000AF78600B46FB70464B1B68EE
S32D00011A28454A23F008031360444B1B68434A43F480331360414B1B68404A43F4802313603E4B1B683D4A23F4E3
S32D00011A50407313603A4B1B68394A23F4435323F030031360374B1A68FB785B0203F40073344913430B60334B56
S32D00011A781A68FB785B101B0203F480732F4913430B602D4B1A68FB789B101B0103F01003294913430B60284BBF
S32D00011AA01A68FB78DB105B0103F02003244913430B60234B1A68FB781B119B0103F040031F4913430B601E4BA4
S32D00011AC81A68FB785B11DB01DBB21B4913430B60194B1A68FB789B111B0303F48053164913430B60144B1A6812
S32D00011AF097F90330DB115BB25B0303F40053104913430B600F4B1B680E4A23F4003313600C4B1B680B4A43F4F1
S32D00011B1800331360084B1B68074A43F008031360064B1B68054A23F48023136000BF0C37BD4680BC704700BF19
S32D00011B4080F00F4040F00F4080B586B000AF786000237B6107F10C0207F1100319467868FFF76AFD0346002B26
S32D00011B6805D07B69B3F57A7F01DA012300E00023002B03D07B6901337B61E7E700BF1837BD4680BD80B586B079
S32D00011B9000AF78607B6800225A617B6800229A617B681B6AFB60FB68FB72FB681B0ABB72FB681B0CDBB203F08D
S32D00011BB803037B722A217868FFF784FE00217868FFF726FF00217868FFF722FF01217868FFF71EFF3F217868DF
S32D00011BE0FFF71AFF2B217868FFF770FE00217868FFF712FF00217868FFF70EFF00217868FFF70AFFEF2178683B
S32D00011C08FFF706FF2C217868FFF75CFE314B1B68304A23F4407313602F4B1B682E4A23F47F2323F0F0031360D8
S32D00011C302C4B1B682B4A23F01D031360274B1A687B681B6B254913430B60254B1A687B685B6B234913430B601C
S32D00011C58224B1A687B689B6B204913430B601E4B1B681D4A23F0080313601A4B1B68194A43F4802313600023BC
S32D00011C807B617B69EF2B19D800233B613B69B3F5A07F0FD2114B1B68104A23F4003313600E4B1B680D4A43F4FF
S32D00011CA8003313603B6901333B61EBE77B6901337B61E2E7084B1B68074A43F008031360044B1B68034A23F456
S32D00011CD08023136000BF1837BD4680BD40F00F4080F00F40C0F00F4080B483B000AF78607B689B69002B07DD60
S32D00011CF87B685B695A1C7B685A617B6800229A6100BF0C37BD4680BC704780B582B000AF78607B685A697B6893
S32D00011D205B689A4205DB7B6800225A617868FFF72DFF00BF0837BD4680BD80B582B000AF78607B689B695A1CCA
S32D00011D487B689A617B689A697B689B689A4205D17868FFF7C5FF7868FFF7D7FF00BF0837BD4680BD80B588B01F
S32D00011D7000AFF860B9607A603B60FB681B78022B03D0FB681B78032B11D17B68FB61BA6AFB691344013BBB613D
S32D00011D98FB68DA68BB68D31A3B613B683A69D31A01337B610DE0BB68FB613A68FB691344013BBB617B687B61A8
S32D00011DC0BA6A7B691344013B3B612A21F868FFF77DFDFB691B0ADBB203F00F03DBB21946F868FFF719FEFB69CA
S32D00011DE8DBB21946F868FFF713FEBB691B0ADBB203F00F03DBB21946F868FFF709FEBB69DBB21946F868FFF7EF
S32D00011E1003FE2B21F868FFF759FD7B691B0ADBB203F00F03DBB21946F868FFF7F5FD7B69DBB21946F868FFF7B5
S32D00011E38EFFD3B691B0ADBB203F00F03DBB21946F868FFF7E5FD3B69DBB21946F868FFF7DFFD2C21F868FFF7AB
S32D00011E6035FD00BF2037BD4680BD80B584B000AFF860B9607A60FB707A6813465B0013449B00991CBA68134645
S32D00011E881B011344DA1CFB78F86800F005F800BF1037BD4680BDFFFF80B58EB002AFF860B9607A60FB70FB7871
S32D00011EB00A2B06D1F868FFF72CFFF868FFF714FFF2E0FB787D2B02D8FB781F2B01D82023FB70FB78203BFB70C9
S32D00011ED8112300930C237A68B968F868FFF742FFFA7813469B0013446F4AD35C3B75FA7813469B001344013305
S32D00011F006B4AD35C7B75FA7813469B0013440233674AD35CBB75FA7813469B0013440333634AD35CFB75FA782B
S32D00011F2813469B00134404335F4AD35C3B760023BB62BB6A062B00F3A180F86800F050F9F86800F0B3F800231E
S32D00011F5087F82F3000237B627B6A042B35DC07F114027B6A13441B7803F00103002B14BF01230023FB76FB7E5C
S32D00011F78002B11D097F82F3083F00103DBB2002B03D0F86800F0CAF802E0F86800F08EF8F86800F08BF80DE0B4
S32D00011FA097F82F30002B03D0F86800F01DF902E0F86800F07FF8F86800F07CF8FB7E87F82F307B6A01337B6206
S32D00011FC8C6E797F82F30002B03D0F86800F008F902E0F86800F06AF8F86800F067F8002387F82F3000233B62FC
S32D00011FF03B6A042B42DC07F114023B6A13441B7803F00103002B14BF01230023BB76BB7E002B11D097F82F3093
S32D0001201883F00103DBB2002B03D0F86800F07EF802E0F86800F042F8F86800F03FF80DE097F82F30002B03D005
S32D00012040F86800F0D1F802E0F86800F033F8F86800F030F8BB7E87F82F3007F114023B6A13441B785B10D9B2D9
S32D0001206807F114023B6A13440A461A703B6A01333B62B9E7BB6A0133BB625AE7F86800F0AFF8002387F82F30A0
S32D000120900123FB61FB69232B06DCF86800F00AF8FB690133FB61F5E73037BD4680BD00BF400B002080B483B0B3
S32D000120B800AF7860174B1B68164A43F480331360154B1B68144A23F008031360114B1B68104A43F48023136078
S32D000120E00E4B1B680D4A23F4003313600B4B1B680A4A43F400331360094B1B68084A43F008031360054B1B682A
S32D00012108044A23F48023136000BF0C37BD4680BC704700BF40F00F4080F00F4080B483B000AF78602B4B1B6851
S32D000121302A4A43F480331360294B1B68284A23F008031360254B1B68244A43F480231360224B1B68214A23F495
S32D0001215840731360204B1B681F4A23F47F2323F0F00313601D4B1B681C4A23F01D031360184B1A687B685B6A25
S32D00012180164913430B60164B1A687B689B6A144913430B60134B1A687B68DB6A114913430B600E4B1B680D4AD1
S32D000121A823F4003313600B4B1B680A4A43F400331360094B1B68084A43F008031360054B1B68044A23F480238C
S32D000121D0136000BF0C37BD4680BC704740F00F4080F00F40C0F00F4080B483B000AF78602B4B1B682A4A43F4A6
S32D000121F880331360294B1B68284A23F008031360254B1B68244A43F480231360224B1B68214A23F44073136052
S32D00012220204B1B681F4A23F47F2323F0F00313601D4B1B681C4A23F01D031360184B1A687B681B6B164913430C
S32D000122480B60164B1A687B685B6B144913430B60134B1A687B689B6B114913430B600E4B1B680D4A23F40033F1
S32D0001227013600B4B1B680A4A43F400331360094B1B68084A43F008031360054B1B68044A23F48023136000BFDB
S32D000122980C37BD4680BC704740F00F4080F00F40C0F00F4080B485B000AF78607B681B6AFB60FB68FB72FB68BB
S32D000122C01B0ABB72FB681B0CDBB203F003037B727B6800225A627B6800229A627B680022DA627B6800221A631B
S32D000122E87B6800225A637B6800229A637B681A6BFB7A5B0203F400731A437B681A637B681A6BFB7A5B101B023D
S32D0001231003F480731A437B681A637B685A6BFB7A9B101B0103F010031A437B685A637B685A6BFB7ADB105B01AC
S32D0001233803F020031A437B685A637B685A6BFB7A1B119B0103F040031A437B685A637B685A6BFB7A5B11DB01E6
S32D00012360DBB21A437B685A637B685A6BFB7A9B111B0303F480531A437B685A637B685A6B97F90B30DB115BB2AA
S32D000123885B0303F400531A437B685A637B685A6BBB7A9B0303F480431A437B685A637B685A6BBB7A5B10DB0329
S32D000123B09BB21A437B685A637B685A6BBB7A9B101B0403F480331A437B685A637B685A6BBB7ADB105B0403F448
S32D000123D800331A437B685A637B685A6BBB7A1B119B0403F480231A437B685A637B685A6BBB7A5B11DB0403F448
S32D0001240000231A437B685A637B689A6BBB7A9B1103F001031A437B689A637B689A6B97F90A30DB115BB29B004A
S32D0001242803F004031A437B689A637B689A6B7B7ADB0003F008031A437B689A637B689A6B7B7A5B101B0103F004
S32D0001245010031A437B689A637B68DB69FB60FB68FB72FB681B0ABB72FB681B0CDBB203F003037B727B685A6A62
S32D00012478FB7A5B0203F400731A437B685A627B685A6AFB7A5B101B0203F480731A437B685A627B689A6AFB7A17
S32D000124A09B101B0103F010031A437B689A627B689A6AFB7ADB105B0103F020031A437B689A627B689A6AFB7AB3
S32D000124C81B119B0103F040031A437B689A627B689A6AFB7A5B11DB01DBB21A437B689A627B689A6AFB7A9B1136
S32D000124F01B0303F480531A437B689A627B689A6A97F90B30DB115BB25B0303F400531A437B689A627B689A6A23
S32D00012518BB7A9B0303F480431A437B689A627B689A6ABB7A5B10DB039BB21A437B689A627B689A6ABB7A9B1016
S32D000125401B0403F480331A437B689A627B689A6ABB7ADB105B0403F400331A437B689A627B689A6ABB7A1B1153
S32D000125689B0403F480231A437B689A627B689A6ABB7A5B11DB0403F400231A437B689A627B68DA6ABB7A9B110A
S32D0001259003F001031A437B68DA627B68DA6A97F90A30DB115BB29B0003F004031A437B68DA627B68DA6A7B7A92
S32D000125B8DB0003F008031A437B68DA627B68DA6A7B7A5B101B0103F010031A437B68DA6200BF1437BD4680BC31
S32D000125E07047FFFF80B582B000AF786039607B68012B07D13B684FF6FF72934202D10348FEF776FD00BF0837F7
S32D00012608BD4680BD7821002080B500AF4FF6FF710120FFF7E3FF80BD80B582B000AF7860174B03F58153143378
S32D000126301B68154943F0400201F5815314331A60124B4FF400725A62104B4FF400721A620F4B14225A700E4B8D
S32D000126581B7ADBB20C4A43F00103DBB213720A4B80229A7002212B20FBF782FD3D212A20FBF77EFD7B6818465C
S32D000126800837BD4680BD00BF0070044000C004400060064080B582B000AF786039607B68012B07D13B684FF639
S32D000126A8FF72934202D10348FFF7B6FF00BF0837BD4680BDC021002080B500AF4FF6FF710120FFF7E3FF80BDE6
S32D000126D080B582B000AF78600B46FB707B68FA7811461846FDF73AFF7B6818460837BD4680BDFFFF80B582B0D5
S32D000126F800AF786039607B68012B08D13B684FF6FF72934203D120210348FFF7DDFF00BF0837BD4680BD00BF4E
S32D00012720C421002080B500AF4FF6FF710120FFF7E1FF80BD80B483B000AF78607B6800221A707B6818460C37B7
S32D00012748BD4680BC7047FFFF80B483B000AF78603960044A3B68136000BF0C37BD4680BC704700BFC8210020C3
S32D0001277080B582B000AF3248FBF720FF0346FB71304AFB791370304B01221A702F4B1B78022B33D0022B4FDCB6
S32D00012798002B02D0012B14D04AE0FB79FF2B44D1284B01221A70284B00221A70264B1B785A1CD1B2244A1170FD
S32D000127C01946244AFB79535433E0214B1B785A1CD1B21F4A117019461E4AFB7953541C4B1B780D2B27D11C4B9A
S32D000127E81B68194A1278114618489847154B02221A701CE0FB79FF2B10D1124B01221A70114B00221A70104BC6
S32D000128101B785A1CD1B20E4A117019460D4AFB79535409E00A4B00221A70084B00221A7002E000BF00E000BF3A
S32D0001283800BF0837BD4680BD00A00640DF210020DE210020DD210020DC210020CC210020C821002080B582B056
S32D0001286000AF78607B681846FFF764FF7B6811491846FFF76DFF7B684FF0FF325A600E4B4FF000021A600D4BB2
S32D000128884FF000021A600C4B4FF000021A600B4B00221A600A4B00221A700A4B00221A707B6818460837BD46DD
S32D000128B080BD00BFD1280100EC210020F0210020F4210020F8210020FC210020FD21002080B582B000AF7860CE
S32D000128D80B46FB703B4B1B78002B6ED07B6801331B781B027A68023212781344184632F003FD03463449184631
S32D0001290032F006FE03463349184632F043FC03461A46314B1A607B6803331B781B027A6804321278134418463F
