S01200002E2E2F48382D526F626F742E733139A4
S32D0000C000000000205DC2000011C3000017C300001DC3000023C3000029C3000000000000000000000000000073
S32D0000C028000000002FC3000035C30000000000003BC3000041C30000E1E80000EDE80000F9E8000005E9000091
S32D0000C05011E900001DE9000029E9000035E9000041E900004DE9000059E9000065E9000071E900007DE90000E2
S32D0000C07889E9000095E90000A1E90000ADE90000B9E90000C5E90000D1E90000DDE90000E9E90000F5E900000A
S32D0000C0A001EA00000DEA000019EA000025EA000031EA00003DEA000049EA000055EA000061EA00006DEA000028
S32D0000C0C879EA000085EA000091EA00009DEA0000A9EA0000B5EA0000C1EA0000CDEA0000D9EA0000E5EA000050
S32D0000C0F0F1EA000095370100FDEA000009EB000015EB000021EB00002DEB000039EB000045EB000051EB0000EB
S32D0000C1185DEB000069EB000075EB000081EB00008DEB000099EB0000A5EB0000B1EB0000BDEB0000C9EB00000D
S32D0000C140D5EB0000E1EB0000EDEB0000F9EB00000117010005EC000011EC00001DEC000029EC000035EC000043
S32D0000C16841EC00004DEC000059EC000065EC000071EC00007DEC000089EC000095EC0000A1EC0000ADEC0000CB
S32D0000C190B9EC0000C5EC0000D1EC0000ED1201009D1101004D1201005DE6000091130100DDEC0000E9EC0000D9
S32D0000C1B8F5EC00005C1B060000000020C81700005C1B06000000FF1F00000000C8170020A01B00000000FF1F89
S32D0000C1E00000000080B489B000AFF860B9607A60BB68FB61FB68BB6100237B617A697B689A420BD2BA69131DFB
S32D0000C208BB61FB69191DF96112681A607B6904337B61EFE700BF2437BD4680BC704780B485B000AF786039609E
S32D0000C2307B68FB600023BB60BA683B689A4208D2FB681A1DFA6000221A60BB680433BB60F2E700BF1437BD46FE
S32D0000C25880BC704780B586B000AF72B6234B4CF220521A80214B4DF628121A80204B4FF4E9721A801F4B7B615F
S32D0000C2807B691F4A934214D27B691A1D7A611B683B617B691A1D7A611B68FB607B691A1D7A611B68BB60BA68E9
S32D0000C2A8F9683869FFF79AFFE6E77B69134A93420ED27B691A1D7A611B68FB607B691A1D7A611B68BB60B9688B
S32D0000C2D0F868FFF7A8FFECE70B4B7B600B4A7B681A603CF05FFC62B602F07EFA02F03AF9FEE700BF0E20054048
S32D0000C2F800200540BCC10000D4C10000E4C1000008ED00E000C0000080B400AFFEE780B400AFFEE780B400AFF4
S32D0000C320FEE780B400AFFEE780B400AFFEE780B400AFFEE780B400AFFEE780B400AFFEE780B400AFFEE780B426
S32D0000C34800AFFEE7FFFFFFFFFFFFFFFFFFFFFFFFFFFFFFFFFFFFFFFFFFFFFFFFFFFFFFFFFFFFFFFFFFFFFFFF57
S32D0000C370FFFFFFFFFFFFFFFFFFFFFFFFFFFFFFFFFFFFFFFFFFFFFFFFFFFFFFFFFFFFFFFFFFFFFFFFFFFFFFFFC7
S32D0000C398FFFFFFFFFFFFFFFFFFFFFFFFFFFFFFFFFFFFFFFFFFFFFFFFFFFFFFFFFFFFFFFFFFFFFFFFFFFFFFFF9F
S32D0000C3C0FFFFFFFFFFFFFFFFFFFFFFFFFFFFFFFFFFFFFFFFFFFFFFFFFFFFFFFFFFFFFFFFFFFFFFFFFFFFFFFF77
S32D0000C3E8FFFFFFFFFFFFFFFFFFFFFFFFFFFFFFFFFFFFFFFFFFFFFFFFFFFFFFFFFFFFFFFFFFFFFFFFFEFFFFFF50
S32D0000C41010B5054C237833B9044B13B10448AFF300800123237010BDC8170020000000003409060008B5034B0F
S32D0000C4381BB103490348AFF3008008BD00000000CC1700203409060080B483B000AF78607B6818460C37BD46D1
S32D0000C46080BC704780B582B000AF7860124800F0BFFF114800F0D2FF104800F045FD104801F0BEF955210E4855
S32D0000C48801F082F90D4801F033FA55210B4801F0F5F90B4801F09EFA5521094801F06AFA084801F02DF900BFE1
S32D0000C4B00837BD4680BD00BF54180020081800207018002080180020901800205818002080B582B000AF7860AE
S32D0000C4D8074800F005FD074801F0A0F8044800F00FFD044801F0B8F800BF0837BD4680BD0818002058180020DA
S32D0000C50080B582B000AF7860154800F0AFFE154800F0EAFC5521144801F03AF95521134801F0B0F955211248C1
S32D0000C52801F028FA114800F0F7FF4FF00002104B104801F033F80D4800F056FF0E490B4800F0CCFF0D4806F039
S32D0000C550E7FA084800F070FF00BF0837BD4680BD2818002008180020701800208018002090180020541800209B
S32D0000C57800002440581800204C810500841B002080B584B000AFF8600B467A60FB72FB7A422B0BD10A4800F008
S32D0000C5A09BFE0346002B04D0F868FFF791FF002306E000BF7A687968044800F074FA012318461037BD4680BD68
S32D0000C5C82C1800200818002080B584B000AFF860C7E900231F4800F0FFF902460B46D7E9000139F02FFD034617
S32D0000C5F0002B0BD11A4800F0D1FC02460B46D7E9000139F023FD0346002B01D0012300E00023002B04D0F86889
S32D0000C618FFF75AFF002318E0104800F0CBFD0346002B05D10D4800F08BFD0346002B01D0012300E00023002BCC
S32D0000C64001D0002305E0BA69B969074800F02BFA012318461037BD4680BD00BF001800200C18002020180020AE
S32D0000C6680818002080B582B000AF786039607B68012B07D13B684FF6FF72934202D10348FFF7E2FE00BF0837D6
S32D0000C690BD4680BDE417002080B500AF4FF6FF710120FFF7E3FF80BD80B483B000AF78607B6818460C37BD46DD
S32D0000C6B880BC704780B582B000AF78603960386839F050FE03461946034802F095FB00BF0837BD4680BD00BF51
S32D0000C6E0EC17002080B582B000AF78603960386839F03CFE03461946034802F081FB00BF0837BD4680BD00BF21
S32D0000C708F417002080B582B000AF7860034802F031FB00BF0837BD4680BD00BFEC17002080B582B000AF786073
S32D0000C730034802F023FB00BF0837BD4680BD00BFF417002080B582B000AF786039607B68012B11D13B684FF6F8
S32D0000C758FF7293420CD10848FFF7A2FF074A0021074802F0C9FA054A0121064802F0C4FA00BF0837BD4680BD86
S32D0000C780E817002000001041EC170020F417002080B500AF4FF6FF710120FFF7D3FF80BD80B483B000AF786020
S32D0000C7A87B6818460C37BD4680BC704780B483B000AF7860282318460C37BD4680BC704780B483B000AF78602B
S32D0000C7D0282318460C37BD4680BC7047FFFFFFFF80B483B000AF786005A3D3E90023104619460C37BD4680BCB1
S32D0000C7F8704700BFAFF300802706222256599E3F80B483B000AF786005A3D3E90023104619460C37BD4680BCD2
S32D0000C820704700BFAFF3008046EAFF9EDB8F3740B0B584B000AFF8600B467A60FB72FB7A4C2B37D1786839F06F
S32D0000C84825F93BA3D3E9002339F08AF902460B4614461D46786839F019F902460B462046294639F07DF9024675
S32D0000C8700B4614461D46786839F00CF930A3D3E9002339F071F902460B462046294638F0B5FF02460B46104600
S32D0000C89819462BA3D3E9002338F0AAFF02460B461046194639F00CFC03463AE0FB7A522B37D1786839F0EAF8CE
S32D0000C8C023A3D3E9002339F04FF902460B4614461D46786839F0DEF802460B462046294639F042F902460B4694
S32D0000C8E814461D46786839F0D1F819A3D3E9002339F036F902460B462046294638F07AFF02460B461046194643
S32D0000C91013A3D3E9002338F06FFF02460B461046194639F0D1FB0346FFE718461037BD46B0BD00BFAFF3008066
S32D0000C9382D431CEBE2367A3FF4FDD478E926E53FE3A59BC420F0244076711B0DE02D803FE71DA7E8482EE53FB6
S32D0000C960A01A2FDD2486324080B582B000AF786039607B68012B07D13B684FF6FF72934202D10348FFF70CFF0C
S32D0000C98800BF0837BD4680BDFC17002080B500AF4FF6FF710120FFF7E3FF80BD80B582B000AF78607868FFF77D
S32D0000C9B07BFE7868FFF7F4FE7B6818460837BD4680BD80B582B000AF786039603B685B4219467868FFF772FEEC
S32D0000C9D800BF0837BD4680BDB0B582B000AF78600C4804F01FFD0346184639F04FF804460D467868FFF7F0FEF9
S32D0000CA0002460B462046294639F0AEF802460B46104619460837BD46B0BD00BF0418002080B582B000AF7860E5
S32D0000CA28034804F011FD00BF0837BD4680BD00BF0418002080B582B000AF786039607B68012B0BD13B684FF600
S32D0000CA50FF72934206D10548FFF7A4FF0121044804F026FA00BF0837BD4680BD001800200418002080B500AF9D
S32D0000CA784FF6FF710120FFF7DDFF80BD80B582B000AF78607868FFF789FF7B680133184600F064FA7B6818465B
S32D0000CAA00837BD4680BD80B584B000AFF860B9607A60B968F868FFF784FFFB6801337968184600F05EFA00BFAF
S32D0000CAC81037BD4680BD80B586B002AFF860C7E90023BB690193BB690093D7E90023F86800F006F8034618462B
S32D0000CAF01037BD4680BDFFFF90B585B000AFF860C7E90023104800F09BFD02460B4601210C46D7E9000139F068
S32D0000CB18B7FA0346002B01D100231C46E3B2002B06D07A6A396AF868FFF7B9FF012303E00448FFF7C9FC002317
S32D0000CB4018461437BD4690BD58180020E417002090B585B000AFF860C7E90023F868FFF73FFF02460B46012180
S32D0000CB680C46D7E9000139F08BFA0346002B01D100231C46E3B2002B14D0396AF868FFF71CFFFB680133184666
S32D0000CB9000F004FA02460B4601210C46D7E90A0139F072FA0346002B07D104E00C48FFF78FFC002310E00023E1
S32D0000CBB81C46E3B2002B07D0FB680133396B184600F0DBF9012303E00348FFF77DFC002318461437BD4690BD1C
S32D0000CBE0E4170020B0B58AB006AFF860C7E900233A6A4C212548FFF71BFE0346184638F049FF04460D462148E3
S32D0000CC08FFF7EAFD02460B462046294638F0A8FF02460B46D7E9000138F0EAFD02460B46C7E900233A6B5221F7
S32D0000CC301648FFF7FDFD0346184638F02BFF04460D461248FFF7CCFD02460B462046294638F08AFF02460B4621
S32D0000CC58D7E90A0138F0CCFD02460B46C7E90A233B6B0493D7E90A23CDE902233B6A0093D7E90023F868FFF706
S32D0000CC8067FF034618461037BD46B0BDFC17002080B58AB006AFF860C7E90023BB690493D7E90023CDE90223C7
S32D0000CCA8BB690093D7E90023F868FFF797FF034618461037BD4680BD2DE9B04F8AB006AFF860C7E900234FF03C
S32D0000CCD000021F4BD7E9000139F070F802460B4614461D461B48FFF78FFD02460B462046294638F039FF024627
S32D0000CCF80B46904699463B6B5C424FF00002124BD7E9000139F056F802460B4692469B460E48FFF775FD024696
S32D0000CD200B465046594638F01FFF02460B46396B0491CDE90223009442464B46F868FFF751FF0346184610372B
S32D0000CD48BD46BDE8B08F00BF00807640FC1700202DE9B0438AB006AFF860C7E900234FF000021F4BD7E900011F
S32D0000CD7039F024F802460B4614461D461B48FFF743FD02460B462046294638F0EDFE02460B4614461D464FF04B
S32D0000CD980002134BD7E9000139F00CF802460B46904699460F48FFF72BFD02460B464046494638F0D5FE02466B
S32D0000CDC00B46B96A49420491CDE90223BB6A009322462B46F868FFF705FF034618461037BD46BDE8B08300BF63
S32D0000CDE800807640FC170020B0B58AB006AFF860C7E90023D7E9000102460B4638F0FAFC02460B46104619466F
S32D0000CE104FF00002114B38F0D1FF02460B4614461D460F48FFF7F0FC02460B462046294638F09AFE02460B4609
S32D0000CE38396A0491CDE90223002300934FF00002064BF868FFF7CAFE034618461037BD46B0BD00BF0080764000
S32D0000CE60FC17002000409F40B0B58AB006AFF860C7E90023D7E9000102460B4638F0BEFC02460B461046194649
S32D0000CE884FF00002134B38F095FF02460B4614461D461148FFF7B4FC02460B462046294638F05EFE02460B4641
S32D0000CEB010461946002304934FF00002094BCDE902233B6A009302460B46F868FFF78AFE034618461037BD46D5
S32D0000CED8B0BD00BF00807640FC17002000409F4080B582B000AF78607868FFF70BFC7B6801331846FFF714FC32
S32D0000CF0000BF0837BD4680BD80B582B000AF78607868FFF785FD7B680133184600F05EF800BF0837BD4680BD86
S32D0000CF2880B582B000AF786039607B68012B07D13B684FF6FF72934202D10348FFF79EFD00BF0837BD4680BD52
S32D0000CF500818002080B500AF4FF6FF710120FFF7E3FF80BD80B582B000AF78607868FFF79BFB7868FFF714FC64
S32D0000CF787B6818460837BD4680BD80B582B000AF7860396039687868FFF7A8FB00BF0837BD4680BDB0B582B055
S32D0000CFA000AF78600C4804F041FA0346184638F071FD04460D467868FFF712FC02460B462046294638F0D0FD38
S32D0000CFC802460B46104619460837BD46B0BD00BF1018002080B582B000AF7860034804F033FA00BF0837BD46DC
S32D0000CFF080BD00BF1018002080B582B000AF786039607B68012B0BD13B684FF6FF72934206D10548FFF7A6FF70
S32D0000D0180021044803F048FF00BF0837BD4680BD0C1800201018002080B500AF4FF6FF710120FFF7DDFF80BDB0
S32D0000D04080B483B000AF78607B6818460C37BD4680BC704780B582B000AF786039607B68012B07D13B684FF604
S32D0000D068FF72934202D10348FFF7E6FF00BF0837BD4680BD1418002080B500AF4FF6FF710120FFF7E3FF80BD02
S32D0000D09080B483B000AF78607B6818460C37BD4680BC704780B582B000AF786039607B68012B07D13B684FF6B4
S32D0000D0B8FF72934202D10348FFF7E6FF00BF0837BD4680BD1818002080B500AF4FF6FF710120FFF7E3FF80BDAE
S32D0000D0E080B483B000AF78607B6818460C37BD4680BC704780B582B000AF786039607B68012B07D13B684FF664
S32D0000D108FF72934202D10348FFF7E6FF00BF0837BD4680BD1C18002080B500AF4FF6FF710120FFF7E3FF80BD59
S32D0000D13080B483B000AF78607B6818460C37BD4680BC7047FFFFFFFF80B582B000AF7860194804F0A1F9034647
S32D0000D158184638F0ADFC12A3D3E9002338F090FF0346002B10D0124804F092F90346184638F09EFC0CA3D3E92E
S32D0000D180002338F063FF0346002B01D0012300E00023002B01D0012300E0002318460837BD4680BDAFF3008046
S32D0000D1A85839B4C876BE9F3F5C8FC2F5285CDF3F2418002080B582B000AF7860114804F067F903464FF07C51AA
S32D0000D1D0184639F0DBFA0346002B0DD00B4804F05BF903464FF07E51184639F0B1FA0346002B01D0012300E017
S32D0000D1F80023002B01D0012300E0002318460837BD4680BD2418002080B582B000AF786039607B68012B0BD118
S32D0000D2203B684FF6FF72934206D10548FFF780FF1021044804F01EF900BF0837BD4680BD20180020241800209F
S32D0000D24880B500AF4FF6FF710120FFF7DDFF80BD80B483B000AF78607B6818460C37BD4680BC704780B582B020
S32D0000D27000AF7860034806F011FC00BF0837BD4680BD00BF0C1C002080B582B000AF786039607B68012B07D108
S32D0000D2983B684FF6FF72934202D10348FFF7D8FF00BF0837BD4680BD2818002080B500AF4FF6FF710120FFF701
S32D0000D2C0E3FF80BD80B483B000AF78607B6818460C37BD4680BC704780B582B000AF7860084803F061FD0346E1
S32D0000D2E8002B0CBF01230023DBB2002B01D0012300E0002318460837BD4680BD3018002080B582B000AF7860F8
S32D0000D31039607B68012B13D13B684FF6FF7293420ED10948FFF7CEFF1121084803F060FC1221074803F05CFCA4
S32D0000D3381321064803F058FC00BF0837BD4680BD2C18002030180020341800203818002080B500AF4FF6FF717F
S32D0000D3600120FFF7D1FF80BD80B483B000AF78607B6818460C37BD4680BC704780B582B000AF786039607B68A9
S32D0000D388012B13D13B684FF6FF7293420ED10A21084804F06BF80921074804F067F80821064804F063F80648A8
S32D0000D3B0FFF7DAFF00BF0837BD4680BD3C18002040180020441800204818002080B500AF4FF6FF710120FFF7AA
S32D0000D3D8D1FF80BD80B483B000AF78607B6818460C37BD4680BC704780B582B000AF78600021074804F0CEFF93
S32D0000D4000121054805F01BF80221034804F0F6FE00BF0837BD4680BD841B002080B582B000AF7860034805F006
S32D0000D4287BFB00BF0837BD4680BD00BF841B002080B582B000AF7860074A0849084805F083F8034683F0010394
S32D0000D450DBB2002B00D0F3E700BF0837BD4680BD501800204C180020841B002080B584B002AF78607868FFF77B
S32D0000D478BBFF7868FFF7CEFF502360221249134805F000F8F0234E221149104804F0FAFF06230093F023A322DB
S32D0000D4A000210C4805F0CDFC7868FFF7C5FF0B4B1B680B49184639F069F90346002B01D0012300E000231846B1
S32D0000D4C80837BD4680BD00BF64810500841B00206C8105004C1800200000204380B582B000AF7860396078680F
S32D0000D4F0FFF77EFF38683EF0C3F8024613465B0013445B00C3F178031A46A0233968034804F0BCFF00BF083779
S32D0000D518BD4680BD841B002080B582B000AF78600749084805F01FF9074800F0D9F802460B46044805F09EF9CA
S32D0000D54000BF0837BD4680BD90810500841B00205818002080B582B000AF786039607B68012B07D13B684FF6C4
S32D0000D568FF72934202D10348FFF734FF00BF0837BD4680BD5418002080B500AF4FF6FF710120FFF7E3FF80BD6F
S32D0000D59080B483B000AF78607B6818460C37BD4680BC704780B584B000AFF860C7E90023D7E9000103F0F6FA1E
S32D0000D5B8074BD3E90001D7E9002338F01BF902460B460349C1E9002300BF1037BD4680BD6018002080B582B020
S32D0000D5E000AF78603960386803F0C6FA3B680B4A82FB03129211DB17D31A184638F04AFA074BD3E9002338F07B
S32D0000D608F9F802460B460449C1E9002300BF0837BD4680BDD34D62106018002080B582B000AF78604FF49671B0
S32D0000D6307868FFF7D3FF00BF0837BD4680BDFFFF80B483B000AF7860044BD3E90023104619460C37BD4680BC95
S32D0000D658704700BF6818002080B483B000AF786005494FF000024FF00003C1E9002300BF0C37BD4680BC70470A
S32D0000D68068180020FFFFFFFF80B582B000AF786011A1D1E9000103F085FA114BD3E900010DA3D3E9002338F043
S32D0000D6A8A9F802460B460C49C1E900230B4BD3E9000107A3D3E9002338F09CF802460B460649C1E9002300BF2C
S32D0000D6D00837BD4680BD00BFFCA9F1D24D62503F601800206818002080B483B000AF7860044BD3E9002310469E
S32D0000D6F819460C37BD4680BC704700BF6018002080B483B000AF786009494FF000024FF00003C1E90023074935
S32D0000D7204FF000024FF00003C1E9002300BF0C37BD4680BC704700BF601800206818002080B582B000AF7860AE
S32D0000D74839607B68012B07D13B684FF6FF72934202D10348FFF718FF00BF0837BD4680BD5818002080B500AF28
S32D0000D7704FF6FF710120FFF7E3FF80BD80B483B000AF78607B6818460C37BD4680BC704780B582B000AF78604A
S32D0000D7980B46FB70FB784C2B05D14FF00001124804F0AEF91CE0FB78552B04D10F490E4804F0A6F914E0FB7846
S32D0000D7C0462B04D10C490A4804F09EF90CE0FB78522B04D10949064804F096F904E04FF00001034804F090F903
S32D0000D7E800BF0837BD4680BD741800200000BA420000CC420000344380B582B000AF786040F26221054804F0C4
S32D0000D81041F940F6D401034804F059F900BF0837BD4680BD7418002080B582B000AF786039607B68012B0BD1B8
S32D0000D8383B684FF6FF72934206D10548FFF79AFF0021044804F006F900BF0837BD4680BD7018002074180020EF
S32D0000D86080B500AF4FF6FF710120FFF7DDFF80BD80B483B000AF78607B6818460C37BD4680BC704780B582B002
S32D0000D88800AF78600B46FB70FB784C2B04D11349134804F035F91CE0FB784D2B04D111490F4804F02DF914E01C
S32D0000D8B0FB78482B04D10E490B4804F025F90CE0FB78552B05D14FF00001074804F01CF903E00849044804F012
S32D0000D8D817F900BF0837BD4680BD00BF0000BE42841800200000824200005C420000344380B582B000AF786092
S32D0000D9004FF43E71054804F0C5F84FF41B61034804F0DDF800BF0837BD4680BD8418002080B582B000AF78604E
S32D0000D92839607B68012B0BD13B684FF6FF72934206D10548FFF798FF0121044804F08AF800BF0837BD4680BD4C
S32D0000D950801800208418002080B500AF4FF6FF710120FFF7DDFF80BD80B483B000AF78607B6818460C37BD46F7
S32D0000D97880BC704780B582B000AF78600B46FB70FB78552B04D10F490F4804F0B9F814E0FB784D2B04D10D49BE
S32D0000D9A00B4804F0B1F80CE0FB78442B04D10A49074804F0A9F804E04FF00001044804F0A3F800BF0837BD468F
S32D0000D9C880BD00BF0000A04094180020000020420000824280B582B000AF78604FF4FA71054804F053F84FF4F8
S32D0000D9F01661034804F06BF800BF0837BD4680BD9418002080B582B000AF786039607B68012B0BD13B684FF68C
S32D0000DA18FF72934206D10548FFF7A2FF0221044804F018F800BF0837BD4680BD901800209418002080B500AFB6
S32D0000DA404FF6FF710120FFF7DDFF80BD80B483B000AF78607B6818460C37BD4680BC704780B582B000AF78607D
S32D0000DA680348FFF7F9FD00BF0837BD4680BD00BF5818002080B584B002AF78603048FEF79FFE034600934FF0B5
S32D0000DA9000022E4B2E48FFF713F90346002B03D02C48FFF7F1FDEDE72748FEF783FE03465B4200934FF0000263
S32D0000DAB8274B2548FFF7E8F80346002B03D02348FFF7DEFDECE74C212248FFF7D7FE4FF00002214B1D48FFF78B
S32D0000DAE061FD48211D48FFF7CDFE4FF000021D4B1848FFF757FD1448FEF75CFE034600934FF00002144B124857
S32D0000DB08FFF7C2F80346002B03D01048FFF7B8FDEDE70B48FEF754FE034600934FF00002084B0948FFF714F9C3
S32D0000DB300346002B03D00748FFF7A6FDEDE700BF0837BD4680BD00BFFC170020008056400818002058180020AE
S32D0000DB58008023408018002000001D400000E03F90B589B006AF78607868FFF775FFB248FEF71CFE034600934E
S32D0000DB804FF00002AF4BB048FFF782F80346002B03D0AE48FFF778FDEDE7A948FEF714FE034600934FF0000243
S32D0000DBA8A94BA748FFF75CF90346002B03D0A548FFF766FDEDE7A048FEF7F8FD034600934FF00002A14B9E48FF
S32D0000DBD0FFF75EF80346002B03D09C48FFF754FDEDE79748FEF7F0FD034600934FF00002994B9548FFF764F8A4
S32D0000DBF80346002B03D09348FFF742FDEDE78E48FEF7D4FD03465B421A4642219148FEF7B7FC0346002B03D0C7
S32D0000DC208A48FFF731FDEEE78548FEF7C3FD034600934FF000028A4B8348FFF729F80346002B03D08148FFF7AF
S32D0000DC481FFDEDE77C48FEF7BBFD034600934FF000027F4B7A48FFF72FF80346002B03D07848FFF70DFDEDE7AC
S32D0000DC707348FEF79FFD03465B421A4642217748FEF782FC0346002B03D07048FFF7FCFCEEE76B48FEF78EFD6A
S32D0000DC98034600934FF00002704B6948FEF7F4FF0346002B03D06748FFF7EAFCEDE74D216B48FFF75FFE60482B
S32D0000DCC0FEF782FD03465B4200934FF00002624B5D48FFF78DF80346002B03D05B48FFF7D3FCECE75648FEF726
S32D0000DCE865FD03465B421A4642215A48FEF748FC0346002B03D05348FFF7C2FCEEE744215748FFF737FE4C48FA
S32D0000DD10FEF750FD04464A48FEF74CFD03460F3304934FF00002514BCDE90223009442A3D3E900234448FEF7D6
S32D0000DD3855FF0346002B03D04248FFF7A1FCE2E73D48FEF733FD03465B4200934FF00002454B3B48FEF798FF39
S32D0000DD600346002B03D03948FFF78EFCECE74D213D48FFF703FE3248FEF726FD034600934FF00002344B3048EA
S32D0000DD88FFF732F80346002B03D02E48FFF778FCEDE755213248FFF7EDFD2748FEF706FD034600934FF00002FE
S32D0000DDB0304B2548FEF76CFF0346002B03D02348FFF762FCEDE71E48FEF7FEFC03465B4200934FF00002204BA9
S32D0000DDD81B48FFF709F80346002B03D01948FFF74FFCECE71448FEF7E1FC03465B421A4642211848FEF7C4FB1C
S32D0000DE000346002B03D01148FFF73EFCEEE70C48FEF7D0FC034600934FF00002164B0A48FEF736FF0346002BCC
S32D0000DE2828D00848FFF72CFCEDE700BFAFF30080CDCCCCCCCCCC1540FC1700200000F03F081800205818002061
S32D0000DE50008046400000224000805640E417002000000C4000801C4090180020000014400000124000001C4019
S32D0000DE78008039406448FEF7A3FC03465B4200934FF00002614B6248FEF7EAFF0346002B03D06048FFF7F4FB81
S32D0000DEA0ECE75B48FEF786FC034600934FF000025B4B5948FEF7ECFE0346002B03D05748FFF7E2FBEDE75248FD
S32D0000DEC8FEF77EFC034600934FF00002534B5048FEF7F2FE0346002B03D04E48FFF7D0FBEDE74948FEF762FC2F
S32D0000DEF003465B421A4642214B48FEF745FB0346002B03D04548FFF7BFFBEEE74D214748FFF7B8FC4FF0000252
S32D0000DF18454B4048FFF742FB3B48FEF747FC034600934FF00002414B3948FEF7ADFE0346002B03D03748FFF74F
S32D0000DF40A3FBEDE73248FEF73FFC034600934FF00002394B3048FEF74BFF0346002B03D02E48FFF791FBEDE72C
S32D0000DF682948FEF72DFC034600934FF00002304B2748FEF775FF0346002B03D02548FFF77FFBEDE72048FEF737
S32D0000DF9011FC034600934FF00002284B2248FEF717FB0346002B03D01C48FFF76DFBEDE72348FFF7C9F803460D
S32D0000DFB8002B04D052212148FFF7E6FB0EE01E48FFF7F8F80346002B04D04C211B48FFF7DBFB03E055211948B1
S32D0000DFE0FFF7D6FB0A48FEF7E5FB034600934FF00002154B0848FEF74BFE0346002B03D00648FFF741FBEDE77F
S32D0000E00800BF0C37BD4690BDFC17002000003E4008180020581800200000164000004E40E41700208018002060
S32D0000E0300000E03F000010400000494000001840201800207018002000001240FFFFFFFF80B584B002AF786032
S32D0000E058B748FEF7B5FB034600934FF00002B54BB548FEF7C1FE0346002B03D0B348FFF707FBEDE7AE48FEF72F
S32D0000E08099FB034600934FF00002AF4BAC48FEF7FFFD0346002B03D0AA48FFF7F5FAEDE74C21AA48FFF774FB2C
S32D0000E0A8A348FEF78DFB034600934FF00002A14BA148FEF799FE0346002B03D09F48FFF7DFFAEDE79A48FEF7BC
S32D0000E0D07BFB034600934FF000029D4B9848FEF7EFFD0346002B03D09648FFF7CDFAEDE79148FEF75FFB0346BF
S32D0000E0F85B421A4642219548FEF742FA0346002B03D08E48FFF7BCFAEEE78948FEF74EFB0346009384A3D3E920
S32D0000E12000238748FEF7B4FD0346002B03D08548FFF7AAFAEDE78048FEF746FB034600934FF00002824B7E4809
S32D0000E148FEF78EFE0346002B03D07C48FFF798FAEDE77748FEF72AFB034600934FF000027B4B7548FEF7AFFCA8
S32D0000E1700346002B03D07348FFF786FAEDE7122300934FF00002744B6D48FEF7A0FC0346002B03D06B48FFF737
S32D0000E19877FAF0E76648FEF713FB034600934FF000026C4B6448FEF7D3FD0346002B03D06248FFF765FAEDE701
S32D0000E1C0502300934FF00002654B5D48FEF77FFC0346002B03D05B48FFF756FAF0E75648FEF7F2FA03460093C3
S32D0000E1E84FF000025D4B5448FEF766FD0346002B03D05248FFF744FAEDE74D48FEF7E0FA034600934FF00002C2
S32D0000E210534B4B48FEF75BFC0346002B03D04948FFF732FAEDE746214848FFF7B1FA4FF000024D4B4348FFF7A3
S32D0000E238B5F94C214348FFF7A7FA4FF00002484B3E48FFF7ABF93A48FEF7B0FA03465B4200934FF00002424B1F
S32D0000E2603748FEF715FD0346002B03D03548FFF70BFAECE73048FEF7A7FA03465B4200934FF00002324B2E48BD
S32D0000E288FEF766FD0346002B03D02C48FFF7F8F9ECE72748FEF794FA03465B421A4642212A48FEF76DF90346EA
S32D0000E2B0002B03D02348FFF7E7F9EEE71E48FEF779FA034600934FF00002284B1C48FEF7DFFC0346002B03D053
S32D0000E2D81A48FFF7D5F9EDE748212348FFF7CEFA1348FEF76DFA034600934FF00002114B1148FEF779FD03464F
S32D0000E300002B03D00F48FFF7BFF9EDE70A48FEF751FA034600934FF00002164B0848FEF7B7FC0346002B27D0A5
S32D0000E3280648FFF7ADF9EDE76666666666660140FC17002000804640081800205818002000802E4070180020C5
S32D0000E35000805640E41700200000E83F00002E400000D03F000034400000F03F000028408018002000001A40AD
S32D0000E3787868FFF77FFB5E48FEF718FA03465B4200934FF000025B4B5B48FEF77DFC0346002B03D05948FFF72B
S32D0000E3A073F9ECE755215848FFF76CFA5248FEF701FA034600934FF00002544B5048FEF767FC0346002B03D021
S32D0000E3C84E48FFF75DF9EDE74948FEF7F9F9034600934FF000024C4B4748FEF76DFC0346002B03D04548FFF78E
S32D0000E3F04BF9EDE74048FEF7DDF903465B421A4642214448FEF7C0F80346002B03D03D48FFF73AF9EEE7384868
S32D0000E418FEF7CCF9034600934FF000023C4B3648FEF732FC0346002B03D03448FFF728F9EDE72F48FEF7C4F900
S32D0000E440034600934FF00002344B2D48FEF7D0FC0346002B03D02B48FFF716F9EDE72648FEF7B2F9034600935F
S32D0000E4684FF000022B4B2448FEF7FAFC0346002B03D02248FFF704F9EDE71D48FEF796F9034600934FF00002FA
S32D0000E490234B1B48FEF7FCFB0346002B03D01948FFF7F2F8EDE71448FEF78EF9034600934FF00002164B124895
S32D0000E4B8FEF79AFC0346002B03D01048FFF7E0F8EDE70B48FEF772F9034600934FF00002124B0948FEF7D8FB24
S32D0000E4E00346002B03D00748FFF7CEF8EDE700BF0837BD4680BD00BFFC17002000001A4008180020581800208E
S32D0000E508801800200000084000804640E41700200000344000003E4000803A400000284080B582B000AF786082
S32D0000E53039607B68012B07D13B684FF6FF72934202D10348FFF782FA00BF0837BD4680BDA018002080B500AF85
S32D0000E5584FF6FF710120FFF7E3FF80BD80B582B000AF0123FB712048FDF778FF1F48FEF779FF0346002B1AD0FF
S32D0000E5800123FB7100BF1C491A48FEF7ABFF1B4804F0C6FA1748FEF74FFF1548FDF762FF00BF1748FFF754FDE8
S32D0000E5A81248FEF721FF1048FDF7A6FFDBE70023FB7100BF11490D48FEF790FF1048FEF7BFFD034683F00103D9
S32D0000E5D0DBB2002B00D0F5E70548FDF743FF00BF0748FFF7C1FA0248FDF78AFFBFE700BFE417002054180020A4
S32D0000E5F898810500841B0020A0180020A88105002018002080B582B000AF786039607B68012B0CD13B684FF65F
S32D0000E620FF72934207D1064805F0AEFC054A0649034805F0A7FA00BF0837BD4680BD00BFA41800200000002049
S32D0000E648A93F010080B500AF4FF6FF710120FFF7D9FF80BD80B500AF0F4BD3F8A03003F48053002B14BF012331
S32D0000E6700023DBB2002B10D0094BD3F8A030084A23F48053C2F8A030064805F007FA064B1B68054A23F400533B
S32D0000E698136000BF80BD00BF00C004400C1C0020C0F00F4080B400AF124B4FF480725A63114B5B69104A43F4F8
S32D0000E6C0005353610E4B1B680D4A43F4005313600A4B0C4A1A630C4BD3F888310A4A43F08063C2F88831084BC2
S32D0000E6E89B68074A43F08063936000BFBD4680BC704700BF00C00440C0F00F4003010A0000E100E080B400AF7E
S32D0000E710324B00225A70314B98221A702F4B9B79DBB203F01003002B14BF01230023DBB2002B00D0F2E7294B77
S32D0000E7389B79DBB29B0803F00303022B14BF01230023DBB2002B00D0F1E7224B18221A71204B00225A71204BDA
S32D0000E76003F5825304331F4A1A601C4B54225A711A4B9B79DBB203F02003002B0CBF01230023DBB2002B00D01B
S32D0000E788F2E7144B9B79DBB203F04003002B0CBF01230023DBB2002B00D0F2E70D4B1B78DBB20C4A03F03F03B3
S32D0000E7B0DBB21370094B9B79DBB29B0803F00303032B14BF01230023DBB2002B00D0F1E700231846BD4680BC32
S32D0000E7D8704700BF00400640007004400000130180B500AF344B03F5815318331B68324943F4785201F581530C
S32D0000E80018331A60FFF752FFFFF780FF2D4B58221A602C4B1B684FF47A7202FB03F32A4A1360294B1B681A46A3
S32D0000E828254B03F5825304331B681B0E03F00F030133B2FBF3F31A46224B1A601E4B03F581531C331B681C4923
S32D0000E85043F0225201F581531C331A60184B03F5815310331B68164943F0006201F5815310331A60164B4FF44C
S32D0000E87880721A61642002F065F8134B5B69124A23F010035361104B00221A600E4B10225A610E4803F0DEFB7B
S32D0000E8A002F0E2FE02F040FF0B4802F0B3F80B4805F048F94FF4FA6002F05EF900BF80BD00700440D01A00202E
S32D0000E8C8CC1A0020D41A002000D00340841B0020C81A00207C1C002080B500AFFDF72FFD00BF80BD80B500AF9E
S32D0000E8F0FDF729FD00BF80BD80B500AFFDF723FD00BF80BD80B500AFFDF71DFD00BF80BD80B500AFFDF717FD16
S32D0000E91800BF80BD80B500AFFDF711FD00BF80BD80B500AFFDF70BFD00BF80BD80B500AFFDF705FD00BF80BD41
S32D0000E94080B500AFFDF7FFFC00BF80BD80B500AFFDF7F9FC00BF80BD80B500AFFDF7F3FC00BF80BD80B500AF6A
S32D0000E968FDF7EDFC00BF80BD80B500AFFDF7E7FC00BF80BD80B500AFFDF7E1FC00BF80BD80B500AFFDF7DBFC91
S32D0000E99000BF80BD80B500AFFDF7D5FC00BF80BD80B500AFFDF7CFFC00BF80BD80B500AFFDF7C9FC00BF80BD80
S32D0000E9B880B500AFFDF7C3FC00BF80BD80B500AFFDF7BDFC00BF80BD80B500AFFDF7B7FC00BF80BD80B500AFA6
S32D0000E9E0FDF7B1FC00BF80BD80B500AFFDF7ABFC00BF80BD80B500AFFDF7A5FC00BF80BD80B500AFFDF79FFC09
S32D0000EA0800BF80BD80B500AFFDF799FC00BF80BD80B500AFFDF793FC00BF80BD80B500AFFDF78DFC00BF80BDBB
S32D0000EA3080B500AFFDF787FC00BF80BD80B500AFFDF781FC00BF80BD80B500AFFDF77BFC00BF80BD80B500AFE1
S32D0000EA58FDF775FC00BF80BD80B500AFFDF76FFC00BF80BD80B500AFFDF769FC00BF80BD80B500AFFDF763FC80
S32D0000EA8000BF80BD80B500AFFDF75DFC00BF80BD80B500AFFDF757FC00BF80BD80B500AFFDF751FC00BF80BDF7
S32D0000EAA880B500AFFDF74BFC00BF80BD80B500AFFDF745FC00BF80BD80B500AFFDF73FFC00BF80BD80B500AF1D
S32D0000EAD0FDF739FC00BF80BD80B500AFFDF733FC00BF80BD80B500AFFDF72DFC00BF80BD80B500AFFDF727FCF8
S32D0000EAF800BF80BD80B500AFFDF721FC00BF80BD80B500AFFDF71BFC00BF80BD80B500AFFDF715FC00BF80BD33
S32D0000EB2080B500AFFDF70FFC00BF80BD80B500AFFDF709FC00BF80BD80B500AFFDF703FC00BF80BD80B500AF58
S32D0000EB48FDF7FDFB00BF80BD80B500AFFDF7F7FB00BF80BD80B500AFFDF7F1FB00BF80BD80B500AFFDF7EBFB73
S32D0000EB7000BF80BD80B500AFFDF7E5FB00BF80BD80B500AFFDF7DFFB00BF80BD80B500AFFDF7D9FB00BF80BD71
S32D0000EB9880B500AFFDF7D3FB00BF80BD80B500AFFDF7CDFB00BF80BD80B500AFFDF7C7FB00BF80BD80B500AF97
S32D0000EBC0FDF7C1FB00BF80BD80B500AFFDF7BBFB00BF80BD80B500AFFDF7B5FB00BF80BD80B500AFFDF7AFFBEB
S32D0000EBE800BF80BD80B500AFFDF7A9FB00BF80BD80B500AFFDF7A3FB00BF80BD80B500AFFDF79DFB00BF80BDAD
S32D0000EC1080B500AFFDF797FB00BF80BD80B500AFFDF791FB00BF80BD80B500AFFDF78BFB00BF80BD80B500AFD2
S32D0000EC38FDF785FB00BF80BD80B500AFFDF77FFB00BF80BD80B500AFFDF779FB00BF80BD80B500AFFDF773FB62
S32D0000EC6000BF80BD80B500AFFDF76DFB00BF80BD80B500AFFDF767FB00BF80BD80B500AFFDF761FB00BF80BDE8
S32D0000EC8880B500AFFDF75BFB00BF80BD80B500AFFDF755FB00BF80BD80B500AFFDF74FFB00BF80BD80B500AF0E
S32D0000ECB0FDF749FB00BF80BD80B500AFFDF743FB00BF80BD80B500AFFDF73DFB00BF80BD80B500AFFDF737FBDA
S32D0000ECD800BF80BD80B500AFFDF731FB00BF80BD80B500AFFDF72BFB00BF80BD80B500AFFDF725FB00BF80BD24
S32D0000ED0080B584B000AFF8600B467A60FB72FB68FA7A1A71FB6800225A711749786837F035FD0346002B02D04C
S32D0000ED28134B7B600AE04FF07E51786837F016FD0346002B02D04FF07E537B60786836F0B7FE09A3D3E90023FB
S32D0000ED5036F00AFF02460B461046194637F0FCF90246FB681A60FB6818461037BD4680BDABAAAAAAAAAA204032
S32D0000ED780000404180B582B000AF78607B685B79002B09D07B6800225A717B6819791E230022034801F074FEED
S32D0000EDA000BF0837BD4680BDC81A002080B584B000AF786039603B687F2B02DD7F23FB7308E03B6813F1800F22
S32D0000EDC802DA8023FB7301E03B68FB737B685B79FA7B9A4209D07B68FA7B5A717B681979FA7B1E23034801F0D3
S32D0000EDF04BFE00BF1037BD4680BD00BFC81A0020B0B584B000AF786039603749386837F09FFC0346002B02D0C4
S32D0000EE18334B3B6008E03349386837F0B3FC0346002B01D02F4B3B60386836F041FE04460D467B681B68184619
S32D0000EE4036F03AFE4FF00002294B36F0B7FF02460B462046294636F087FE02460B461046194637F079F903466C
S32D0000EE683B604FF00001386837F082FC0346002B10D0386836F01CFE17A3D3E9002336F06FFE02460B4610460D
S32D0000EE90194637F019F90346FB6018E0386836F00BFE4FF00002134B36F05EFE02460B46104619464FF00002A1
S32D0000EEB80D4B36F07FFF02460B461046194637F0FFF80346FB60F9687868FFF76BFF00BF1037BD46B0BD00BF4A
S32D0000EEE052B81E85EB51F43F0000C8C20000C842000059400000604080B483B000AF03460A46FB711346BB717B
S32D0000EF08BB79002B03D1134B00221A7002E0114B01221A703823FB710E4B1A78FB791343FB710D4B9B78DBB2D3
S32D0000EF300B4A43F01003DBB29370094B9B78DBB2074A43F02003DBB29370054AFB79137100BF0C37BD4680BCD5
S32D0000EF58704700BFA51800200060064080B483B000AF01237B607B68312B04DC00BF7B6801337B60F7E700BF10
S32D0000EF800C37BD4680BC704780B582B000AF03460A46FB711346BB71134B1B7800211846FFF7AAFF00F024F86F
S32D0000EFA8104AFB79137100F01FF80E4ABB79137100F01AF80B4B9B78DBB20A4A23F02003DBB29370074B9B785B
S32D0000EFD0DBB2064A23F01003DBB29370FFF7C2FF00BF0837BD4680BDA61800200060064080B483B000AF174B8F
S32D0000EFF81B78002B24D100237B60154BDB78DBB203F00203002B0CBF01230023DBB2002B0DD07B6842F2107297
S32D0000F020934203DD0B4B01221A7004E07B6801337B6000BFE5E7084BDB78DBB2064A43F00203DBB2D37000E03E
S32D0000F04800BF0C37BD4680BC704700BFA71800200060064080B582B000AF0346FB71FB79184600F05FF800BFBB
S32D0000F0700837BD4680BD80B582B000AF03460A46FB711346BB7100F035F8FB795B00DBB21846FFF7E3FFBB7970
S32D0000F0981846FFF7DFFF00F037F800BF0837BD4680BD80B500AFFF2000F03CF80346184680BD80B584B000AF98
S32D0000F0C00346FB7100F016F8FB795B005BB243F001035BB2DBB21846FFF7C0FFFFF7E5FF0346FB7300F014F822
S32D0000F0E8FB7B18461037BD4680BDFFFF80B400AF044B9B68034A43F48013936000BFBD4680BC704740F00F402E
S32D0000F11080B400AF044B5B68034A43F48013536000BFBD4680BC704740F00F4080B485B000AF0346FB710023EE
S32D0000F138BB73164BDB6A03F00043012B0CBF01230023DBB2002B03D0FB7B0133FB73F0E70E4BDB6A0D4A43F0BF
S32D0000F1600043D3620B4AFB7953630A4BDB6A03F40033002B0CBF01230023DBB2002B00D0F3E7044B9B6BBB73A4
S32D0000F188BB7B18461437BD4680BC704700C00A4080B582B000AF224B03F5815310331B681F4943F4805201F5FE
S32D0000F1B0815310331A601D4B4FF480721A651C4B5B691B4A43F480135361FFF7A1FF174B4FF400725A65154BAA
S32D0000F1D84FF400729A65134B4FF40072DA65134B134A1A60114B134ADA6000237B607B68092B06DCFF20FFF7CF
S32D0000F2002DFF7B6801337B60F5E705A1D1E9000101F0C8FC00BF0837BD4680BDAFF300809A9999999999B93FE1
S32D0000F2280070044000A0044040F00F4000C00A40000C00800500003E90B486B000AFF860B9607A60FB68594A4E
S32D0000F25093420CD1584B03F5815314331B68564943F4806201F5815314331A604FE0FB68524A93420CD1504BE7
S32D0000F27803F5815314331B684D4943F4006201F5815314331A603EE0FB684B4A93420CD1474B03F581531433AB
S32D0000F2A01B68454943F4805201F5815314331A602DE0FB68434A93420CD13F4B03F5815314331B683C4943F410
S32D0000F2C8005201F5815314331A601CE0FB683C4A93420CD1364B03F5815308331B68344943F4806201F5815339
S32D0000F2F008331A600BE0304B03F5815308331B682D4943F4006201F5815308331A60FB68DB78DBB223F00C0358
S32D0000F318DAB2FB68DA70FB6800229A70BB684FF47A7202FB03F27B681B0192FBF3F39CB2FB681B78DBB223F065
S32D0000F3401F03FB7523461B12DBB203F01F03DAB2FB7D1343DAB2FB681A70E2B2FB685A70BB684FF4FA4202FBA2
S32D0000F36803F27B681B0192FBF3F39AB263019BB2D31A9CB2FB689B7ADBB223F01F03FB75E3B203F01F03DAB2F8
S32D0000F390FB7D1343DAB2FB689A72FB68DB78DBB243F00C03DAB2FB68DA7000BF1837BD4690BC704700A00640CE
S32D0000F3B80070044000B0064000C0064000D0064000A00E4080B483B000AF78607B681B79DBB203F02003002B40
S32D0000F3E00CBF01230023DBB2002B00D0F2E77B68DB79DBB218460C37BD4680BC704780B483B000AF78600B46F2
S32D0000F408FB707B681B79DBB25BB2DB43DBB2DB09DBB2002B00D0F4E77B68FA78DA7100BF0C37BD4680BC7047D0
S32D0000F43080B487B000AFF860B9607A60FB687B617B685A1E7A60002B14BF01230023DBB2002B06D07B695A1CA8
S32D0000F4587A61BA68D2B21A70EEE700BF1C37BD4680BC704780B584B000AF786039607B681B6BFB60FA683B684C
S32D0000F4809A4252D07B681B79002B35D07B6858787B6803F134010123FA6801F0F5F80346002B14BF0123002308
S32D0000F4A8DBB2002B01D001233CE07B6800221A717B685A6A7B681B6A1344FA689A4217D27B68DB78FB72FB7A38
S32D0000F4D0012B11D97B681B6AFA681344FB607B6858787B6803F134010123FA6801F0CCF8FB7A013BFB72EAE793
S32D0000F4F83B68002B15D07B6858787B6803F1340101233A6800F0D8FF0346002B14BF01230023DBB2002B01D0D0
S32D0000F520012303E07B683A681A63002318461037BD4680BD80B584B000AF786000217868FFF794FF0346FB737B
S32D0000F548FB7B002B40F091807B681B78032B7BD17B685B79002B77D07B6800221A637B6834334FF400720021F8
S32D0000F5701846FFF75DFF7B68552283F832227B68AA2283F833227B68522283F834207B68522283F835207B68E5
S32D0000F598612283F836207B68412283F837207B68722283F818227B68722283F819227B68412283F81A227B68A0
S32D0000F5C0612283F81B227B681B69DAB27B6883F81C227B681B699BB21B12DAB27B6883F81D227B681B691B0CBB
S32D0000F5E8DAB27B6883F81E227B681B691B0EDAB27B6883F81F227B68DB68DAB27B6883F820227B68DB689BB24B
S32D0000F6101B12DAB27B6883F821227B68DB681B0CDAB27B6883F822227B68DB681B0EDAB27B6883F823227B6896
S32D0000F63858787B6803F134017B685A69012301F01FF87B6800225A717B685B7800220021184601F0E1F80346BC
S32D0000F660002B14BF01230023DBB2002B01D00123FB73FB7B18461037BD4680BD80B582B000AF78600B467B8087
S32D0000F6887B68002B08D07B681B78002B04D07B68DB887A889A4201D0092311E07B685B78184601F03BF9034665
S32D0000F6B003F00103002B14BF01230023DBB2002B01D0032300E0002318460837BD4680BD80B586B000AF78606F
S32D0000F6D87B681A687B689B8819461046FFF7CAFF0346FB75FB7D002B40F0A8807B689B7903F02003002B00F049
S32D0000F700A1807B689B7903F04003002B1BD07B681B6858787B6803F128017B689A69012300F0B2FF0346002B22
S32D0000F72814BF01230023DBB2002B01D0012386E07B689B7923F04003DAB27B689A717B681A687B68DB691946D4
S32D0000F7501046FFF78BFE0346FB75FB7D002B71D17B681B6A3B613B690B331A783B690B3342F02002D2B21A705C
S32D0000F7787B68DA683B691C33D2B21A707B68DB689BB21A123B691D33D2B21A707B68DB681A0C3B691E33D2B2D7
S32D0000F7A01A707B68DB681A0E3B691F33D2B21A707B681A693B691A33D2B21A707B681B699BB21A123B691B3328
S32D0000F7C8D2B21A707B681B691A0C3B691433D2B21A707B681B691B0C9BB21A123B691533D2B21A700023FB6000
S32D0000F7F03B691633FA68D2B21A70FB689BB21A123B691733D2B21A70FB681A0C3B691833D2B21A70FB681A0EA5
S32D0000F8183B691933D2B21A707B689B7923F02003DAB27B689A717B681B6801221A717B681B681846FFF77AFED7
S32D0000F8400346FB75FB7D18461837BD4680BD80B584B000AF78607868FFF73AFF0346FB73FB7B002B02D17B686F
S32D0000F86800221A60FB7B18461037BD4680BDFFFF80B588B000AF7860396080233B610F23FB604FF0FF337B61D7
S32D0000F8900223FB61FB69B3F5807F23D80123BB61BB69102B1AD8FB69BA6902FB03F33A6802FB03F27B68D31A54
S32D0000F8B8BB60BB68002B09DBBB687A699A4205D9BB687B61FB693B61BB69FB60BB690133BB61E1E7FB695B009C
S32D0000F8E0FB61D7E71D4BDB6A1C4A23F00803D3621A4BDB6A23F47F2323F47F63BB613B695B081B029AB2FB682F
S32D0000F908013B1B01DBB21A43BB691343114A43F46023D3620F4B5B6A03F00803002B0CBF01230023DBB2002BB9
S32D0000F93003D00A2001F020F9F0E7084BDB6A074A43F00803D362054B1B6B044A43F48013136300BF2037BD46F2
S32D0000F95880BD00BF00100B4080B582B000AF786039607B6800221A60424B434ADA62414BDB6A03F08073002BEC
S32D0000F98014BF01230023DBB2002B00D0F3E73B4B0022C3F8C020394B4FF481325A60374B28229A62354B4FF0DF
S32D0000F9A801125A643B689B6834491846FFF760FF304B5B6A03F00303002B14BF01230023DBB2002B00D0F3E7AA
S32D0000F9D02D4B40F243421A602B4B40F243425A60294B4FF488629A60274B40F24342DA60254B40F243421A61D9
S32D0000F9F8234B40F243425A61224B03F5815310331B68204943F4003201F5815310331A60184B4FF6FF721A6313
S32D0000FA20164B1B4A5A63154BDB6A144A43F00063D362124BDB6A03F00063002B14BF01230023DBB2002B00D0A2
S32D0000FA48F3E70C4B5B6A03F48033002B14BF01230023DBB2002B02D07B6801221A60054B1B6B044A43F08003C7
S32D0000FA701363002318460837BD4680BD00100B400080000160CC050000D0044000700440B3007F0080B400AF08
S32D0000FA98064B5A6A40F207331340002B14BF01230023DBB21846BD4680BC704700100B4080B485B000AF7860FB
S32D0000FAC0074B1B6B7A681340FB60FB68002B00D1F6E7FB6818461437BD4680BC704700BF00100B4080B584B0EF
S32D0000FAE800AF78607B681B7803F03F03764A52F82330FB60FB68002B05D17B681B78002B01D00123DCE0714B94
S32D0000FB101B6B704A43F0800313636E4B5B6A03F00103002B14BF01230023DBB2002B00D0F3E7684A7B685B68E7
S32D0000FB389360FB6823F44003FB607B685B789B0503F44003FA681343FB607B685B78022B03D1FB6843F400138D
S32D0000FB60FB607B685B78042B16D1FB6803F44033B3F5003F08D1FB6823F44033FB60FB6843F44033FB6007E02C
S32D0000FB88FB6823F44033FB60FB6843F40033FB604E4B5B684D4A9BB253607B68DB68002B2AD0FB6803F44033D4
S32D0000FBB0B3F5403F03D0FB6843F40013FB607B681B7A002B03D0FB6843F01003FB607B68DB68012B03D9FB681A
S32D0000FBD843F02003FB607B68DB68B3F1FF3F0BD03A4B5A687B68DB681B04384913434B60FB6843F00203FB6067
S32D0000FC00344B00221A60334AFB68D3603248FFF753FF0346012B14BF01230023DBB2002B09D02C4B1B6B2B4A54
S32D0000FC2843F4702343F001031363012348E0274B1B6B03F08003002B14BF01230023DBB2002B07D0214B1B6BB7
S32D0000FC50204A43F001131363012335E01D4B1B6B03F48033002B14BF01230023DBB2002B08D0184B1B6B174A6F
S32D0000FC7843F0011313634FF0FF3321E0FB6803F44033002B15D0114B1A697B681A61FB6803F44033B3F5803FE1
S32D0000FCA00BD10C4B5A697B685A610A4B9A697B689A61084BDA697B68DA61064B1B6B054A43F0010313630023C2
S32D0000FCC818461037BD4680BDC081050000100B4001000E0080B592B000AF7860396000237B643B68BB63994B3B
S32D0000FCF07B637B6B002B02D140F6012362E3964B3B633B6B002B02D140F60B235AE33B6B1B68FB62FB6A002BAB
S32D0000FD1802D140F60B2351E37B6841F20932934200F242837B68B3F5985F08D87B68032B00F01D837B68092B5B
S32D0000FD4000F00C8334E37B68A3F59853013B082B00F22E8301A252F823F000BF81FD000071000100CF02010006
S32D0000FD6887000100C5000100EF0101003702010079010100930101007649786BFFF7ECFD78647B6C002B40F045
S32D0000FD901383002387F84330002387F82B30002387F82A30002387F82930002387F84230002387F82830002375
S32D0000FDB83B7200237B720023FB6000233B7400237B6107F108031846FFF788FE0346002B14BF01230023DBB219
S32D0000FDE0002B02D001237B64EBE240F24C4000F0C3FE08233B7200237B724FF4D573FB6000233B7400237B611A
S32D0000FE0807F108031846FFF769FEF863FB6B002B09D1BA69FB689A4202D001237B64CCE2012387F8423001232A
S32D0000FE3087F8283097F82830002B00F0A58037233B7200237B720023FB6000233B7400237B6107F108031846DF
S32D0000FE58FFF744FEF863FB6B002B02D001237B64ABE269233B7200237B720023FB6000233B7400237B6107F166
S32D0000FE8008031846FFF72EFE0346002B14BF01230023DBB2002B02D001237B6491E2BB6903F44013002B6FD063
S32D0000FEA80023FB630A2000F063FEFB6B0133FB6337233B7200237B720023FB6000233B7400237B6107F10803CF
S32D0000FED01846FFF707FE0346002B14BF01230023DBB2002B02D001237B6428E069233B7200237B7297F842303E
S32D0000FEF8002B02D0184BFB6002E04FF44013FB6000233B7400237B6107F108031846FFF7E5FD0346002B14BFFD
S32D0000FF2001230023DBB2002B02D001237B6406E0BB69002B03DBFB6B632B00D8B6E77B6C002B40F03B82FB6BFE
S32D0000FF48632B0BD9002387F8423019E0BC180020C01A0020B481050000003040012387F8433097F84230002B32
S32D0000FF700AD0002387F84230BB6903F08043002B02D0012387F8423097F82A30002B02D07B6B07221A6097F88B
S32D0000FF982930002B02D07B6B08221A6097F82B30002B02D07B6B04221A6097F84330002B09D07B6B02221A6064
S32D0000FFC097F84230002B02D07B6B03221A6097F82B30002B0DD097F84330002B09D07B6B05221A6097F8423010
S32D0000FFE8002B02D07B6B06221A60A04B00221A609E4B00225A609D4B00229A609B4B0022DA609A4B00221A6152
S32D00010010984B00225A61FB6A9A68FB6A5B6819461046FFF729FC934B40F243421A60914B40F243425A608F4B6C
S32D000100384FF488629A608D4B40F24342DA608B4B40F243421A61894B40F243425A61884B03F5815310331B68F6
S32D00010060854943F4003201F5815310331A60A8E1B86BFFF737FDF863FB6B002B00F0A08102237B649CE1BB6B39
S32D00010088002B02D10C237B6497E17A4BDB6A1B0A5B0003F4FF73FB63764BDB6A1B0903F00F035A1CFB6B02FB6C
S32D000100B003F3FB63FB6A9A68FB6BB2FBF3F2BB6B1A607EE1BB6B002B02D10C237B6478E1BB6B1B68002B02D13D
S32D000100D80C237B6471E1FFF7D9FC0346002B0CBF01230023DBB2002B3ED0604B00221A605E4B00225A605D4B0E
S32D0001010000229A605B4B0022DA605A4B00221A61584B00225A61FB6A9A68BB6B1B6819461046FFF7A9FB534BF3
S32D0001012840F243421A60514B40F243425A604F4B4FF488629A604D4B40F24342DA604B4B40F243421A61494BC4
S32D0001015040F243425A61484B03F5815310331B68454943F4003201F5815310331A6028E140F60A237B6424E11B
S32D00010178BB6B002B02D10C237B641EE13D4B5B68C3F30C02BB6B1A6017E1BB6B002B02D10C237B6411E1FFF766
S32D000101A079FC0346002B0CBF01230023DBB2002B19D0BB6B1B68B3F5805F02D30C237B64FFE02E4B5B682D4AEF
S32D000101C823F4FF5323F01F0353602A4B5A68BB6B1B68C3F30C03274913434B60EDE040F60A237B64E9E0BB6BA3
S32D000101F0002B02D10C237B64E3E0204B9B6A5B0803F00303FB63FB6B002B03D1BB6B00221A60D6E0FB6B012B78
S32D0001021803D1BB6B01221A60CFE0FB6B102B03D1BB6B02221A60C8E005237B64C5E0BB6B002B02D10C237B64B2
S32D00010240BFE0FFF727FC0346002B0CBF01230023DBB2002B37D0BB6B1B68002B10D1074B9B6A064A23F006031A
S32D000102689362044B034A9B6A9362A6E000D004400070044000100B40BB6B1B68012B0CD1504B9B6A4F4A23F035
S32D00010290060393624D4B9B6A4C4A43F0020393628FE0BB6B1B68022B0AD1484B9B6A474A23F006039362454BF7
S32D000102B8444A9B6A936280E005237B647DE040F60A237B6479E0BB6B002B02D10C237B6473E03C4BDB6A3B4A5A
S32D000102E043F00063D362394BDB6A03F00063002B14BF01230023DBB2002B00D0F3E7334B1B6B03F08003002BB9
S32D0001030814BF01230023DBB2002B08D02D4B1B6B2C4A43F0800313637B6B00221A60294B5B6A03F48033002BEC
S32D0001033014BF01230023DBB2002B07D07B6B1B68002B06D17B6B01221A6002E07B6B00221A607B6B1A68BB6B15
S32D000103581A6032E0BB6B1C221A60BB6B043304221A60BB6B08334FF41E721A6025E00220FFF79EFB134B1B6BC7
S32D0001038003F4E003002B14BF01230023DBB2002B07D00E4B1B6B0D4A43F4E003136304237B640A4B1B6B094AA6
S32D000103A843F03203136308E040F609237B6404E000BF02E000BF00E000BF7B6C18464837BD4680BD00100B40DD
S32D000103D080B489B000AF786039607B687B61364B3B613B69002B01D100235FE03B691B68022B0BD03B691B683C
S32D000103F8032B07D03B691B68072B03D03B691B68082B0BD12B4B5B6A03F00403002B14BF01230023DBB2002B3D
S32D0001042000D0F3E73B68FB61FB69002B3DD0FB69B3F5007F28BF4FF40073FB60FB6803339B08BB61BB69002B3E
S32D000104482AD01C4B1B6B03F4E003002B14BF01230023DBB2002B09D0164B1B6B154A43F4E00343F020031363C2
S32D0001047000231BE0114B5B6A03F40063002B0CBF01230023DBB2002B00D0F3E70B497B691A1D7A610A6A1A60ED
S32D00010498BB69013BBB61D1E7FA69FB68D31AFB61BEE7012318462437BD4680BC704700BFBC18002000100B406C
S32D000104C080B58EB000AFB9607A601A460346FB731346BB73414B7B63FB7B002B02D1BB7B002B01D1042375E0CD
S32D000104E83D4B1B78DBB203F00103002B14BF01230023DBB2002B01D0032367E0BB68002B01D1002362E07B6BA0
S32D000105101B7B002B02D17B685B027B60BB7B012B28D111233B7500237B757B68BB6101233B77BB7B3B6207F11B
S32D000105381403194641F20230FFF7CCFB0346002B0CBF01230023DBB2002B38D04FF40071B868FFF739FF03466B
S32D00010560002B14BF01230023DBB2002B2BD00023BB7328E012233B7500237B757B68BB6101233B77BB7B3B627B
S32D0001058807F11403194641F20230FFF7A3FB0346002B0CBF01230023DBB2002B0FD0BB7B5B021946B868FFF7B8
S32D000105B00FFF0346002B14BF01230023DBB2002B01D00023BB73BB7B002B01D0012300E0002300BF18463837C1
S32D000105D8BD4680BDA81800200400002080B487B000AF786039607B68FB603B687B617B69002B3DD07B69B3F5C0
S32D00010600007F28BF4FF400733B617A693B69D31A7B613B6903339B083B613B69002BEAD0184B1B6B03F4E0035E
S32D00010628002B14BF01230023DBB2002B0AD0134B1B6B124A43F4E00343F0100313634FF0FF3316E00D4B5B6A32
S32D0001065003F48063002B0CBF01230023DBB2002B00D0F3E7FB681A1DFA60064A1B6813623B69013B3B61D0E793
S32D00010678012318461C37BD4680BC704700100B4080B58EB000AFB9607A601A460346FB731346BB735D4B7B63F4
S32D000106A0FB7B002B02D1BB7B002B01D10423ADE0594B1B78DBB203F00103002B14BF01230023DBB2002B01D047
S32D000106C803239FE0524B1B78DBB203F00403002B14BF01230023DBB2002B01D0022391E0BB68002B01D1002300
S32D000106F08CE07B6B1B7B002B02D17B685B027B60BB7B012B28D118233B7500237B757B68BB6100233B77BB7B77
S32D000107183B6207F11403194641F20230FFF7DAFA0346002B0CBF01230023DBB2002B38D04FF40071B868FFF768
S32D0001074051FF0346002B14BF01230023DBB2002B2BD00023BB7328E019233B7500237B757B68BB6100233B77CD
S32D00010768BB7B3B6207F11403194641F20230FFF7B1FA0346002B0CBF01230023DBB2002B0FD0BB7B5B0219460C
S32D00010790B868FFF727FF0346002B14BF01230023DBB2002B01D00023BB730D233B7500237B757B6B1B69BB611D
S32D000107B800233B7700233B6207F11403194641F20230FFF787FA0346002B14BF01230023DBB2002B01D00123F8
S32D000107E014E07A6A0D4B1340002B01D001230DE07B6A03F4F853B3F5106F00D0D5E7BB7B002B01D0012300E04A
S32D00010808002300BF18463837BD4680BDA8180020040000200880D9FF80B58CB000AF03463A60FB710B46BB7182
S32D000108303A4BBB62FB79002B01D0042369E0012387F82F30364B1B78DBB203F00103002B14BF01230023DBB2AB
S32D00010858002B01D0032358E0BB79032B50D801A252F823F07D0801008508010095080100A5080100002387F88B
S32D000108802F3044E0BB6A9A683B681A60002387F82F303CE03B684FF400721A80002387F82F3034E009233B7285
S32D000108A800237B72BB6A1B69FB6000233B7400237B6107F10803194641F20230FFF70AFA0346002B14BF012310
S32D000108D00023DBB2002B01D001231AE07B6A03F44003002B0CD13B6A9B0C03F07F035A1C7B6A1B0A03F00303CE
S32D000108F8013B9A403B681A60002387F82F3002E0042387F82F3097F82F3018463037BD4680BD00BFA818002024
S32D000109200400002080B483B000AF0346FB71FB79002B01D0012302E0034B1B78DBB218460C37BD4680BC70473E
S32D000109480400002080B483B000AF7860174B03F5815318331B68154943F0010201F5815318331A60124A7B6810
S32D000109709360114B05225A600F4B1B680E4A43F0010313600C4B1B6803F08003002B0CBF01230023DBB2002B04
S32D0001099800D0F3E7064B1B68054A23F00103136000BF0C37BD4680BC704700BF007004400000044080B582B0C3
S32D000109C000AF786039607B68012B07D13B684FF6FF72934202D1034800F00EF800BF0837BD4680BDC81A00207F
S32D000109E880B500AF4FF6FF710120FFF7E3FF80BD80B483B000AF78607B6800221A707B6818460C37BD4680BCD1
S32D00010A107047FFFF80B582B000AF78607B681B7883F00103DBB2002B21D0134B03F5815308334FF400621A60FA
S32D00010A38104B4FF440721A620E4B4FF440725A620D4B1B68DA0F13445B104FF4614219460A48FEF7F1FB642037
S32D00010A6000F08AF87B6801221A70012300E0002318460837BD4680BD0070044000D00440CC1A002000B00E4095
S32D00010A8880B582B000AF7860084611461A460346FB700B46BB7013467B707F210E48FEF7AAFC08210C48FEF7D5
S32D00010AB0A6FCFB7819460A48FEF7A1FCBB7819460748FEF79CFC7B7819460548FEF797FCFF210348FEF793FC3B
S32D00010AD800BF0837BD4680BD00B00E4080B487B000AFF860B9607A60FB681F4AA2FB03239B09BA6813447B61C6
S32D00010B00FB681B4AA2FB031292094FF47A7101FB02F29B1AFB60FB68DB03154AA2FB03239B097A6813443B61A7
S32D00010B283B69DB0B7A6913447B613B69C3F30E033B610E4B1B687A699A4209D80B4B1B687A699A4206D1094BB8
S32D00010B505B683A699A4201D9012300E00023002B00D0EAE700BF1C37BD4680BC704700BFD34D621000D00340FB
S32D00010B7880B584B000AF7860074B1B68FB60064B5B68BB607B68BA68F9681846FFF7A6FF00BF1037BD4680BD5A
S32D00010BA000D0034080B584B000AFC7E900010E4B1B68FB600C4B5B68BB604FF000020B4BD7E9000134F0D0FF93
S32D00010BC802460B461046194635F0A2FA0346BA68F9681846FFF782FF00BF1037BD4680BD00D0034000408F40E6
S32D00010BF080B582B000AF78600B46FB70FB781946786800F005F87B6818460837BD4680BD80B483B000AF7860DF
S32D00010C180B46FB707B68FA781A707B681B781A46534B9B5C042B00F29E8001A252F823F04D0C0100870C01007A
S32D00010C40C10C0100FB0C0100350D01004B4A7B681B7819464A4B53F8213040F2031142F82310484B5A697B68E5
S32D00010C681B781946444B53F8213003F01F03012101FA03F3DB43414913404B6173E0404A7B681B7819463C4B38
S32D00010C9053F8213040F2031142F823103B4B5A697B681B781946364B53F8213003F01F03012101FA03F3DB4365
S32D00010CB8344913404B6156E0334A7B681B7819462D4B53F8213040F2031142F823102F4B5A697B681B78194630
S32D00010CE0274B53F8213003F01F03012101FA03F3DB43284913404B6139E0274A7B681B7819461F4B53F82130BC
S32D00010D0840F2031142F82310224B5A697B681B781946194B53F8213003F01F03012101FA03F3DB431B49134007
S32D00010D304B611CE01A4A7B681B781946104B53F8213040F2031142F82310164B5A697B681B7819460A4B53F870
S32D00010D58213003F01F03012101FA03F3DB430F4913404B6100BF00BF0C37BD4680BC7047C082050000900440AC
S32D00010D800483050000F00F4000A0044040F00F4000B0044080F00F4000C00440C0F00F4000D0044000F10F400C
S32D00010DA880B485B000AF78600023FB607B681B781A46364B9B5C042B5CD801A252F823F0DD0D0100FD0D010007
S32D00010DD01D0E01003D0E01005D0E01002E4B1B697A68127811462D4A52F8212002F01F02012101FA02F21340D7
S32D00010DF8FB603FE0284B1B697A6812781146254A52F8212002F01F02012101FA02F21340FB602FE0214B1B69CD
S32D00010E207A68127811461D4A52F8212002F01F02012101FA02F21340FB601FE01A4B1B697A6812781146154A12
S32D00010E4852F8212002F01F02012101FA02F21340FB600FE0134B1B697A68127811460D4A52F8212002F01F0295
S32D00010E70012101FA02F21340FB6000BFFB68002B14BF01230023DBB218461437BD4680BC704700BFC0820500FB
S32D00010E9800F00F400483050040F00F4080F00F40C0F00F4000F10F4080B584B000AF78600B46FB700B23FB739B
S32D00010EC0FA7BFB781946786800F094F87B6818461037BD4680BDFFFF80B485B000AF78607B68103B002B00DA77
S32D00010EE81F335B11FB60FB68022B53D0FB68022B75DCFB68002B03D0FB68012B25D06EE0394BD3F880217B6828
S32D00010F10103B594203F01F0301F01F0158BF4B42012101FA03F332491343C1F88031304B1A687B68103B5942EE
S32D00010F3803F01F0301F01F0158BF4B42012101FA03F3294913430B6049E0274BD3F884217B68103B594203F0B3
S32D00010F601F0301F01F0158BF4B42012101FA03F31F491343C1F884311D4B5A687B68103B594203F01F0301F053
S32D00010F881F0158BF4B42012101FA03F3164913434B6024E0144BD3F888217B68103B594203F01F0301F01F013D
S32D00010FB058BF4B42012101FA03F30D491343C1F888310B4B9A687B68103B594203F01F0301F01F0158BF4B4252
S32D00010FD8012101FA03F3044913438B6000BF00BF1437BD4680BC704700E100E080B584B000AF78600B46FB701D
S32D000110001346BB707B68FA781A70BB78FB737B681B781A46574B9B5C042B00F2A68001A252F823F039100100BD
S32D0001102885100100D1100100691101001D110100FB7B1B0403F470234D497A68127810464C4A52F8202043F4A9
S32D00011050897343F0010341F82230494B5A697B681B781946454B53F8213003F01F03012101FA03F3DB4342498A
S32D0001107813404B616720FFF72BFF72E0FB7B1B0403F470233D497A6812781046394A52F8202043F4897343F077
S32D000110A0010341F82230384B5A697B681B781946324B53F8213003F01F03012101FA03F3DB43314913404B619F
S32D000110C86820FFF705FF4CE0FB7B1B0403F470232C497A6812781046264A52F8202043F4897343F0010341F858
S32D000110F02230274B5A697B681B7819461F4B53F8213003F01F03012101FA03F3DB43204913404B616920FFF742
S32D00011118DFFE26E0FB7B1B0403F470231B497A6812781046134A52F8202043F4897343F0010341F82230164B43
S32D000111405A697B681B7819460C4B53F8213003F01F03012101FA03F3DB430F4913404B616B20FFF7B9FE00E040
S32D0001116800BF00BF1037BD4680BD00BFC0820500009004400483050000F00F4000A0044040F00F4000B0044057
S32D0001119080F00F4000D0044000F10F4080B58AB000AF3B1D20220021184638F027FB0B237B600A23BB60072321
S32D000111B8FB6006233B6105237B610423BB610123FB6100237B627B6A072B32DC1B4BD3F8A0207B6A9B0007F193
S32D000111E028010B4453F8243C012101FA03F31340002B14BF01230023DBB2002B19D0124A7B6A52F823305A1C1D
S32D000112080F497B6A41F823200C4BD3F8A0207B6A9B0007F128010B4453F8243C012101FA03F306491340C1F813
S32D00011230A0307B6A01337B62C9E700BF2837BD4680BD00BF00A00440F81A0020B0B489B000AF234B3C1D1D4670
S32D000112580FCD0FC495E8030084E803000023FB61FB69052B32DC1D4BD3F8A020FB699B0007F120010B4453F803
S32D000112801C3C012101FA03F31340002B14BF01230023DBB2002B19D0FB690833124A52F823200132104941F84E
S32D000112A823200E4BD3F8A020FB699B0007F120010B4453F81C3C012101FA03F307491340C1F8A030FB6901330F
S32D000112D0FB61C9E700BF2437BD46B0BC704700BF0884050000B00440F81A0020B0B48DB000AF244B3C461D4689
S32D000112F80FCD0FC40FCD0FC495E8070084E807000023FB62FB6A0A2B32DC1D4BD3F8A020FB6A9B0007F130012E
S32D000113200B4453F8303C012101FA03F31340002B14BF01230023DBB2002B19D0FB6A0E33124A52F8232001328A
S32D00011348104941F823200E4BD3F8A020FB6A9B0007F130010B4453F8303C012101FA03F307491340C1F8A0304F
S32D00011370FB6A0133FB62C9E700BF3437BD46B0BC704700BF2084050000900440F81A0020B0B487B000AF224B33
S32D000113983C461D460FCD0FC42B68236000237B617B69042B32DC1D4BD3F8A0207B699B0007F118010B4453F83F
S32D000113C0183C012101FA03F31340002B14BF01230023DBB2002B19D07B691933124A52F823200132104941F880
S32D000113E823200E4BD3F8A0207B699B0007F118010B4453F8183C012101FA03F307491340C1F8A0307B690133DA
S32D000114107B61C9E700BF1C37BD46B0BC704700BF4C84050000D00440F81A002080B483B000AF78607B681B78AB
S32D000114381A46044B53F8223018460C37BD4680BC704700BFF81A002080B483B000AF78607B681B781946044B9F
S32D00011460002243F8212000BF0C37BD4680BC7047F81A002080B483B000AF78600B46FB707B68FA781A707B6829
S32D0001148818460C37BD4680BC7047FFFFFFFFFFFF80B586B000AF78607B681B781A463E4B53F822303B617B6837
S32D000114B01B781A463B4B9B5CFB733B69DBB203F01F03DAB2384B1A723B69DBB203F01F03DAB2354B5A72354BB0
S32D000114D81022C3F88820FB7B002B13D13049324800F05AFA304B1B6803F08003802B14BF01230023DBB2002BA3
S32D0001150000D0F3E72A4B1B697B6112E02649294800F046FA274B1B6803F08003802B14BF01230023DBB2002B53
S32D0001152800D0F3E7214B1B697B611E4BD3F888311C4A43F01003C2F888311A4B9B68194A43F0100393607B692A
S32D000115509BB2184634F08EFA0DA3D3E9002334F003FB02460B46104619460BA3D3E9002334F024FC02460B46AC
S32D000115781046194634F0ECFD0346BB60BB6818461837BD4680BD00BFA4703D0AD7A30A4000000000E0FFEF4022
S32D000115A084830500E0820500D81A002000E100E000B0034000B00B4080B586B000AF78607B681B781A46234BB2
S32D000115C853F822303B617B681B781A46204B9B5CFB733B69DBB203F01F03DAB21D4B1A723B69DBB203F01F0309
S32D000115F0DAB21A4B5A72FB7B002B13D11749184800F0CEF9164B1B6803F08003802B14BF01230023DBB2002B3C
S32D0001161800D0F3E7104B1B697B6112E00D490F4800F0BAF90D4B1B6803F08003802B14BF01230023DBB2002B2E
S32D0001164000D0F3E7074B1B697B617B6918461837BD4680BD84830500E0820500E81A002000B0034000B00B40CB
S32D0001166898B500AF204B5C221A701F4B10225A701D4B41F234225A801B4B45F278629A80194B10229A71184B1E
S32D000116900722DA71164B4FF4C022DA60144B1F221A72134B1F225A721149124800F078F90F49114800F074F93D
S32D000116B80F4800F0D2F80D4800F0CFF80A490C4800F06AF90849094800F066F9094A064B14460FCB84E80F00A8
S32D000116E0064B5C221A70054B0422DA7100BF98BDD81A002000B0034000B00B40E81A002080B500AF064B1B68D3
S32D000117080133054A136000F03DF8044B0122C3F80C2100BF80BD00BF7C1B00200070034080B500AF0C4B0122BA
S32D000117301A600C4800F01AF8094B0322C3F80821094BD3F88831084A43F01003C2F88831054B9B68044A43F0A6
S32D000117581003936000BF80BD00700340A086010000E100E080B483B000AF7860044A7B68C2F8003100BF0C37B9
S32D00011780BD4680BC704700BF0070034080B584B000AF174B1B68FB60FB68002B24D0FB685B78FB71FB689B68F0
S32D000117A8184600F023F80346BB71BB79002B13D0FB685B68012B0FDDFB689B681B69BB60BB68002B08D0BB6866
S32D000117D05B685A1CBB685A60BB681B69BB60F3E7FB68DB68FB60D7E700BF1037BD4680BD781B002080B584B017
S32D000117F800AF78607868FFF7DBFEF8607B689B695B78FB72FB7A002B0FD17B68DB68FA689A420ADD7B689B695B
S32D0001182001225A707B685B685A1C7B685A60012313E0FB7A012B0FD17B689B68FA689A420ADA7B689B6900224A
S32D000118485A707B685B685A1C7B685A60012300E0002318461037BD4680BD80B485B000AF78607B681B6A23F077
S32D0001187040027B681A627B685B6A23F00B027B685A627B685B6A43F007027B685A627B685B6A43F080027B687E
S32D000118985A627B681B6803F08003002B0CBF01230023DBB2002B00D0F3E77B685B6A03F04003402B0CBF0123B2
S32D000118C00023DBB2002B01D0012364E00023FB817B68DB6CFB817B689B6C9AB2FB891344FB817B685B6C9AB21D
S32D000118E8FB891344FB817B681B6C9AB2FB891344FB817B68DB6B9AB2FB891344FB817B689B6B9AB2FB89134491
S32D00011910FB81FB895B08FB81FB896FEA43436FEA5343FB81FA897B68DA620023FB817B68DB6EFB817B689B6E26
S32D000119389AB2FB891344FB817B685B6E9AB2FB891344FB817B681B6E9AB2FB891344FB817B68DB6D9AB2FB8984
S32D000119601344FB817B689B6D9AB2FB891344FB81FB895B08FB81FB896FEA43436FEA5343FB81FA897B681A63E3
S32D000119887B685B6A23F080027B685A62002318461437BD4680BC704780B483B000AF786039603B681B781A4675
S32D000119B07B689A603B685B781A467B68DA603B685B881A467B689A613B689B881A467B68DA613B689B791A4619
S32D000119D87B681A623B68DB791A467B685A623B68DA687B681A653B681B7A1A467B681A603B685B7A1A467B6894
S32D00011A005A6000BF0C37BD4680BC704780B483B000AF78607B6818460C37BD4680BC704780B582B000AF7860AF
S32D00011A2839607B68012B07D13B684FF6FF72934202D10348FFF7E6FF00BF0837BD4680BD801B002080B500AF0B
S32D00011A504FF6FF710120FFF7E3FF80BD80B483B000AF78600B46FB707B68FA781A707B684FF4FA725A807B68A4
S32D00011A7840F6C4129A807B68034A9A607B6818460C37BD4680BC7047000080BF80B483B000AF786039603B680C
S32D00011AA0B3F5FA7F04DB3B6840F6C412934204DD7B684FF4FA725A8004E03B689AB27B685A8000BF00BF0C37F5
S32D00011AC8BD4680BC704780B483B000AF786039603B68B3F5FA7F04DB3B6840F6C412934204DD7B6840F6C4127B
S32D00011AF09A8004E03B689AB27B689A8000BF00BF0C37BD4680BC70472DE9904385B000AF786039604FF00001A8
S32D00011B18386834F019FE0346002B02D04FF000033B603149386834F02DFE0346002B01D02D4B3B607B689B68F9
S32D00011B401946386834F0FAFD0346002B00D04AE07B683A689A607B685C887B689B881A467B685B88D31A184631
S32D00011B6833F094FF4FF00002204B34F023F902460B4690469946386833F09AFF02460B464046494633F0ECFF46
S32D00011B9002460B461046194634F0BEFA03469BB22344FB81FB897B73FB891B123B737F211148FDF724FC05217F
S32D00011BB80F48FDF720FC7B681B7819460C48FDF71AFC3B7B19460A48FDF715FC7B7B19460748FDF710FCFF2134
S32D00011BE00548FDF70CFC00BF1437BD46BDE89083000034430080664000B00E4080B582B000AF7860B84B4FF4F9
S32D00011C088072DA60B74B4FF480729A64B54B4FF480721A64B34B4FF480725A64B14B4FF48072DA60B04B5B697E
S32D00011C30AF4A43F008035361AE4B5B69AD4A43F480235361AB4B5B69AA4A43F480335361A84B5B69A74A43F42D
S32D00011C5800335361A54B1B68A44A43F008031360A24B5B69A14A43F0080353619E4B1B689D4A43F008031360D2
S32D00011C809A4B4FF480725A62984B4FF480721A62954B4FF480721A61934B4FF480725A61914B4FF480729A6161
S32D00011CA88F4B4FF48072DA618D4B4FF480721A638B4B4FF480725A63894B4FF480729A63874B4FF48072DA6327
S32D00011CD0854B4FF480721A64834B4FF480725A64814B4FF480729A647F4B4FF48072DA64814B4FF480721A60EA
S32D00011CF87F4B4FF480729A607D4B4FF48072DA607B4B4FF480721A61784B5B69774A43F440735361744B5B69AE
S32D00011D20734A43F47F2343F0F0035361734B5B69724A43F01D035361E221786800F0B2FD1D21786800F054FEFD
S32D00011D480221786800F050FE0421786800F04CFEE021786800F0A2FD0121786800F044FE6420FEF705FFE021CA
S32D00011D70786800F097FD0321786800F039FE0121786800F08FFD0120FEF7F6FEE621786800F088FD01217868CF
S32D00011D9800F02AFEA021786800F026FEFF21786800F022FEB021786800F078FD1C21786800F01AFE0F217868F4
S32D00011DC000F016FE0121786800F012FE3F21786800F00EFE0021786800F00AFEEF21786800F006FE00217868D4
S32D00011DE800F002FEB421786800F058FD0121786800F0FAFD9921786800F0F6FD0021786800F0F2FD4521786856
S32D00011E1000F0EEFD0221786800F0EAFD0021786800F0E6FD0021786800F0E2FD0021786800F0DEFDB6217868C7
S32D00011E3800F034FD0121786800F0D6FD0921786800F0D2FD0021786800F0CEFD0E21786800F0CAFD0221786847
S32D00011E6000F0C6FD0021786800F0C2FD0021786800F0BEFDBA21786800F014FD0F21786800F0B6FD6420FEF75C
S32D00011E8877FE3A21786800F009FD6021786800F0ABFD2A21786800F001FD0021786800F0A3FD0021786800F0F1
S32D00011EB09FFD0121786800F09BFD3F21786800F097FD2B21786800F0EDFC0021786800F08FFD0021786800F0A6
S32D00011ED88BFD0021786800F087FDEF2178680BE000B0044000A0044080F00F4040F00F4000C00440C0F00F40EA
S32D00011F0000F076FD3621786800F0CCFC0021786800F06EFDF021786800F0C4FC0421786800F066FDB821786852
S32D00011F2800F0BCFC0F21786800F05EFD0121786800F05AFD314B1B68304A43F0080313606420FEF715FE362131
S32D00011F50786800F0A7FC0021786800F049FDF021786800F09FFC0421786800F041FD0121786800F013FA1E22CA
S32D00011F786F21786800F082F8AF225621786800F0DBF80021786800F056FA012301221C49786800F077FA2921FD
S32D00011FA0786800F07FFC6420FEF7E6FDBE21786800F078FC0E21786800F01AFDF021786800F016FD012178683C
S32D00011FC800F012FD0021786800F00EFD0021786800F00AFD0F21786800F006FD786800F074FA0121786800F0C4
S32D00011FF026FA0021786800F0FBF900BF0837BD4680BD00BF40F00F406084050080B582B000AF78607B68002265
S32D00012018DA617B6801221A627B680E225A607B681A229A607B6800225A617B6800229A617B684FF4A072DA60C4
S32D000120407B68F0221A617B6800221A70786801F03FF97B6818460837BD4680BD80B582B000AF7860064B1B78D7
S32D00012068002B05D1044B01221A707868FFF7C2FD00BF0837BD4680BDC81B002080B58AB002AFF860B9607A600B
S32D000120907E23009362237A68B968F86800F052FE40F24E733B610023FB61FA693B699A4240DA0023BB61214A10
S32D000120B8FB6913441B781A46BB69934232DAFB6901331C4AD35C002B06D1FF23FB75FF23BB75FF237B7512E02F
S32D000120E0FB690133154AD35C012B06D1D423FB750023BB7526237B7505E0B523FB75BA23BB75B0237B757B7DC0
S32D00012108BA7DF97DF86800F023F90246FB68DA61F86801F0D9F8F86801F012F8BB690133BB61C4E7FB69023374
S32D00012130FB61BAE700BF2037BD4680BD0800002080B58AB002AFF860B9607A602723009395237A68B968F868A2
S32D0001215800F0F4FD40F2E6333B610023FB61FA693B699A4240DA0023BB61214AFB6913441B781A46BB699342C3
S32D0001218032DAFB6901331C4AD35C002B06D1FF23FB75FF23BB75FF237B7512E0FB690133154AD35C012B06D1E4
S32D000121A80023FB750023BB7500237B7505E0D423FB750023BB7526237B757B7DBA7DF97DF86800F0C5F802463D
S32D000121D0FB68DA61F86801F07BF8F86800F0B4FFBB690133BB61C4E7FB690233FB61BAE700BF2037BD4680BD70
S32D000121F85807002080B582B000AF78600B46FB707B68FA781A703621786800F047FB7B681B78032B1ED801A20A
S32D0001222052F823F0352201003F22010049220100532201000021786800F0DAFB0EE00321786800F0D5FB09E035
S32D00012248A321786800F0D0FB04E0A021786800F0CBFB00BF7B681B78002B03D07B681B78012B0DD17B680E2207
S32D000122705A607B681A229A607B684FF4A072DA607B68F0221A610CE07B6812225A607B6813229A607B68F022C6
S32D00012298DA607B684FF4A0721A61786800F05EFC00BF0837BD4680BD80B485B000AF78600B46FB70FB78062B72
S32D000122C029D801A252F823F0ED220100E5220100F3220100FB2201000323010009230100112301006FF07F43F8
S32D000122E8FB6014E00023FB6011E04FF47F03FB600DE04FF47F43FB6009E0FF23FB6006E04FF41903FB6002E0B4
S32D00012310044BFB6000BFFB6818461437BD4680BC704700BF9999990080B584B000AF786039603B681B0CFB73E8
S32D000123383B681B0ABB733B687B737B7BBA7BF97B786800F005F8034618461037BD4680BD80B487B000AF786063
S32D00012360084611461A460346FB700B46BB7013467B70FB789B107B61BB789B103B617B789B10FB607B691A0367
S32D000123883B699B011A43FB68134318461C37BD4680BC704780B582B000AF78600B46FB70FB7819467868FFF7D7
S32D000123B07FFF03461946786800F004F800BF0837BD4680BD80B582B000AF7860396039687868FFF7A9FF0246E0
S32D000123D87B681A62786800F077FF786800F0BEFB00BF0837BD4680BD80B582B000AF78600B46FB70FB781946EE
S32D000124007868FFF755FF03461946786800F004F800BF0837BD4680BD80B582B000AF7860396039687868FFF7D3
S32D000124287FFF02467B681A62786800F04DFF00BF0837BD4680BD80B582B000AF78600B46FB70FB7819467868AA
S32D00012450FFF72EFF03461946786800F004F800BF0837BD4680BD80B582B000AF7860396039687868FFF758FF33
S32D0001247802467B68DA61786800F026FF00BF0837BD4680BD80B586B000AFF860B9607A603B6000237B617B69B9
S32D000124A0BA6813441B78002B0FD07B69BA6813441B783A687968F86800F004FD7B680C337B607B6901337B6142
S32D000124C8E9E700BF1837BD4680BD80B582B000AF7860FCF75DFE67210120FCF7C8FD00210220FCF7C4FDA02172
S32D000124F00320FCF7C0FD50210420FCF7BCFD20210520FCF7B8FD20210620FCF7B4FD77210720FCF7B0FD002110
S32D000125180820FCF7ACFD00210920FCF7A8FD00210A20FCF7A4FD04210B20FCF7A0FD7B684FF0FF32DA637B68BC
S32D000125404FF0FF321A6400BF0837BD4680BDFFFF80B586B000AFF860B9607A600020FCF7ACFD0346FB75FB7DF0
S32D0001256803F00203002B00F0CE80FCF7BFFDE020FCF770FD0220FEF7FBFAFCF7C5FD0120FEF7F6FAFCF7B2FD6B
S32D00012590A520FCF763FD0120FEF7EEFAFCF785FD03469BB21B02BB82FCF77FFD03469AB2BB8A1343BB82FCF7D2
S32D000125B878FD03469BB21B027B82FCF772FD03469AB27B8A13437B82BB8A1B11BB827B8A1B117B82FCF798FD1C
S32D000125E0FB68DB6BB3F1FF3F34D1FB681B6CB3F1FF3F2FD1BA8AFB68DA637A8AFB681A647B8AC3F57F630F33C6
S32D000126087B82BB8A184633F041FA49A3D3E9002333F0A6FA02460B461046194633F098FD0246BB681A607B8A27
S32D00012630184633F02FFA42A3D3E9002333F094FA02460B461046194633F086FD02467B681A605AE0FB68DA6BE1
S32D00012658BB8AD31A1946F86800F074F80346632B0CDCFB681A6C7B8AD31A1946F86800F069F80346632B01DCA8
S32D00012680012300E00023002B2FD0BA8AFB68DA637A8AFB681A647B8AC3F57F630F337B82BB8A184633F0F6F97E
S32D000126A823A3D3E9002333F05BFA02460B461046194633F04DFD0246BB681A607B8A184633F0E4F91CA3D3E968
S32D000126D0002333F049FA02460B461046194633F03BFD02467B681A600FE0BB68164A1A607B68154A1A60FB68F9
S32D000126F84FF0FF32DA63FB684FF0FF321A64002310E001230EE0BB680D4A1A607B680C4A1A60FB684FF0FF3216
S32D00012720DA63FB684FF0FF321A64002318461837BD4680BDAFF30080144001144001B43F1EE0011EE001AE3F42
S32D00012748000080BF80B483B000AF786039603B68002B02DA3B685B423B603B6818460C37BD4680BC704780B5A8
S32D0001277084B000AF786039600023FB60786800F0B4FAFB683A6813441B78002B12D07B6859697B689869FB6802
S32D000127983A6813441B780246786800F074FB786800F0B3FAFB680133FB60E6E700BF1037BD4680BD80B592B006
S32D000127C000AF786039604FF00001386833F0D4FF0346002B1FD0386833F0E2FF03467B64786C33F0C3FD0346B5
S32D000127E81946386833F008FD03461F49184633F00DFE0346184633F0CFFF03463B6407F10C003B6C7A6C1949EB
S32D0001281037F0CEFB22E03B6883F000433B60386833F0BEFF03467B64786C33F09FFD03461946386833F0E4FC1D
S32D0001283803460D49184633F0E9FD0346184633F0ABFF03463B6407F10C003B6C7A6C084937F0AAFB07F10C035A
S32D0001286019467868FFF783FF00BF4837BD4680BD00007A447C8405007084050080B584B000AFF860C7E9002315
S32D00012888D7E9000133F064FC03461946F868FFF791FF00BF1037BD4680BDFFFF80B483B000AF78600B46FB7061
S32D000128B04D4B1B684C4A23F0080313604B4B1B684A4A23F480231360484B1B68474A43F480331360454B1B68C6
S32D000128D8444A23F440731360414B1B68404A23F4435323F0300313603E4B1A68FB785B0203F400733B491343E8
S32D000129000B603A4B1A68FB785B101B0203F48073364913430B60344B1A68FB789B101B0103F010033049134301
